S021000052413850314475616C436F726550726F6A6563745F435055302E737265635A
S315020000000007002221450002414300022B4500025F
S315020000102B4500022B4500022B4500022B45000210
S31502000020000000000000000000000000C1170002EE
S315020000302B45000200000000D917000241180002F9
S31502000040AB3800022D390002813900023F3D000221
S315020000503B2B0002112D0002792E0002612F0002B5
S31502000060631E000235230002B52300029524000216
S30902000070EF1A000279
S31502000074083042000331130003310300003000004C
S315020000840430FF0002301C000630C3000E30450067
S315020000942E300800343018001F500000004332008E
S315020000A41836000012362900093752000C370300AD
S315020000B420384000213801003036360031360E0031
S315020000C43236E200333612002136E0000437A0004D
S315020000D403375A0015377800173701000B376000CB
S315020000E405371A00053902000639100001390A00DB
S315020000F43137120000360800013633002D30600015
S31502000104203652001B3720001C475000133A430086
S31502000114183A0000193AF800353613003636030049
S315020001243436400022360100014002000440020037
S3150200013405401A000150A3000335070000350000EC
S315020001440135FF00023500000A3500000B35200098
S315020001540F3A3000103A28001B3A30001E3A2600A5
S31502000164113A60001F3A1400183A0000193A7C004A
S31502000174063400008054010081540800825414009D
S3150200018483542800845451008554650086547100B2
S3150200019487547D0088548700895491008A549A00B2
S315020001A48B54AA008C54B8008D54CD008E54DD00B5
S315020001B48F54EA0090541D00805506008355400072
S315020001C484551000895510008A5500008B55F80095
S315020001D4005823000158140002580F0003580F0058
S315020001E4045812000558260006580C000758080041
S315020001F408580500095805000A5808000B580D004E
S315020002040C5808000D5803000E5800000F58000041
S315020002141058030011580900125807001358030016
S315020002241458000015580100165803001758080000
S3150200023418580D00195808001A5805001B580600CC
S315020002441C5808001D580E001E5829001F58170076
S31502000254205811002158110022581500235828004D
S3150200026424584600255826002658080027582600F2
S3150200027428586400295826002A5824002B5822009C
S315020002842C5824002D5824002E5806002F582200DC
S315020002943058400031584200325824003358260060
S315020002A4345824003558220036582200375826007E
S315020002B438584400395824003A5826003B58280036
S315020002C43C5842003D58CE000050A7002038460054
S315020002D4213800001438310015383100033804007F
S315020002E408380400093800000A3802000B3858009E
S315020002F40C46220037481000243802000150A3009D
S313020003043D50000041470000FFFFFF000101CF
S3150200031810B540F22C74A821C2F20024204606F039
S315020003283FFB03202061606147F26A3040F2D471D4
S31502000338C0F20020A061C2F20021E1614FF400611F
S3150200034821620021A1626162E16240F6D4722066EE
S315020003584FF0100E46F60C20C2F200226266C4F86E
S3150200036868E02167E1666167BFF35F8FC0F200202C
S315020003780F3000BF00BF00BF10F8011904F8011BB7
S315020003880FF007C0BFF35F8F10BDD4D4D4D4D4D432
S315020003982DE9F04381B014460D468046C7684FF0F2
S315020003A8000900BF00BF00BFD8F81000FA43B842E0
S315020003B806D91044D8F8081006E000BF00BF00BFEF
S315020003C8D8F8081010440844C91B884250EA3180FC
S315020003D82946A04250EA3486D8F804003844324600
S315020003E806F0E2FAF019D8F80810411AA4EB060446
S315020003F850EA1187B1443544BFF35F8FC8F80C70D1
S315020004080CB12FF02FC8484601B0BDE8F0832DE99C
S31502000418F04381B000EB400040F22C73C2F2002395
S31502000428144603EBC003894603F11805D86A022865
S3150200043812D0012808D000283ED1EE682869F14377
S31502000448B04234D9084435E0EE682969B1420BD97D
S31502000458F0430144A8680BE028464946224601B003
S31502000468BDE8F043FFF794BFF243A868114401447C
S31502000478A14251EA3484871B68683044BC4207D2D9
S315020004884946224606F090FABFF35F8F26440CE0EF
S3150200049849463A4606F088FAE61B686809EB0701F8
S315020004A8324606F081FABFF35F8FEE6025E0AA684E
S315020004B808441044A04201D200241EE0D5E90101F5
S315020004C88F1B3044BC4208D24946224606F06CFAD3
S315020004D8BFF35F8F06EB04080DE049463A4606F07D
S315020004E863FAA4EB0708686809EB0701424606F0B7
S315020004F85BFABFF35F8FC5F80C80204601B0BDE8F2
S31502000508F083F0B581B040F22C731446C2F2002390
S315020005180D4606461B78532B01D0FFF7F9FEEFF37B
S3150200052811874FF0200181F3118830462946224669
S31502000538FFF76DFF87F3118801B0F0BDD4D4D4D488
S315020005482DE9F04F9BB091460F46002406A9169155
S3150200055840211791002105901A90CDE9181100BF84
S3150200056817F8011B252907D0002900F06F8116A864
S3150200057800F07BF9E5E000BF4FF0000800BF00BFBE
S3150200058839782C2908DC23290ED02B2918D10420E6
S315020005980FE000BF00BF00BF2D2909D030290FD1B7
S315020005A8022006E000BF00BF082002E000BF00BF2D
S315020005B8012048EA00080137E2E700BF00BF00BF92
S315020005C8A1F13A0010F10A0F02D2002012E000BF90
S315020005D800200A4600BF00BF17F8011F00EB800083
S315020005E8A1F13A0302EB400013F10B0FA0F1300020
S315020005F80A46F1D82E290FD13A4612F8011F2A299E
S315020006080DD1D9F8001002370A1DC9F800200E6864
S3150200061801211DE000BF00BF0021002618E0A1F15C
S315020006283A0313F10A0F02D2002100260FE0002630
S3150200063812F8013F06EB8607A3F13A0601EB4701DA
S3150200064816F10B0FA1F130061946F1D8012117460A
S3150200065817F8012B02F0FB03682BF9D0632A0FDC8B
S31502000668252A2ED0582A24D0632A6AD1D9F800001E
S31502000678011DC9F80010017879E700BF00BF00BF65
S31502000688A2F17003082B1ED8DFE803F0055B5B6155
S315020006985B4E5B5B1300D9F800001022011DC9F8F6
S315020006A800100168082300200826CDE9006016A874
S315020006B845E0D9F800100A1DC9F800200968102279
S315020006C839E0252153E7642A3BD1D9F800104CF6C4
S315020006D8CD4C0A1DC9F80020D1F800E0CCF6CC4C66
S315020006E8CEF100017246BEF1000F48BF0A460A2A39
S315020006F803914FF0010107DBA2FB0C35632A01F1D6
S3150200070801014FEAD502F7D88E4256EA818B0028B4
S3150200071840D0BEF1000F5FEA5F9108F0040241EA99
S315020007289201A0EB010A37E0D9F800100A1DC9F8B0
S31502000738002009680A22CDE9000816A8334600F007
S31502000748B7F8199CB4F1FF3F3FF70AAF89E0D9F829
S315020007580000021DC9F80020006846F663720028E8
S31502000768C0F2002250EA12855FEA018800BF00BF84
S315020007782978002E5FEA18800029E2D00028E0D105
S3150200078816A8013500F071F8199C013EB4F1FF3F35
S31502000798EEDC66E04FF0000A5FEA88750CD55EB9B2
S315020007A8002CCED4BEF1000F29D45FEA4870CDF8EA
S315020007B810E02DD52B2125E05FEAC870F0D1BAF1F9
S315020007C8000FEDD0D345EBD20295CDF810E0AAF191
S315020007D8010500BF00BF00BF202116A800F045F89A
S315020007E8199C002C3DD4681EA84202D2AB45054688
S315020007F8F2D300F1010ADDF810E0029DD0E72D21BF
S315020008080398049016A800F030F8199C002C28D4F6
S31502000818002D05D40A22CDE900A816A804998DE769
S3150200082808F001003043F5D1BAF1000FF2D0AAF16F
S315020008380105554538BFD345ECD2302116A800F03C
S3150200084814F8199CAA46002CF1D50AE044B1189D61
S3150200085825B106A905982A46FFF753FE2C4400E05F
S31502000868002420461BB0BDE8F08F10B50446D0E937
S315020008780120431C934207D822681154A360E068FA
S3150200088862680130E0601846904218BF10BD2168C0
S315020008982069FFF736FEA168884202D10020A060CF
S315020008A810BD4FF0FF30E06010BDD4D4D4D4D4D4F8
S315020008B82DE9F04F81B015460E4691421F468146F4
S315020008C8DDF828B04FF0010007D3314600BF00BF5C
S315020008D8B1FBF5F10130A942FAD2874257EA808A7A
S315020008E8BBF1000F0B991BD011F0010018D1880734
S315020008F84FF0200048BF30202021002F50EA0188FF
S31502000908BBF1000F0CD0DA450AD248464146ABF194
S31502000918010BFFF7AAFFD9F80C00B0F1FF3FEFDC95
S31502000928D9F80C0000283CD4012400BF00BF00BF40
S31502000938022F01D3013F03E0B6FBF4F0A84201D32C
S315020009486C43F5E747F68C18C0F2002800BF00BFD3
S31502000958B6FBF4F7484618F80710FFF786FFD9F8EA
S315020009680C00002806D4B4FBF5F007FB1466A54272
S315020009780446EDD90B98C00718BFBBF1000F0AD180
S315020009880FE020214846FFF770FFD9F80C00A3466E
S31502000998B0F1FF3F05DDABF101045C4538BFDA452E
S315020009A8EFD301B0BDE8F08F80B582B04FF00001F9
S315020009B8019178B30078032809D001282AD140F694
S315020009C8E870C2F2002001680131016022E040F6B7
S315020009D8E47001ABC2F200204FF480620168013173
S315020009E8016041F29C10C2F20020016844F6FF4001
S315020009F8C0F2002005F033FF60B1019850B14EF6FF
S31502000A0804504FF08051CEF200000160BFF34F8FC1
S31502000A18BFF36F8F02B080BD10B544F200044FF4E5
S31502000A289611C6F63804204605F0BAFF4BF6FF7152
S31502000A3804F01F00C0F2120108440121BFF34F8FD0
S31502000A4801EB501E4EF66870CEF2000000BF00BFE2
S31502000A58046020340FF005C0BFF34F8FBFF36F8FCA
S31502000A68BFF35F8F41F2681047F6C831C2F2002021
S31502000A78C0F2002102F03DFB044678B941F2681043
S31502000A88C2F2002002F082FD38B1044641F2681033
S31502000A98C2F2002002F00AFD00E00024204610BD42
S31502000AA8034600284FF003003FD0012988BF70474C
S31502000AB870B54BF6FF7203F01F00C0F21202012551
S31502000AC8861844F20000C6F6380000F01F0405EB4B
S31502000AD8561EBFF34F8F224401264EF65C75CEF2A0
S31502000AE8000506EB52161A462A6020320FF005C098
S31502000AF84FF49612BFF34F8F01FB02041946BFF358
S31502000B086F8F204605F050FFBFF34F8F46F001E086
S31502000B18EC6020340FF005C0BFF34F8FBFF36F8F21
S31502000B28BFF35F8F0020BDE870407047B0B582B052
S31502000B3841F29C150446C2F200254FF480612868EA
S31502000B4804F0A8F828684FF4806101220023009473
S31502000B58002403F0EBFF400558BF1424204602B0D8
S31502000B68B0BDD4D4D4D4D4D480B540F6F470002120
S31502000B78C2F2002040F20002C6F600024BF6FF7CE3
S31502000B88016040F6F870C2F20020C0F2120C4CF274
S31502000B980003016040F6FC70C2F20020C6F612039A
S31502000BA803F01F03016002F01F0060440121BFF336
S31502000BB84F8F634401EB501E4EF67070CEF2000062
S31502000BC801EB531300BF00BF026020320FF005C0CD
S31502000BD848F200010122C6F62501BFF34F8F01F044
S31502000BE81F01BFF36F8F6144BFF34F8F43F001E0DC
S31502000BF802EB51114CF20002C6F6120200BF00BF08
S31502000C08026020320FF005C0BFF34F8FBFF36F8F1C
S31502000C18BFF34F8F41F001E048F20001C6F6250105
S31502000C28016020310FF005C0BFF34F8FBFF36F8FFE
S31502000C38BFF35F8F41F2541047F6A031C2F200208B
S31502000C48C0F20021BDE8804000F07EBF10B541F237
S31502000C5854100021C2F2002001F086F8044640B979
S31502000C6800F0F7F968B1044600F002FA282005F008
S31502000C7805F841F25410C2F2002001F00FF820469E
S31502000C8810BD0024FBE780B500F0F2F900B180BD83
S31502000C98282004F0F3FF41F25410C2F20020BDE806
S31502000CA8804000F0FBBFB0B580B1054600F051FEAA
S31502000CB840F6F470C2F20020046840F6F870C2F2F8
S31502000CC800200068286000F072FE00E0002420463A
S31502000CD8B0BD80B582B04FF000010191C8B301687A
S31502000CE8022912D0012934D1017A890624D5C0688D
S31502000CF858B140F6F4714FF40062C2F2002108605E
S31502000D0840F6F870C2F2002005E040F6FC704FF497
S31502000D188052C2F20020016801AB0131016041F242
S31502000D289C10C2F20020BFF35F8F016844F6FF40B1
S31502000D38C0F2002005F093FD019850B14EF604501A
S31502000D484FF08051CEF200000160BFF34F8FBFF320
S31502000D586F8F02B080BD70472DE9F04182B0861CC4
S31502000D684AF6AA274FF6FF740DF1070800218DF8F7
S31502000D78071000BF00BF00BF36F8020CB84213D0F6
S31502000D88A04218D0317800F0B3F936F8021CA0B99F
S31502000D980846414600F0E4F9C8B932789DF80730AA
S31502000DA893421FD105E000BF30784FF47A7103F001
S31502000DB880FA0436E0E700251DE00546327847F258
S31502000DC853502B46C0F2002000F019F813E00546EE
S31502000DD836F8021C47F207602A46C0F2002000F0E5
S31502000DE80EF808E036F8021C47F2D140C0F200209D
S31502000DF800F005F80125284602B0BDE8F08183B067
S31502000E0880B581B0844603A80EC003A800906A463E
S31502000E1800206146FFF794FB01B0BDE8804003B0AD
S31502000E287047D4D4F0B581B02DED048B47F21B5030
S31502000E38C0F20020FFF7E3FF0A204FF47A7103F0AD
S31502000E4838FA41F28C003C21C2F20020012201F05C
S31502000E58C9FC002840F0DF8041F2AC75EFF3108040
S31502000E68C2F20025012181F3108840F6145429683C
S31502000E78C4F2400419B90021217040212170296861
S31502000E884FF6D04601312960CFF6FF7680F31088F7
S31502000E9843F6FA770121CFF6FE77A0593840043097
S31502000EA8A051EFF3108081F31088296811B12968DF
S31502000EB801392960296819B9002121708021217018
S31502000EC880F3108814204FF47A7103F0F2F90121A5
S31502000ED8EFF3108081F31088296819B9002121706F
S31502000EE84021217029680131296080F31088012187
S31502000EF8A059384040F00500A051EFF3108081F365
S31502000F081088296811B1296801392960296819B92F
S31502000F18002121708021217080F3108814204FF45B
S31502000F287A7103F0C6F947F27570C0F20020FFF72E
S31502000F3866FF46F67550C0F20020FFF760FF40F2E2
S31502000F483400C2F20020FFF707FF002863D13220DF
S31502000F584FF47A7103F0ADF943F23500122100F02D
S31502000F68C7F8002857D143F236007B2100F0C0F8B3
S31502000F78002850D143F23700082100F0B9F80028BA
S31502000F8849D143F20810122100F0B2F8002842D1E2
S31502000F9841F200044DF60000C2F20024C0F2B85035
S31502000FA89FED1F0AB6EE008A2060B1EEC09A9FED49
S31502000FB81D0AB0EE481A09EE001A43F60C00BCEEFA
S31502000FC8C10A10EE105A290A00F092F818BBE9B2C3
S31502000FD843F60D0000F08CF8E8B939EE080A43F634
S31502000FE80E00BCEEC00A10EE105A290A00F080F86C
S31502000FF888B9E9B243F60F0000F07AF858B900F05A
S3150200100813F840B947F237602168C0F200203C2243
S31502001018FFF7F5FE0020BDEC048B01B0F0BD00BF62
S31502001028007C9249ABAAAA3F80B582B00DF10701AE
S3150200103844F6140000F094F848B99DF8070000F049
S315020010483F0144F614008DF8071000F051F802B07B
S3150200105880BD80B543F20800022100F049F800B1CC
S3150200106880BD44F202200021BDE8804000F040B86D
S3150200107844F202200F2100F03BB841F28C0047F6F9
S315020010882021C2F20020C0F2002101F021BBD4D4F3
S3150200109870B541F20405C2F200252978884210D0BB
S315020010A80446FF2600BF00BF287801280BD0013E60
S315020010B8300612D00A20012103F0FBF82878844270
S315020010C8F2D1002070BD46F694402146C0F20020B7
S315020010D800F096F84FF4967070BD2A7847F273308E
S315020010E8C0F20020214600F08BF8142070BDD4D43B
S315020010F880B582B08DF8071041F20401C2F20021D0
S31502001108020A8DF806000DF105008DF80520002269
S315020011180A7000F01F0102310122BFF34F8F02EB62
S31502001128511E4EF66871CEF2000100BF00BF00BF25
S31502001138086020300FF005C0BFF34F8FBFF36F8FE3
S3150200114841F28C000DF10501C2F2002003220023B0
S3150200115801F042FB10B90320FFF79AFF02B080BDE7
S31502001168B0B582B00C46002901464FF001003DD0C9
S315020011780DF1060241F2040502F01F02C2F2002531
S31502001188013200EB521E48BAADF80600002028705C
S31502001198BFF34F8F4EF668710DF10600CEF20001CD
S315020011A8086020300FF005C0BFF34F8FBFF36F8F73
S315020011B841F28C000DF10601C2F20020022201233F
S315020011C801F00AFB90B90320FFF762FF70B900200D
S315020011D8287041F28C000122C2F200200023214627
S315020011E801F0F4FA10B90220FFF752FF02B0B0BDBF
S315020011F828B141F204010079C2F200210870704751
S3150200120883B080B581B0844603A80EC003A80090B7
S315020012186A4600206146FFF793F901B0BDE88040AF
S3150200122803B07047D4D4D4D4012004F027FDFBE7D9
S3150200123882B047F2A770C0F2002000F0A6F847F283
S31502001248F010C0F2002000F0A0F8FFF716FF41F2F6
S315020012580804C2F200242060206870B147F2FF3009
S315020012682168C0F2002000F090F8206800B100BEA4
S315020012784FF47A7004F002FDFAE70A2004F0FEFC45
S3150200128846F68D30C0F2002000F07FF8FFF7CAFD5F
S315020012982060206888B146F611602168C0F20020F5
S315020012A800F073F8206818B100BE00BF00BF00BF87
S315020012B84FF47A7004F0E2FCFAE741F29C16022136
S315020012C8C2F20026306803F0CFFB47F67B00C0F275
S315020012D8002000F05AF830680121002201234FF05D
S315020012E8FF35009503F022FCC00700D100BEFFF7C8
S315020012F83BFC2060206880B147F2C8702168C0F2C2
S31502001308002000F042F8206810B100BE00BF00BFFE
S315020013184FF47A7004F0B2FCFAE7FFF797FC206004
S31502001328206870B147F273602168C0F2002000F0AD
S315020013382CF8206800B100BE4FF47A7004F09EFCC7
S31502001348FAE747F27740C0F2002000F01EF84FF0A5
S31502001358FF3400BF00BF00BF30684FF4805101223E
S315020013680023009403F0E2FBC004F5D547F2B1303E
S31502001378C0F2002000F009F8FFF785FC00BE00BFA6
S315020013884FF47A7004F07AFCFAE783B080B581B03C
S31502001398844603A80EC003A800906A460020614648
S315020013A8FFF7CEF801B0BDE8804003B07047D4D449
S315020013B884B000200390FFF72FFB00B100BE41F274
S315020013C89C170121C2F2002701220292386803F013
S315020013D84BFB41F2681540F6F07B41F20C080026F9
S315020013E84FF0FF340DF10C09C2F2002540F2EE3A35
S315020013F8C2F2002BC2F2002838684FF400610122BB
S315020014080023009403F092FB0005F5D54846FFF742
S315020014184AFC039908B92FF011C8B142ECD00299D7
S31502001428CEB23146FFF73CFB00B100BE44F20000E3
S315020014384FF49611C6F6380006FB010600BF00BF38
S315020014483220FFF773FB40B1142805D1D8F8000003
S315020014580130C8F80000F3E700BE002228463146EC
S3150200146802F0ABF8504503D040B100BEE8E700BF32
S31502001478DBF800000130CBF80000E1E740F6EC713A
S31502001488DDE90206C2F2002180F001000290086836
S3150200149801300860B0E7022818BF704780B541F2EC
S315020014A8781047F65471C2F20020C0F2002101F00A
S315020014B82DF80120BDE8804002F0CABF80B584B08D
S315020014C841F2142047F6BC13C2F2002041F2100C76
S315020014D845F6603EC0F2002301684FF4006201310E
S315020014E801600120009041F22D5046F61D21C0F2FE
S315020014F80020C0F20021C2F2002CC2F2002ECDE971
S3150200150801EC04F06CF941F27801C2F2002108609C
S3150200151808B104B080BD0020002104B0BDE88040B7
S3150200152800F099B810B5044600F09AF82046BDE8CE
S315020015381040FFF779BE80B584B041F2142047F611
S315020015484823C2F2002041F2CC0C47F6603EC0F2B4
S31502001558002301684FF4C062013101600320009044
S3150200156841F2A75046F6A951C0F20020C0F2002166
S31502001578C2F2002CC2F2002ECDE901EC04F02FF9DA
S3150200158841F23411C2F20021086008B104B080BDEC
S315020015980020002104B0BDE8804000F05CB810B518
S315020015A8044600F05DF82046BDE81040FFF740BE4D
S315020015B880B541F28010C2F2002003F022FA41F20D
S315020015C89C11C2F20021086000B180BD00200021F2
S315020015D8BDE8804000F03FB880B584B041F21420DF
S315020015E847F65043C2F2002041F2A01C49F2603E7F
S315020015F8C0F2002301684FF48062013101600320C2
S31502001608009041F2496047F2BD21C0F20020C0F2C3
S315020016180021C2F2002CC2F2002ECDE901EC04F040
S31502001628DEF841F20821C2F20021086008B104B0CE
S3150200163880BD0020002104B0BDE8804000F00BB850
S3150200164810B5044600F00CF82046BDE81040FFF736
S31502001658AFBEFFF7ADBF00BE7047D4D4D4D4D4D43E
S31502001668B0B541F20C244FF0FF31C2F200242068D3
S3150200167803F096FF012803D020680021FFF7EBFF4D
S3150200168841F21020C2F20020017801B1B0BD012159
S315020016980170FFF7DEFF41F21425C2F2002500BFF2
S315020016A8286801382860F1D020680021002200232A
S315020016B803F02EFC0128F3D020680021FFF7CBFFA8
S315020016C8EEE780B541F2102241F21420C2F200225E
S315020016D8C2F200200021117041F218220160C2F202
S315020016E800224FF48070012103F0F2FB41F20C2133
S315020016F8C2F20021086018B900200021FFF7ABFFEB
S31502001708FFF76AFFFFF717FFFFF7D8FE04F03AFB69
S31502001718002080BD41F2602C41F2C823C2F2002C9F
S31502001728C2F20023C0F800C00B6080201060704728
S3150200173841F2C84C41F23053C2F2002CC2F20023E5
S31502001748C0F800C00B6080201060704701688A6884
S3150200175802F00C0202328A600068416849075CBFDF
S3150200176841685FEAC16101D50020704741680906F0
S315020017785CBF41685FEAC151F6D44068C0F34010C5
S31502001788704701780131017040BF00207047B0B53B
S315020017980446407C012808BFB0BD204602252574B0
S315020017A8FFF7D4FF002818BF00256574E06ABDE874
S315020017B8B040FFF7E6BFD4D41EF0040F0CBFEFF318
S315020017C80880EFF3098001490847000067180002FC
S315020017D80F4B1968EFF309821EF0100F08BF22EDAE
S315020017E8108A22E9F04FEFF30B8342F8043D0A60B0
S315020017F84FF0100080F31188BFF34F8FBFF36F8F3E
S3150200180804F06EFA4FF0000080F3118800F002B877
S3150200181858580022074801680A6802CA81F30B88E9
S31502001828B2E8F04F1EF0100F08BFB2EC108A82F32E
S31502001838098870475858002210B51020EFF3118412
S3150200184880F3118804F020FB30B14EF604504FF0B5
S315020018588051CEF20000016084F3118810BD8069C0
S3150200186810F8020C022801D1FFF7D4BF042838BFAA
S31502001878704780B546F64D2047F2790246F6583348
S31502001888C0F20020C0F20022C0F200234FF47E719B
S3150200189802F00AFD283140F8481D41F6C9014FF009
S315020018A8807CC0F2002122F00102C1630264C0F802
S315020018B844C06FF00201C0E909137047D4D4D4D4E6
S315020018C800BE00BF00BF00BFFEE7D4D4D4D4D4D430
S315020018D84EF62250F021CEF20000017000F016F802
S315020018E84EF63470CEF20000016841F040410160C4
S315020018F862B6BFF36F8FEFF3148C2CF0040C8CF3E3
S315020019081488BFF36F8F02DF00BEFDE741F2F07065
S3150200191844F6D351C2F20020C1F262010068A0FB6C
S3150200192801014FF0FF3000EB91110020B0EB116F6F
S3150200193818BF70474EF21002F023CEF20002516031
S315020019484EF62351CEF200010B709060072010600C
S315020019587047EFF31180102181F3118841F230713B
S31502001968C2F200210A68002A02F101020A6018BFBF
S31502001978704741F23471C2F2002108604EF60450F3
S31502001988CEF200000068C00500D1704780B546F661
S315020019984D2046F6732246F68073C0F20020C0F246
S315020019A80022C0F2002340F2A44102F07DFC41F27B
S315020019B83070C2F20020016859B10139016018BFBE
S315020019C8704741F23470C2F20020006880F3118831
S315020019D8704780B546F64D2047F2E97246F6272348
S315020019E8C0F20020C0F20022C0F2002340F2AD414C
S315020019F802F05AFC80B598B34EF6902EC4F2010E48
S31502001A089EF800100A0722D04EF2FA324AF2025C17
S31502001A18C4F20102CFF6FF7C00201388A2F800C0A8
S31502001A288EF8000043F425401080BFF34F8F30BF75
S31502001A38BFF36F8F62B6BFF36F8F72B61088A2F8C4
S31502001A4800C08EF8001040F42540108080BDBFF318
S31502001A584F8F30BFBFF36F8F62B6BFF36F8F72B609
S31502001A6880BD80B572B603F0E1FF0120FFF7C2FF21
S31502001A7862B6BDE8804004F033B880B5EFF3038060
S31502001A88103840B2002806D44EF20041CEF20001C8
S31502001A98405C0F2817D94EF60C50CEF200000068AB
S31502001AA8400558BF80BD46F64D2047F2E03246F65D
S31502001AB84D43C0F20020C0F20022C0F2002340F2D9
S31502001AC8216102F0F1FB46F64D2047F2E03247F279
S31502001AD8A063C0F20020C0F20022C0F2002340F246
S31502001AE80F6102F0E1FBB0B582B04FF07041EFF33F
S31502001AF8038001EB006041F2B0728115C2F2002246
S31502001B0804165558A9680868FFF741FEE86868B1DF
S31502001B18286910B10168019100E001A869690160AC
S31502001B28E9688847286908B1019901604CF20030D2
S31502001B38C4F2000050F8241021F4803140F8241031
S31502001B4850F8240002B0B0BDF0B581B04160044639
S31502001B584E69EFF31087012080F3108843F20800DC
S31502001B680D46C4F22000016821F4003101600068C4
S31502001B781E20012102F09DFB47F2004187F31088DF
S31502001B88C4F234014FF6FE72CFF6BF72886820F0AF
S31502001B9802008860706810400860306908627069DF
S31502001BA84862F06A88653089C86070890861B089B8
S31502001BB84861F0898861308BC862F0690863306AC7
S31502001BC84863706A8863306B086670680A684008FA
S31502001BD860F341020A60706BC1F80003B06BC1F88A
S31502001BE80403F06BC1F80803306CC1F80C03706D7E
S31502001BF8C1F82802B06DC1F82C02F06DC1F83002A6
S31502001C08306EC1F83402706EC1F83802B06EC1F88F
S31502001C183C02F06EC1F84002306FC1F84402706FA0
S31502001C28C1F8480270680A68400E60F359620A6091
S31502001C3870680A68800B60F38F320A60F06CC1F82C
S31502001C489000306DC1F8A40070680A68800E60F3CF
S31502001C589A620A60706CC1F88000F06F0864B6F880
S31502001C68802006F178008A6400212161E968A16072
S31502001C782969E160214600F0B6F806F17A002146A4
S31502001C8800F0B1F8316807C91268904720B944F6DE
S31502001C984E11C5F25621216001B0F0BD70B547F26A
S31502001CA8004604464068C4F234064569306830681E
S31502001CB820F001003060B06820F00200B060706861
S31502001CC8C00708BF706D286881680068C9688847B8
S31502001CD8306820F08060306028688168006849684A
S31502001CE888470021216095F979204EF2801CCEF2B0
S31502001CF8000C012602F01F03520906FA03F34CF8F8
S31502001D08223041F2B073BFF34F8FBFF36F8F95F94D
S31502001D187920C2F2002343F8221095F97B20540950
S31502001D2802F01F0206FA02F24CF824200446BFF318
S31502001D384F8FBFF36F8F95F97B201E2043F8221031
S31502001D4843F20801C4F22001EFF3108586F31088E6
S31502001D580A6842F400320A600968012102F0A9FA07
S31502001D6885F31088204670BD4068406990F828209F
S31502001D78012A47F20042C4F2340202D111635163C6
S31502001D889163116841F4800111601168C1F38051B1
S31502001D981168C1F380511168C1F380511168C1F30A
S31502001DA880511168C1F380511168C1F380511168DD
S31502001DB8C1F380511168C1F380511168C1F3805192
S31502001DC81168C1F38051816CC2F88410116841F020
S31502001DD801011160916841F0020191600068816811
S31502001DE800688968084780B590F9012003784EF2A1
S31502001DF8001C002ACEF2000C4FEA031304D40CEBA3
S31502001E08020080F8003307E04EF6145002F00F0E77
S31502001E18CEF200000EF8003041F2B0700123C2F291
S31502001E28002040F822104CF20030C4F2000050F8AC
S31502001E38221021F4803140F8221050F8220050096D
S31502001E4802F01F02BFF35F8F0CEB800103FA02F266
S31502001E58C1F880214CF8202080BD012000F000B88E
S31502001E682DE9F0418AB04FF07042EFF3038102EB9D
S31502001E78016147F2044C41F2B0748B15C4F2340C7A
S31502001E88C2F20024091654F80380DCF80020DCF8B4
S31502001E9840308DE80D0098064FF0000003900FD5EC
S31502001EA8DCF80000C04310F0180F01D1002006E04C
S31502001EB8DCF80000C0F3C1400CEB8000C06A039056
S31502001EC843F08022D8F80C00049042F00100CCF8C6
S31502001ED840004CF20030C4F2000050F8212022F4EF
S31502001EE8803240F8212050F82100D8F810006946BF
S31502001EF858B103460DF1140C93E8F4008CE8F4008B
S31502001F08024691E8F800F8C200E00846D8F8081038
S31502001F188847D8F8100018B105A991E8EC00ECC07A
S31502001F280AB0BDE8F081D4D4F0B546F6004391F87C
S31502001F380CC0C4F234039A6C22F0010262444EF2D7
S31502001F48200CC4F2010C9A64DCF80020BCF80440A8
S31502001F58844644EA123E5FEA0E70C2F3033E04F078
S31502001F680F0009D441F2F072C2F20022126802FA94
S31502001F7800F020FA0EF01BE000F00704032505FA2C
S31502001F8804F40126170B082838BF06FA00F407F0EE
S31502001F98070041F2F077C2F2002705FA00F01204B0
S31502001FA83D6805FB04F258BF06FA0EF0B2FBF0F0E4
S31502001FB84DF683621F68C4F21B32A0FB02024FF081
S31502001FC8FF3000EB92403A0A62F31F201860186944
S31502001FD840F00100186100BFD869C007FCD0087B31
S31502001FE8012810D1086858600879DA6860F3040293
S31502001FF8DA60986820F00100986000BF00BF00BF51
S31502002008D869C005FCD5886802686FF3DF425A6250
S3150200201842689A628268DA62C2681A6302695A6315
S31502002028007D44F650129863C4F65052186A40F07E
S31502002038010018620020CCE90021F0BD46F60842EC
S31502002048C4F23402916921F001019161116841F0EB
S31502002058010111609368014623F001009060002097
S3150200206800220A607047D4D470B504464160EFF383
S315020020781086012080F3108843F20800C4F220007B
S315020020880D46016821F40031016000681E20012115
S3150200209802F00FF986F31088296807C91268904773
S315020020A8064600285AD147F21001C4F23401C8681C
S315020020B820F00100C86000BFC869C007FCD1686883
S315020020C80860A86888602869086368694863D5E96A
S315020020D80602C1E91402E868C1F87002E86A88666D
S315020020E8286B8867686BC1F888004FF0100E05F1F7
S315020020F8380001F1F80200BF50F8043B42F8103BE1
S315020021080FF007C0AA6FC1F8F821EA6FC1F87C225E
S3150200211800212161D5F88010A16005F12000D5F8CB
S315020021288410E160214600F0C7F805F12200214635
S3150200213800F0C2F805F12400214600F0BDF805F1C9
S315020021482600214600F0B8F805F12800214600F0DD
S31502002158B3F844F64310C4F650502060304670BDBA
S31502002168F0B581B0074640684EF2801290F9211008
S31502002178CEF200024D0901F01F03012101FA03F311
S3150200218842F82530BFF34F8FBFF36F8F90F9214086
S3150200219841F2B073C2F20023002543F8245090F9A5
S315020021A82340660904F01F0401FA04F442F82640A3
S315020021B8BFF34F8FBFF36F8F90F9236043F8265012
S315020021C890F92560740906F01F0601FA06F642F828
S315020021D82460BFF34F8FBFF36F8F90F9256043F8E2
S315020021E8265090F92760740906F01F0601FA06F6CA
S315020021F842F82460BFF34F8FBFF36F8F90F92760C1
S3150200220843F8265090F92960740906F01F06B14072
S3150200221842F82410BFF34F8FBFF36F8F90F929103E
S3150200222843F821500068816800684968884700B900
S315020022383D6001B0F0BD47F21C010020C4F2340132
S315020022480A6842F001020A60704747F21C00C4F2AB
S315020022583400816D890301D401207047016821F099
S3150200226801010160C16841F00101C16000207047A7
S3150200227847F28420C4F23400026812F47F4F07D072
S31502002288026942F001020261C068086000207047D4
S315020022980D20704747F27002C4F23402106810F437
S315020022A8003F4FF0010050EA009008700020516884
S315020022B841F400315160704780B590F901200378E6
S315020022C84EF2001C002ACEF2000C4FEA031304D485
S315020022D80CEB020080F8003307E04EF6145002F0C9
S315020022E80F0ECEF200000EF8003041F2B070012354
S315020022F8C2F2002040F822104CF20030C4F200006C
S3150200230850F8221021F4803140F8221050F82200A9
S31502002318500902F01F02BFF35F8F0CEB800103FA2C
S3150200232802F2C1F880214CF8202080BD70B588B031
S315020023384FF07041EFF3038001EB006041F2B07198
S315020023488015C2F20021EE460C584FF47F41ADF8D3
S31502002358001047F27001C4F234010A680192E36878
S31502002368039302F400324A604CF20031C4F20001CF
S31502002378425822F4803242504058206958B10346E6
S315020023880DF1100C93E866008CE8660001469EE89B
S315020023986C006CC100E07046A1688847206918B1D4
S315020023A804A991E86C006CC008B070BD2DE9F04331
S315020023B889B04FF07041EFF3038001EB006041F200
S315020023C8B07147F250028015C2F20021C4F23402FB
S315020023D80C58D2F80090116BD2F8408021F0807325
S315020023E8536328F0807353644CF20032C4F200023D
S315020023F8835823F4803383508058E06804905FEA58
S31502002408C9704FF001008DF804001CD020690291B2
S3150200241801A94FF000028DF8052058B103460DF1C7
S31502002428140C93E8E4008CE8E400024691E8E8001C
S31502002438E8C200E00846A1688847206918B105A9DC
S3150200244891E8CC00CCC05FEA89701CD520690121CD
S315020024588DF8051001A9CDF8088058B103460DF18B
S31502002468140C93E8E4008CE8E400024691E8E800DC
S31502002478E8C200E00846A1688847206918B105A99C
S3150200248891E8CC00CCC009B0BDE8F083F0B589B0BC
S315020024984FF07041EFF3038001EB006041F2B07137
S315020024A88015C2F200210F5847F25001C4F23401D6
S315020024B8096802218DF80410F96804914CF200317A
S315020024C8C4F20001425822F4803242504058FF209A
S315020024D88DF8050038690021029101A958B1034611
S315020024E80DF1140C93E874008CE87400024691E826
S315020024F8780078C200E00846B9688847386918B192
S3150200250805A991E8CC00CCC009B0F0BD80B545F26A
S315020025185422C5F24F020260084600F005F8002070
S3150200252880BDD4D4D4D4D4D470B5044600F060F8AF
S3150200253841F2AC7CEFF31081C2F2002C012080F349
S315020025481088DCF8000038B940F614500022C4F2AC
S315020025584000027040220270DCF800000130CCF81C
S31502002568000081F31088208828B340F6000E002167
S31502002578C4F2400E00BF00BF606800EBC10250F80B
S3150200258831309288D8034FEA1220D2B20BD50EEB1D
S31502002598801555F8226026F4803645F8226023F421
S315020025A8803645F822600EEB8010013140F8223061
S315020025B820888142E0D30120EFF3108180F310884E
S315020025C8DCF8000020B1DCF800000138CCF8000085
S315020025D8DCF8000038B940F614500022C4F2400074
S315020025E802708022027081F3108870BDD4D4D4D4CC
S315020025F82DE9F04F81B004460088002865D04EF6D2
S315020026084C4B0025C4F2010B4FF0010A00BF00BF74
S3150200261847F69C7642F240080027C0F20026C4F22A
S31502002628200800BF00BF00BF606836F8021B00EB37
S31502002638C50082888A423FD100689BF8001000F0E4
S31502002648B8500AFA07F9B0F1807F09EA010017D1F2
S3150200265858B9012001F0D3FE9BF8000040EA0900B0
S315020026688BF80000012001F0A3FE98F9000000286B
S3150200267822D498F8000040F0800017E000BF00BF9F
S3150200268858B1012001F0BBFE9BF8000020EA0900C0
S315020026988BF80000012001F08BFE98F90000B0F1DA
S315020026A8FF3F09DC98F8000000F07F0088F8000078
S315020026B8C820012101F0FDFD013708F10208032FA8
S315020026C8B2D1208801358542A2D301B0BDE8F08F88
S315020026D8F0B581B00C4609784EF200020546C4F2FE
S315020026E8250243F2040702EB012028612C60C4F29A
S315020026F82007A0686860207B2872E0696863206A00
S31502002708E8630020A863C5E90500C5E9070085F85E
S31502002718290085F82A0085F82B0085F82C00012067
S31502002728EFF3108680F310882178C1F109018840F9
S31502002738396821EA0000386038681E20012101F054
S31502002748B8FD86F310882846214600F051F8A0699C
S3150200275858B141684FF4002209680A60D0E90112AB
S31502002768006812689047064698B9606928B34168B6
S315020027784FF0006209680A60D0E90112006812681F
S315020027889047D0B10646A06918B181680068096AFF
S3150200279888470120EFF3108580F3108821783A687C
S315020027A8C1F10901884001211043386038681E20AA
S315020027B801F07FFD85F3108805E044F643100026F4
S315020027C8C5F24920E860304601B0F0BD9C460123B7
S315020027D880F82AC000F004B99C46002380F82AC073
S315020027E800F0FEB80346002059601A727047D4D426
S315020027F8F0B5026900231370402302691370026957
S3150200280813785B06FCD5C023137002680369082592
S315020028184EF6185C526ACEF2000C127942F0E002C9
S315020028281A7402680369526AD27842F0E0025A744C
S3150200283802680369526A927862F306159D70026805
S315020028480569526A13785278012B5FEA1F9343EAA5
S31502002858420242F00402EA70026844F24025C0F2DB
S315020028680F0503695268AA424FF0770208BF6FF054
S3150200287808025A71002302699371B3230269D3715C
S315020028884EF2001291F911404B7BCEF20002002C57
S315020028984FEA031303D4151985F8003304E004F04C
S315020028A80F05654405F8043C41F2B07E4CF200334C
S315020028B8C2F2002EC4F2000301274EF8240053F890
S315020028C8245025F4803543F8245053F824506509DA
S315020028D804F01F04BFF35F8F02EB850607FA04F4C0
S315020028E8C6F8804142F8254091F90F404D7B002CED
S315020028F84FEA051503D4161986F8005304E004F0C6
S315020029080F06664406F8045C4EF8240053F8245071
S3150200291825F4803543F8245053F82450650904F009
S315020029281F04BFF35F8F02EB850607FA04F4C6F8A5
S31502002938804142F8254091F910404D7B002C4FEA20
S31502002948051503D4161986F8005304E004F00F0699
S31502002958664406F8045C4EF8240053F8245025F41D
S31502002968803543F8245053F82450650904F01F04AF
S31502002978BFF35F8F02EB850607FA04F4C6F88041B7
S3150200298842F8254091F90E40497B002C4FEA011185
S3150200299803D4171987F8001305E004F00F0505EBB1
S315020029A80C0707F8041C4EF8240004F01F0753F816
S315020029B82410012621F4803143F8241053F82410F8
S315020029C8610906FA07F7BFF35F8F02EB8103C3F8C3
S315020029D8807142F821709F2100690170F0BDD4D43C
S315020029E890F808C0C0E90512BCF1010F09D190F8A8
S315020029F804C04FF48071A0F8251043EA4C0180F810
S31502002A08241010B581B04EF2200180F82930C4F2A4
S31502002A18010109680091009901F00F210091DDF882
S31502002A2800E0DDF800C001690B7C90F82C40B4B9CF
S31502002A38CEF30322A2EB1C6203FA02F2042A09D39A
S31502002A48920800BF00BF00BF91F90130002B03D5E1
S31502002A58013AF9D1082169E00022CA718269002186
S31502002A68C0E9072190F8262080F8281080F8272048
S31502002A7880F82B1080F82D1080F82E1080F82F1071
S31502002A8880F830100168496A0A784B7891F805C0CF
S31502002A988C79012A5FEA1F9242EA4302036942EAF3
S31502002AA80C1242EAC41242F00402DA70026913797D
S31502002AB843F0100313710269137903F0F7031371D4
S31502002AC80269137903F0EF0313710269C97913795D
S31502002AD803F07F0343EAC111117101694A7942F091
S31502002AE801024A71016891F90F1000290BD401F00D
S31502002AF81F02012303FA02F24EF200134909CEF22B
S31502002B08000343F8212001694A7A02F0F3024A7265
S31502002B180169BF22CA7190F82C1019B1002180F8F8
S31502002B282C1003E00069022141700021084601B019
S31502002B3810BD10B582B04FF07041EFF3038001EB80
S31502002B4800604CF200328015C4F20002835823F466
S31502002B58803383508058EFF3038001EB006041F223
S31502002B68B0718015C2F200210C5894F82D0038B1C4
S31502002B7894F82E0001284DD1002084F82E0081E019
S31502002B88A069022804D82069017941F0400101713F
S31502002B98E06901280ED12069017941F0100101711D
S31502002BA82069017941F0080101712069017901F072
S31502002BB8EF01017120688269D2B1216994F829303E
S31502002BC8012B15D1A369042B12D3D2F808C0033BF3
S31502002BD813311068DCF808C062699BB2E0472068C6
S31502002BE8A2690321033AC4E90712012184F82E10C7
S31502002BF8406AC079012803D10521204600F048FA27
S31502002C082069C07C8DF807009DF80700012084F82A
S31502002C182D0037E0E069A8B32168496AC979012914
S31502002C2804D10521204600F033FAE06901282BD0A9
S31502002C38022806D0032813D12069017941F0400100
S31502002C480DE02069017941F01001017120690179CD
S31502002C5841F0080101712069017901F0EF01017162
S31502002C68D4E90401C07C226A8854D4E907010138F0
S31502002C7801F10101C4E9070104D12069017901F0D2
S31502002C88BF01017102B010BD94F82A00012831D1A2
S31502002C9820684EF28013CEF2000390F90F00420923
S31502002CA800F01F01012000FA01F143F82210BFF3D8
S31502002CB84F8FBFF36F8F2169CA7942F08002CA71BA
S31502002CC821690A7942F010020A7121690A7902F029
S31502002CD8F7020A7121690A7902F0EF020A7121697B
S31502002CE804224A7021694A7902F0FE024A7184F87E
S31502002CF82C00B5E72069417A01F0F7014172206993
S31502002D0808214170ACE7D4D4B0B54FF07041EFF367
S31502002D18038001EB00604CF200358015C4F2000511
S31502002D28425922F4803242514059EFF3038001EBB3
S31502002D38006041F2B0718015C2F200210C5894F875
S31502002D482700B0B394F82610032907D194F828105F
S31502002D58022903D194F83010002952D094F824504D
S31502002D680128206919D121684969B1B194F8292045
S31502002D789AB9A2698AB1D1F808C0A38B00F11202E6
S31502002D880868DCF808C06169E04720690021A26981
S31502002D98C4E90712012184F82F10857494F82800D3
S31502002DA894F82710013084F82800481E84F8270072
S31502002DB8B0BD94F8290020BB2068406AC079012872
S31502002DC808D194F82B0028B9206A18B105212046A3
S31502002DD800F05EF994F82F00012804D1002084F847
S31502002DE82F00E0690CE0E06960B1D4E90401226AC7
S31502002DF8895C8174D4E90710421C481EC4E907029B
S31502002E0800B1B0BD2069C17901F07F01C1712069A5
S31502002E186FF0BE0100BF00BF90F90720B2F1FF3F75
S31502002E2803DC002901F10101F6D1206890F91000AE
S31502002E3855F8201021F4803145F8201055F8200065
S31502002E48206890F9100000280BD44EF2802300F077
S31502002E581F014009CEF20003012202FA01F143F8EA
S31502002E6820102069C17941F04001C171B0BDD4D4A6
S31502002E7810B54FF07041EFF3038001EB006041F2A9
S31502002E88B0718015C2F200210C582068406AC079D8
S31502002E98012803D10521204600F0FAF894F8290002
S31502002EA8012806D194F82700012802D194F83000A7
S31502002EB880B3E06970BB94F82A00012822D1206801
S31502002EC84EF28013CEF20003012290F90F0000F0B1
S31502002ED81F01400902FA01F143F82010BFF34F8F90
S31502002EE8BFF36F8F2069C17941F08001C1712069F2
S31502002EF8042141702069417901F0FE01417184F88B
S31502002F082C2007E02069417A01F0F7014172206915
S31502002F18082141702069C17901F0BF01C171206998
S31502002F286FF0BE0100BF00BFC279520603D5002961
S31502002F3801F10101F8D14FF07041EFF3038001EB83
S31502002F4800604CF200318015C4F20001425822F4A6
S31502002F5880324250405810BDB0B54FF07041EFF381
S31502002F68038001EB006041F2B0718015C2F20021C4
S31502002F780C5821694A7A4B7A02F01F0002F00302C2
S31502002F880F2803F0E0034B7201D83AB923E021690E
S31502002F984B785B0658BF42F00102CAB1012084F899
S31502002FA82B0020690025C57120462168FFF720FC01
S31502002FB894F82600A16984F828002069C4E9075113
S31502002FC8B32184F82C5084F82A50C17101214BE0B0
S31502002FD84A78520611D4010706D494F82C20012AFD
S31502002FE831D110F004022ED0E06910B994F82B0002
S31502002FF890B3002919D4012035E0012084F82B006A
S315020030080820487020682369406A417902788079E5
S3150200301842EA011141EAC01040F00200D870206964
S31502003028417941F00101417121E00020A169C4E919
S31502003038070194F8261084F8281084F82C0084F8DE
S315020030482A0001200CE0400711D52068406AC079A1
S3150200305801280CD1042107E094F8290080F0030026
S315020030682169B322CA71C1B2204600F011F84FF0A5
S315020030787041EFF3038001EB00604CF200318015DA
S31502003088C4F20001425822F4803242504058B0BD80
S31502003098B0B582B0856B044625B1D5E90002CDE903
S315020030A8000200E06D46E06B2860297120684169DC
S315020030B839B194F8292022B98A68086811698847BB
S315020030C82068806938B194F82910012903D18168EA
S315020030D8006809698847616B28468847A06B18B15A
S315020030E8DDE90012C0E90012002084F82B0002B0C4
S315020030F8B0BD2DE9F047814600260670EFF310842D
S31502003108012080F3108843F208000D46C4F220001D
S3150200311843F2044843F2000AC4F234080168C4F2CE
S31502003128340A21F01001016000681E20012101F015
S31502003138C0F884F31088DAF8000040F48030CAF840
S315020031480000D5F8840095F83C10027940790329E5
S315020031584FF0400108BF4FF48251002A00F03F00A9
S3150200316808BF01F580710844C8F84C0095F840007C
S31502003178D5F88410002818BF4FF4BC70CAF8E403C7
S31502003188C8F8006091F9006091F9012091F90200EE
S31502003198711C47F69C11D3B2C0F2002113D095F8E0
S315020031A830402CB9D8F8184044F01004C8F8184032
S315020031B851F82660346844F002043460EE8D6FF3E9
S315020031C8DF26C8F81460FF2BC3B211D095F83A600F
S315020031D82EB9D8F8086046F01006C8F8086051F803
S315020031E82220166816602A8F6FF3DF22C8F8042099
S315020031F8FF2B1FD095F83F2012B90122C8F82420C8
S3150200320851F82000016841F007010160A88D698D17
S315020032186FF3DF206FF3DF2141EA0040C8F81C0094
S31502003228E88EA98E6FF3DF206FF3DF2141EA0040B3
S31502003238C8F80C00688E298D41F23C736FF3DF20C3
S31502003248C2F200236FF3DF2141EA0040CAF8040004
S315020032584FF00110CAF80800A88D698D01306FF386
S31502003268DF216FF3DF2041EA0040CAF81000E88E3A
S31502003278A98E01306FF3DF216FF3DF2041EA0040A8
S31502003288CAF80C0095F8450095F8461095F84420BA
S31502003298000240EA014041F238711044CAF81400AB
S315020032A8C2F20021A88D6A8D088041F23A71C2F2F3
S315020032B80021E88E1A800022088041F23E71C2F28D
S315020032C80021A88E088005F15C01284600F09BF9CA
S315020032D805F1140005F16801012200F094F995F848
S315020032E83C0047F6AA76C0F2002647F6AE74C0F24C
S315020032F8002495F85830375C95F83D2095F83E102D
S31502003308265C012B4FEA074316D1D5F88440A779E4
S31502003318022F0FD1E77994F808C094F809E0A47A45
S315020033283F0347EA0C2747EA0E1727433B4343F472
S31502003338001301E043F480133703012A08BF07F19B
S315020033488057012948F2800108BF07F180770328D0
S315020033584FF4007008BF07F50077CAF8C473CAF8B5
S31502003368D433CAF8C8034FF00220C0F28001CAF863
S31502003378CC03CAF8D01341F24072E86FC9F80400C8
S31502003388D5F88000C9E90205E88EA98EC2F20022A4
S315020033980844C2F800900130DAF8501241F2B072CD
S315020033A860F30A01CAF850120620C8F83C00072042
S315020033B8C8F84000D9F80C304EF200104CF2003131
S315020033C8CEF2000093F97770C4F20001C2F200222D
S315020033D8002F1FD493F87430C61901251B0186F8ED
S315020033E8003342F8279051F8273023F4803341F806
S315020033F8273051F827307B0907F01F07BFF35F8F85
S3150200340800EB830605FA07F7C6F8807140F82370C1
S31502003418D9F80C3093F97870002F1FD493F87530C9
S31502003428C61901251B0186F8003342F8279051F880
S31502003438273023F4803341F8273051F827307B09A7
S3150200344807F01F07BFF35F8F00EB830605FA07F73E
S31502003458C6F8807140F82370D9F80C3093F9797060
S31502003468002F1DD493F87630C6191B0186F800334F
S3150200347842F8279007F01F0351F8272022F48032DA
S3150200348841F8272051F8271079090127BFF35F8FE2
S3150200349800EB810207FA03F3C2F8803140F82130C3
S315020034A80020012189F80010BDE8F08770B543F2C3
S315020034B800060446C4F234063168C90702D020461B
S315020034C800F0D0F9B069C0055CD4E1684EF280100C
S315020034D8CEF2000091F97720002A0CD4510902F0A5
S315020034E81F02012303FA02F240F82120BFF34F8F8D
S315020034F8BFF36F8FE16891F97820002A0CD451093D
S3150200350802F01F02012303FA02F240F82120BFF358
S315020035184F8FBFF36F8FE16891F9791000290BD4A9
S315020035284A0901F01F01012303FA01F140F82210AA
S31502003538BFF34F8FBFF36F8F43F244400025C4F2A7
S315020035483400C6F840540560306820F00100306047
S31502003558306820F480303060EFF31086012080F363
S31502003568108843F20800C4F22000016841F01001F5
S31502003578016000681E20012100F09BFE86F3108878
S31502003588257001E040F2EE35284670BD43F200028E
S31502003598C4F23402116841F480711160116841F075
S315020035A801011160D2F84034014643F00100C2F825
S315020035B84004002002220A70704743F20003C4F254
S315020035C8340303EB0220D0F80021D20718D11A6877
S315020035D8D20515D400F58070012200295FEA0F9CF6
S315020035E818BF0322036A23F002031A430262C0F8D1
S315020035F804C0C160016841F0010101600020704702
S3150200360840F2EE3070470368002B43F20013C4F20F
S31502003618340332D02DE9F04F85B0077B47F6A27600
S3150200362847F6AC1CC0F20026C0F2002C03EB0229B6
S31502003638F65D02923CF8172041F2387E01928268C2
S3150200364800923707C9F81C7041F23C77C2F200278C
S31502003658067B0D8888463C8882682FB23CF816306D
S31502003668C2F2002EA7420FD9B7F1FF3F3CDD01682F
S3150200367800274FF0000A049711E003EB022001210C
S31502003688016200214160704786881FFA87FAA4EB17
S315020036980A070168B74257EAB68700260496BCB2FB
S315020036A8867BB8F802B004FB03F5CDF80C80012E30
S315020036B80FFA8BF84FEAD50C02D1C6880CFB06FC2A
S315020036C841F23E76C2F200263688464505D2B8F160
S315020036D8FF3F17DD4FF0000E1EE0C288A6EB080674
S315020036E8964256EA328E19E085883D44012DBEDBA4
S315020036F8083E16F1030F00F29480DE084024B4FB5C
S31502003708F6F68FE0C78807EB080EBEF1010FE1DB7C
S315020037185A43D20802FB18114FF0000BC9F80C10D5
S3150200372841F23873827B0CF13F06C2F200230399F9
S31502003738012A049A42EA040709D1028A0025C9F82D
S3150200374810501FFA8EF5008A964668430CE0DDE9AA
S3150200375800526A43407BD208002852EA02B00004AB
S31502003768C9F810001FFA8EF0AEF101024FF0FF35CC
S315020037786FF3DF2205EB9616C6EA0242C9F818204D
S315020037881A886FF3DF273C466FF3DF20524462F351
S315020037981A44C9F828401A88524462F31A4741F271
S315020037A83A72C2F20022C9F8307012885A4462F399
S315020037B81A40C9F82400C9F82C00087A28B1012849
S315020037C805D1487A0021000407E0032018E0487A68
S315020037D84FF47F01000400F18070029AC9F83400A0
S315020037E841F24C70C9F83810C2F2002041F2447115
S315020037F8C2F200210068023041F8220041F20300B9
S31502003808C9F820000120C9F804000021C9F850109F
S3150200381840F2D021C2F200210870487005B0BDE816
S31502003828F08F01267C42BEF900E0B4FBF6FC764531
S315020038380CFB164405EB040C03FB07F5C4F1000464
S315020038485CEACC87C5F100061FFA84FA04684FF0D1
S31502003858000504EBD606C8BF4FF0000A049526F009
S315020038683F011CE743F20001C4F23401D1F80021FA
S31502003878D20708D1D1F80022D20704BFD1F8C02353
S315020038885FEAC27202D040F2EE3070470A68D20589
S31502003898F9D40A6822F001020A60012101700020A7
S315020038A8704741F2407041F24C71C2F20020C2F2F6
S315020038B8002100680A6801320A60096831B941F2D2
S315020038C844710022C2F20021C1E9002280B582B009
S315020038D840F2D0210122C2F200210A704A704168E0
S315020038E831B180680190684603228DF80020884726
S315020038F843F24840C4F23400016841F00101016014
S315020039084FF07041EFF3038001EB00604CF2003197
S315020039188015C4F20001425822F4803242504058BF
S3150200392802B080BD80B582B041F24070C2F200207A
S315020039380068416831B180680190684601228DF8B5
S315020039480020884743F24840C4F23400016841F037
S31502003958020101604FF07041EFF3038001EB006052
S315020039684CF200318015C4F20001425822F480322A
S315020039784250405802B080BD80B582B041F24070D4
S31502003988C2F200200068416831B180680190684639
S3150200399802228DF80020884743F24840C4F23400D8
S315020039A8016841F0040101604FF07041EFF30380B2
S315020039B801EB00604CF200318015C4F20001425856
S315020039C822F480324250405802B080BDD4D4D4D4B6
S315020039D8F0B581B041F250720D46C2F20022074696
S315020039E81378002B37D101201070EFF3108680F37D
S315020039F8108843F20000C4F22000016821F4800115
S31502003A08016000681E20012100F053FC86F310882D
S31502003A1840F20006C2F200263421304602F0C0FF08
S31502003A28BFF34F8F4FF0020E4EF66870CEF20000CB
S31502003A38314600BF00BF00BF016020310FF005C04C
S31502003A48BFF34F8F4AF60C400121BFF36F8FC4F2C2
S31502003A58000086600170686890F90000002808D4A2
S31502003A6840F20001C2F2002151F8201019B10820D3
S31502003A7815E00B2013E03871296831B1686840688F
S31502003A8818B190E85C005CC1296811B1384600F0AB
S31502003A981BF944F20030C4F254403860002001B0E9
S31502003AA8F0BDD4D4D4D4D4D4B0B5044690F9040025
S31502003AB84CF200354FF6FF73C4F20005CFF6FE63EB
S31502003AC855F820201A4045F8202055F820004AF6D5
S31502003AD80E4294F90400C4F2000240F4004000BF0A
S31502003AE813889842FCD0204600F0EEF8BFF34F8FB9
S31502003AF894F90410002055F8212042F0807245F806
S31502003B082120B0BDD4D4D4D410B582B0019100928C
S31502003B1890F9041040F200024CF2003CC2F2002274
S31502003B28C4F2000C4FF6FF7452F821E0CFF6FE6499
S31502003B385CF8212022404CF821205CF821104AF634
S31502003B480E4190F90420C4F2000142F4004200BF7B
S31502003B580C88A242FCD008228A70019A12B1019AF4
S31502003B68CEF80420009A12B1009ACEF80820DEF8A0
S31502003B780020B2F1404F02DAAEF80C3005E000241C
S31502003B88B4EB927F08BFAEF80E3018228A70BFF3E4
S31502003B984F8F90F9041000205CF8212042F08072C1
S31502003BA84CF8212002B010BDBFF34F8F90F90410D4
S31502003BB84CF20032C4F20002002052F8213043F0DF
S31502003BC8807342F82130704790F904004CF20031B4
S31502003BD8C4F200014FF6FF73CFF6FE6351F82020B8
S31502003BE81A4041F8202051F820000020704706208C
S31502003BF870470620704790F9040040F20002C2F2AC
S31502003C08002252F820000022C1E900220268B2F11D
S31502003C18804F05D24FF480328A60C089C8600EE0B0
S31502003C284FF480728A60C289D2B2CA600268B2F15F
S31502003C38404F04DA4FF480320A60808948600020D7
S31502003C487047D4D4D4D4D4D480B5864690F9040027
S31502003C584CF2003C4FF6FF72C4F2000CCFF6FE623D
S31502003C685CF820301A404CF820205CF820204AF6EE
S31502003C780E439EF90420C4F2000342F4004200BF38
S31502003C8819888A42FCD040F20001C2F200210022C1
S31502003C984EF6687341F82020CEF200039EF904001E
S31502003CA8BFF34F8F01EB80001860BFF34F8FBFF34E
S31502003CB86F8F0020CEF8002080BD062070470620B0
S31502003CC87047D4D4D4D4D4D480B501F10E0200BF3F
S31502003CD852F80EECBEF1804F06D3B2F800C05FFA76
S31502003CE88CF343EA0C2313801EF4400F02F11002F0
S31502003CF8EED14AF6104C0823C4F2000C40F2000238
S31502003D08C2F200228CF8003090F9043042F82310EF
S31502003D184EF6687190F90400CEF20001BFF34F8F98
S31502003D2802EB80000860BFF34F8FBFF36F8F182036
S31502003D388CF8000080BD10B582B044F200004FF046
S31502003D487042C4F2440000210191EFF30381036833
S31502003D5802EB01619B064FEA21644FF02E02C0F87E
S31502003D68C02026D541F2B071C2F2002151F82410C2
S31502003D784A684AB10A68136833B11268C0F8C8209B
S31502003D8808680430086014E041F2547001A9C2F2CE
S31502003D980020006801F09DFA019850B14EF60450D1
S31502003DA84FF08051CEF200000160BFF34F8FBFF390
S31502003DB86F8F4CF20030C4F2000050F8241021F440
S31502003DC8803140F8241050F8240002B010BDD4D433
S31502003DD84EF22401C4F201018878098801F00F0223
S31502003DE8A2F1080103293BD8DFE801F0022C101ED4
S31502003DF840F20071C2F2002151F820004AF6AB21C6
S31502003E08CAF6AA21A0FB0101480830E040F2007177
S31502003E18C2F2002151F820004AF6AB21CAF6AA21BD
S31502003E28A0FB0101C80822E040F20071C2F200219B
S31502003E3851F820004AF6AB21CAF6AA21A0FB0101D5
S31502003E48080914E040F20071C2F2002151F820007C
S31502003E584AF6AB21CAF6AA21A0FB0101880806E0A8
S31502003E6840F20071C2F2002151F82000D04041F21E
S31502003E78F071C2F2002108607047D4D4D4D4D4D4E5
S31502003E882DE9F041DAA04EF2FA38C4F201084AF2F4
S31502003E980151CFF6FF7190ED001F40F2007002311A
S31502003EA8A8F80010C2F20020D5A14EF6014680ED10
S31502003EB8001F4EF600474EF2140591ED001F48F218
S31502003EC8004140F6000280ED041F2030C1F2D7718E
S31502003ED843F60003C4F20106C4F20107C4F201055F
S31502003EE8C2F6AF72C1F69C430EC0FFF771FF4FF6DA
S31502003EF850600A21CFF6FF703954092085F88E00E2
S31502003F08387818B93078800700F06C81387850B95B
S31502003F1801203870C820012100F0CBF900BF00BF8C
S31502003F2838780128FCD10020307038704AF20156E0
S31502003F38002085F82200A87795F828000007FBD507
S31502003F4842F602314EF61450C0F20101C5F8B41019
S31502003F5840F223416987002285F836204FF602117E
S31502003F68C5F8981040F251412987CEF200004EF268
S31502003F780001BFF34F8FBFF36F8F0368CEF20101C3
S31502003F8823F400330360C0F83C22BFF34F8FBFF31C
S31502003F986F8F0A6822F440520A60BFF34F8FBFF34D
S31502003FA86F8F2A7802F0F80201322A7000BF00BF2A
S31502003FB82A78D206FCD40A6842F440520A60BFF351
S31502003FC84F8FBFF36F8F0168890312D4BFF34F8FE8
S31502003FD8BFF36F8F0021C0F83C12BFF34F8FBFF3B8
S31502003FE86F8F016841F400310160BFF34F8FBFF351
S31502003FF86F8F0020A87500BF95F828008006FBD5AC
S315020040084CF200070020C4F2130738703878387863
S3150200401838787868FA2807D0FA20C1F6006000BF17
S3150200402878607968FA29FBD1B8687D2808D07D209E
S31502004038CEF2001000BF00BFB860B9687D29FBD177
S3150200404843F23240C3F22320E86042F2201028826B
S315020040580520A874FFF7BCFE1E200121012400F0EA
S3150200406828F978686FF39F20652828BF3C70FFF708
S31502004078AFFE42F200004FF42541C4F2000006806A
S31502004088BFF35F8F0472BFF35F8F018085F83F40ED
S31502004098002085F82A00802085F82A0095F8620013
S315020040A840F0400085F8620095F96200B0F1FF3FE2
S315020040B8FADC032085F85A00CA2085F8620095F8CA
S315020040C8620000F0BF0085F8620000BF00BF00BFB3
S315020040D895F962000028FBD495F8410040F04000AB
S315020040E885F8410000BF00BF95F94100B0F1FF3FD6
S315020040F8FADC022085F84000CA2085F8410095F8C6
S31502004108410000F0BF0085F8410000BF00BF00BFB4
S3150200411895F941000028FBD495F8430040F0400089
S3150200412885F8430000BF00BF95F94300B0F1FF3F91
S31502004138FADC002085F84200C72085F8430095F886
S31502004148430000F0BF0085F8430000BF00BF00BF70
S3150200415895F943000028FBD495F8490040F0400041
S3150200416885F8490000BF00BF95F94900B0F1FF3F45
S31502004178FADC012085F84800C62085F8490095F83A
S31502004188490000F0BF0085F8490000BF00BF00BF24
S3150200419895F949000028FBD495F84B0040F04000F9
S315020041A885F84B0000BF00BF95F94B00B0F1FF3F01
S315020041B8FADC012085F84A00CA2085F84B0095F8F2
S315020041C84B0000F0BF0085F84B0000BF00BF00BFE0
S315020041D895F94B000028FBD44FF42540A8F80000B7
S315020041E8BDE8F0814FF47A7000F012F89EE600BF3F
S315020041F8006CDC0200127A000080000000366E01B4
S315020042080080000000CA9A3B0046C3235543DE13CA
S315020042187047D4D4D4D4D4D4B0B542F22404C82036
S31502004228C4F2200401210025257100F042F8257008
S31502004238207808B12FF005C0207840F002002070DF
S3150200424820788007FCD4002004F8020C00BF00BFC7
S3150200425814F8020C08B12FF005C84FF0030E00201F
S3150200426804F11C0100BF00BF11F8102002F07F0202
S3150200427801F8102000BF00BF11F91020002AFBD454
S3150200428801300FF00FC8012000F0B9F84EF64C4184
S315020042980120C4F2010100220A70BDE8B04000F014
S315020042A887B87047D4D4D4D400BE00BF00BF00BFBD
S315020042B8FEE741F2F07241F20023C2F20022C0F296
S315020042C87A03484312689A420FD344F23F21C0F256
S315020042D80F0111444DF68362C4F21B32A1FB02128E
S315020042E8910CA0FB0101C9B11BE04CF60021C3F6F3
S315020042F89A31B1FBF2F148F63812C0F24102904205
S3150200430805D24FF47A725043B0FBF1F006E0B0FBE7
S31502004318F1F0904205D24FF47A71484328B100F081
S3150200432807B84FF0FF3000F003B87047D4D4D4D49E
S3150200433801380028FCD17047F0B581B04CF200155F
S3150200434841F25877C4F200050024C2F20027286811
S31502004358296A01EA000600BF26FA04F0C00703D05C
S31502004368396809B12046884701340437152CF3D138
S315020043782E6100BF00BF00BF286A3042FCD101B0DF
S31502004388F0BDD4D4D4D4D4D480B54FF00D0E4CF2AB
S31502004398003047F66071C4F20000C0F2002100BF87
S315020043A831F8022B02B1026004300FF007C880BD53
S315020043B8EFF31081012282F3108841F2E472C2F20D
S315020043C8002232F8103023B132F81030013B22F8BD
S315020043D8103032F810207AB94EF2FA3248F22C2C02
S315020043E8C4F20102C0F2002C13883CF8100043F410
S315020043F8254323EA0000108081F31088704710B520
S31502004408EFF31081012282F3108841F2E472C2F2BC
S31502004418002232F8103083B94EF2FA3E48F22C2CBA
S31502004428C4F2010EC0F2002CBEF800403CF810306F
S31502004438234343F42543AEF8003032F810300133F3
S3150200444822F8103081F3108810BDD4D4D4D4D4D431
S3150200445870B543F600450446C4F2000500BF00BF26
S3150200446895F8500008B12FF005C84FF08700A884C8
S315020044784FF0100028709CB10020FFF7C0FF4EF2E3
S3150200448853000126C4F2010006700020FFF790FFD0
S3150200449885F8206000BF00BF95F850000007FBD4DE
S315020044A80120A8700020687095F8500008B12FF016
S315020044B805C842F20350C0F20500ACB14FF40C71C4
S315020044C8A5F8481000BF00BF95F85010C907FBD1E0
S315020044D86864002085F8400047F2A830A8820120C7
S315020044E8A8751120287070BD6864002085F8400000
S315020044F847F2A830A8820120A87500BF00BF00BFF6
S315020045082878C007FCD195F8500008B12FF009C0E9
S315020045180120287470BDD4D400F006F8FDF7D1F84E
S31502004528FEE700BE7047D4D470B54EF6005540F289
S315020045380120CEF20005C0F20E004EF200066861B6
S31502004548CEF20106BFF34F8FBFF36F8F2968336828
S31502004558C1F3035043F0040301285FEA1F92336054
S3150200456811F00F0F5FEA0F91BFF34F8FBFF36F8FF3
S3150200457811420DD101280BD84EF20800CEF20000E6
S31502004588016841F480310160BFF34F8FBFF36F8F2B
S315020045984FF4700040F20001C5F888000020C0F20E
S315020045A80021A9600024FCF776FFFFF769FC4EF2AA
S315020045B8FA304EF6B022C4F20100C4F201024AF2FF
S315020045C80251018014704FF4254101800120FCF745
S315020045D862FF40F20030C2F2002080F30A88306897
S315020045E8800721D5A868B0F1007F1DD130694FF444
S315020045F80071C0F3C300726901FA00F3C2F3C30083
S3150200460881400020DA08CB080146064642F005C07A
S31502004618E6E802010FF005C04FF0005243F005C06C
S31502004628E2E802010FF005C0002000F019F9FFF7D1
S31502004638CFFBFFF7F1FD0320FFF7E1FE4FF00E0E69
S3150200464840F63050C4F2400020F8044B0FF005C083
S315020046584EF210140320C4F20104FFF7A9FE032048
S31502004668FFF7CDFE44F204000021C4F220000160E7
S3150200467841608160C1600320FFF79AFED4F8C80240
S31502004688800714D42078A0B10120FFF7B8FE00BF36
S3150200469894F9000010F1410FFADC0020207000BFE7
S315020046A820783F28FCD80120FFF782FE01E0D4F8E3
S315020046B8C802D4F8C802400715D42079A8B1012047
S315020046C8FFF79DFE00BF00BF94F9040010F1410FE9
S315020046D8FADC0020207100BF20793F28FCD801208F
S315020046E8FFF766FE01E0D4F8C802012000F0B8F828
S315020046F845F66034C2F20024204602F065F92046E7
S3150200470802F076F9BFF34F8FBFF36F8F0020C5F81B
S31502004718500248F28A2048F28A21C0F20020C0F2EA
S315020047280021BFF34F8F081ABFF36F8F8410012C35
S315020047380BDB48F28A26C0F2002600BF00BF00BF84
S3150200474856F8040B8047013CFAD10220FCF7A3FE77
S31502004758FFF71AFE0020FFF7A4FD48F20000D5F87D
S31502004768C010C0F20020442262F30701C5F8C01047
S31502004778D0F810C0D5F89010BCF1000F2BD0C1F3B9
S31502004788072EBEF1000F26D042690024002000231E
S31502004798002600BF00BF00BF02EBC0014868202800
S315020047A812D3096820F01F0021F01F012038884221
S315020047B80AD3013340F0010041F00101C5F89840DF
S315020047C8C5F89C10C5F8A0000136F0B2844584BF2E
S315020047D8DCB2A645E0D8BFF35F8F0520C5F8940082
S315020047E8686A40F480306862BFF34F8FBFF36F8FF9
S315020047F86869C00348BF70BD0020C5F88400BFF3CE
S315020048084F8FD5F8801043F6E073C1F34E30CA08CD
S31502004818C1F3C9014E1C9107420100BF00BF00BF88
S3150200482802EA030446F001E00C4400BF00BF00BFE1
S31502004838C5F8604204F140440FF007C00028A0F111
S315020048480100A2F12002EBD1BFF34F8F686940F451
S3150200485880306861BFF34F8FBFF36F8F70BDD4D4BA
S31502004868F0B581B048F200050446C0F200252E686C
S3150200487876B16868071D00BF7879844204D157E982
S315020048880101091A02F08CF8013E07F10C07F3D16F
S31502004898AE6896B1E86800F1080500BF00BF00BF20
S315020048A86879844205D155E902022968121A02F08A
S315020048B87BF8013E05F11005F2D101B0F0BDD4D462
S315020048C870B5002841D041F60406A0F10805C2F2E7
S315020048D800260446B54254D343F6FF703044854257
S315020048E84FD854F8040C00285BD52968002968D1EA
S315020048F820F0004044F8040C01F098F841F2F870F0
S3150200490841F2FC73C2F2002054F8041CC2F20023DE
S3150200491802680A4402601A4610461268AA42FBD383
S31502004928984206D0B0425CD343F6FF7333449842AA
S3150200493857D84368C618AE4202D1194405464160A3
S315020049486B18934202D013460CE070BD41F2F47321
S31502004958C2F200231B689A4204D052681144696065
S3150200496801680B68A8422B6018BF056045F604006B
S31502004978C2F20020016801310160BDE8704001F011
S31502004988AFB847F28B0047F20C2247F2D563C0F262
S315020049980020C0F20022C0F200234FF4B571FFF7DF
S315020049A883FC47F28B0047F20C2247F20113C0F24E
S315020049B80020C0F20022C0F2002340F26B11FFF77A
S315020049C873FC47F28B0047F20C2247F2FB73C0F2E4
S315020049D80020C0F20022C0F200234FF4B671FFF79E
S315020049E863FC47F28B0046F6794246F63F63C0F20D
S315020049F80020C0F20022C0F200234FF4FD71FFF737
S31502004A0853FC10B582B078B104461C200190019877
S31502004A181C2818D100202060201D00F06EF9012004
S31502004A282076204602B010BD47F22D0046F6C67221
S31502004A3847F2CC23C0F20020C0F20022C0F20023C3
S31502004A485D21FFF731FC47F22D0046F6C67246F69F
S31502004A58DE73C0F20020C0F20022C0F200236521F4
S31502004A68FFF722FCD4D4D4D42DE9F04100283DD056
S31502004A780D46B1F1807F49D2804600F10C0600F05E
S31502004A88D5FFD8F81070D8F80000B74240EA0500FA
S31502004A98C8F800001FD000253846D7E9003723F0AA
S31502004AA87F42D8F800105C0101EA02040CD434B142
S31502004AB841F00071DB0148BF154301F003FCB74220
S31502004AC8EAD104E000BF00BF9442F1D0F7E7D8F874
S31502004AD80000E94301E04FF0FF310840C8F8000042
S31502004AE800F0FEFFD8F80000BDE8F08147F22D007D
S31502004AF846F6FD3247F27413C0F20020C0F20022D5
S31502004B08C0F2002340F23221FFF7CEFB47F22D0016
S31502004B1846F6FD3246F6B763C0F20020C0F200221E
S31502004B28C0F2002340F23321FFF7BEFB2DE9F04322
S31502004B3881B000286ED00D46B1F1807F7AD2002D61
S31502004B4800F0888004461F469046DDF8209001F062
S31502004B58A6FCB9F1000F02D0002800F08B8000F005
S31502004B6865FF266816EA05005FEA1F91A8425FEA12
S31502004B780F90002F51EA008000283FD0B9F1000FAC
S31502004B8842D04146B8F1000F18BF4FF08071002F8E
S31502004B9804F1040018BF41F0806129434A4601F036
S31502004BA87CFA00F09DFF50B94EF604504FF0805142
S31502004BB8CEF200000160BFF34F8FBFF36F8F01F093
S31502004BC881FC0646800116D4FCF7C3FE266816EA5F
S31502004BD805005FEA0F91A8425FEA1F90002F51EA8B
S31502004BE80080B8F1000F18BF002802D026EA050097
S31502004BF82060FCF7DCFE26F07F4607E0B8F1000FDE
S31502004C0802D026EA0500206000F06AFF304601B0AD
S31502004C18BDE8F08347F22D0047F2162247F27413D5
S31502004C28C0F20020C0F20022C0F2002340F247116F
S31502004C38FFF73AFB47F22D0047F2162246F6B7531C
S31502004C48C0F20020C0F20022C0F200234FF4A47181
S31502004C58FFF72AFB47F22D0047F2162246F6EF53D4
S31502004C68C0F20020C0F20022C0F2002340F249112D
S31502004C78FFF71AFB47F22D0047F2162246F6AA3329
S31502004C88C0F20020C0F20022C0F200234FF4A6713F
S31502004C98FFF70AFB70B570B10D46B1F1807F1AD2E3
S31502004CA80446FCF756FE266826EA05002060FCF74D
S31502004CB87EFE304670BD47F22D0047F2457247F236
S31502004CC87413C0F20020C0F20022C0F200234FF48F
S31502004CD8F171FFF7E9FA47F22D0047F2457247F6F6
S31502004CE8C103C0F20020C0F20022C0F2002340F243
S31502004CF8E311FFF7D9FAFFF7B7BE01464FF0FF32C5
S31502004D0841F8082F0022C0E90311C0E900217047C3
S31502004D18002101617047D4D480B5D1F800C01CF1D6
S31502004D28010207D000F108029646526813686345E5
S31502004D38FAD903E0D0F810E0DEF804204A60916060
S31502004D48C1F808E0CEF80410086101680131016073
S31502004D5880BDD0E901230169936042685A604A68B6
S31502004D68824201D182684A600022026108680138DB
S31502004D780860704770B500284BD00446C06BC0B3B4
S31502004D880E46216CA0FB010199BBFCF7E2FDD4E9B2
S31502004D980F010025226801FB00230138A56300FBE9
S31502004DA80120C4E90123E060FF2084F8440084F866
S31502004DB8450004F110004EB1FFF79FFF04F12400ED
S31502004DC8FFF79BFFFCF7F3FD012070BD0168002980
S31502004DD8F8D001F0EFF90028F4D04EF604504FF05F
S31502004DE88051CEF200000160BFF34F8FBFF36F8F81
S31502004DF8E8E747F2C51047F25A7247F23D43C0F256
S31502004E080020C0F20022C0F200234FF4B671FFF769
S31502004E184BFA47F2C51047F25A7247F22A43C0F2D2
S31502004E280020C0F20022C0F2002340F23711FFF739
S31502004E383BFA10B582B05BB3D0B11C4601B9BAB918
S31502004E4801B1AAB148230193019B482B30D1019B9A
S31502004E58002954EA0282C4E90F01012120460123EE
S31502004E6884F846302260FFF785FF204602B010BD5F
S31502004E7847F2C51047F25F0247F2DF23C0F200206D
S31502004E88C0F20022C0F200234FF4D871FFF70CFAE1
S31502004E9847F2C51047F25F0246F6E643C0F2002023
S31502004EA8C0F20022C0F200234FF4C271FFF7FCF9E8
S31502004EB847F2C51047F25F0246F6FE73C0F20020BB
S31502004EC8C0F20022C0F200234FF4CB71FFF7ECF9CF
S31502004ED8B0B582B060B10D46814209D814460021A8
S31502004EE800222346FFF7A5FFA563204602B0B0BD00
S31502004EF847F2C51047F2801246F6F443C0F2002084
S31502004F08C0F20022C0F200234FF45E71FFF7CCF91B
S31502004F182DE9F04F85B00028049200F0A1800446DE
S31502004F289946154619B9206C002840F0C980B9F18E
S31502004F38020F03D1E06B012840F0B280019101F023
S31502004F48AEFA10B9002D40F09B80FCF702FDB9F1CC
S31502004F58020FA06B5DD0E16B88425AD304F11007A9
S31502004F68012002AE4FF0000B04AD00BF00BF00BF28
S31502004F780499002968D0C00702D0304601F02BFAFE
S31502004F88FCF715FD00F052FDFCF7E3FC94F844002B
S31502004F98FF2808BF84F844B094F84500FF2808BFE4
S31502004FA884F845B0FCF703FD3046294601F020FA9D
S31502004FB800284CD1FCF7CDFCD4F838A0D4F83C80B4
S31502004FC8FCF7F5FCC24517D10499384601F044F8B6
S31502004FD8204600F0B5F800F083FD90B94EF604506D
S31502004FE84FF08051CEF200000160BFF34F8FBFF33E
S31502004FF86F8F06E000BF00BF204600F0A1F800F060
S315020050086FFDFCF7A6FCA06BE16B88424FF000002F
S31502005018AED2204601994A4600F062F854F8240FA7
S3150200502870B1204601F0C6F850B14EF604504FF062
S315020050388051CEF200000160BFF34F8FBFF36F8F2E
S31502005048FCF7B5FC012008E0FCF7B1FC04E02046B9
S3150200505800F076F800F044FD002005B0BDE8F08FB8
S3150200506847F2C51046F6104247F22A43C0F200201C
S31502005078C0F20022C0F2002340F2B631FFF714F95B
S3150200508847F2C51046F6104246F6AA33C0F2002089
S31502005098C0F20022C0F2002340F2BB31FFF704F946
S315020050A847F2C51046F6104246F6FC43C0F2002007
S315020050B8C0F20022C0F200234FF46E71FFF7F4F833
S315020050C847F2C51046F6104247F6F703C0F200202B
S315020050D8C0F20022C0F2002340F2B731FFF7E4F82B
S315020050E870B5866B036C04462BB31546B2B1E068FD
S315020050F81A4601F059FC2168E268206C121AE2602D
S315020051088A4203D24042A1680844E060022D5FEA5F
S315020051181F90002E5FEA0080361A0CE060681A4675
S3150200512801F042FCD4E90101226C10446060884215
S3150200513801D320686060701CA06370BDD4D4D4D437
S31502005148F0B581B00446FCF704FC94F94560012EDB
S315020051580EDB04F1240500BF286848B1284601F091
S3150200516829F808B101F094F970B2013E0128F3DC7E
S31502005178FF2684F84560FCF71AFCFCF7EAFB94F96B
S315020051884470012F10DB04F1100500BF00BF00BFF9
S31502005198286848B1284601F00DF808B101F078F9F7
S315020051A878B2013F0128F3DC84F8446001B0BDE817
S315020051B8F040FCF7FCBB2DE9F047002849D005462C
S315020051C81E4690460F4611B9286C002861D1022E58
S315020051D802D1E86B01284CD1FCF74FFCEFF3118999
S315020051E8102080F31188022EA86B04D0E96B88423E
S315020051F801D3002029E095F94540A86B284639468F
S3150200520832465FFA84FAFFF76BFFBAF1FF0F0BD04B
S3150200521800F01CFFA04217D9BAF17F0F49D00AF154
S31502005228010085F845000FE055F8240F60B12846BD
S3150200523800F0C0FF01460120B8F1000F18BF00298F
S3150200524803D0C8F8000000E0012089F31188BDE800
S31502005258F08747F2C51046F6224247F22A43C0F2C1
S315020052680020C0F20022C0F200234FF49261FFF739
S315020052781BF847F2C51046F6224246F6FC43C0F230
S315020052880020C0F20022C0F2002340F29241FFF74A
S315020052980BF847F2C51046F6224247F6F703C0F264
S315020052A80020C0F20022C0F2002340F29141FEF72C
S315020052B8FBFF47F2C51046F6224247F22A23C0F2FE
S315020052C80020C0F20022C0F2002340F21E51FEF76F
S315020052D8EBFF2DE9F04100283CD00546006C00287A
S315020052E848D12868884610B9A868002852D1FCF720
S315020052F8C4FB1020EFF3118680F31188A86BE96BC3
S31502005308884210D295F945400130A863E7B2FF2FCB
S315020053180BD000F09BFEA04217D97F2F4AD0781CEB
S3150200532885F8450011E0002010E055F8240F60B119
S31502005338284600F03FFF01460120B8F1000F18BFCA
S31502005348002903D0C8F8000000E0012086F311887E
S31502005358BDE8F08147F2C51046F63B4247F22A43BA
S31502005368C0F20020C0F20022C0F200234FF4A86166
S31502005378FEF79AFF47F2C51046F63B4247F6210367
S31502005388C0F20020C0F20022C0F2002340F24451CB
S31502005398FEF78AFF47F2C51046F63B4247F28D539F
S315020053A8C0F20020C0F20022C0F2002340F24951A6
S315020053B8FEF77AFF47F2C51046F63B4247F22A2322
S315020053C8C0F20020C0F20022C0F2002340F2CB5104
S315020053D8FEF76AFFD4D4D4D42DE9F04F83B000285F
S315020053E8029200F0AA8004461646894619B9206C2C
S315020053F8002840F0C28001F052F810B9002E40F0A1
S31502005408AC80FCF7A6FAD4F838A0BAF1000F29D076
S31502005418226C52B1D4E902011144E160814201D3FE
S315020054282168E160484601F0BFFA54F8100F0028D7
S31502005438AAF10100A0620ED0204600F0BBFE50B1D0
S315020054484EF604504FF08051CEF200000160BFF3D1
S315020054584F8FBFF36F8F0124FCF7A9FA204603B0DA
S31502005468BDE8F08F04F1240801206F464FF0000BC7
S3150200547802AE00BF00BF00BF0299002959D0C0077B
S3150200548802D0384600F0A7FFFCF791FA00F0CEFAF0
S31502005498FCF75FFA94F84400FF2808BF84F844B082
S315020054A894F84500FF2808BF84F845B0FCF77FFA50
S315020054B83846314600F09CFF70B12046FFF740FEA1
S315020054C800F00EFBFCF745FAA56BFCF770FA95B3EC
S315020054D826E000BF00BF00BFFCF73BFAA56BFCF74E
S315020054E866FA2DB12046FFF72BFE00F0F9FA17E00F
