S021000052413850314475616C436F726550726F6A6563745F435055302E737265635A
S315020000002047002281E1000269DF00028BE1000243
S315020000108BE100028BE100028BE100028BE1000220
S3150200002000000000000000000000000041AF0002D6
S315020000308BE100020000000059AF0002C1AF0002CE
S31502000040DBD200025DD30002B1D3000231D9000235
S315020000506BC5000241C70002A9C8000291C900028D
S31502000060F5B70002C5BC000245BD000225BE00026E
S30D0200007047B30002A5BE00021F
S315020000780830420003311300033103000030000048
S315020000880430FF0002301C000630C3000E30450063
S315020000982E300800343018001F500000004332008A
S315020000A81836000012362900093752000C370300A9
S315020000B820384000213801003036360031360E002D
S315020000C83236E200333612002136E0000437A00049
S315020000D803375A0015377800173701000B376000C7
S315020000E805371A00053902000639100001390A00D7
S315020000F83137120000360800013633002D30600011
S31502000108203652001B3720001C475000133A430082
S31502000118183A0000193AF800353613003636030045
S315020001283436400022360100014002000440020033
S3150200013805401A000150A3000335070000350000E8
S315020001480135FF00023500000A3500000B35200094
S315020001580F3A3000103A28001B3A30001E3A2600A1
S31502000168113A60001F3A1400183A0000193A7C0046
S315020001780634000080540100815408008254140099
S3150200018883542800845451008554650086547100AE
S3150200019887547D0088548700895491008A549A00AE
S315020001A88B54AA008C54B8008D54CD008E54DD00B1
S315020001B88F54EA0090541D0080550600835540006E
S315020001C884551000895510008A5500008B55F80091
S315020001D8005823000158140002580F0003580F0054
S315020001E8045812000558260006580C00075808003D
S315020001F808580500095805000A5808000B580D004A
S315020002080C5808000D5803000E5800000F5800003D
S315020002181058030011580900125807001358030012
S3150200022814580000155801001658030017580800FC
S3150200023818580D00195808001A5805001B580600C8
S315020002481C5808001D580E001E5829001F58170072
S315020002582058110021581100225815002358280049
S3150200026824584600255826002658080027582600EE
S3150200027828586400295826002A5824002B58220098
S315020002882C5824002D5824002E5806002F582200D8
S31502000298305840003158420032582400335826005C
S315020002A8345824003558220036582200375826007A
S315020002B838584400395824003A5826003B58280032
S315020002C83C5842003D58CE000050A7002038460050
S315020002D8213800001438310015383100033804007B
S315020002E808380400093800000A3802000B3858009A
S315020002F80C46220037481000243802000150A30099
S315020003083D50000041470000FFFFFF00F84F0E2254
S315020003180000000000000000D402002200000000D5
S30F0200032800000000000000000101C1
S315020003402DE9F04385B01846154688460124082152
S31502000350202220230C9E4FF0000C18278DE8D00097
S31502000360CDF80CC04FF0080910F096FA08212022A9
S31502000370202328460094CDF80C90CDE9016710F0B1
S315020003808BFA0821202220231020039040468DE874
S31502000390D00010F081FA05B0BDE8F0832DE9F047F0
S315020003A084B01E4690468946DDE90C0710211022CC
S315020003B010234FF0000C40240125CDE900574FF0E1
S315020003C0100A0294CDF80CC010F066FA1021102221
S315020003D0102330460095CDF80CA0CDE9017410F03B
S315020003E05BFA202003901021102210234846009524
S315020003F0CDE9017410F050FA10211022102330209A
S3150200040003904046CDE90057029410F045FA04B035
S31502000410BDE8F0872DE9F04784B01E46904689462E
S31502000420DDE90C072021082208234FF0000C802466
S315020004300125CDE900574FF0200A0294CDF80CC0F1
S3150200044010F02AFA20210822082330460095CDF81A
S315020004500CA0CDE9017410F01FFA40200390202170
S315020004600822082348460095CDE9017410F014FAD3
S31502000470202108220823602003904046CDE9005738
S31502000480029410F009FA04B0BDE8F0872DE9F043B2
S3150200049085B01846154688460124402104220423C5
S315020004A00C9E4FF0000CC0278DE8D000CDF80CC092
S315020004B04FF0400910F0F0F94021042204232846A7
S315020004C00094CDF80C90CDE9016710F0E5F94021D2
S315020004D0042204238020039040468DE8D00010F0C9
S315020004E0DBF905B0BDE8F0832DE9F04784B0994603
S315020004F016460846402104220423DDE90C874FF004
S31502000500000C4FF480740125CDE900574FF0400AE4
S315020005100294CDF80CC010F0BFF940210422042346
S3150200052030460095CDF80CA0CDE9017410F0B4F96F
S315020005308020039040210422042348460095CDE9F9
S31502000540017410F0A9F9402104220423C02003906B
S315020005504046CDE90057029410F09EF904B0BDE87A
S31502000560F0872DE9F04385B01846154688460124E2
S315020005704021042204230C9E4FF0000CC0278DE874
S31502000580D000CDF80CC04FF0400910F085F940219B
S315020005900422042328460094CDF80C90CDE9016785
S315020005A010F07AF940210422042380200390404669
S315020005B08DE8D00010F070F905B0BDE8F0832DE9A2
S315020005C0F04184B01D4610460C460127CDE9007362
S315020005D08021082208234FF0000CC0260296CDF88F
S315020005E00CC04FF0800810F057F94021082208236A
S315020005F02046CDE90075CDE9026810F04DF904B048
S31502000600BDE8F0812DE9F04385B0184615468846C7
S3150200061001242021082208230C9E4FF0000C60279B
S315020006208DE8D000CDF80CC04FF0200910F034F957
S3150200063020210822082328460094CDF80C90CDE903
S31502000640016710F029F9202108220823402003908F
S3150200065040468DE8D00010F01FF905B0BDE8F083E2
S315020006602DE9F04184B01D4610460C460127CDE91E
S3150200067000734021102210234FF0000C60260296D0
S31502000680CDF80CC04FF0400810F006F920211022D8
S3150200069010232046CDE90075CDE9026810F0FCF87A
S315020006A004B0BDE8F0812DE9F04385B01846154641
S315020006B0884601241021102210230C9E4FF0000CB4
S315020006C030278DE8D000CDF80CC04FF0100910F09D
S315020006D0E3F810211022102328460094CDF80C903E
S315020006E0CDE9016710F0D8F810211022102320203E
S315020006F0039040468DE8D00010F0CEF805B0BDE874
S31502000700F0832DE9F04184B01D4610460C460127C0
S31502000710CDE900732021082208234FF0000C602641
S315020007200296CDF80CC04FF0200810F0B5F8402123
S31502000730082208232046CDE90075CDE9026810F0AB
S31502000740ABF804B0BDE8F0812DE9F04385B0184658
S315020007501546884601242021082208230C9E4FF0C4
S31502000760000C60278DE8D000CDF80CC04FF02009B0
S3150200077010F092F820210822082328460094CDF88A
S315020007800C90CDE9016710F087F820210822082392
S315020007904020039040468DE8D00010F07DF805B069
S315020007A0BDE8F0832DE9F04184B01D4610460C46A3
S315020007B00127CDE900734021042204234FF0000CE7
S315020007C0C0260296CDF80CC04FF0400810F064F82F
S315020007D08021042204232046CDE90075CDE9026872
S315020007E010F05AF804B0BDE8F0812DE9F04385B067
S315020007F018461546884601244021042204230C9EED
S315020008004FF0000CC0278DE8D000CDF80CC04FF099
S31502000810400910F041F8402104220423284600949E
S31502000820CDF80C90CDE9016710F036F8402104228C
S3150200083004238020039040468DE8D00010F02CF867
S3150200084005B0BDE8F08370B58CB042F2C83E0DF13A
S31502000850200CC0F2012E63469EE8710071C3084661
S3150200086042F284366FF07F034BF6C6244FF4A8613A
S31502000870CDE9003104930423114662464FF0010E7E
S31502000880C0F201260025C7F6EE74CDE90245CDE990
S31502000890056E00F04DF80CB070BD2DE9F04184B044
S315020008A01D4610460C460127CDE90073012102229E
S315020008B04FF4A8734FF0000C04260296CDF80CC034
S315020008C04FF0020810F004F8012102224FF4A87337
S315020008D02046CDE90075CDE902680FF0F9FF04B0B4
S315020008E0BDE8F0812DE9F04184B01D461446084664
S315020008F00127CDE90073012104224FF4A8734FF0BA
S31502000900000C05260296CDF80CC04FF004080FF035
S31502000910DFFF012101224FF4A8732046CDE90075BD
S31502000920CDE902680FF0D4FF04B0BDE8F081D4D45B
S315020009302DE9F04F03AF8DB089460446A7F1240096
S3150200094014219A469046D7F81CB010F00EF90720EB
S31502000950002500EB8B0047F838DC20F0070047F84B
S31502000960285CADEB000647F82C5C47F8305CB546D0
S315020009704FEA8B01304610F0F8F84846594610F017
S31502000980F4F847F8345C82B0A7F13003A7F13400DB
S3150200099000905046D7E90B1200F07EF802B000280C
S315020009A000F0718047F83C9CA7F1240900BF00BF04
S315020009B082B00023504641464A46009500F0ACF804
S315020009C002B0834657F8343C82B0A7F1300000905B
S315020009D0504641464A4600F09FF802B014F90B1001
S315020009E056F82020114446F82010504641464A4601
S315020009F000F0C2F808B12FF025C857F8340C0121CF
S31502000A0001281CDB80EF5100FC69A7F1300120F0C0
S31502000A1001E000BF00BF00BFB1EC043F98FC434FAA
S31502000A2020EF54091FF009C051EC110BD7F828B07A
S31502000A3053EC102B484302FB03F1414302E0D7F883
S31502000A4028B0FC69012CD7E9080957F83C5C1ADB87
S31502000A50BA694FEAE07A01FB02F800BF00BF00BFA5
S31502000A6056F8040BA0EB080082B03A6A5346CDF85A
S31502000A70009000F09FF802B05844013C00F30700D2
S31502000A8005F8010BECD157F838DCA7F10C04A546A2
S31502000A90BDE8F08FD4D4D4D42DE9F043DDF81CE0C0
S31502000AA04FF0010C4FF00007CEF8007070B3012A28
S31502000AB02CDB4FF000084FF0000900BF00BF00BF5B
S31502000AC051F82960002E48BF0644B6F1FF3F5FEA9F
S31502000AD0DF9786425FEAA78CBCF1010F16D1B8F107
S31502000AE0010F1F46444605DB57F8045BB54209D0A1
S31502000AF0013CF9D143F82860DEF8004004F1010810
S31502000B00CEF8008009F101099145D9D16046BDE8C8
S31502000B10F083D4D4D4D4D4D42DE9F041012828DBEF
S31502000B20DDF818C040F001E0BCF1000F5FEA1F9744
S31502000B30012B5FEAAF960025002047EA060800BFB0
S31502000B40B8F1000F66461F4608D100BF00BF00BFBE
S31502000B5056F8044BA54207D0013FF9D151F825407A
S31502000B6052F8256004FB006001350FF017C8BDE896
S31502000B70F0810020BDE8F08110B56FF0030303EBAE
S31502000B80800319441A4400BF034601280EDB10688D
S31502000B9051F804E900F1010CBEEB0C0454EA009092
S31502000BA0E64542F80409A3F10100EDD0002B5FEA05
S31502000BB0DF9010BD70B5C117A2FB0046DDF810C06C
S31502000BC002FB0161CCF11E0E0025012252EA0DE55F
S31502000BD003FB00111019CCF11F02694150EA2D21C5
S31502000BE070BD43F6001046F23011C0F20120C2F287
S31502000BF0022100680844704744F25070C2F2002095
S31502000C0070472DE9F04FB1B0044643F60C10C0F21E
S31502000C10012046F23011C2F2022143F604120068A4
S31502000C20C0F201220844039043F6081042F230163D
S31502000C30C0F20120C2F204264CF2301543F23019FA
S31502000C400068C2F20425084402901068C2F205291F
S31502000C5001EB000A48F66C10C0F2012048F6681152
S31502000C60C0F2012146F630180068C2F20528304467
S31502000C70089048F6701047F63057C0F20120C2F2CB
S31502000C80052749F2305242F680630068C2F2052215
S31502000C9030440790086844F684413044069048F68A
S31502000CA06410C0F20221C0F20120C2F20E230068D3
S31502000CB030440490086844F69041C0F20221284468
S31502000CC02690086844F68C4128440B9044F69440DA
S31502000CD0C0F20221C0F20220006828440A90086885
S31502000CE040F254312844099044F68840C0F2042167
S31502000CF0C0F20220006828440590086840F260317C
S31502000D00C0F2042148441B90086840F25831484416
S31502000D100E9040F25C30C0F20421C0F2042000685A
S31502000D2048440D90086848F65C5148440C9048F6D1
S31502000D305450C0F20421C0F20420006840441290CC
S31502000D4048F65850C0F204200068404411900868E2
S31502000D504DF24C514044109048F66050C0F20521C5
S31502000D60C0F20420006840440F9008684DF24851D2
S31502000D70C0F2052138441590086846F244413844C9
S31502000D8014904DF24450C0F20621C0F205200068CC
S31502000D9038441390086846F24841C0F206211044CE
S31502000DA02B9008684DF65451104416904DF65C503F
S31502000DB04CF23052C0F20620C2F20522C0F20621DF
S31502000DC00068104419904DF65850C0F2062000688B
S31502000DD010441890086843F29C711044179041F22F
S31502000DE0D40040F23052C0F20720C2F20622C0F20C
S31502000DF0072100681044239041F2D800C0F2072070
S31502000E00006810441A90086843F2987146F230520C
S31502000E10C0F20721C2F2062210441E90086846F26A
S31502000E20F46110441D9043F29470C0F20721C0F29F
S31502000E300720006810441C90086846F2F8614EF2DA
S31502000E403052C0F20721C2F2062210442C900868E2
S31502000E504CF6943110441F904CF69C3043F23052BB
S31502000E60C0F20720C2F20722C0F20721006810442E
S31502000E7022904CF69830C0F2072000681044219068
S31502000E8008684EF29C511044209040F2745045F688
S31502000E903052C0F20820C2F20722C0F208210068CE
S31502000EA010442A9040F27850C0F20820006810449C
S31502000EB0249008684EF2985148F23052C0F2082146
S31502000EC0C2F2072210442890086843F6F011104433
S31502000ED027904EF29450C0F20B21C0F2082000680F
S31502000EE010442590086843F6EC1149F63052C0F2D8
S31502000EF00B21C2F2072210442990086844F2E43119
S31502000F001044309044F21810C0F20B21C0F20B20AC
S31502000F1043F600120968C2F20E22006818442E90A7
S31502000F2044F21410C0F20B20006818442D90501899
S31502000F302F90204600F011FA44F6EC5B44F6E0509E
S31502000F40C2F2002BCDF800B0C2F20020DDE9022188
S31502000F505346FFF7F5F948F660104FF4C042C0F267
S31502000F6001205946006830440FF003FE204600F087
S31502000F7047FA4AF6F8564AF6EC50C2F200260499A7
S31502000F80CDE90016C2F200200899DDE90632FFF724
S31502000F9005FA44F680404FF48042C0F20220314600
S31502000FA0006828440FF0E5FD204600F081FA4EF66F
S31502000FB004654EF6F850C2F200250599CDE90015F2
S31502000FC0C2F200200B99DDE90932FFF723FA40F25B
S31502000FD050304FF40052C0F20420294600684844BB
S31502000FE00FF0C7FD204600F0CBFA40F6106540F63A
S31502000FF00460C2F201250095C2F201200E99DDE9D4
S315020010000C32FFF743FA48F650504FF44062C0F2F2
S3150200101004202946006840440FF0ABFD204600F04C
S315020010200FFB41F61C2541F61020C2F201250F994D
S31502001030CDE90015C2F201201299DDE91032FFF75F
S3150200104053FA4DF240504FF48052C0F20520294621
S31502001050006838440FF08DFD204600F047FB42F64B
S31502001060282542F61C20C2F201250095C2F2012073
S315020010701599DDE91332FFF774FA46F2404049F258
S315020010803051C0F20620C2F205214FF440620068D8
S31502001090084429460FF06DFD204600F07AFB43F224
S315020010A0346543F22860C2F20125C2F201201B997F
S315020010B0169A2B46FFF783FA4DF650504CF23051F2
S315020010C0C0F20620C2F205214FF4405200680844DD
S315020010D029460FF04EFD204600F0B0FB46F2406571
S315020010E046F23460C2F201250095C2F20120199936
S315020010F0DDE91732FFF786FA41F2D00040F23051AD
S31502001100C0F20720C2F206214FF4C052006808441A
S3150200111029460FF02EFD204600F0E5FB47F64C650A
S3150200112047F64060C2F20125C2F2012026991A9AB8
S315020011302B46FFF795FA43F2907046F23051C0F211
S315020011400720C2F206214FF4C0420068084429462D
S315020011500FF00FFD204600F01BFC4DF658654DF6CC
S315020011604C60C2F201250095C2F201201E99DDE90A
S315020011701C32FFF798FA46F2F0604EF23051C0F296
S315020011800720C2F206214FF440520068084429465D
S315020011900FF0EFFC204600F050FC40F6646540F686
S315020011A05860C2F20225C2F2022023991F9A2B46E8
S315020011B0FFF7A7FA4CF6903043F23051C0F20720FF
S315020011C0C2F207214FF4C0520068084429460FF0C4
S315020011D0D0FC204600F081FC42F2706542F2646067
S315020011E0C2F202250095C2F202202299DDE92032DE
S315020011F0FFF7AAFA40F2705045F63051C0F20820C5
S31502001200C2F207214FF4C0520068084429460FF083
S31502001210B0FC204600F0B6FC43F67C6543F67060EF
S31502001220C2F20225C2F202202B99249A2B46FFF71C
S31502001230B9FA4EF2905048F23051C0F20820C2F28A
S3150200124007214FF440620068084429460FF091FCDA
S31502001250204600F0ECFC44F6882544F67C20C2F2D7
S3150200126002250095C2F20220DDE92721259BFFF720
S31502001270BCFA43F6E01049F63056C0F20B20C2F231
S3150200128007264FF400522C99006830440FF071FC87
S3150200129043F6E4104FF48052C0F20B202A990068FC
S315020012A030440FF066FC43F6E8104FF44062C0F299
S315020012B00B202946006830440FF05BFC204600F004
S315020012C00FFD45F2946545F28860C2F20225C2F22C
S315020012D0022029992A46FFF7B6FA44F2101042F67E
S315020012E08061C0F20B20C2F20E214FF4A8620068A0
S315020012F0084429460FF03DFC204600F05DFD45F608
S31502001300E03545F6D430C2F20225C2F20220DDE90A
S315020013102D212B46FFF7C1FA44F2E03043F60011C5
S31502001320C0F20B20C2F20E214FF4A86200680844F4
S3150200133029460FF01EFC204600F08CFD46F22010D6
S3150200134044F25073C2F20220C2F20023DDE92F12E8
S3150200135031B0BDE8F04FFFF7C5BAB0B598B042F666
S31502001360640246F23015C0F2012242F670010024F0
S31502001370C2F202250028C0F201210B940A911168DB
S315020013800391CDE90C544FF4E0314FF440400690FE
S31502001390CDE90E54CDE90411CDE9105407D046F239
S315020013A030104FF4C041C2F202200FF0DEFB05F509
S315020013B00050CDE9140405F580404FF40051CDE903
S315020013C0160442F2D830C0F201200991CDE9071184
S315020013D042F2E031026803A8009044F6F870C2F2C5
S315020013E00E20C0F201210AABCDE912540725CDE940
S315020013F0015409F08EFD01305FEA1FA018B0B0BD9E
S31502001400B0B59CB043F6186242F23015C0F2012222
S3150200141043F620610024C2F204250028C0F201210D
S315020014200D940C9111680491CDE90E544FF42041AC
S315020014304FF4C0400790CDE91054CDE90511CDE92E
S31502001440125407D042F230104FF48041C2F2042007
S315020014500FF08BFB05F58051CDE9161443F61011FA
S3150200146005F50050C0F20121CDE9180405F54050FA
S315020014701A900A6804A8009044F6F87043F6201100
S31502001480C2F20E20C0F201210CAB81EF5002CDE96F
S31502001490145408251B948DED081FCDE9015409F05B
S315020014A038FD01305FEA1FA01CB0B0BDD4D4D4D43D
S315020014B070B59EB048F660710024C0F20121CDE9F4
S315020014C00C1448F650714CF23015C0F20121C2F2EA
S315020014D0042505F50056002809680391CDE90E5446
S315020014E04FF4E0414FF480400690CDE91054CDE927
S315020014F00411CDE9126407D04CF230104FF480414A
S31502001500C2F204200FF031FB05F52051CDE9181483
S3150200151048F6741116A0C0F201210CAB90ED001F23
S3150200152005F54050CDE91A0405F560500A68CDE983
S315020015301C044FF400600B9003A8009044F6F87068
S3150200154048F68011C2F20E20C0F201218DED071F6E
S31502001550CDE91454CDE916640826CDE9016409F0F3
S31502001560D8FC01305FEA1FA01EB070BD00BF00BFED
S31502001570002000000008000000080000000800002B
S3150200158070B59CB045F260110024C0F20221CDE98B
S315020015900C1445F2501143F23015C0F20221C2F288
S315020015A0052505F58056002809680491CDE90E54F3
S315020015B04FF460514FF400500790CDE91054CDE935
S315020015C00511CDE9126407D043F230104FF4E05111
S315020015D0C2F205200FF0C9FA44F6984114A0C0F2EF
S315020015E002210CAB90ED001F05F5A050CDE91804C1
S315020015F005F5C0501A900A6804A8009044F6F870DF
S3150200160044F6A041C2F20E20C0F202218DED081F5F
S315020016101B94CDE91454CDE916640826CDE901647C
S3150200162009F077FC01305FEA1FA01CB070BD00BF55
S315020016300010000000040000000400000004000086
S31502001640B0B59CB040F2A45246F63015C0F2042260
S3150200165040F2B0510024C2F205250028C0F204214E
S315020016600D940C9111680491CDE90E544FF4A051DA
S315020016704FF440600790CDE91054CDE90511CDE94C
S31502001680125407D046F630104FF48051C2F20520AC
S315020016900FF06BFA05F58061CDE9161440F264315C
S315020016A005F50060C0F20421CDE9180405F5406095
S315020016B01A900A6804A8009044F6F87040F2703155
S315020016C0C2F20E20C0F204210CAB80EF5402CDE927
S315020016D0145408251B948DED081FCDE9015409F019
S315020016E018FC01305FEA1FA01CB0B0BDB0B598B0BF
S315020016F049F2202247F63055C0F2042249F230213F
S315020017000024C2F205250028C0F204210B940A9196
S3150200171011680391CDE90C544FF4C0514FF4805037
S315020017200690CDE90E54CDE90411CDE9105407D047
S3150200173047F630504FF44061C2F205200FF015FA19
S3150200174005F58060CDE9140405F500604FF480616B
S31502001750CDE9160448F66450C0F204200991CDE999
S31502001760071148F67051026803A8009044F6F87013
S31502001770C2F20E20C0F204210AABCDE912540725AB
S31502001780CDE9015409F0C5FB01305FEA1FA018B08C
S31502001790B0BDB0B596B04DF660010025C0F2052188
S315020017A0CDE90A154DF6580149F23054C0F2052129
S315020017B0C2F205240028CDE90C45096804914FF4CC
S315020017C04051CDE90E454FF440600790CDE9051131
S315020017D004F50061CDE910150AD04FF400612046E8
S315020017E00FF0C3F904F580504FF400510FF0BDF924
S315020017F04DF250514FF40060C0F20521089004F5F5
S315020018008050CDE914054FF4005009900A6804A8E7
S31502001810009044F6F8704DF26051C2F20E20C0F20A
S3150200182005210AABCDE912450624CDE9014509F0A9
S3150200183070FB01305FEA1FA016B0B0BD70B598B05C
S3150200184046F2C0710026C0F20621CDE90A1646F21A
S31502001850B4714CF23054C0F20621C2F2052404F5EA
S315020018608055002809680391CDE90C464FF4804162
S315020018704FF440500690CDE90E46CDE90411CDE96C
S31502001880105609D04FF4006120460FF06EF94FF45E
S31502001890805128460FF069F904F5C050CDE91406C7
S315020018A046F24C404FF40061C0F20620CDE9071122
S315020018B0099146F25041026803A8009044F6F87076
S315020018C0C2F20E20C0F206210AABCDE91256072556
S315020018D0CDE91646CDE9015609F01BFB01305FEA58
S315020018E01FA018B070BDB0B596B04EF250010025DB
S315020018F0C0F20621CDE90A154EF2440140F23054F7
S31502001900C0F20621C2F206240028CDE90C45096878
S3150200191004914FF4C041CDE90E454FF4C0500790F3
S31502001920CDE9051104F58051CDE910150AD04FF421
S31502001930805120460FF019F904F500504FF480410A
S315020019400FF013F94DF660514FF48050C0F20621A4
S31502001950089004F50050CDE914054FF48040099033
S315020019600A6804A8009044F6F8704DF67051C2F267
S315020019700E20C0F206210AABCDE912450624CDE9B6
S31502001980014509F0C6FA01305FEA1FA016B0B0BDE4
S3150200199070B598B041F220410026C0F20721CDE988
S315020019A00A1641F21C4146F23054C0F20721C2F235
S315020019B0062404F50055002809680391CDE90C4672
S315020019C04FF400414FF4C0400690CDE90E46CDE9F2
S315020019D00411CDE9105609D04FF4805120460FF07C
S315020019E0C4F84FF4005128460FF0BFF804F54050F2
S315020019F0CDE9140641F2DC004FF48051C0F2072013
S31502001A00CDE90711099141F2E001026803A80090AD
S31502001A1044F6F870C2F20E20C0F207210AABCDE9F5
S31502001A2012560725CDE91646CDE9015609F071FA97
S31502001A3001305FEA1FA018B070BD70B596B043F6CC
S31502001A4080110024C0F20721CDE90A1443F674116D
S31502001A504EF23055C0F20721C2F2062505F50056B0
S31502001A60002809680491CDE90C544FF4A0414FF4C3
S31502001A7040500790CDE90E54CDE90511CDE9106429
S31502001A8007D04EF230504FF42051C2F206200FF02A
S31502001A906CF843F2A0714FF40050C0F2072108908F
S31502001AA04FF4006009900A6804A8009044F6F870A2
S31502001AB043F2B071C2F20E20C0F207210AABCDE9A1
S31502001AC01254CDE914640626CDE9016409F021FA1F
S31502001AD001305FEA1FA016B070BD70B598B046F629
S31502001AE070210026C0F20721CDE90A1646F66421C6
S31502001AF043F23054C0F20721C2F2072404F580559E
S31502001B00002809680391CDE90C464FF420514FF4A1
S31502001B10C0500690CDE90E46CDE90411CDE9105626
S31502001B2009D04FF4006120460FF01FF84FF48051A0
S31502001B3028460FF01AF804F5C050CDE9140646F20D
S31502001B40FC604FF40061C0F20720CDE9071109914C
S31502001B5046F20071026803A8009044F6F870C2F2D9
S31502001B600E20C0F207210AABCDE912560725CDE9B0
S31502001B701646CDE9015609F0CCF901305FEA1FA0FD
S31502001B8018B070BDB0B596B04CF6F0510025C0F253
S31502001B900721CDE90A154CF6E45145F63054C0F258
S31502001BA00721C2F207240028CDE90C4509680491F1
S31502001BB04FF42051CDE90E454FF4C0500790CDE9C0
S31502001BC0051104F58051CDE910150AD04FF4805164
S31502001BD020460EF0CAFF04F500504FF480610EF065
S31502001BE0C4FF4CF6A0314FF48050C0F20721089092
S31502001BF004F50050CDE914054FF4806009900A6897
S31502001C0004A8009044F6F8704CF6B031C2F20E20E9
S31502001C10C0F207210AABCDE912450624CDE90145FA
S31502001C2009F077F901305FEA1FA016B0B0BDB0B572
S31502001C3098B040F600210025C0F20821CDE90A1528
S31502001C4040F6FC1148F23054C0F20821C2F20724D1
S31502001C500028CDE90C45096803914FF4C051CDE93E
S31502001C600E454FF440600690CDE9041104F540613B
S31502001C70CDE910150AD004F5A0504FF480610EF09C
S31502001C8074FF4FF4006120460EF06FFF04F5A0507A
S31502001C90CDE9140504F580604FF48061CDE916059F
S31502001CA040F27C50C0F208200991CDE9071140F2BA
S31502001CB08051026803A8009044F6F870C2F20E2022
S31502001CC0C0F208210AABCDE912450724CDE9014548
S31502001CD009F01FF901305FEA1FA018B0B0BDD4D4D5
S31502001CE0B0B59CB030A14FF67062C0F2082249F638
S31502001CF0305491ED001F4FF68061C2F20724C0F204
S31502001D0008210C911168049141F2501100252144D9
S31502001D10CDE9121504F5A8710028CDE9141543F290
S31502001D2050110D9511958DED051F21444FF440601C
S31502001D3010940990CDE90E45CDE916150BD04FF456
S31502001D40A87120460EF011FF45F250504FF4A851EB
S31502001D5020440EF00AFF4EF2A0514FF4A870C0F2D2
S31502001D6008210A9045F250500CAB2044CDE91A05E1
S31502001D704FF4A8500B900A6804A8009044F6F87035
S31502001D804EF2B051C2F20E20C0F2082119951894F3
S31502001D900824CDE9014509F0BCF801305FEA1FA02D
S31502001DA01CB0B0BD00BF00BF5091060050910600A6
S31502001DB00020000000100000B0B596B043F6C03215
S31502001DC042F68065C0F20B2243F6D0310024C2F2FD
S31502001DD00E250028C0F20B210B940A91116804917A
S31502001DE0CDE90C544FF428614FF4A8600790CDE971
S31502001DF00E54CDE90511CDE9105405D005F5A860BC
S31502001E004FF4A8610EF0B1FE05F5FC61CDE914149C
S31502001E1043F6F41105F5A860C0F20B21CDE91204D0
S31502001E204FF42870089009900A6804A8009044F6B6
S31502001E30F87043F60021C2F20E20C0F20B210AAB63
S31502001E400625CDE9015409F064F801305FEA1FA0C6
S31502001E5016B0B0BD70B592B044F290210024C0F223
S31502001E600B21CDE9081444F2842143F60015C0F291
S31502001E700B21C2F20E254FF4A86609680391CDE93B
S31502001E800A540F940E95CDE90C540696CDE90466D4
S31502001E9038B143F600104FF4A861C2F20E200EF0DC
S31502001EA064FE44F21C1044F22011C0F20B20C0F270
S31502001EB00B2108ABCDE91054026803A8009044F642
S31502001EC0F870C2F20E2007960526CDE9016409F0E4
S31502001ED020F801305FEA1FA012B070BDD4D4D4D46A
S31502001EE010B543F64064A821C2F20E2420460EF035
S31502001EF03CFE03202061606145F2960043F6E861EC
S31502001F00C0F20B20A061C2F20E21E1614FF4006122
S31502001F1021620021A1626162E16244F2E862206606
S31502001F204FF0100E44F2E830C2F20E226266C4F896
S31502001F3068E02167E1666167BFF35F8FC0F20B203D
S31502001F400F3000BF00BF00BF10F8011904F8011BD3
S31502001F500FF007C0BFF35F8F10BDD4D4D4D4D4D44E
S31502001F602DE9F04381B014460D468046C7684FF00E
S31502001F70000900BF00BF00BFD8F81000FA43B842FC
S31502001F8006D91044D8F8081006E000BF00BF00BF0B
S31502001F90D8F8081010440844C91B884250EA318018
S31502001FA02946A04250EA3486D8F80400384432461C
S31502001FB00EF0DFFDF019D8F80810411AA4EB06045A
S31502001FC050EA1187B1443544BFF35F8FC8F80C70ED
S31502001FD00CB12FF02FC8484601B0BDE8F0832DE9B9
S31502001FE0F04381B000EB400043F64063C2F20E2399
S31502001FF0144603EBC003894603F11805D86A022882
S3150200200012D0012808D000283ED1EE682869F14393
S31502002010B04234D9084435E0EE682969B1420BD999
S31502002020F0430144A8680BE028464946224601B01F
S31502002030BDE8F043FFF794BFF243A8681144014498
S31502002040A14251EA3484871B68683044BC4207D2F5
S31502002050494622460EF08DFDBFF35F8F26440CE003
S3150200206049463A460EF085FDE61B686809EB07010C
S3150200207032460EF07EFDBFF35F8FEE6025E0AA6862
S3150200208008441044A04201D200241EE0D5E9010111
S315020020908F1B3044BC4208D2494622460EF069FDE7
S315020020A0BFF35F8F06EB04080DE049463A460EF091
S315020020B060FDA4EB0708686809EB070142460EF0CB
S315020020C058FDBFF35F8FC5F80C80204601B0BDE80E
S315020020D0F083F0B581B043F640631446C2F20E2394
S315020020E00D4606461B78532B01D0FFF7F9FEEFF398
S315020020F011874FF0200181F3118830462946224686
S31502002100FFF76DFF87F3118801B0F0BDD4D4D4D4A4
S315020021102DE9F04F9BB091460F46002406A9169171
S3150200212040211791002105901A90CDE9181100BFA0
S3150200213017F8011B252907D0002900F06F8116A880
S3150200214000F07BF9E5E000BF4FF0000800BF00BFDA
S3150200215039782C2908DC23290ED02B2918D1042002
S315020021600FE000BF00BF00BF2D2909D030290FD1D3
S31502002170022006E000BF00BF082002E000BF00BF49
S31502002180012048EA00080137E2E700BF00BF00BFAE
S31502002190A1F13A0010F10A0F02D2002012E000BFAC
S315020021A000200A4600BF00BF17F8011F00EB80009F
S315020021B0A1F13A0302EB400013F10B0FA0F130003C
S315020021C00A46F1D82E290FD13A4612F8011F2A29BA
S315020021D00DD1D9F8001002370A1DC9F800200E6881
S315020021E001211DE000BF00BF0021002618E0A1F179
S315020021F03A0313F10A0F02D2002100260FE000264D
S3150200220012F8013F06EB8607A3F13A0601EB4701F6
S3150200221016F10B0FA1F130061946F1D80121174626
S3150200222017F8012B02F0FB03682BF9D0632A0FDCA7
S31502002230252A2ED0582A24D0632A6AD1D9F800003A
S31502002240011DC9F80010017879E700BF00BF00BF81
S31502002250A2F17003082B1ED8DFE803F0055B5B6171
S315020022605B4E5B5B1300D9F800001022011DC9F812
S3150200227000100168082300200826CDE9006016A890
S3150200228045E0D9F800100A1DC9F800200968102295
S3150200229039E0252153E7642A3BD1D9F800104CF6E0
S315020022A0CD4C0A1DC9F80020D1F800E0CCF6CC4C82
S315020022B0CEF100017246BEF1000F48BF0A460A2A55
S315020022C003914FF0010107DBA2FB0C35632A01F1F2
S315020022D001014FEAD502F7D88E4256EA818B0028D1
S315020022E040D0BEF1000F5FEA5F9108F0040241EAB6
S315020022F09201A0EB010A37E0D9F800100A1DC9F8CD
S31502002300002009680A22CDE9000816A8334600F023
S31502002310B7F8199CB4F1FF3F3FF70AAF89E0D9F845
S315020023200000021DC9F80020006844F6E7220028D2
S31502002330C0F20B2250EA12855FEA018800BF00BF95
S315020023402978002E5FEA18800029E2D00028E0D121
S3150200235016A8013500F071F8199C013EB4F1FF3F51
S31502002360EEDC66E04FF0000A5FEA88750CD55EB9CE
S31502002370002CCED4BEF1000F29D45FEA4870CDF806
S3150200238010E02DD52B2125E05FEAC870F0D1BAF115
S31502002390000FEDD0D345EBD20295CDF810E0AAF1AD
S315020023A0010500BF00BF00BF202116A800F045F8B6
S315020023B0199C002C3DD4681EA84202D2AB450546A4
S315020023C0F2D300F1010ADDF810E0029DD0E72D21DB
S315020023D00398049016A800F030F8199C002C28D413
S315020023E0002D05D40A22CDE900A816A804998DE786
S315020023F008F001003043F5D1BAF1000FF2D0AAF18C
S315020024000105554538BFD345ECD2302116A800F058
S3150200241014F8199CAA46002CF1D50AE044B1189D7D
S3150200242025B106A905982A46FFF753FE2C4400E07B
S31502002430002420461BB0BDE8F08F10B50446D0E953
S315020024400120431C934207D822681154A360E06816
S3150200245062680130E0601846904218BF10BD2168DC
S315020024602069FFF736FEA168884202D10020A060EB
S3150200247010BD4FF0FF30E06010BDD4D4D4D4D4D414
S315020024802DE9F04F81B015460E4691421F46814610
S31502002490DDF828B04FF0010007D3314600BF00BF78
S315020024A0B1FBF5F10130A942FAD2874257EA808A96
S315020024B0BBF1000F0B991BD011F0010018D1880750
S315020024C04FF0200048BF30202021002F50EA01881B
S315020024D0BBF1000F0CD0DA450AD248464146ABF1B1
S315020024E0010BFFF7AAFFD9F80C00B0F1FF3FEFDCB2
S315020024F0D9F80C0000283CD4012400BF00BF00BF5D
S31502002500022F01D3013F03E0B6FBF4F0A84201D348
S315020025106C43F5E742F28838C0F2012800BF00BFDB
S31502002520B6FBF4F7484618F80710FFF786FFD9F806
S315020025300C00002806D4B4FBF5F007FB1466A5428E
S315020025400446EDD90B98C00718BFBBF1000F0AD19C
S315020025500FE020214846FFF770FFD9F80C00A3468A
S31502002560B0F1FF3F05DDABF101045C4538BFDA454A
S31502002570EFD301B0BDE8F08F00284FF0010342D03F
S31502002580002940D02DE9F04FD0F800E0BEF1000F4F
S3150200259036D04469A4B3858895B3C68886B30789BD
S315020025A077B3B0F80EB0BBF1000F29D0B0F810A087
S315020025B0BAF1000F24D0B0F818C0BCF1000F1FD03A
S315020025C0B0F81A80B8F1000F1AD0B0F81C90B9F121
S315020025D0000F15D00123AF4228BFE14511D343892D
S315020025E05B44AB420CD883895344B34208D84EEAC3
S315020025F001032343DB0703D1624506D2022300E02F
S315020026000123BDE8F04F18467047721E042302FBF1
S315020026100752002AF5D4A8F1010505FB09C5002DCC
S31502002620EFD40EEB420304EB4502A34288BF724588
S3150200263058D88B4201EB4C0388BF734552D8A3424C
S3150200264088BF8A424ED800220B46C78957430132B9
S31502002650B7FBFCF723F8027BB0F818C06245F4D347
S31502002660478BEFB34FF0000E4FF00008BCF1000F9E
S315020026702ED0028A84890589868B08FB02F2B2FB78
S31502002680F7F22244448902FB05F7056842690EFB0C
S315020026900626002205EB470505EB440700250C46F6
S315020026A00CEB05030832082BA5F1080528BF082301
S315020026B013F001E831FE4D4FB4EC881E97FC912EC3
S315020026C0A6EC883EB0F818C06245E9D3478B01E014
S315020026D04FF0000C08F101080EF1020EB845C5D301
S315020026E000238EE703238CE770B544F2F865C2F245
S315020026F00E25286808B101241BE0002004F09CF88E
S31502002700286078B10021002404F05FF944F2FC66E7
S315020027100028C2F20E26306028680CD004F0F0F8C9
S315020027202C6006E044F2FC600221C2F20E20016037
S315020027300024204670BD4FF48071802206F076FE9A
S3150200274044F20071C2F20E21086090B1286801219C
S3150200275004F09EF900283060EAD12868012100229F
S31502002760002403F003F800283060E2D100F008F8F4
S31502002770C1E701203060286804F0C2F80024CFE7E0
S315020027802DE9F04F83B040F2000A0020C6F6000A97
S3150200279080EF50000122022487FF5F2E0DF104080C
S315020027A04FF0000B00BF00BF44F6EE2145F2BC63BA
S315020027B0C0F20B21C0F20B2311F80B70A7F1300106
S315020027C0492900F25180DFE811F04A00AC0084008A
S315020027D09300B10070006B006600C5007A00CA0063
S315020027E0F700F700F700F700F700F700F7007500AB
S315020027F0BB00A200F700F700F700F700F700F700AA
S31502002800F700F700F700F700F700D900F700F70026
S31502002810F700F700F700F700F700F700F700F700F8
S31502002820F700F700F700F700F700F700CF00F70010
S31502002830E3005C00C000F700A7008900ED00F70086
S31502002840DE007F006100D40098008E00F700E800E9
S315020028509D00B600F200F700F700F700570045F2B8
S31502002860CB63C0F20B23A7E0202F40F0A58045F2F0
S31502002870C163C0F20B239FE045F25273C0F20B23F1
S315020028809AE045F21B73C0F20B2395E045F26173A1
S31502002890C0F20B2390E045F2EE63C0F20B238BE00D
S315020028A045F2E963C0F20B2386E045F2E463C0F227
S315020028B00B2381E045F2FD63C0F20B237CE045F277
S315020028C0F863C0F20B2377E045F22A73C0F20B23BA
S315020028D072E045F2D563C0F20B236DE045F25C73FC
S315020028E0C0F20B2368E045F23973C0F20B2363E0B2
S315020028F045F2DA63C0F20B235EE045F23473C0F2AE
S315020029000B2359E045F24373C0F20B2354E045F220
S315020029100773C0F20B234FE045F25773C0F20B2345
S315020029204AE045F2D063C0F20B2345E045F2DF638D
S31502002930C0F20B2340E045F24873C0F20B233BE0A2
S3150200294045F20273C0F20B2336E045F22073C0F261
S315020029500B2331E045F2F363C0F20B232CE045F280
S31502002960C663C0F20B2327E045F21173C0F20B23B4
S3150200297022E045F22F73C0F20B231DE045F20C73E1
S31502002980C0F20B2318E045F22653C0F20B2313E0E4
S3150200299045F21673C0F20B230EE045F23E73C0F207
S315020029A00B2309E045F22573C0F20B2304E045F23E
S315020029B04D73C0F20B2300BF1F791B68019340F2CF
S315020029C000034FEA8B11C6F600030B440026591D7D
S315020029D08DF80870CDF800A001EBC60C4FF0050982
S315020029E002FA06F7A4EE107B4546574644F001E08C
S315020029F029F001E871FE4D0FB5FC046F04EF566134
S31502002A0027FECF0F20EF506171FE4D0F22EF52616C
S31502002A1029F001E8A9F1040971FE4D0FA7EC046F34
S31502002A200FF01BC001360AF1080A082E8CF80200C4
S31502002A30ACF80000D0D10BF1010BDDF800A0BBF120
S31502002A40230F0AF1400A9863D8637FF4ADAE03B050
S31502002A50BDE8F08F44F2FC60C2F20E2000687047B7
S31502002A602DE9F04782B044F20478C2F20E2898F8B3
S31502002A700070012F03D144F2FC6012212AE044F2D5
S31502002A80F8690746C2F20E29D9F8000098B10D4638
S31502002A9044F20071C2F20E21096881B19FB1002D84
S31502002AA005DD1446002A12DD1E46AB421ADA44F24E
S31502002AB0FC600A210EE044F2FC6002210AE044F2C4
S31502002AC0FC60042106E044F2FC60112102E044F2BB
S31502002AD0FC600B21C2F20E2001600026304602B0D5
S31502002AE0BDE8F08706F0FDFC44F2FC6A0028C2F25B
S31502002AF00E2ACAF80000F0D1D9F800000321CDE968
S31502002B000041394632462B4607F06EFE0028CAF8C7
S31502002B100000E2D1691E621ED9F8000017B20BB29C
S31502002B20002100220097002607F027FE0028CAF897
S31502002B300000D3D144F2087044F20C71C2F20E20A6
S31502002B40C2F20E21012688F8006005600C60C5E716
S31502002B502DE9F04F83B044F2F866C2F20E263568CC
S31502002B60002D00F0AB8044F20477C2F20E273F78C4
S31502002B70002F00F0A780DDF83480B8F1000F40F393
S31502002B80AD80904250EAC28450EAB28A994251EA32
S31502002B90C38051EAB38950EA040100F1978044F2F6
S31502002BA00871C2F20E2109688A4580F28F8044F2CA
S31502002BB00C72C2F20E221268914580F287800C9B3B
S31502002BC04FF0F80CA1F1010E03F01F070CEA1321D6
S31502002BD0013A41EA533CF90041EA97014FF4407742
S31502002BE007EA530703F4FC63744554EABE8B47EACB
S31502002BF043130024904250EAB28743EA0C4042183B
S31502002C000021284602F09FFD44F2FC610028C2F230
S31502002C100E21086069D12AEAEA70029429EAE9716A
S31502002C20000102B208010FFA80F94FEA0B1005B251
S31502002C304FEA081093460FFA80FA306811464A4660
S31502002C402B46CDE9009A07F083F944F2FC6100288D
S31502002C50C2F20E21086048D1380129460FFA80F8DF
S31502002C6030684A462B460024CDE9008A029407F0D2
S31502002C706FF944F2FC61C2F20E210860A8BB30680B
S31502002C80294642465B46CDE9008A029407F060F97E
S31502002C9044F2FC61C2F20E21086030BB30680D4678
S31502002CA000210291594642465B46CDE9009A07F059
S31502002CB04FF900285FEA1F94286016E044F2FC6090
S31502002CC002210EE044F2FC6003210AE044F2FC60B9
S31502002CD00021C2F20E200124016006E044F2FC60EB
S31502002CE00A21C2F20E2001600024204603B0BDE88C
S31502002CF0F08FF0B581B044F2F866C2F20E26306863
S31502002D0048B344F20071C2F20E21096851B344F28B
S31502002D100475C2F20E252A78DAB30022002406F0E0
S31502002D2039FC44F2FC67C2F20E273860C0BB306839
S31502002D3003F0E7FE44F208720028C2F20E225FEAAE
S31502002D401F912C703860146044F20C72C2F20E228B
S31502002D5014600C462FE044F204700024C2F20E20E6
S31502002D60022105E044F204700024C2F20E2004217E
S31502002D70047044F20870C2F20E20046044F20C7031
S31502002D80C2F20E20046044F2FC60C2F20E20016020
S31502002D9011E044F2FC600321C2F20E20002401601D
S31502002DA044F2087044F20C71C2F20E20C2F20E21F5
S31502002DB02C7004600C60204601B0F0BDD4D4D4D48B
S31502002DC02DE9F04F89B044F2F86AC2F20E2ADAF817
S31502002DD00050002D45D0804644F20470C2F20E2007
S31502002DE00078002841D01446002A42D0DDF848B0C7
S31502002DF0BBF1000F41DD0E4603F01F01F820CA00A9
S31502002E0000EA13204FF4407742EA910103F4FC6290
S31502002E1040EA533007EA5303002743EA421242EAE2
S31502002E20004042180021284602F08DFC44F2FC695B
S31502002E30C2F20E29C9F8000030BBDAF800000221FE
S31502002E40032202F093FCC9F8000008B30546DAF83B
S31502002E50000001210022002702F088FCC9F8005078
S31502002E6012E044F2FC6002210AE044F2FC60032113
S31502002E7006E044F2FC60112102E044F2FC600A2101
S31502002E80C2F20E2001600027384609B0BDE8F08F75
S31502002E900BEB8B0000270001CBEBCB0100B20890B5
S31502002EA0080100B20790300106B20BEB4B004FEA65
S31502002EB0400B00BF00BF00BF207820283CD000286E
S31502002EC03DD044F6EE220021C0F20B2200BF00BF25
S31502002ED012F8013B834203D001312329F8D10021A4
S31502002EE040F20002DAF80000C6F60002052302EB01
S31502002EF0811108220725CDE9005701F00BFD054691
S31502002F000028C9F80000DAF80000A2D14FEA081139
S31502002F10089A09B20192079ACDE9022105210722F0
S31502002F200023009704963025059501F023FD00281D
S31502002F30C9F800007FF48AAFD8440134BCE7DAF856
S31502002F4000000121002202F011FC00285FEA1F970F
S31502002F50C9F8000098E780B582B04FF000010191F0
S31502002F60F0B1007803281BD145F2A40001ABC2F2EE
S31502002F700E204FF4806201684EF69F30C0F20020A8
S31502002F800DF0EDFB60B1019850B14EF604504FF0D2
S31502002F908051CEF200000160BFF34F8FBFF36F8FF7
S31502002FA002B080BDD4D4D4D470B544F600144EF623
S31502002FB06876C6F638044FF496112046CEF200061D
S31502002FC00DF0D3FD4CF6001547F20001C6F65D057D
S31502002FD0C0F2170128460DF0C8FD4BF6FF7104F04A
S31502002FE01F00C0F2120105F01F02084446F6FF71E7
S31502002FF0C0F217010123BFF34F8F114403EB501E9A
S3150200300003EB511000BF00BF346020340FF005C03F
S31502003010BFF34F8FBFF36F8FBFF34F8F40F001E0C7
S315020030204CF60010C6F65D00306020300FF005C089
S31502003030BFF34F8FBFF36F8FBFF35F8F45F2700001
S3150200304045F68C11C2F20E20C0F20B2109F06DFD7D
S31502003050044678B945F27000C2F20E2009F0B2FFBA
S3150200306038B1044645F27000C2F20E2009F03AFF6A
S3150200307000E00024204670BDB0B582B045F2A4053A
S315020030800446C2F20E254FF4806128680BF056FD05
S3150200309028684FF4806101220023009400240BF07B
S315020030A099FC400558BF1424204602B0B0BDD4D4C2
S315020030B080B544F210700021C2F20E2040F60012D2
S315020030C0C6F600024BF6FF7C016044F21470C2F2AF
S315020030D00E20C0F2120C4CF60013016002F01F0023
S315020030E0C6F61203604403F01F030121BFF34F8F9C
S315020030F0634401EB501E4EF67070CEF2000001EBF7
S31502003100531300BF00BF00BF026020320FF005C09C
S3150200311048F600110122C6F62501BFF34F8F01F0D2
S315020031201F01BFF36F8F6144BFF34F8F43F001E07E
S3150200313002EB51114CF60012C6F6120200BF00BF96
S31502003140026020320FF005C0BFF34F8FBFF36F8FBF
S31502003150BFF34F8F41F001E048F60011C6F6250194
S31502003160016020310FF005C0BFF34F8FBFF36F8FA1
S31502003170BFF35F8F45F25C0045F66011C2F20E2086
S31502003180C0F20B21BDE8804008F0ABB910B545F29C
S315020031905C000021C2F20E2008F0B3FA044640B9E0
S315020031A000F0D9F968B1044600F0E4F928200CF0E1
S315020031B0E5FC45F25C00C2F20E2008F03CFA20461D
S315020031C010BD0024FBE780B500F0D4F900B180BD44
S315020031D028200CF0D3FC45F25C00C2F20E20BDE8BA
S315020031E0804008F028BAB0B580B1054607F075FFF1
S315020031F044F21070C2F20E20046844F21470C2F255
S315020032000E200068286007F096FF00E000242046A2
S31502003210B0BD80B582B04FF000010191A8B301683C
S31502003220022915D0012930D1017A890620D5C06834
S3150200323070B144F210714FF42052C2F20E210860AE
S3150200324044F21470C2F20E2001680131016001E0FD
S315020032504FF4805245F2A40001ABC2F20E20BFF336
S315020032605F8F01684EF69F30C0F200200DF077FAAC
S31502003270019850B14EF604504FF08051CEF2000044
S315020032800160BFF34F8FBFF36F8F02B080BD7047EF
S315020032902DE9F04182B0861C4AF6AA274FF6FF7442
S315020032A00DF1070800218DF8071000BF00BF00BF0F
S315020032B036F8020CB84213D0A04218D0317800F08A
S315020032C09BF936F8021CA0B90846414600F0CCF933
S315020032D0C8B932789DF8073093421FD105E000BF86
S315020032E030784FF47A710AF0FCFD0436E0E70025E7
S315020032F01DE00546327845F237202B46C0F20B20F8
S3150200330000F019F813E0054636F8021C45F21930AA
S315020033102A46C0F20B2000F00EF808E036F8021C2E
S3150200332045F2ED10C0F20B2000F005F80125284603
S3150200333002B0BDE8F08183B080B581B0844603A8AF
S315020033400EC003A800906A4600206146FEF7E0FE22
S3150200335001B0BDE8804003B07047D4D4F0B581B067
S315020033602DED048B0A204FF47A710AF0BAFD44F669
S315020033704C703C21C2F20E20012208F04FFF0028B9
S3150200338040F0C58045F2F075EFF31080C2F20E25CB
S31502003390012181F3108840F614542968C4F24004CE
S315020033A019B9002121704021217029684FF6D046B3
S315020033B001312960CFF6FF7680F3108843F6FA775B
S315020033C00121CFF6FE77A05938400430A051EFF321
S315020033D0108081F31088296811B1296801392960A2
S315020033E0296819B9002121708021217080F3108883
S315020033F014204FF47A710AF074FD0121EFF3108064
S3150200340081F31088296819B90021217040212170A1
S3150200341029680131296080F310880121A0593840BA
S3150200342040F00500A051EFF3108081F3108829685F
S3150200343011B1296801392960296819B90021217059
S315020034408021217080F3108814204FF47A710AF0DB
S3150200345048FD40F23800C2F20020FFF719FF0028AB
S3150200346055D132204FF47A710AF03BFD43F2350012
S31502003470122100F0C1F8002849D143F236007B211F
S3150200348000F0BAF8002842D143F23700082100F0D2
S31502003490B3F8E0BB43F20810122100F0ADF8B0BB5E
S315020034A044F218704DF60001C2F20E20C0F2B85175
S315020034B09FED1C0AB6EE008A0160B1EEC09A9FED3E
S315020034C01A0AB0EE481A09EE001A43F60C00BCEED0
S315020034D0C10A10EE104A210A00F08EF8B8B9E1B21C
S315020034E043F60D0000F088F888B939EE080A43F66B
S315020034F00E00BCEEC00A10EE104A210A00F07CF85B
S3150200350028B9E1B243F60F0000F076F818B1BDEC27
S31502003510048B01B0F0BDBDEC048B01B0BDE8F040F8
S3150200352000F004B8007C9249ABAAAA3F80B582B0EB
S315020035300DF1070144F6140000F096F848B99DF81B
S31502003540070000F03F0144F614008DF8071000F062
S3150200355053F802B080BD80B543F20800022100F0A4
S315020035604BF800B180BD44F202200021BDE8804044
S3150200357000F042B844F202200F2100F03DB844F6B2
S315020035804C7045F2D071C2F20E20C0F20B2108F047
S31502003590BBBDD4D4D4D4D4D470B544F21C75C2F213
S315020035A00E252978884210D00446FF2600BF00BFA8
S315020035B0287801280BD0013E300612D00A200121BC
S315020035C00AF08FFC28788442F2D1002070BD44F6BE
S315020035D002002146C0F20B2000F096F84FF49670D6
S315020035E070BD2A7845F29F00C0F20B20214600F0FA
S315020035F08BF8142070BDD4D480B582B08DF8071034
S3150200360044F21C71C2F20E21020A8DF806000DF177
S3150200361005008DF8052000220A7000F01F01023114
S315020036200122BFF34F8F02EB511E4EF66871CEF2A6
S31502003630000100BF00BF00BF086020300FF005C0C8
S31502003640BFF34F8FBFF36F8F44F64C700DF1050138
S31502003650C2F20E200322002308F0DAFD10B903207D
S31502003660FFF79AFF02B080BDB0B582B00C460029C2
S3150200367001464FF001003DD00DF1060244F21C75E1
S3150200368002F01F02C2F20E25013200EB521E48BAA8
S31502003690ADF8060000202870BFF34F8F4EF6687112
S315020036A00DF10600CEF20001086020300FF005C0D1
S315020036B0BFF34F8FBFF36F8F44F64C700DF10601C7
S315020036C0C2F20E200222012308F0A2FD90B90320C5
S315020036D0FFF762FF70B90020287044F64C70012291
S315020036E0C2F20E200023214608F08CFD10B90220FA
S315020036F0FFF752FF02B0B0BD28B144F21C71007947
S31502003700C2F20E210870704783B080B581B084463C
S3150200371003A80EC003A800906A4600206146FEF781
S31502003720F7FC01B0BDE8804003B0704770B598B0B1
S315020037300E4605466846602114460DF016FA042C1C
S3150200374001D816B90CB100241BE034B104EB4400D5
S315020037503146C20068460DF00CFA07F0BEFC44F290
S3150200376020706946C2F20E206022E0E802540DF093
S3150200377000FA44F288700124C2F20E20047007F0A7
S31502003780DAFC204618B070BDB0B5A0B1054607F008
S31502003790A4FC44F28870C2F20E200478012C07D1F0
S315020037A044F220716822C2F20E2128460DF0E1F998
S315020037B007F0C1FC00E000242046B0BDD4D4D4D426
S315020037C000284FF0010C00F0CD80002A00F0CA80DC
S315020037D02DE9F04F03AF8BB06C466FF30304A54699
S315020037E0BD69002D00F0B98045EA000616F0010613
S315020037F040F0B380B1F5961F02D24FF0020CACE056
S31502003800B3F5404F02D24FF0030CA6E0F9698029C6
S3150200381002D24FF0040CA0E000F5961302F54041E7
S31502003820934288BF814200F29680AB4205F58073CF
S3150200383088BF834200F28F80A94288BF934200F27A
S315020038408A8049A14FF0100E082391ED001F4AA16C
S315020038502C4691ED003F4FF4167100BF00BF00BF2A
S3150200386023EE617EB9FF566021EE615EACEC086F15
S3150200387023EE432F21EE430FB9FF54400CED044FC4
S315020038800FF013C000F5D470009002F1020B002273
S3150200389042F2091344F20510802100BF00BF00BFA7
S315020038A04FF41656019272434FF60006C0F21F06F7
S315020038B04FF000083240009E32440392CDF808B021
S315020038C0AC4605EB48054FF6FF72DA4695ED801ECB
S315020038D0EDEE102A039A04AD71FE4D0F92FC912E65
S315020038E00822B0FF420185ED001F42F001E000BF51
S315020038F035F8029B4FEAD924C9F3451609F01F028F
S315020039002402A4EBD924C6EB06265C43C2EB0222B0
S3150200391046435A4381EA94440AF8024C81EA165411
S315020039200AF8014C81EA92420AF8032B0FF021C0F1
S31502003930B8F1780F08F108080BF1180B6546BFD3EA
S31502003940019ADDF808B001320BF5C07B802AA7D1B7
S315020039504FF0000C01E04FF0050CA7F10C04A54650
S31502003960BDE8F04F60467047040000000500000005
S315020039700600000007000000000000000100000031
S31502003980020000000300000000284FF0000C00F0C7
S31502003990A980002900F0A680012AC0F2A3802DE9A1
S315020039A0F04F81B02DED088B82B0B7EE001A42F2CD
S315020039B09B4BB4EE410AA2F10109F1EE10FAB5EE03
S315020039C0400A4FF0000884EF532631FE001A9FED9D
S315020039D0460AF1EE10FA48BFB0EE401A9FED430ACE
S315020039E04FF03A0AC3F60A4B80EF504000274FF0D9
S315020039F0000C01F12803019307EB8703034493F9B3
S31502003A0004603A3606EE106AB8EEC66A26EE006A18
S31502003A10B4EE416AF1EE10FA5AD493ED008F29EE14
S31502003A204A8FBBFF488639EE6B8E08FF528D39EE00
S31502003A30031F33FE09AF39EECF1F35FE0B8FB4EEEF
S31502003A40489AF1EE10FA43D9F4EE689AF1EE10FABA
S31502003A503ED9944508DA0CEB4C030CF1010401EB58
S31502003A60C3066346A44626E0022A18D349F001E0BB
S31502003A7000230125019E00BF03EB430496ED007A65
S31502003A80183601EBC404D4ED040AB4EE607AF1EE02
S31502003A9010FA55EA438301350FF013C000E0002304
S31502003AA003EB430601EBC60696ED047AB4EE476ACB
S31502003AB0F1EE10FA0CDD86ED009F86ED046A03EB4B
S31502003AC0430301EBC303C3F8148000BF00BF00BF6A
S31502003AD00137B7F5A87F8FD102B0BDEC088B01B0D4
S31502003AE0BDE8F04F60467047000000009B240A3C88
S31502003AF02DE9F04F89B000284FF0000800F0E6806B
S31502003B000129C0F2E380B7EE001AB4EE410AF1EEE3
S31502003B1010FAB5EE400A31FE001A9FED6E0AF1EE7A
S31502003B2010FA48BFB0EE401A0229009145D3009917
S31502003B3000F1280B8A1E01394FF0000CCDE9011263
S31502003B40A1EB0C0EE2460CF1010C5B4666465546AD
S31502003B5005EB450793ED002A183300EBC70797EDEF
S31502003B60043AB4EE432AF1EE10FA56EAC585013656
S31502003B700FF013C055451CD00AEB4A0303AA05EB06
S31502003B804507644600EBC30E734600EBC70793E88E
S31502003B90621382E862133946A446B84691E8FC00ED
S31502003BA003A98EE8FC0091E8FC0088E8FC00DDE948
S31502003BB0011292450BF1180BC2D100F10C0C4FF019
S31502003BC000094FF00008DDF800B000BF00BF00BFDB
S31502003BD0B8F1010F09EB490E67DB00EBCE0466462E
S31502003BE04746257D00BF00BF317A8D4259D194EDFB
S31502003BF0002A16ED033AB4EE432A94ED014AF1EE99
S31502003C0010FA16ED025A94ED027AB4EE454A16ED12
S31502003C10016A72FE032AD4ED030AF1EE10FAB4EE3B
S31502003C20476AD6ED001A74FE053AF1EE10FAF4EE82
S31502003C30601A77FE064AF1EE10FA74EEE22AF0EE08
S31502003C40404AF5EE402A70FEA15AF1EE10FA23D947
S31502003C5075EEE33AF0EE404AF5EE403AF1EE10FA2E
S31502003C601AD937EE422A36EE433A31EEC55A30EECB
S31502003C70C44A23EE053A02EE043A22EEA32AF0EEF5
S31502003C80404A33EE423A82EE032AB5EE403AF1EE6C
S31502003C9010FA88BFF0EE424AF4EE414AF1EE10FA0B
S31502003CA00FDC013F06F118069ED108EB480108F128
S31502003CB0010800EBCE0700EBC10A97E87E008AE80E
S31502003CC07E0009F10109D9457FF482AF404609B069
S31502003CD0BDE8F08F000000009EB040F2D82045F209
S31502003CE0FC71C2F20020C0F20B2107F0C0FA60B1EB
S31502003CF0014645F27A50C0F20B2000F0C7F800BE2A
S31502003D004FF47A700BF03AFFFAE745F2A405042164
S31502003D10C2F20E2528680AF0FBFDFCF762FF044694
S31502003D20FCF76AFF049404B38146F0B128680821BF
S31502003D300AF0EEFD28680221002201234FF0FF342B
S31502003D40009400260AF046FE80071AD444F667500D
S31502003D50C0F20B2000F09AF800BE00BF00BF00BF01
S31502003D604FF47A700BF00AFFFAE744F69260C0F25B
S31502003D700B2000F08BF800BE4FF47A700BF0FEFEBB
S31502003D80FAE74EF65C7B44F29077CDF80C900DF193
S31502003D90740ACEF2000B0DF114099FED3A8A9FEDDB
S31502003DA03A9A4FF00008C2F20E2700BF00BF00BFCA
S31502003DB028684FF40051012200231D9600940AF050
S31502003DC009FE8004F4D55046FFF70DFA08B92FF024
S31502003DD011C81D994145EBD04BF6FF7200F01F0149
S31502003DE0C0F2120211440122BFF34F8F02EB511EA1
S31502003DF0014600BF00BF00BFCBF8001020310FF014
S31502003E0005C8BFF34F8FBFF36F8F4FF496114FF470
S31502003E1040438022CDE90072049AFFF7D1FC00BB31
S31502003E200020FCF7EEFE042203984946B0EE480A4B
S31502003E30FFF7AAFD01464846B0EE490AFFF758FECB
S31502003E4002461D984946FFF771FC00B900BEBFF352
S31502003E505F8F28684FF480410AF05AFDDDF87480BE
S31502003E60A6E7014644F612301D9AC0F20B2000F076
S31502003E700DF800BE00BF00BF4FF47A700BF07EFE55
S31502003E80FAE700BFCDCCCC3E6666E63E83B080B58F
S31502003E9081B0844603A80EC003A800906A4600209B
S31502003EA06146FEF735F901B0BDE8804003B07047C0
S31502003EB082B0FFF764FB60B1014645F23F10C0F2E3
S31502003EC00B2000F072F800BE4FF47A700BF056FE2B
S31502003ED0FAE70A200BF052FEFFF740FA68B10146F4
S31502003EE044F65610C0F20B2000F05FF800BE00BF89
S31502003EF04FF47A700BF042FEFAE745F2A40402216F
S31502003F00C2F20E2420680AF003FD20680121002275
S31502003F1001234FF0FF3500950AF05CFDC00700D182
S31502003F2000BEFFF7C5F860B1014645F24F40C0F248
S31502003F300B2000F03AF800BE4FF47A700BF01EFE2A
S31502003F40FAE7FFF723F960B1014645F24930C0F2BC
S31502003F500B2000F02AF800BE4FF47A700BF00EFE2A
S31502003F60FAE745F2A050C0F20B2000F01EF84FF01F
S31502003F70FF3500BF00BF00BF20684FF48051012209
S31502003F80002300950AF026FDC004F5D545F2DD00B2
S31502003F90C0F20B2000F009F8FFF715F900BE00BFCA
S31502003FA04FF47A700BF0EAFDFAE783B080B581B080
S31502003FB0844603A80EC003A800906A460020614604
S31502003FC0FEF7A6F801B0BDE8804003B07047D4D42E
S31502003FD0B8B0002037901DA868210CF0C6FDFEF788
S31502003FE0E3FF00B100BEFEF77FFB48B9FEF732FDE4
S31502003FF0014644F67140C0F20B2000F071FA00BE91
S3150200400045F2A4094EF65C78C2F20E290121CEF2DF
S3150200401000084FF0010AD9F800000AF079FC44F6CC
S3150200402000104CF60011C6F63800C6F65D014BF6D6
S31502004030FF744BF2FF7200F01F00C0F2120401F08F
S315020040401F01C0F20B02204411440FF2744345F2E1
S31502004050BE570AEB501009900AEB511003900FF26B
S31502004060704093ED009F4FF0FF3B37AD15AEC0F2A7
S315020040700B27B0EE0ECA9FED61DA90ED00BFB6EEE9
S3150200408000EA00209FED5EFAF7EE00CADFED5DDA88
S31502004090049001200B9000200A9001200C9000BF92
S315020040A0D9F800004FF4006101220023CDF800B0D8
S315020040B00AF090FC0005F3D52846FFF794F800F0C5
S315020040C01F0101EB040237990AEB521E08B92FF0C1
S315020040D019C80A9A9142E3D044F600114FF4961297
S315020040E00C9BC6F6380103FB02148DED169F159044
S315020040F01A948EED0CAFBFF34F8F00BF00BF00BF07
S31502004100C8F8000020300FF005C8BFF34F8FBFF389
S315020041106F8F44F690014FF448723046C2F20E2178
S31502004120FEF72AFA38B1014644F2AA40C0F20B2041
S3150200413000F0D6F900BEBFF34F8F099840F001E0B8
S31502004140C8F80C4020340FF005C8BFF34F8FBFF3F9
S315020041506F8FBFF35F8FD9F800004FF480410122C1
S315020041600023002600960AF035FC400440F1438104
S315020041701DA8FFF709FB002800F004814BF6000199
S315020041804CF60010C0F20B010B9AC6F65D0002FB5C
S31502004190010A50460CF0E9FCBFF34F8F039840F03A
S315020041A001E0504600BF00BFC8F80C0020300FF0F7
S315020041B005C8BFF34F8FBFF36F8FBFF35F8F1E9894
S315020041C0002800F0E1804FF448714FF4F0724FF48A
S315020041D048735046FEF744FC002800F0D8801E982B
S315020041E0002800F0DB8001260DF1740A00200590FC
S315020041F09AF81C0040B10125BAE000BF0000204336
S31502004200000000000000C8429AED040AB0EE4D1A02
S31502004210A0EE0C1A9AED020AB0EE4D2A40F21F31B8
S31502004220A0EE0C2A9AED050AB0EE4F3A0125A0EE51
S315020042300C3A31EE0E0A32EE0E1ABDEEC00A33EE1B
S315020042400E2A10EE100ABDEEC10ABDEEC21A20EA0F
S31502004250E070884250EAB18210EE100A11EE101A8E
S3150200426020EAE07421EAE173B3F5EF7FC8BF40F2BA
S31502004270DF1394427CD29AED030AB0EE4F1AA0EEF7
S315020042800C1A012031EE0E0ABDEEC00A10EE101A0B
S3150200429021EAE1759D4223D2079104204FF4784129
S315020042A0CDE900102046294608942C46FEF750FC1C
S315020042B0002877D09AED060A0696B5EE400AF1EE88
S315020042C010FA0FD9B4EE6C0AF1EE10FA0CDAB0EE6F
S315020042D04E1AA0EE2D1ABCEEC10A10EE100A04E028
S315020042E0054645E0002000E064209AF81C1045F2DD
S315020042F06872C0F20B220DAE0090304652F82130A1
S3150200430044F684122021C0F20B220CF04FFD00204D
S315020043108DF8530030460CF03DFC00EBC0004FF424
S3150200432048714FF478430322A1EB400007991629FE
S315020043304FF00201C8BF6FF0160120EAE070214477
S31502004340089D854255EA308021EAE171B1F5E57FA3
S31502004350C8BF40F2CB1100923246FEF731FD044649
S3150200436010B9FEF777FB0590069E254600BF00BFF3
S31502004370E5B11E980AF1180A864206F10106FFF413
S3150200438037AF13E0002636E04FF0010A25E000249D
S31502004390FEF760FB05904FF0010A15E0002005903C
S315020043A0012503E00025FEF755FB0590FEF7A1FC6B
S315020043B0044635B14FF0010A2CB9FEF74BFB0590C6
S315020043C001E04FF0010A2C4004982043C00708D0B0
S315020043D04FF000066CB100200490BFF35F8F0126F8
S315020043E009E045F271200599C0F20B2000F078F839
S315020043F00026012004900124002500BF00BF00BF53
S315020044003220FEF739FE14280AD1E8074FF00105DB
S31502004410F6D1384600F064F80125F1E700BF00BF87
S3150200442000B100BEE0071AD044F600104FF4961110
S315020044300C9AC6F6380002FB010145F27000002212
S31502004440C2F20E2008F0D5FD40F2EE31884209D0C4
S3150200445038B937980A900C9880F001000C90002425
S3150200446001E000BE0124F0071AD040F277100B9942
S3150200447048434CF60011C6F65D010122012601EB06
S31502004480C02145F27000C2F20E2008F0B2FD40F2E1
S31502004490EE31884205D040B90B9880F001000B90AE
S315020044A0002654EA0600A7D102E0012600BEF8E77C
S315020044B04BF6FF7437ADC0F2120415AEF0E500BF3D
S315020044C00004580200040C000000E8035802000031
S315020044D020030000E00100000004000000000000CC
S315020044E083B080B581B0844603A80EC003A80090AD
S315020044F06A4600206146FDF70BFE01B0BDE880402A
S3150200450003B07047D4D4D4D401200BF037FBFBE7B9
S31502004510022818BF704780B545F2800045F628513B
S31502004520C2F20E20C0F20B2107F00DFD0120BDE8FC
S31502004530804009F0C1BDD4D44FF2440048F20001D4
S31502004540C4F20000C0F20D210160002101744AF29A
S315020045500151018400F004F801200BF00FFBFBE788
S3150200456083B080B581B003A80EC045F22B5103A8D3
S315020045700090C0F20B216A460020FDF7C9FD01B08A
S31502004580BDE8804003B0704780B584B045F2F410B0
S3150200459045F26C73C2F20E2044F6D06C49F6C83E60
S315020045A0C0F20B2301684FF400620131016003205F
S315020045B0009044F2F15044F20841C0F20020C0F2E9
S315020045C00B21C2F20E2CC2F20E2ECDE901EC0BF03B
S315020045D086F844F63871C2F20E21086008B104B0BA
S315020045E080BD0020002104B0BDE8804000F013B970
S315020045F010B5044600F014F92046BDE81040FFF756
S315020046006BBB80B584B045F2F41045F2F873C2F282
S315020046100E2044F68C7C4BF6C83EC0F20B23016892
S315020046204FF4C062013101600420009044F26B60D5
S3150200463044F6E301C0F20020C0F20B21C2F20E2CB6
S31502004640C2F20E2ECDE901EC0BF049F844F6F471F4
S31502004650C2F20E21086008B104B080BD002000211C
S3150200466004B0BDE8804000F0D6B810B5044600F0AC
S31502004670D7F82046BDE81040FFF71ABC80B545F2D0
S315020046808800C2F20E200AF010F945F2A401C2F225
S315020046900E21086000B180BD00200021BDE88040E7
S315020046A000F0B9B880B584B045F2F41045F614238B
S315020046B0C2F20E2045F2A80C4DF2C83EC0F20B2300
S315020046C001684FF48062013101600620009044F2D5
S315020046D00D7044F6AA71C0F20020C0F20B21C2F29C
S315020046E00E2CC2F20E2ECDE901EC0AF0F8FF45F2CD
S315020046F01011C2F20E21086008B104B080BD00207C
S31502004700002104B0BDE8804000F085B810B504462B
S3150200471000F086F82046BDE81040FFF759BC80B588
S3150200472084B045F2F41045F61823C2F20E2045F283
S31502004730141C4EF2C83EC0F20B2301684FF480727D
S31502004740013101600220009044F2877045F2704107
S31502004750C0F20020C0F20B21C2F20E2CC2F20E2EC3
S31502004760CDE901EC0AF0BBFF45F27C11C2F20E2143
S31502004770086008B104B080BD0020002104B0BDE885
S31502004780804000F048B810B5044600F049F82046CB
S31502004790BDE81040FFF7B8BEFFF770BF80B584B022
S315020047A045F2F41045F61C23C2F20E2045F2801C97
S315020047B04EF2C87EC0F20B2301684FF480720131BB
S315020047C001600720009044F6050044F63E11C0F24F
S315020047D00020C0F20B21C2F20E2CC2F20E2ECDE93F
S315020047E001EC0AF07CFF45F2E811C2F20E210860E4
S315020047F008B104B080BD0020002104B0BDE88040AD
S3150200480000F009B810B5044600F00AF82046BDE8E3
S315020048101040FFF791BE00BE7047D4D4D4D4D4D48E
S31502004820B0B545F2EC144FF0FF31C2F20E24206807
S315020048300AF00AFE012803D020680021FFF7EBFFE9
S3150200484045F2F010C2F20E20017801B1B0BD01218D
S315020048500170FFF7A1FF45F2F415C2F20E2500BF63
S31502004860286801382860F1D0206800210022002340
S315020048700AF0A2FA0128F3D020680021FFF7CBFF45
S31502004880EEE780B545F2F01245F2F410C2F20E22BE
S31502004890C2F20E200021117045F2F8120160C2F236
S315020048A00E224FF4807001210AF066FA45F2EC11ED
S315020048B0C2F20E21086018B900200021FFF7ABFFF3
S315020048C0FFF7F0FEFFF79DFEFFF75EFEFFF766FFBE
S315020048D0FFF725FF0BF0D6F9002080BD45F2402CEC
S315020048E045F2A823C2F20E2CC2F20E23C0F800C073
S315020048F00B6080201060704745F2A84C45F21053B9
S31502004900C2F20E2CC2F20E23C0F800C00B60802049
S315020049101060704710B5DDF80CC05FEACC6E04D5A6
S3150200492090F882E05FEA0E6E17D55FEA8C6E04D5C8
S3150200493090F882E05FEA8E6E0FD52CF0300EAEF163
S315020049400D0EBEF1020F0CD8D0F880E05FEACE342D
S3150200495007D40EF0FE04092C03D8092180F8C611EB
S3150200496006E0406A029C00F5B47080E81E10002141
S31502004970084610BD2DE9F04F8DB0446A8346924633
S31502004980DDF86C80D4E95B070D46169ED4F87421D7
S31502004990B0F5006F01EB0300A8BF28F00808B84283
S315020049A00AEB06000B93C8BFFD1ADBF8309006959A
S315020049B09042CDF830A0C8BFA2EB060AB9F1000FAB
S315020049C05FEA0F9018F4807F5FEA1080E27DD4F8E8
S315020049D0787101280A90099174D189F8002094F817
S315020049E00E0189F8020094F8D50089F80100D4F87E
S315020049F0FC00C9F80400D4F80001C9F80800D4F88C
S31502004A002C01C9F80C0094F8E90089F82900D4F8B9
S31502004A103801C9F81000D4F83401C9F8140094F822
S31502004A20E80089F82800D4F8EC00C9F81800D4F890
S31502004A30F000C9F81C00D4F8F400C9F82000D4F834
S31502004A40F800C9F8240094F8EA0089F82A0094F8D4
S31502004A50EB0089F82B00D4F83C01C9F82C00D4F8F5
S31502004A604001C9F83000D4F82401C9F83400D4F85A
S31502004A705801C9F83800D4F85C01C9F83C00B4F80A
S31502004A80A800A9F85400B4F8AA00A9F85600D4F868
S31502004A90A000C9F84C00D4F8A400C9F85000D4F814
S31502004AA09800C9F84400D4F89C00C9F84800D4F824
S31502004AB0B000C9F85C00D4F8B400C9F86000002060
S31502004AC0079000E007920321584600F017FE0021E6
S31502004AD00022584605F086FCF80608971FD4D4F83B
S31502004AE0780120F030000F2829D8DFE810F01000F6
S31502004AF02C0038002C002C00580138002C002C0009
S31502004B001000100010001000100010001000D4E970
S31502004B105A010B9A1044169A01FB02072AE008F082
S31502004B200F015846D4F8686105F06BFBD4E95B23A4
S31502004B30D4E95D01CDE900015846314628E0A0F1ED
S31502004B404101022909D2D4E95A01169A51430B9A14
S31502004B5000EB420000EB41070CE0402809D1D4E902
S31502004B605A01169A51430B9A00EB820000EB810719
S31502004B7000E0002708F00F01584605F042FBD4F882
S31502004B806C21D4F87801CDE900A058463946069B37
S31502004B9005F01CFA4FEA08604FF07F4101EAE07027
S31502004BA05FEA88614FF0A001179B58BF4FF07F4024
S31502004BB031EA080118BF4FF07F415FEAC862099FD8
S31502004BC005D45FEA486207D46FF07F4207E05FEAE6
S31502004BD04862A26801D402E0A2681043E268114367
S31502004BE094F80E21189D112BC4E9560142F00500D6
S31502004BF084F80E0108D398B23905DDF82CC09A461E
S31502004C00B1FBF0F14B0805E09A46DDF82CC04FF4F3
S31502004C1080310023DDF868E0112D4FF0000005DB3E
S31502004C200C9A1205B2FBF5F6720802E04FF48036D2
S31502004C30002218F4007F51EA01B118BFC3EB074303
S31502004C400C9F18F4806F18BFC2EB074256EA06B6ED
S31502004C505FEA487748BFA3F500435FEA087748BF93
S31502004C60A2F50042089F17F0100F169F18BF03EB1C
S31502004C700C4318BF02EB0742199FCDE900213946C2
S31502004C807246CDE9020058460496764605F08BFB3D
S31502004C90584621463A463346CDE900A500F029FC9E
S31502004CA00A98002873D099F80000E07599F8020076
S31502004CB084F80E0199F8010084F8D500D9F80400A9
S31502004CC0C4F8FC00D9F80800C4F80001D9F80C00B1
S31502004CD0C4F82C0199F8290084F8E900D9F81000E3
S31502004CE0C4F83801D9F81400C4F8340199F8280038
S31502004CF084F8E800D9F81800C4F8EC00D9F81C00CA
S31502004D00C4F8F000D9F82000C4F8F400D9F8240059
S31502004D10C4F8F80099F82A0084F8EA0099F82B00FA
S31502004D2084F8EB00D9F82C00C4F83C01D9F830001D
S31502004D30C4F84001D9F83400C4F82401D9F838007F
S31502004D40C4F85801D9F83C00C4F85C01B9F854001B
S31502004D50A4F8A800B9F85600A4F8AA00D9F84C009D
S31502004D60C4F8A000D9F85000C4F8A400D9F8440049
S31502004D70C4F89800D9F84800C4F89C00D9F85C0039
S31502004D80C4F8B000D9F86000C4F8B40003E058468D
S31502004D90079900F0B3FC00200DB0BDE8F08F9BF838
S31502004DA08200800603D409208BF8C601F4E710209E
S31502004DB0C0F20400C4F82C01012084F8E900A6E63A
S31502004DC02DE9F04F83B00C9E0446002E4FF00000F2
S31502004DD000F096828A460D990129C0F291829519B0
S31502004DE022F00F00ADF8040023F00F00ADF8060024
S31502004DF0681E5E1820F00F00ADF80800701E20F045
S31502004E000F00ADF80A0001A920469B46174605F099
S31502004E104CFDC0B1A5F11000A6F110010FFA80F900
S31502004E2020460FFA81F8514604F09AFC9AF8D5000A
S31502004E3081074FEAC07008D4002840F01D8101AAFC
S31502004E400023002030E200205AE2002840F01481BC
S31502004E5049EA070048EA0B0100074FEA017000F031
S31502004E605282BDF904104FF480320028A1EB0701EB
S31502004E7040F20007CFF6FF7702EB0131D4F8B821F2
S31502004E8002F10803C4F8B8314FF00403C2E9003155
S31502004E90D4F8BC11A1F10100C4F8BC0100F0B4823F
S31502004EA0012903DCD4F8C01120468847D4F8B8019A
S31502004EB04FF4803200F10801C4F8B8110A21C0E9A2
S31502004EC00012D4F8BC010138C4F8BC0103DCD4F8E2
S31502004ED0C01120468847D4F8B801002200F1080123
S31502004EE0C4F8B8111021C0E90012D4F8BC01013887
S31502004EF0C4F8BC0103DCD4F8C01120468847BDF9CA
S31502004F0004004FF48031A9EB000001EB0030D4F825
S31502004F10B81101F10802C4F8B8210522C1E900203E
S31502004F20D4F8BC010138C4F8BC0103DCD4F8C011C2
S31502004F3020468847D4F8B80100F10801C4F8B81130
S31502004F400B21C0E90017D4F8BC010138C4F8BC0132
S31502004F5003DCD4F8C01120468847D4F8B8010022F1
S31502004F6000F10801C4F8B8111121C0E90012D4F801
S31502004F70BC010138C4F8BC0103DCD4F8C0112046D8
S31502004F808847BDF906004FF48031A0EB0B0001EB18
S31502004F900030D4F8B81101F10802C4F8B82106228B
S31502004FA0C1E90020D4F8BC010138C4F8BC0103DC15
S31502004FB0D4F8C01120468847D4F8B801002200F17F
S31502004FC00801C4F8B8110C21C0E90012D4F8BC01DA
S31502004FD00138C4F8BC0103DCD4F8C0112046884766
S31502004FE0D4F8B8014FF4803500F10801C4F8B811BD
S31502004FF01221C0E90015D4F8BC010138C4F8BC017D
S3150200500003DCD4F8C01120468847BDF90600D4F85F
S31502005010B81101F10802C4F8B821A8EB0000072272
S3150200502005EB0030C1E90020D4F8BC010138C4F810
S31502005030BC0103DCD4F8C01120468847D4F8B80175
S31502005040002200F10801C4F8B8110D21C0E90012CE
S31502005050D4F8BC010138C4F8BC0103DCD4F8C01191
S3150200506020468847D4F8B80100F10801C4F8B811FF
S315020050701321C0E900170AE1BDF90400DAF810119C
S31502005080C01B484301EB1010D4F8B81101F1080215
S31502005090C4F8B8210422C1E90020D4F8BC010138C1
S315020050A0C4F8BC0103DCD4F8C01120468847D4F802
S315020050B0B811DAF8100101F10802C4F8B8210A227F
S315020050C0C1E90020D4F8BC010138C4F8BC0103DCF4
S315020050D0D4F8C01120468847D4F8B801002200F15E
S315020050E00801C4F8B8111021C0E90012D4F8BC01B5
S315020050F00138C4F8BC0103DCD4F8C0112046884745
S31502005100BDF90400DAF81011A9EB0000484301EBDF
S315020051101010D4F8B81101F10802C4F8B82105221A
S31502005120C1E90020D4F8BC010138C4F8BC0103DC93
S31502005130D4F8C01120468847D4F8B811DAF810011D
S31502005140404201F10802C4F8B8210B22C1E900204D
S31502005150D4F8BC010138C4F8BC0103DCD4F8C01190
S3150200516020468847D4F8B801002200F10801C4F8A5
S31502005170B8111121C0E90012D4F8BC010138C4F8F3
S31502005180BC0103DCD4F8C01120468847BDF90600ED
S31502005190DAF81011A0EB0B00484301EB1010D4F81B
S315020051A0B81101F10802C4F8B8210622C1E90020AB
S315020051B0D4F8BC010138C4F8BC0103DCD4F8C01130
S315020051C020468847D4F8B801002200F10801C4F845
S315020051D0B8110C21C0E90012D4F8BC010138C4F898
S315020051E0BC0103DCD4F8C01120468847D4F8B811B4
S315020051F0DAF8100101F10802C4F8B8211222C1E955
S315020052000020D4F8BC010138C4F8BC0103DCD4F890
S31502005210C01120468847BDF90600DAF81011A8EB3E
S315020052200000484301EB1010D4F8B81101F108024E
S31502005230C4F8B8210722C1E90020D4F8BC0101381C
S31502005240C4F8BC0103DCD4F8C01120468847D4F860
S31502005250B801002200F10801C4F8B8110D21C0E915
S315020052600012D4F8BC010138C4F8BC0103DCD4F83E
S31502005270C01120468847D4F8B811DAF81001404226
S3150200528001F10802C4F8B8211322C1E90020D4F8BA
S31502005290BC010138C4F8BC0103DCD4F8C0112046B5
S315020052A0884701AA04230F2000902046514601F0A8
S315020052B049FF01AF06460023204651463A460025DD
S315020052C003F0EAFF0023204651463A4605F0B8F8B5
S315020052D0D4F8B80100F10801C4F8B811C0E90056C3
S315020052E0D4F8BC010138C4F8BC0103DCD4F8C011FF
S315020052F02046884701A90022204604F0E7FC012047
S3150200530003B0BDE8F08F00283FF499ADBDF9060061
S315020053104FF48031A0EB0B0001EB0030D4F8B8114A
S3150200532001F10802C4F8B8210422C1E90020D4F828
S31502005330BC010138C4F8BC0103DCD4F8C011204614
S315020053408847D4F8B801002200F10801C4F8B81160
S315020053500A21C0E90012D4F8BC010138C4F8BC0124
S3150200536003DCD4F8C01120468847D4F8B8014FF4BC
S31502005370803500F10801C4F8B8111021C0E9001502
S31502005380D4F8BC010138C4F8BC0103DCD4F8C0115E
S3150200539020468847BDF90600D4F8B81101F1080283
S315020053A0C4F8B821A8EB0000052205EB0030C1E9DC
S315020053B00020D4F8BC010138C4F8BC0103DCD4F8DF
S315020053C0C01120468847D4F8B801002200F108012E
S315020053D0C4F8B8110B21C0E90012D4F8BC01013897
S315020053E0C4F8BC0103DCD4F8C01120468847D4F8BF
S315020053F0B801112200F10801C4F8B8110021CFF654
S31502005400FF71C0E9002166E0012903DCD4F8C0116E
S3150200541020468847D4F8B8014FF4803200F10801DB
S31502005420C4F8B8110A21C0E90012D4F8BC01013847
S31502005430C4F8BC0103DCD4F8C01120468847D4F86E
S31502005440B801002200F10801C4F8B8111021C0E920
S315020054500012D4F8BC010138C4F8BC0103DCD4F84C
S31502005460C01120468847BDF904004FF48031A9EBEC
S31502005470000001EB0030D4F8B81101F10802C4F8BB
S31502005480B8210522C1E90020D4F8BC010138C4F8CC
S31502005490BC0103DCD4F8C01120468847D4F8B80111
S315020054A000F10801C4F8B8110B21C0E90017D4F8BD
S315020054B0BC010138C4F8BC0103DCD4F8C011204693
S315020054C08847D4F8B801002200F10801C4F8B811DF
S315020054D01121C0E90012D4F8BC010138C4F8BC019C
S315020054E003DCD4F8C0112046884701AA0223032010
S315020054F0DAE680B5DDE902ECCDE902ECBDE88040F2
