S021000052413850314475616C436F726550726F6A6563745F435055302E737265635A
S3150200000020470022C9730002B1710002D3730002B5
S31502000010D3730002D3730002D3730002D3730002B8
S315020000200000000000000000000000002144000261
S31502000030D37300020000000039440002A14400020A
S315020000401B6700029D670002F1670002AF6B0002A8
S31502000050AB590002815B0002E95C0002D15D00023D
S31502000060D54C0002A551000225520002055300029A
S309020000702748000213
S31502000074083042000331130003310300003000004C
S315020000840430FF0002301C000630C3000E30450067
S315020000942E300800343018001F500000004332008E
S315020000A41836000012362900093752000C370300AD
S315020000B420384000213801003036360031360E0031
S315020000C43236E200333612002136E0000437A0004D
S315020000D403375A0015377800173701000B376000CB
S315020000E405371A00053902000639100001390A00DB
S315020000F43137120000360800013633002D30600015
S31502000104203652001B3720001C475000133A430086
S31502000114183A0000193AF800353613003636030049
S315020001243436400022360100014002000440020037
S3150200013405401A000150A3000335070000350000EC
S315020001440135FF00023500000A3500000B35200098
S315020001540F3A3000103A28001B3A30001E3A2600A5
S31502000164113A60001F3A1400183A0000193A7C004A
S31502000174063400008054010081540800825414009D
S3150200018483542800845451008554650086547100B2
S3150200019487547D0088548700895491008A549A00B2
S315020001A48B54AA008C54B8008D54CD008E54DD00B5
S315020001B48F54EA0090541D00805506008355400072
S315020001C484551000895510008A5500008B55F80095
S315020001D4005823000158140002580F0003580F0058
S315020001E4045812000558260006580C000758080041
S315020001F408580500095805000A5808000B580D004E
S315020002040C5808000D5803000E5800000F58000041
S315020002141058030011580900125807001358030016
S315020002241458000015580100165803001758080000
S3150200023418580D00195808001A5805001B580600CC
S315020002441C5808001D580E001E5829001F58170076
S31502000254205811002158110022581500235828004D
S3150200026424584600255826002658080027582600F2
S3150200027428586400295826002A5824002B5822009C
S315020002842C5824002D5824002E5806002F582200DC
S315020002943058400031584200325824003358260060
S315020002A4345824003558220036582200375826007E
S315020002B438584400395824003A5826003B58280036
S315020002C43C5842003D58CE000050A7002038460054
S315020002D4213800001438310015383100033804007F
S315020002E408380400093800000A3802000B3858009E
S315020002F40C46220037481000243802000150A3009D
S315020003043D50000041470000FFFFFF00C84F0E2288
S315020003140000000000000000D002002200000000DD
S30F0200032400000000000000000101C5
S315020003302DE9F04385B01846154688460124082162
S31502000340202220230C9E4FF0000C18278DE8D000A7
S31502000350CDF80CC04FF0080909F076FA08212022E0
S31502000360202328460094CDF80C90CDE9016709F0C8
S315020003706BFA0821202220231020039040468DE8A4
S31502000380D00009F061FA05B0BDE8F0832DE9F04727
S3150200039084B01E4690468946DDE90C0710211022DC
S315020003A010234FF0000C40240125CDE900574FF0F1
S315020003B0100A0294CDF80CC009F046FA1021102258
S315020003C0102330460095CDF80CA0CDE9017409F052
S315020003D03BFA202003901021102210234846009554
S315020003E0CDE9017409F030FA1021102210233020D1
S315020003F003904046CDE90057029409F025FA04B06D
S31502000400BDE8F0872DE9F04784B01E46904689463E
S31502000410DDE90C072021082208234FF0000C802476
S315020004200125CDE900574FF0200A0294CDF80CC001
S3150200043009F00AFA20210822082330460095CDF851
S315020004400CA0CDE9017409F0FFF9402003902021A8
S315020004500822082348460095CDE9017409F0F4F90B
S31502000460202108220823602003904046CDE9005748
S31502000470029409F0E9F904B0BDE8F0872DE9F043EA
S3150200048085B01846154688460124402104220423D5
S315020004900C9E4FF0000CC0278DE8D000CDF80CC0A2
S315020004A04FF0400909F0D0F94021042204232846DE
S315020004B00094CDF80C90CDE9016709F0C5F9402109
S315020004C0042204238020039040468DE8D00009F0E0
S315020004D0BBF905B0BDE8F0832DE9F04784B0994633
S315020004E016460846402104220423DDE90C874FF014
S315020004F0000C4FF480740125CDE900574FF0400AF5
S315020005000294CDF80CC009F09FF94021042204237D
S3150200051030460095CDF80CA0CDE9017409F094F9A6
S315020005208020039040210422042348460095CDE909
S31502000530017409F089F9402104220423C0200390A2
S315020005404046CDE90057029409F07EF904B0BDE8B1
S31502000550F0872DE9F04385B01846154688460124F2
S315020005604021042204230C9E4FF0000CC0278DE884
S31502000570D000CDF80CC04FF0400909F065F94021D2
S315020005800422042328460094CDF80C90CDE9016795
S3150200059009F05AF9402104220423802003904046A0
S315020005A08DE8D00009F050F905B0BDE8F0832DE9D9
S315020005B0F04184B01D4610460C460127CDE9007372
S315020005C08021082208234FF0000CC0260296CDF89F
S315020005D00CC04FF0800809F037F9402108220823A1
S315020005E02046CDE90075CDE9026809F02DF904B07F
S315020005F0BDE8F0812DE9F04385B0184615468846D8
S3150200060001242021082208230C9E4FF0000C6027AB
S315020006108DE8D000CDF80CC04FF0200909F014F98E
S3150200062020210822082328460094CDF80C90CDE913
S31502000630016709F009F920210822082340200390C6
S3150200064040468DE8D00009F0FFF805B0BDE8F0831A
S315020006502DE9F04184B01D4610460C460127CDE92E
S3150200066000734021102210234FF0000C60260296E0
S31502000670CDF80CC04FF0400809F0E6F82021102210
S3150200068010232046CDE90075CDE9026809F0DCF8B1
S3150200069004B0BDE8F0812DE9F04385B01846154651
S315020006A0884601241021102210230C9E4FF0000CC4
S315020006B030278DE8D000CDF80CC04FF0100909F0B4
S315020006C0C3F810211022102328460094CDF80C906E
S315020006D0CDE9016709F0B8F8102110221023202075
S315020006E0039040468DE8D00009F0AEF805B0BDE8AB
S315020006F0F0832DE9F04184B01D4610460C460127D1
S31502000700CDE900732021082208234FF0000C602651
S315020007100296CDF80CC04FF0200809F095F840215A
S31502000720082208232046CDE90075CDE9026809F0C2
S315020007308BF804B0BDE8F0812DE9F04385B0184688
S315020007401546884601242021082208230C9E4FF0D4
S31502000750000C60278DE8D000CDF80CC04FF02009C0
S3150200076009F072F820210822082328460094CDF8C1
S315020007700C90CDE9016709F067F8202108220823C9
S315020007804020039040468DE8D00009F05DF805B0A0
S31502000790BDE8F0832DE9F04184B01D4610460C46B3
S315020007A00127CDE900734021042204234FF0000CF7
S315020007B0C0260296CDF80CC04FF0400809F044F866
S315020007C08021042204232046CDE90075CDE9026882
S315020007D009F03AF804B0BDE8F0812DE9F04385B09E
S315020007E018461546884601244021042204230C9EFD
S315020007F04FF0000CC0278DE8D000CDF80CC04FF0AA
S31502000800400909F021F840210422042328460094D5
S31502000810CDF80C90CDE9016709F016F840210422C3
S3150200082004238020039040468DE8D00009F00CF89E
S3150200083005B0BDE8F08370B58CB049F6303E0DF1D7
S31502000840200CC0F2002E63469EE8710071C3084672
S3150200085049F6FC266FF07F034BF6C6244FF4A861D7
S31502000860CDE9003104930423114662464FF0010E8E
S31502000870C0F200260025C7F6EE74CDE90245CDE9A1
S31502000880056E00F04DF80CB070BD2DE9F04184B054
S315020008901D4610460C460127CDE9007301210222AE
S315020008A04FF4A8734FF0000C04260296CDF80CC044
S315020008B04FF0020808F0E4FF012102224FF4A87368
S315020008C02046CDE90075CDE9026808F0D9FF04B0EB
S315020008D0BDE8F0812DE9F04184B01D461446084674
S315020008E00127CDE90073012104224FF4A8734FF0CA
S315020008F0000C05260296CDF80CC04FF0040808F04D
S31502000900BFFF012101224FF4A8732046CDE90075ED
S31502000910CDE9026808F0B4FF04B0BDE8F081D4D492
S315020009202DE9F04F03AF8DB089460446A7F12400A6
S3150200093014219A469046D7F81CB008F0C5FF072046
S31502000940002500EB8B0047F838DC20F0070047F85B
S31502000950285CADEB000647F82C5C47F8305CB546E0
S315020009604FEA8B01304608F0AFFF4846594608F079
S31502000970ABFF47F8345C82B0A7F13003A7F134002D
S3150200098000905046D7E90B1200F07EF802B000281C
S3150200099000F0718047F83C9CA7F1240900BF00BF14
S315020009A082B00023504641464A46009500F0ACF814
S315020009B002B0834657F8343C82B0A7F1300000906B
S315020009C0504641464A4600F09FF802B014F90B1011
S315020009D056F82020114446F82010504641464A4611
S315020009E000F0C2F808B12FF025C857F8340C0121DF
S315020009F001281CDB80EF5100FC69A7F1300120F0D1
S31502000A0001E000BF00BF00BFB1EC043F98FC434FBA
S31502000A1020EF54091FF009C051EC110BD7F828B08A
S31502000A2053EC102B484302FB03F1414302E0D7F893
S31502000A3028B0FC69012CD7E9080957F83C5C1ADB97
S31502000A40BA694FEAE07A01FB02F800BF00BF00BFB5
S31502000A5056F8040BA0EB080082B03A6A5346CDF86A
S31502000A60009000F09FF802B05844013C00F30700E2
S31502000A7005F8010BECD157F838DCA7F10C04A546B2
S31502000A80BDE8F08FD4D4D4D42DE9F043DDF81CE0D0
S31502000A904FF0010C4FF00007CEF8007070B3012A38
S31502000AA02CDB4FF000084FF0000900BF00BF00BF6B
S31502000AB051F82960002E48BF0644B6F1FF3F5FEAAF
S31502000AC0DF9786425FEAA78CBCF1010F16D1B8F117
S31502000AD0010F1F46444605DB57F8045BB54209D0B1
S31502000AE0013CF9D143F82860DEF8004004F1010820
S31502000AF0CEF8008009F101099145D9D16046BDE8D9
S31502000B00F083D4D4D4D4D4D42DE9F041012828DBFF
S31502000B10DDF818C040F001E0BCF1000F5FEA1F9754
S31502000B20012B5FEAAF960025002047EA060800BFC0
S31502000B30B8F1000F66461F4608D100BF00BF00BFCE
S31502000B4056F8044BA54207D0013FF9D151F825408A
S31502000B5052F8256004FB006001350FF017C8BDE8A6
S31502000B60F0810020BDE8F08110B56FF0030303EBBE
S31502000B70800319441A4400BF034601280EDB10689D
S31502000B8051F804E900F1010CBEEB0C0454EA0090A2
S31502000B90E64542F80409A3F10100EDD0002B5FEA15
S31502000BA0DF9010BD70B5C117A2FB0046DDF810C07C
S31502000BB002FB0161CCF11E0E0025012252EA0DE56F
S31502000BC003FB00111019CCF11F02694150EA2D21D5
S31502000BD070BD4BF2700046F23011C0F20020C2F234
S31502000BE0022100680844704744F25070C2F20020A5
S31502000BF070472DE9F04FB1B004464BF27C00C0F2CB
S31502000C00002046F23011C2F202214BF27402006851
S31502000C10C0F20022084403904BF2780042F23016EA
S31502000C20C0F20020C2F204264CF2301543F230190B
S31502000C300068C2F20425084402901068C2F205292F
S31502000C4001EB000A40F2DC00C0F2012040F2D801BA
S31502000C50C0F2012146F630180068C2F20528304477
S31502000C60089040F2E00047F63057C0F20120C2F287
S31502000C70052749F2305242F680630068C2F2052225
S31502000C803044079008684CF2F4313044069040F242
S31502000C90D400C0F20121C0F20120C2F20E23006884
S31502000CA03044049008684CF20041C0F20121284405
S31502000CB0269008684CF2FC3128440B904CF2044012
S31502000CC0C0F20121C0F20120006828440A90086897
S31502000CD047F6C421284409904CF2F830C0F20321A9
S31502000CE0C0F20120006828440590086847F6D02122
S31502000CF0C0F2032148441B90086847F6C8214844BD
S31502000D000E9047F6CC20C0F20321C0F20320006801
S31502000D1048440D90086840F2CC4148440C9040F299
S31502000D20C440C0F20421C0F204200068404412907C
S31502000D3040F2C840C0F2042000684044119008689E
S31502000D4044F6BC414044109040F2D040C0F2052126
S31502000D50C0F20420006840440F90086844F6B84187
S31502000D60C0F205213844159008684DF6B43138446E
S31502000D70149044F6B440C0F20521C0F20520006882
S31502000D803844139008684DF6B831C0F20521104474
S31502000D902B90086845F2C4411044169045F2CC40A7
S31502000DA04CF23052C0F20620C2F20522C0F20621EF
S31502000DB000681044199045F2C840C0F20620006847
S31502000DC01044189008684AF60C711044179048F6B9
S31502000DD0440040F23052C0F20620C2F20622C0F2AD
S31502000DE0062100681044239048F64800C0F2062007
S31502000DF0006810441A9008684AF6087146F23052A2
S31502000E00C0F20621C2F2062210441E9008684DF670
S31502000E10646110441D904AF60470C0F20621C0F2C5
S31502000E200620006810441C9008684DF668614EF270
S31502000E303052C0F20621C2F2062210442C900868F3
S31502000E4044F2043110441F9044F20C3043F2305203
S31502000E50C0F20720C2F20722C0F20721006810443E
S31502000E60229044F20830C0F2072000681044219014
S31502000E70086845F60C511044209047F6E44045F6C2
S31502000E803052C0F20720C2F20722C0F208210068DF
S31502000E9010442A9047F6E840C0F207200068104442
S31502000EA02490086845F6085148F23052C0F20821EB
S31502000EB0C2F207221044289008684BF260111044CF
S31502000EC0279045F60450C0F20A21C0F208200068B5
S31502000ED01044259008684BF25C1149F63052C0F274
S31502000EE00A21C2F207221044299008684BF65431AF
S31502000EF0104430904BF68800C0F20A21C0F20A2054
S31502000F0043F600120968C2F20E22006818442E90B7
S31502000F104BF68400C0F20A20006818442D9050183F
S31502000F202F90204600F011FA44F6EC5B44F6E050AE
S31502000F30C2F2002BCDF800B0C2F20020DDE9022198
S31502000F405346FFF7F5F940F2D0004FF4C042C0F223
S31502000F50012059460068304408F0BAFC204600F0E9
S31502000F6047FA4AF6F8564AF6EC50C2F200260499B7
S31502000F70CDE90016C2F200200899DDE90632FFF734
S31502000F8005FA4CF2F0304FF48042C0F201203146AD
S31502000F900068284408F09CFC204600F081FA4EF6D0
S31502000FA004654EF6F850C2F200250599CDE9001502
S31502000FB0C2F200200B99DDE90932FFF723FA47F660
S31502000FC0C0204FF40052C0F203202946006848446C
S31502000FD008F07EFC204600F0CBFA40F6106540F69B
S31502000FE00460C2F201250095C2F201200E99DDE9E4
S31502000FF00C32FFF743FA40F2C0404FF44062C0F2AF
S31502001000042029460068404408F062FC204600F0AD
S315020010100FFB41F61C2541F61020C2F201250F995D
S31502001020CDE90015C2F201201299DDE91032FFF76F
S3150200103053FA44F6B0404FF48052C0F205202946D6
S315020010400068384408F044FC204600F047FB42F6AC
S31502001050282542F61C20C2F201250095C2F2012083
S315020010601599DDE91332FFF774FA4DF6B03049F2FD
S315020010703051C0F20520C2F205214FF440620068E9
S315020010800844294608F024FC204600F07AFB43F285
S31502001090346543F22860C2F20125C2F201201B998F
S315020010A0169A2B46FFF783FA45F2C0404CF23051AE
S315020010B0C0F20620C2F205214FF4405200680844ED
S315020010C0294608F005FC204600F0B0FB46F24065D2
S315020010D046F23460C2F201250095C2F20120199946
S315020010E0DDE91732FFF786FA48F6400040F2305142
S315020010F0C0F20620C2F206214FF4C052006808442C
S31502001100294608F0E5FB204600F0E5FB47F64C656C
S3150200111047F64060C2F20125C2F2012026991A9AC8
S315020011202B46FFF795FA4AF6007046F23051C0F2A6
S315020011300620C2F206214FF4C0420068084429463E
S3150200114008F0C6FB204600F01BFC4DF658654DF62E
S315020011504C60C2F201250095C2F201201E99DDE91A
S315020011601C32FFF798FA4DF660604EF23051C0F22B
S315020011700620C2F206214FF440520068084429466E
S3150200118008F0A6FB204600F050FC40F6646540F6E7
S315020011905860C2F20225C2F2022023991F9A2B46F8
S315020011A0FFF7A7FA44F2003043F23051C0F20720AB
S315020011B0C2F207214FF4C05200680844294608F0DB
S315020011C087FB204600F081FC42F2706542F26460C1
S315020011D0C2F202250095C2F202202299DDE92032EE
S315020011E0FFF7AAFA47F6E04045F63051C0F207206B
S315020011F0C2F207214FF4C05200680844294608F09B
S3150200120067FB204600F0B6FC43F67C6543F6706049
S31502001210C2F20225C2F202202B99249A2B46FFF72C
S31502001220B9FA45F6005048F23051C0F20820C2F22F
S3150200123007214FF4406200680844294608F048FB3B
S31502001240204600F0ECFC44F6882544F67C20C2F2E7
S3150200125002250095C2F20220DDE92721259BFFF730
S31502001260BCFA4BF2501049F63056C0F20A20C2F2CE
S3150200127007264FF400522C990068304408F028FBE8
S315020012804BF254104FF48052C0F20A202A99006899
S31502001290304408F01DFB4BF258104FF44062C0F286
S315020012A00A2029460068304408F012FB204600F066
S315020012B00FFD45F2946545F28860C2F20225C2F23C
S315020012C0022029992A46FFF7B6FA4BF6800042F623
S315020012D08061C0F20A20C2F20E214FF4A8620068B1
S315020012E00844294608F0F4FA204600F05DFD45F66A
S315020012F0E03545F6D430C2F20225C2F20220DDE91B
S315020013002D212B46FFF7C1FA4BF6503043F600115A
S31502001310C0F20A20C2F20E214FF4A8620068084405
S31502001320294608F0D5FA204600F08CFD46F2201038
S3150200133044F25073C2F20220C2F20023DDE92F12F8
S3150200134031B0BDE8F04FFFF7C5BAB0B598B049F66F
S31502001350D47246F23015C0F2002249F6E07100243A
S31502001360C2F202250028C0F200210B940A911168EC
S315020013700391CDE90C544FF4E0314FF4404006900E
S31502001380CDE90E54CDE90411CDE9105407D046F249
S3150200139030104FF4C041C2F2022008F095FA05F56A
S315020013A00050CDE9140405F580404FF40051CDE913
S315020013B0160449F64030C0F200200991CDE9071122
S315020013C049F65031026803A8009044F6C870C2F28A
S315020013D00E20C0F200210AABCDE912540725CDE951
S315020013E0015403F006F801305FEA1FA018B0B0BD41
S315020013F0B0B59CB04BF2885242F23015C0F20022D0
S315020014004BF290510024C2F204250028C0F20021BA
S315020014100D940C9111680491CDE90E544FF42041BC
S315020014204FF4C0400790CDE91054CDE90511CDE93E
S31502001430125407D042F230104FF48041C2F2042017
S3150200144008F042FA05F58051CDE916144BF28001F7
S3150200145005F50050C0F20021CDE9180405F540500B
S315020014601A900A6804A8009044F6C8704BF29001DC
S31502001470C2F20E20C0F200210CAB81EF5002CDE980
S31502001480145408251B948DED081FCDE9015402F072
S31502001490B0FF01305FEA1FA01CB0B0BDD4D4D4D4D3
S315020014A070B59EB040F2D0610024C0F20121CDE9B0
S315020014B00C1440F2C0614CF23015C0F20121C2F2A6
S315020014C0042505F50056002809680391CDE90E5456
S315020014D04FF4E0414FF480400690CDE91054CDE937
S315020014E00411CDE9126407D04CF230104FF480415A
S315020014F0C2F2042008F0E8F905F52051CDE91814E6
S3150200150040F2E40116A0C0F201210CAB90ED001FDF
S3150200151005F54050CDE91A0405F560500A68CDE993
S315020015201C044FF400600B9003A8009044F6C870A8
S3150200153040F2F001C2F20E20C0F201218DED071F2A
S31502001540CDE91454CDE916640826CDE9016402F00A
S3150200155050FF01305FEA1FA01EB070BD00BF00BF82
S31502001560002000000008000000080000000800003B
S3150200157070B59CB04CF6D0010024C0F20121CDE931
S315020015800C144CF6C00143F23015C0F20121C2F22E
S31502001590052505F58056002809680491CDE90E5403
S315020015A04FF460514FF400500790CDE91054CDE945
S315020015B00511CDE9126407D043F230104FF4E05121
S315020015C0C2F2052008F080F94CF2084114A0C0F2DC
S315020015D001210CAB90ED001F05F5A050CDE91804D2
S315020015E005F5C0501A900A6804A8009044F6C8701F
S315020015F04CF21041C2F20E20C0F201218DED081FFD
S315020016001B94CDE91454CDE916640826CDE901648C
S3150200161002F0EFFE01305FEA1FA01CB070BD00BFF2
S315020016200010000000040000000400000004000096
S31502001630B0B59CB047F6145246F63015C0F20322F6
S3150200164047F620510024C2F205250028C0F20321E4
S315020016500D940C9111680491CDE90E544FF4A051EA
S315020016604FF440600790CDE91054CDE90511CDE95C
S31502001670125407D046F630104FF48051C2F20520BC
S3150200168008F022F905F58061CDE9161447F6D42152
S3150200169005F50060C0F20321CDE9180405F54060A6
S315020016A01A900A6804A8009044F6C87047F6E0212A
S315020016B0C2F20E20C0F203210CAB80EF5402CDE938
S315020016C0145408251B948DED081FCDE9015402F030
S315020016D090FE01305FEA1FA01CB0B0BDB0B598B055
S315020016E040F6901247F63055C0F2042240F6A01199
S315020016F00024C2F205250028C0F204210B940A91A7
S3150200170011680391CDE90C544FF4C0514FF4805047
S315020017100690CDE90E54CDE90411CDE9105407D057
S3150200172047F630504FF44061C2F2052008F0CCF87B
S3150200173005F58060CDE9140405F500604FF480617B
S31502001740CDE9160440F2D440C0F204200991CDE955
S31502001750071140F2E041026803A8009044F6C870FF
S31502001760C2F20E20C0F204210AABCDE912540725BB
S31502001770CDE9015402F03DFE01305FEA1FA018B028
S31502001780B0BDB0B596B044F6D0710025C0F20521C1
S31502001790CDE90A1544F6C87149F23054C0F2052162
S315020017A0C2F205240028CDE90C45096804914FF4DC
S315020017B04051CDE90E454FF440600790CDE9051141
S315020017C004F50061CDE910150AD04FF400612046F8
S315020017D008F07AF804F580504FF4005108F074F8D6
S315020017E044F6C0414FF40060C0F20521089004F5AA
S315020017F08050CDE914054FF4005009900A6804A8F8
S31502001800009044F6C87044F6D041C2F20E20C0F2EF
S3150200181005210AABCDE912450624CDE9014502F0C0
S31502001820E8FD01305FEA1FA016B0B0BD70B598B0F2
S315020018304DF630710026C0F20521CDE90A164DF6A5
S3150200184024714CF23054C0F20521C2F2052404F58B
S315020018508055002809680391CDE90C464FF4804172
S315020018604FF440500690CDE90E46CDE90411CDE97C
S31502001870105609D04FF40061204608F025F84FF4BF
S315020018808051284608F020F804F5C050CDE9140628
S315020018904DF6BC304FF40061C0F20520CDE90711C8
S315020018A009914DF6C031026803A8009044F6C8704B
S315020018B0C2F20E20C0F205210AABCDE91256072567
S315020018C0CDE91646CDE9015602F093FD01305FEAF5
S315020018D01FA018B070BDB0B596B045F2C071002514
S315020018E0C0F20621CDE90A1545F2B47140F2305430
S315020018F0C0F20621C2F206240028CDE90C45096889
S3150200190004914FF4C041CDE90E454FF4C050079003
S31502001910CDE9051104F58051CDE910150AD04FF431
S315020019208051204607F0D0FF04F500504FF4804165
S3150200193007F0CAFF45F2D0414FF48050C0F20621AB
S31502001940089004F50050CDE914054FF48040099043
S315020019500A6804A8009044F6C87045F2E041C2F253
S315020019600E20C0F206210AABCDE912450624CDE9C6
S31502001970014502F03EFD01305FEA1FA016B0B0BD80
S3150200198070B598B048F690310026C0F20621CDE92E
S315020019900A1648F68C3146F23054C0F20621C2F2DB
S315020019A0062404F50055002809680391CDE90C4682
S315020019B04FF400414FF4C0400690CDE90E46CDE902
S315020019C00411CDE9105609D04FF48051204607F094
S315020019D07BFF4FF40051284607F076FF04F540508E
S315020019E0CDE9140648F64C004FF48051C0F20620A9
S315020019F0CDE90711099148F65001026803A8009043
S31502001A0044F6C870C2F20E20C0F206210AABCDE936
S31502001A1012560725CDE91646CDE9015602F0E9FC34
S31502001A2001305FEA1FA018B070BD70B596B04BF2D8
S31502001A30F0010024C0F20621CDE90A144BF2E401BA
S31502001A404EF23055C0F20621C2F2062505F50056C1
S31502001A50002809680491CDE90C544FF4A0414FF4D3
S31502001A6040500790CDE90E54CDE90511CDE9106439
S31502001A7007D04EF230504FF42051C2F2062007F042
S31502001A8023FF4AF610714FF40050C0F20621089067
S31502001A904FF4006009900A6804A8009044F6C870E2
S31502001AA04AF62071C2F20E20C0F206210AABCDE937
S31502001AB01254CDE914640626CDE9016402F099FCBC
S31502001AC001305FEA1FA016B070BD70B598B04EF235
S31502001AD0E0110026C0F20621CDE90A164EF2D41113
S31502001AE043F23054C0F20621C2F2072404F58055AF
S31502001AF0002809680391CDE90C464FF420514FF4B2
S31502001B00C0500690CDE90E46CDE90411CDE9105636
S31502001B1009D04FF40061204607F0D6FE4FF48051FB
S31502001B20284607F0D1FE04F5C050CDE914064DF65D
S31502001B306C604FF40061C0F20620CDE907110991ED
S31502001B404DF67061026803A8009044F6C870C2F2AE
S31502001B500E20C0F206210AABCDE912560725CDE9C1
S31502001B601646CDE9015602F044FC01305FEA1FA099
S31502001B7018B070BDB0B596B044F260510025C0F2FF
S31502001B800721CDE90A1544F2545145F63054C0F204
S31502001B900721C2F207240028CDE90C450968049101
S31502001BA04FF42051CDE90E454FF4C0500790CDE9D0
S31502001BB0051104F58051CDE910150AD04FF4805174
S31502001BC0204607F081FE04F500504FF4806107F0CD
S31502001BD07BFE44F210314FF48050C0F20721089088
S31502001BE004F50050CDE914054FF4806009900A68A7
S31502001BF004A8009044F6C87044F22031C2F20E20C6
S31502001C00C0F207210AABCDE912450624CDE901450A
S31502001C1002F0EFFB01305FEA1FA016B0B0BDB0B50F
S31502001C2098B048F270110025C0F20721CDE90A15D5
S31502001C3048F26C1148F23054C0F20721C2F207246E
S31502001C400028CDE90C45096803914FF4C051CDE94E
S31502001C500E454FF440600690CDE9041104F540614B
S31502001C60CDE910150AD004F5A0504FF4806107F0B3
S31502001C702BFE4FF40061204607F026FE04F5A05025
S31502001C80CDE9140504F580604FF48061CDE91605AF
S31502001C9047F6EC40C0F207200991CDE9071147F655
S31502001CA0F041026803A8009044F6C870C2F20E2002
S31502001CB0C0F207210AABCDE912450724CDE9014559
S31502001CC002F097FB01305FEA1FA018B0B0BDD4D472
S31502001CD0B0B59CB030A147F2E052C0F2082249F6F4
S31502001CE0305491ED001F47F2F051C2F20724C0F2C0
S31502001CF008210C911168049141F2501100252144EA
S31502001D00CDE9121504F5A8710028CDE9141543F2A0
S31502001D1050110D9511958DED051F21444FF440602C
S31502001D2010940990CDE90E45CDE916150BD04FF466
S31502001D30A871204607F0C8FD45F250504FF4A8514D
S31502001D40204407F0C1FD45F610514FF4A870C0F2C9
S31502001D5008210A9045F250500CAB2044CDE91A05F1
S31502001D604FF4A8500B900A6804A8009044F6C87075
S31502001D7045F62051C2F20E20C0F208211995189498
S31502001D800824CDE9014502F034FB01305FEA1FA0C9
S31502001D901CB0B0BD00BF00BF5091060050910600B6
S31502001DA00020000000100000B0B596B04BF23032B1
S31502001DB042F68065C0F20A224BF240310024C2F29A
S31502001DC00E250028C0F20A210B940A91116804918B
S31502001DD0CDE90C544FF428614FF4A8600790CDE981
S31502001DE00E54CDE90511CDE9105405D005F5A860CC
S31502001DF04FF4A86107F068FD05F5FC61CDE91414FE
S31502001E004BF2641105F5A860C0F20A21CDE912046D
S31502001E104FF42870089009900A6804A8009044F6C6
S31502001E20C8704BF27011C2F20E20C0F20A210AAB40
S31502001E300625CDE9015402F0DCFA01305FEA1FA063
S31502001E4016B0B0BD70B592B04BF600210024C0F2B8
S31502001E500A21CDE908144BF6F41143F60015C0F237
S31502001E600A21C2F20E254FF4A86609680391CDE94C
S31502001E700A540F940E95CDE90C540696CDE90466E4
S31502001E8038B143F600104FF4A861C2F20E2007F0F3
S31502001E901BFD4BF68C004BF69001C0F20A20C0F2F5
S31502001EA00A2108ABCDE91054026803A8009044F653
S31502001EB0C870C2F20E2007960526CDE9016402F02B
S31502001EC098FA01305FEA1FA012B070BDD4D4D4D400
S31502001ED010B543F64064A821C2F20E24204607F04C
S31502001EE0F3FC0320206160614CF2956043F6E861E1
S31502001EF0C0F20A20A061C2F20E21E1614FF4006134
S31502001F0021620021A1626162E16244F2E862206616
S31502001F104FF0100E4BF65830C2F20E226266C4F82B
S31502001F2068E02167E1666167BFF35F8FC0F20A204E
S31502001F300F3000BF00BF00BF10F8011904F8011BE3
S31502001F400FF007C0BFF35F8F10BDD4D4D4D4D4D45E
S31502001F502DE9F04381B014460D468046C7684FF01E
S31502001F60000900BF00BF00BFD8F81000FA43B8420C
S31502001F7006D91044D8F8081006E000BF00BF00BF1B
S31502001F80D8F8081010440844C91B884250EA318028
S31502001F902946A04250EA3486D8F80400384432462C
S31502001FA007F096FCF019D8F80810411AA4EB0604BB
S31502001FB050EA1187B1443544BFF35F8FC8F80C70FD
S31502001FC00CB12FF02FC8484601B0BDE8F0832DE9C9
S31502001FD0F04381B000EB400043F64063C2F20E23A9
S31502001FE0144603EBC003894603F11805D86A022892
S31502001FF012D0012808D000283ED1EE682869F143A4
S31502002000B04234D9084435E0EE682969B1420BD9A9
S31502002010F0430144A8680BE028464946224601B02F
S31502002020BDE8F043FFF794BFF243A86811440144A8
S31502002030A14251EA3484871B68683044BC4207D205
S315020020404946224607F044FCBFF35F8F26440CE064
S3150200205049463A4607F03CFCE61B686809EB07016D
S31502002060324607F035FCBFF35F8FEE6025E0AA68C3
S3150200207008441044A04201D200241EE0D5E9010121
S315020020808F1B3044BC4208D24946224607F020FC48
S31502002090BFF35F8F06EB04080DE049463A4607F0A8
S315020020A017FCA4EB0708686809EB0701424607F02C
S315020020B00FFCBFF35F8FC5F80C80204601B0BDE868
S315020020C0F083F0B581B043F640631446C2F20E23A4
S315020020D00D4606461B78532B01D0FFF7F9FEEFF3A8
S315020020E011874FF0200181F3118830462946224696
S315020020F0FFF76DFF87F3118801B0F0BDD4D4D4D4B5
S315020021002DE9F04F9BB091460F46002406A9169181
S3150200211040211791002105901A90CDE9181100BFB0
S3150200212017F8011B252907D0002900F06F8116A890
S3150200213000F07BF9E5E000BF4FF0000800BF00BFEA
S3150200214039782C2908DC23290ED02B2918D1042012
S315020021500FE000BF00BF00BF2D2909D030290FD1E3
S31502002160022006E000BF00BF082002E000BF00BF59
S31502002170012048EA00080137E2E700BF00BF00BFBE
S31502002180A1F13A0010F10A0F02D2002012E000BFBC
S3150200219000200A4600BF00BF17F8011F00EB8000AF
S315020021A0A1F13A0302EB400013F10B0FA0F130004C
S315020021B00A46F1D82E290FD13A4612F8011F2A29CA
S315020021C00DD1D9F8001002370A1DC9F800200E6891
S315020021D001211DE000BF00BF0021002618E0A1F189
S315020021E03A0313F10A0F02D2002100260FE000265D
S315020021F012F8013F06EB8607A3F13A0601EB470107
S3150200220016F10B0FA1F130061946F1D80121174636
S3150200221017F8012B02F0FB03682BF9D0632A0FDCB7
S31502002220252A2ED0582A24D0632A6AD1D9F800004A
S31502002230011DC9F80010017879E700BF00BF00BF91
S31502002240A2F17003082B1ED8DFE803F0055B5B6181
S315020022505B4E5B5B1300D9F800001022011DC9F822
S3150200226000100168082300200826CDE9006016A8A0
S3150200227045E0D9F800100A1DC9F8002009681022A5
S3150200228039E0252153E7642A3BD1D9F800104CF6F0
S31502002290CD4C0A1DC9F80020D1F800E0CCF6CC4C92
S315020022A0CEF100017246BEF1000F48BF0A460A2A65
S315020022B003914FF0010107DBA2FB0C35632A01F102
S315020022C001014FEAD502F7D88E4256EA818B0028E1
S315020022D040D0BEF1000F5FEA5F9108F0040241EAC6
S315020022E09201A0EB010A37E0D9F800100A1DC9F8DD
S315020022F0002009680A22CDE9000816A8334600F034
S31502002300B7F8199CB4F1FF3F3FF70AAF89E0D9F855
S315020023100000021DC9F8002000684CF22F120028A6
S31502002320C0F20A2250EA12855FEA018800BF00BFA6
S315020023302978002E5FEA18800029E2D00028E0D131
S3150200234016A8013500F071F8199C013EB4F1FF3F61
S31502002350EEDC66E04FF0000A5FEA88750CD55EB9DE
S31502002360002CCED4BEF1000F29D45FEA4870CDF816
S3150200237010E02DD52B2125E05FEAC870F0D1BAF125
S31502002380000FEDD0D345EBD20295CDF810E0AAF1BD
S31502002390010500BF00BF00BF202116A800F045F8C6
S315020023A0199C002C3DD4681EA84202D2AB450546B4
S315020023B0F2D300F1010ADDF810E0029DD0E72D21EB
S315020023C00398049016A800F030F8199C002C28D423
S315020023D0002D05D40A22CDE900A816A804998DE796
S315020023E008F001003043F5D1BAF1000FF2D0AAF19C
S315020023F00105554538BFD345ECD2302116A800F069
S3150200240014F8199CAA46002CF1D50AE044B1189D8D
S3150200241025B106A905982A46FFF753FE2C4400E08B
S31502002420002420461BB0BDE8F08F10B50446D0E963
S315020024300120431C934207D822681154A360E06826
S3150200244062680130E0601846904218BF10BD2168EC
S315020024502069FFF736FEA168884202D10020A060FB
S3150200246010BD4FF0FF30E06010BDD4D4D4D4D4D424
S315020024702DE9F04F81B015460E4691421F46814620
S31502002480DDF828B04FF0010007D3314600BF00BF88
S31502002490B1FBF5F10130A942FAD2874257EA808AA6
S315020024A0BBF1000F0B991BD011F0010018D1880760
S315020024B04FF0200048BF30202021002F50EA01882B
S315020024C0BBF1000F0CD0DA450AD248464146ABF1C1
S315020024D0010BFFF7AAFFD9F80C00B0F1FF3FEFDCC2
S315020024E0D9F80C0000283CD4012400BF00BF00BF6D
S315020024F0022F01D3013F03E0B6FBF4F0A84201D359
S315020025006C43F5E749F60038C0F2002800BF00BF69
S31502002510B6FBF4F7484618F80710FFF786FFD9F816
S315020025200C00002806D4B4FBF5F007FB1466A5429E
S315020025300446EDD90B98C00718BFBBF1000F0AD1AC
S315020025400FE020214846FFF770FFD9F80C00A3469A
S31502002550B0F1FF3F05DDABF101045C4538BFDA455A
S31502002560EFD301B0BDE8F08F00284FF0010342D04F
S31502002570002940D02DE9F04FD0F800E0BEF1000F5F
S3150200258036D04469A4B3858895B3C68886B30789CD
S3150200259077B3B0F80EB0BBF1000F29D0B0F810A097
S315020025A0BAF1000F24D0B0F818C0BCF1000F1FD04A
S315020025B0B0F81A80B8F1000F1AD0B0F81C90B9F131
S315020025C0000F15D00123AF4228BFE14511D343893D
S315020025D05B44AB420CD883895344B34208D84EEAD3
S315020025E001032343DB0703D1624506D2022300E03F
S315020025F00123BDE8F04F18467047721E042302FB02
S315020026000752002AF5D4A8F1010505FB09C5002DDC
S31502002610EFD40EEB420304EB4502A34288BF724598
S3150200262058D88B4201EB4C0388BF734552D8A3425C
S3150200263088BF8A424ED800220B46C78957430132C9
S31502002640B7FBFCF723F8027BB0F818C06245F4D357
S31502002650478BEFB34FF0000E4FF00008BCF1000FAE
S315020026602ED0028A84890589868B08FB02F2B2FB88
S31502002670F7F22244448902FB05F7056842690EFB1C
S315020026800626002205EB470505EB440700250C4606
S315020026900CEB05030832082BA5F1080528BF082311
S315020026A013F001E831FE4D4FB4EC881E97FC912ED3
S315020026B0A6EC883EB0F818C06245E9D3478B01E024
S315020026C04FF0000C08F101080EF1020EB845C5D311
S315020026D000238EE703238CE780B582B04FF000011A
S315020026E0019178B30078032809D001282AD144F24F
S315020026F0FC60C2F20E2001680131016022E044F260
S31502002700F86001ABC2F20E204FF48062016801311B
S31502002710016045F27400C2F20E20016847F6A73046
S31502002720C0F2002006F0F3FF60B1019850B14EF6F8
S3150200273004504FF08051CEF200000160BFF34F8F7C
S31502002740BFF36F8F02B080BD10B544F200044FF4A0
S315020027509611C6F63804204607F0B6F84BF6FF7116
S3150200276004F01F00C0F2120108440121BFF34F8F8B
S3150200277001EB501E4EF66870CEF2000000BF00BF9D
S31502002780046020340FF005C0BFF34F8FBFF36F8F85
S31502002790BFF35F8F45F240004DF25801C2F20E20A0
S315020027A0C0F20A2103F0E1FB044678B945F2400083
S315020027B0C2F20E2003F026FE38B1044645F240006E
S315020027C0C2F20E2003F0AEFD00E00024204610BD4A
S315020027D0B0B582B045F274050446C2F20E254FF436
S315020027E08061286805F0AEF928684FF480610122FD
S315020027F000230094002405F0F1F8400558BF142484
S31502002800204602B0B0BDD4D480B544F2087000218F
S31502002810C2F20E2040F20002C6F600024BF6FF7C20
S31502002820016044F20C70C2F20E20C0F2120C4CF29D
S315020028300003016044F21070C2F20E20C6F61203C3
S3150200284003F01F03016002F01F0060440121BFF381
S315020028504F8F634401EB501E4EF67070CEF20000AD
S3150200286001EB531300BF00BF026020320FF005C018
S3150200287048F200010122C6F62501BFF34F8F01F08F
S315020028801F01BFF36F8F6144BFF34F8F43F001E027
S3150200289002EB51114CF20002C6F6120200BF00BF53
S315020028A0026020320FF005C0BFF34F8FBFF36F8F68
S315020028B0BFF34F8F41F001E048F20001C6F6250151
S315020028C0016020310FF005C0BFF34F8FBFF36F8F4A
S315020028D0BFF35F8F45F22C004DF23001C2F20E209B
S315020028E0C0F20A21BDE8804002F06BB810B545F28D
S315020028F02C000021C2F20E2002F073F9044640B900
S3150200290000F0F7F968B1044600F002FA282006F052
S315020029100DF945F22C00C2F20E2002F0FCF8204618
S3150200292010BD0024FBE780B500F0F2F900B180BDCE
S31502002930282006F0FBF845F22C00C2F20E20BDE874
S31502002940804002F0E8B8B0B580B1054601F035FE28
S3150200295044F20870C2F20E20046844F20C70C2F20D
S315020029600E200068286001F056FE00E00024204692
S31502002970B0BD80B582B04FF000010191C8B30168C5
S31502002980022912D0012934D1017A890624D5C068D8
S3150200299058B144F208714FF42052C2F20E21086077
S315020029A044F20C70C2F20E2005E044F210704FF4AD
S315020029B08052C2F20E20016801AB0131016045F27C
S315020029C07400C2F20E20BFF35F8F016847F6A7308C
S315020029D0C0F2002006F09BFE019850B14EF604505C
S315020029E04FF08051CEF200000160BFF34F8FBFF36C
S315020029F06F8F02B080BD70472DE9F04182B0861C10
S31502002A004AF6AA274FF6FF740DF1070800218DF842
S31502002A10071000BF00BF00BF36F8020CB84213D041
S31502002A20A04218D0317800F0B3F936F8021CA0B9EA
S31502002A300846414600F0E4F9C8B932789DF80730F5
S31502002A4093421FD105E000BF30784FF47A7104F04B
S31502002A506CFB0436E0E700251DE0054632784CF6AD
S31502002A6052102B46C0F20A2000F019F813E0054670
S31502002A7036F8021C4CF606202A46C0F20A2000F05E
S31502002A800EF808E036F8021C4CF66A00C0F20A207C
S31502002A9000F005F80125284602B0BDE8F08183B0B2
S31502002AA080B581B0844603A80EC003A800906A468A
S31502002AB000206146FFF724FB01B0BDE8804003B069
S31502002AC07047D4D4F0B581B02DED048B4CF6B4002A
S31502002AD0C0F20A20FFF7E3FF0A204FF47A7104F0EE
S31502002AE024FB44F61C703C21C2F20E20012202F0A5
S31502002AF0B5FD002840F0DF8045F29465EFF31080C3
S31502002B00C2F20E25012181F3108840F61454296879
S31502002B10C4F2400419B900212170402121702968AC
S31502002B204FF6D04601312960CFF6FF7680F3108842
S31502002B3043F6FA770121CFF6FE77A05938400430E2
S31502002B40A051EFF3108081F31088296811B129682A
S31502002B5001392960296819B9002121708021217063
S31502002B6080F3108814204FF47A7104F0DEFA012102
S31502002B70EFF3108081F31088296819B900212170BA
S31502002B804021217029680131296080F310880121D2
S31502002B90A059384040F00500A051EFF3108081F3B0
S31502002BA01088296811B1296801392960296819B97B
S31502002BB0002121708021217080F3108814204FF4A7
S31502002BC07A7104F0B2FA4CF6A930C0F20A20FFF785
S31502002BD066FF4BF64170C0F20A20FFF760FF40F233
S31502002BE03400C2F20020FFF707FF002863D132202B
S31502002BF04FF47A7104F099FA43F23500122100F08B
S31502002C00C7F8002857D143F236007B2100F0C0F8FE
S31502002C10002850D143F23700082100F0B9F8002805
S31502002C2049D143F20810122100F0B2F8002842D12D
S31502002C3044F214744DF60000C2F20E24C0F2B850EB
S31502002C409FED1F0AB6EE008A2060B1EEC09A9FED94
S31502002C501D0AB0EE481A09EE001A43F60C00BCEE45
S31502002C60C10A10EE105A290A00F092F818BBE9B20E
S31502002C7043F60D0000F08CF8E8B939EE080A43F67F
S31502002C800E00BCEEC00A10EE105A290A00F080F8B7
S31502002C9088B9E9B243F60F0000F07AF858B900F0A5
S31502002CA013F840B94CF636202168C0F20A203C22BD
S31502002CB0FFF7F5FE0020BDEC048B01B0F0BD00BFAE
S31502002CC0007C9249ABAAAA3F80B582B00DF10701FA
S31502002CD044F6140000F094F848B99DF8070000F095
S31502002CE03F0144F614008DF8071000F051F802B0C7
S31502002CF080BD80B543F20800022100F049F800B118
S31502002D0080BD44F202200021BDE8804000F040B8B8
S31502002D1044F202200F2100F03BB844F61C704CF638
S31502002D20A061C2F20E20C0F20A2102F00DBCD4D478
S31502002D3070B544F21875C2F20E252978884210D071
S31502002D400446FF2600BF00BF287801280BD0013EAB
S31502002D50300612D00A20012104F0E7F928788442CD
S31502002D60F2D1002070BD4BF660602146C0F20A2007
S31502002D7000F096F84FF4967070BD2A784CF29E6079
S31502002D80C0F20A20214600F08BF8142070BDD4D47C
S31502002D9080B582B08DF8071044F21871C2F20E2186
S31502002DA0020A8DF806000DF105008DF805200022B5
S31502002DB00A7000F01F0102310122BFF34F8F02EBAE
S31502002DC0511E4EF66871CEF2000100BF00BF00BF71
S31502002DD0086020300FF005C0BFF34F8FBFF36F8F2F
S31502002DE044F61C700DF10501C2F20E2003220023E7
S31502002DF002F02EFC10B90320FFF79AFF02B080BD45
S31502002E00B0B582B00C46002901464FF001003DD014
S31502002E100DF1060244F2187502F01F02C2F20E25E7
S31502002E20013200EB521E48BAADF8060000202870A7
S31502002E30BFF34F8F4EF668710DF10600CEF2000118
S31502002E40086020300FF005C0BFF34F8FBFF36F8FBE
S31502002E5044F61C700DF10601C2F20E200222012375
S31502002E6002F0F6FB90B90320FFF762FF70B900206B
S31502002E70287044F61C700122C2F20E20002321465D
S31502002E8002F0E0FB10B90220FFF752FF02B0B0BD1C
S31502002E9028B144F218710079C2F20E210870704707
S31502002EA083B080B581B0844603A80EC003A8009003
S31502002EB06A4600206146FFF723F901B0BDE880406B
S31502002EC003B07047D4D4D4D400284FF0010C00F0DC
S31502002ED0CD80002A00F0CA802DE9F04F03AF8BB0F7
S31502002EE06C466FF30304A546BD69002D00F0B98058
S31502002EF045EA000616F0010640F0B380B1F5961FCA
S31502002F0002D24FF0020CACE0B3F5404F02D24FF0C2
S31502002F10030CA6E0F969802902D24FF0040CA0E066
S31502002F2000F5961302F54041934288BF814200F2B2
S31502002F309680AB4205F5807388BF834200F28F808C
S31502002F40A94288BF934200F28A8049A14FF0100E2F
S31502002F50082391ED001F4AA12C4691ED003F4FF444
S31502002F60167100BF00BF00BF23EE617EB9FF566037
S31502002F7021EE615EACEC086F23EE432F21EE430F88
S31502002F80B9FF54400CED044F0FF013C000F5D47096
S31502002F90009002F1020B002242F2091344F20510DC
S31502002FA0802100BF00BF00BF4FF416560192724344
S31502002FB04FF60006C0F21F064FF000083240009E90
S31502002FC032440392CDF808B0AC4605EB48054FF6FD
S31502002FD0FF72DA4695ED801EEDEE102A039A04ADD5
S31502002FE071FE4D0F92FC912E0822B0FF420185ED33
S31502002FF0001F42F001E000BF35F8029B4FEAD924D8
S31502003000C9F3451609F01F022402A4EBD924C6EB24
S3150200301006265C43C2EB022246435A4381EA9444A3
S315020030200AF8024C81EA16540AF8014C81EA9242E5
S315020030300AF8032B0FF021C0B8F1780F08F108083F
S315020030400BF1180B6546BFD3019ADDF808B00132C1
S315020030500BF5C07B802AA7D14FF0000C01E04FF0A0
S31502003060050CA7F10C04A546BDE8F04F6046704773
S315020030700400000005000000060000000700000032
S315020030800000000001000000020000000300000032
S3150200309000284FF0000C00F0A980002900F0A6805D
S315020030A0012AC0F2A3802DE9F04F81B02DED088BE5
S315020030B082B0B7EE001A42F29B4BB4EE410AA2F17D
S315020030C00109F1EE10FAB5EE400A4FF0000884EF5E
S315020030D0532631FE001A9FED460AF1EE10FA48BF5A
S315020030E0B0EE401A9FED430A4FF03A0AC3F60A4B76
S315020030F080EF504000274FF0000C01F128030193A6
S3150200310007EB8703034493F904603A3606EE106A26
S31502003110B8EEC66A26EE006AB4EE416AF1EE10FA1D
S315020031205AD493ED008F29EE4A8FBBFF488639EEBB
S315020031306B8E08FF528D39EE031F33FE09AF39EE4F
S31502003140CF1F35FE0B8FB4EE489AF1EE10FA43D933
S31502003150F4EE689AF1EE10FA3ED9944508DA0CEBD1
S315020031604C030CF1010401EBC3066346A44626E0B8
S31502003170022A18D349F001E000230125019E00BF6F
S3150200318003EB430496ED007A183601EBC404D4ED42
S31502003190040AB4EE607AF1EE10FA55EA4383013579
S315020031A00FF013C000E0002303EB430601EBC60653
S315020031B096ED047AB4EE476AF1EE10FA0CDD86ED6E
S315020031C0009F86ED046A03EB430301EBC303C3F8D6
S315020031D0148000BF00BF00BF0137B7F5A87F8FD1AB
S315020031E002B0BDEC088B01B0BDE8F04F60467047F7
S315020031F0000000009B240A3C2DE9F04F89B000280C
S315020032004FF0000800F0E6800129C0F2E380B7EE35
S31502003210001AB4EE410AF1EE10FAB5EE400A31FE9A
S31502003220001A9FED6E0AF1EE10FA48BFB0EE401A90
S315020032300229009145D3009900F1280B8A1E013913
S315020032404FF0000CCDE90112A1EB0C0EE2460CF197
S31502003250010C5B466646554605EB450793ED002A8B
S31502003260183300EBC70797ED043AB4EE432AF1EEA2
S3150200327010FA56EAC58501360FF013C055451CD023
S315020032800AEB4A0303AA05EB4507644600EBC30EA5
S31502003290734600EBC70793E8621382E86213394666
S315020032A0A446B84691E8FC0003A98EE8FC0091E822
S315020032B0FC0088E8FC00DDE9011292450BF1180BCF
S315020032C0C2D100F10C0C4FF000094FF00008DDF8F6
S315020032D000B000BF00BF00BFB8F1010F09EB490EF5
S315020032E067DB00EBCE0466464746257D00BF00BF7E
S315020032F0317A8D4259D194ED002A16ED033AB4EE95
S31502003300432A94ED014AF1EE10FA16ED025A94EDB3
S31502003310027AB4EE454A16ED016A72FE032AD4ED2C
S31502003320030AF1EE10FAB4EE476AD6ED001A74FEFD
S31502003330053AF1EE10FAF4EE601A77FE064AF1EE5D
S3150200334010FA74EEE22AF0EE404AF5EE402A70FEDA
S31502003350A15AF1EE10FA23D975EEE33AF0EE404A9D
S31502003360F5EE403AF1EE10FA1AD937EE422A36EE67
S31502003370433A31EEC55A30EEC44A23EE053A02EE1E
S31502003380043A22EEA32AF0EE404A33EE423A82EEA5
S31502003390032AB5EE403AF1EE10FA88BFF0EE424A41
S315020033A0F4EE414AF1EE10FA0FDC013F06F118067F
S315020033B09ED108EB480108F1010800EBCE0700EBAD
S315020033C0C10A97E87E008AE87E0009F10109D9451B
S315020033D07FF482AF404609B0BDE8F08F00000000DE
S315020033E0A0B044F21C7244F22071C2F20E22C2F262
S315020033F00E21002044F228781060086044F22471FD
S3150200340044F22C79C2F20E21C2F20E28C2F20E2921
S3150200341044F2387A086044F23071C2F20E21C8F8DA
S315020034200000C9F8000044F23C72086044F23471AC
S31502003430C2F20E21C2F20E2AC2F20E22086044F233
S315020034404071C2F20E21CAF80000106008604CF208
S315020034503E70C0F20A2000F0CBF94CF2D270C0F2F4
S315020034600A2000F0C5F940F2D4204CF6CC61C2F233
S315020034700020C0F20A2101F06AF9B0B104464CF606
S315020034802950C0F20A20214600F0B2F94CF2F4703B
S315020034902146C0F20A2000F0ABF900BE00BF00BF11
S315020034A04FF47A7005F042FBFAE745F274050421FF
S315020034B0C2F20E25286804F02FFA4CF64F50C0F2DD
S315020034C00A2000F095F9FDF784FB0446FDF78CFB14
S315020034D0069494B3044680B34CF27D500699C0F22A
S315020034E00A20224600F084F92868082104F014FA1A
S315020034F04BF66930C0F20A2000F07AF928680221F8
S31502003500002201234FF0FF37009704F067FA800785
S3150200351027D44CF21E30C0F20A2000F069F94CF2B0
S31502003520F4706421C0F20A2000F062F900BE00BF06
S315020035304FF47A7005F0FAFAFAE74CF24940C0F213
S315020035400A2000F055F94CF2F4706421C0F20A2008
S3150200355000F04EF900BE00BF4FF47A7005F0E6FAAD
S31502003560FAE74CF672200594C0F20A2000F040F900
S315020035704EF65C7B44F2207407A8CEF2000BB6EE40
S31502003580008A9FED989A9FED98AAB7EE00BA9FED32
S3150200359097CAC2F20E241030049000BF00BF00BFCB
S315020035A000201F9028684FF4005101220023009743
S315020035B004F014FA8004F3D51FA8FFF7C4F960B12A
S315020035C006461F98216888420DD144F23C71C2F228
S315020035D00E21086801300860E2E7DAF800000130DF
S315020035E0CAF80000DCE74BF6FF7106F01F00C0F2D6
S315020035F0120108440121BFF34F8F01EB501E3046E2
S31502003600CBF8000020300FF005C8BFF34F8FBFF391
S315020036106F8F05F06DFC44F2507205464FF4961119
S315020036204FF440438020C2F20E22CDE900203046FC
S31502003630069AFFF749FC064605F05AFC002EA0EB57
S315020036400500C9F8000040F0AF805746CA46C14699
S3150200365005F04EFC054600204FF00008FDF7C9FABA
S3150200366005F046FC44F23071401BC2F20E2108609E
S3150200367005F03EFC07AE0546042205983146B0EE3B
S31502003680480AFFF705FD01463046B0EE490AFFF744
S31502003690B3FD064605F02CFC44F2347144F2247361
S315020036A0C2F20E21C2F20E23012EA0EB0500086023
S315020036B026EAE67018602ADB46F001E0B0EE4A0A16
S315020036C0049800BF00BF00BF90ED001A1830B4EE98
S315020036D0401AF1EE10FA31FE000A0FF00BC8B4EEF2
S315020036E04B0AF1EE10FA0DDAB5EE400AF1EE10FAD7
S315020036F00BD9B0EE481AA0EE0C1ABCEEC10A10EEB7
S31502003700108A04E04FF47A7801E04FF0000844F2A0
S315020037101C71C9F80080C2F20E211F98206045F282
S3150200372074050868C8460130086008684EF6EF61FD
S31502003730CEF6EE61D146484348F68801C0F68801C6
S31502003740BA464FEA7000C2F20E2588424FF0FF37A2
S315020037503FF626AF216844F21C7044F230753C46AF
S3150200376044F23477C2F20E20C2F20E25C2F20E27BE
S3150200377002681B68D8F80000D9F800602D683F6817
S31502003780CDE900064CF6EC00C0F20A20CDE902575C
S31502003790274645F2740544F22074C2F20E25C2F29F
S315020037A00E2400F025F8FBE644F24071C2F20E2127
S315020037B00868013008604CF236101F9AC0F20A20DF
S315020037C0314600F015F84CF2F4706421C0F20A207A
S315020037D000F00EF800BE00BF4FF47A7005F0A6F9AD
S315020037E0FAE700BF6666E63E0000000000007A4483
S315020037F083B080B581B0844603A80EC003A80090AA
S315020038006A4600206146FEF77BFC01B0BDE88040B7
S3150200381003B07047D4D4D4D482B04CF6DB30C0F2B5
S315020038200A2000F0A6F84CF29E40C0F20A2000F0F0
S31502003830A0F8FFF772FA44F65004C2F20E24206092
S31502003840206870B14CF25A702168C0F20A2000F06A
S3150200385090F8206800B100BE4FF47A7005F066F960
S31502003860FAE70A2005F062F94BF61F50C0F20A2069
S3150200387000F07FF8FFF726F92060206888B14BF642
S31502003880DD702168C0F20A2000F073F8206818B1D2
S3150200389000BE00BF00BF00BF4FF47A7005F046F9C4
S315020038A0FAE745F274060221C2F20E26306804F0E7
S315020038B033F84CF6C540C0F20A2000F05AF83068D8
S315020038C00121002201234FF0FF35009504F086F80E
S315020038D0C00700D100BEFEF797FF2060206880B1C6
S315020038E04CF6FC302168C0F20A2000F042F820684B
S315020038F010B100BE00BF00BF4FF47A7005F016F992
S31502003900FAE7FEF7F3FF2060206870B14CF6A720B5
S315020039102168C0F20A2000F02CF8206800B100BE2F
S315020039204FF47A7005F002F9FAE74CF61000C0F28D
S315020039300A2000F01EF84FF0FF3400BF00BF00BFA0
S3150200394030684FF4805101220023009404F046F8B7
S31502003950C004F5D54CF2DC60C0F20A2000F009F88A
S31502003960FEF7E1FF00BE00BF4FF47A7005F0DEF805
S31502003970FAE783B080B581B0844603A80EC003A8D7
S3150200398000906A4600206146FEF7BAFB01B0BDE828
S31502003990804003B07047D4D48CB000200B90FEF761
S315020039A0D3FE00B100BE45F274054EF65C74C2F257
S315020039B00E250121CEF200040126286803F0ACFF91
S315020039C044F200014BF6FF72C6F63801C0F212024B
S315020039D001F01F0152A0114445F2400790ED009FED
S315020039E006EB5110019052A044F2047B44F65409AE
S315020039F000264FF0FF3890ED00BFC2F20E2740F2CC
S31502003A00EE3AC2F20E2BC2F20E290120029000BF3C
S31502003A1028684FF4006101220023CDF8008003F0EC
S31502003A20DDFF0005F4D50BA8FEF78DFF4BF6FF72FE
S31502003A3000F01F01C0F2120201230A440B9903EBA4
S31502003A40521E08B92FF01DC0B142E1D044F2000166
S31502003A504FF49612029BC6F6380103FB021603A91F
S31502003A608DED049F0390089689ED0CAFBFF34F8F3F
S31502003A70206020300FF005C0BFF34F8FBFF36F8F6A
S31502003A8044F660014FF4487203A8C2F20E21FEF713
S31502003A906BFD38B144F65801C2F20E2108680130B6
S31502003AA0086000BEBFF34F8F019840F001E0304638
S31502003AB0E06020300FF005C0BFF34F8FBFF36F8F6A
S31502003AC0BFF35F8F00BF00BF3220FEF781FE40B119
S31502003AD0142805D1D9F800000130C9F80000F3E72F
S31502003AE000BE00223846314602F0A3FC504503D000
S31502003AF040B100BEE8E700BFDBF800000130CBF8BA
S31502003B000000E1E744F200710298C2F20E2180F051
S31502003B10010002900B9E08680130086078E700BF3A
S31502003B200004580200040C000000E80358020000DA
S31502003B3020030000E0010000000400000000000075
S31502003B40022818BF704780B545F250004DF2E431A5
S31502003B50C2F20E20C0F20A2101F014FC0120BDE8D7
S31502003B60804003F0CDBB80B584B045F2EC004CF644
S31502003B703C63C2F20E2044F6A06C49F6602EC0F2F7
S31502003B800A2301684FF400620131016001200090AE
S31502003B9043F6CF304BF69A31C0F20020C0F20A212A
S31502003BA0C2F20E2CC2F20E2ECDE901EC04F06FFD2C
S31502003BB044F60871C2F20E21086008B104B080BD55
S31502003BC00020002104B0BDE8804000F099B810B58D
S31502003BD0044600F099F82046BDE81040FFF700BC05
S31502003BE080B584B045F2EC004CF6C863C2F20E20F2
S31502003BF044F65C7C4BF6602EC0F20A2301684FF451
S31502003C00C062013101600320009043F649404BF641
S31502003C107571C0F20020C0F20A21C2F20E2CC2F265
S31502003C200E2ECDE901EC04F032FD44F6C471C2F267
S31502003C300E21086008B104B080BD0020002104B046
S31502003C40BDE8804000F05CB810B5044600F05CF8B0
S31502003C502046BDE81040FFF7DFBD80B545F25800AB
S31502003C60C2F20E2003F025FE45F27401C2F20E21C5
S31502003C70086000B180BD00200021BDE8804000F050
S31502003C803FB880B584B045F2EC004DF2E003C2F2D3
S31502003C900E2045F2780C4DF2602EC0F20A2301681E
S31502003CA04FF48062013101600320009043F6EB403D
S31502003CB04CF2B651C0F20020C0F20A21C2F20E2C1A
S31502003CC0C2F20E2ECDE901EC04F0E1FC45F2E00170
S31502003CD0C2F20E21086008B104B080BD00200021A6
S31502003CE004B0BDE8804000F00BB810B5044600F001
S31502003CF00BF82046BDE81040FFF74EBEFFF7ADBFFA
S31502003D0000BE7047D4D4D4D4B0B545F2E4044FF023
S31502003D10FF31C2F20E24206804F09AFB012803D078
S31502003D2020680021FFF7ECFF45F2E800C2F20E2000
S31502003D30017801B1B0BD01210170FFF7DFFF45F245
S31502003D40EC05C2F20E2500BF286801382860F1D0C2
S31502003D50206800210022002304F032F80128F3D063
S31502003D6020680021FFF7CCFFEEE780B545F2E802B6
S31502003D7045F2EC00C2F20E22C2F20E2000211170B0
S31502003D8045F2F0020160C2F20E224FF48070012168
S31502003D9003F0F6FF45F2E401C2F20E21086018B9FB
S31502003DA000200021FFF7ACFFFFF76BFFFFF718FFBC
S31502003DB0FFF7D9FE04F03EFF002080BD45F2381C15
S31502003DC045F2A013C2F20E2CC2F20E23C0F800C0B6
S31502003DD00B6080201060704745F2A03C45F2084314
S31502003DE0C2F20E2CC2F20E23C0F800C00B60802075
S31502003DF010607047704780E80E008A6A0021B1EBB6
S31502003E00127F07D180B500F007F800285FEA1F91FC
S31502003E10BDE880400846704790E80E00002B5FEA36
S31502003E200F93002A48F29F6208BF0233CB60C0F2AA
S31502003E300102016800BF00BF4B681B0703D5002AB9
S31502003E40A2F10102F8D14A68120726D44A6A4368E7
S31502003E50002B5FEA1F9312F0020F5FEA1F92934252
S31502003E601BD04A6A836802F00102002B5FEA1F93A5
S31502003E70934212D00222CA61016845F25352CA63C2
S31502003E8000220168C0F61F720A6401684A6401686A
S31502003E908A640068C264002000E0FF2040B27047D6
S31502003EA0F0B581B0069F092F3ADA1C460B46164634
S31502003EB0054600214FF0FF321846FFF79BFF002907
S31502003EC03DD12968012F08612868066211DB0026A8
S31502003ED0D4E900013246FFF78DFF91B92968013F07
S31502003EE001EBC60106F1010604F10804C1F88000DF
S31502003EF0EED12868816801F00C010131816001B0C0
S31502003F00F0BD4BF63C504CF6FD424BF68C43C0F2EC
S31502003F100A20C0F20A22C0F20A23A42103F000F901
S31502003F204BF63C504CF6FD424CF25F33C0F20A208F
S31502003F30C0F20A22C0F20A23942103F0F1F84BF6EA
S31502003F403C504CF6FD424CF61D43C0F20A20C0F22C
S31502003F500A22C0F20A23982103F0E2F870470168A8
S31502003F608A6802F00C0202328A60006841684907D8
S31502003F705CBF41685FEAC16101D5002070474168B4
S31502003F8009065CBF41685FEAC151F6D44068C0F3D6
S31502003F9040107047D0F800C0012ADCF8080000F093
S31502003FA0040308BF0833022A08BF00F00C0303F01B
S31502003FB00800012908BF0430022953EA00810020C3
S31502003FC0CCF80810704780B50368986AD3F800E009
S31502003FD0814201D101200FE0FF2380EA010CCFF2DA
S31502003FE000031CEA030F5FEA1F9311F0006F5FEAFA
S31502003FF01F9141EAD06018408EEA02010023B3EB1A
S31502004000117F07D1C2F30751CEF307528A4238BF56
S31502004010002080BD002080BD45F20860C2F20E205D
S315020040207047002070470020704780B5012005F0D8
S31502004030E3FC08B10021017080BDD4D4D4D4D4D419
S315020040400278014600BF00BF12B920BF0A78FBE71B
S315020040500020013A0A70704701780131017040BFB1
S315020040600020704770477047B0B50446407C01286F
S3150200407008BFB0BD204602252574FFF770FF002851
S3150200408018BF00256574E06ABDE8B040FFF7E4BFDB
S315020040902DE9F04381B045F20C681E46C2F20E28A5
S315020040A00D460446D8F80070002F174604D1FFF7D4
S315020040B0B3FFC8F80000C8B345F21069C2F20E2970
S315020040C0D9F8000020B9FFF7B0FFC9F8000068B3BD
S315020040D0DDE908230020C4E90C702946C4E90E6014
S315020040E040F20220A4F841002046FFF784FEE8B120
S315020040F0FFF79BFFE062C8B104F110001C2105F036
S31502004100E3FBD8F80000FFF78CFF45F21460C2F219
S315020041100E2001680460D8F80000E160FFF783FF13
S31502004120D9F80000FFF798FF002001E04FF0FF30BA
S3150200413001B0BDE8F08310B50446FFF76DFE10B17D
S315020041404FF0FF3010BDE06B00285FEA1F9120465A
S315020041500A46FFF71FFF002010BD10B50446C06BCC
S31502004160002800F10100E06301D0002010BD2046C6
S31502004170FFF7E1FF0028F8D0E06B0138E0634FF06B
S31502004180FF3010BDD4D4D4D4F0B581B00446054670
S3150200419014F8100F00284ED0022803D0012847D168
S315020041A0002953D0686A012813DB0026002700BFC6
S315020041B095F84210F940C90707D0D5E90701805999
S315020041C051F8271000F0B0FB686A013708368742BB
S315020041D0EEDBE86A4FF0FF324FF0FF33FFF730FFB6
S315020041E000280CD501206874297C022907D168743D
S315020041F04FF0FF32E86A4FF0FF33FFF721FFA96A5B
S315020042002846FFF730FFE86B38B10138E86304D17E
S31502004210012101222846FFF7BDFE687C70B1687C49
S31502004220022802D12846FFF799FE2846FFF783FFA8
S315020042304FF0FF3503E06FF0010504E000251C2175
S31502004240204605F041FB284601B0F0BD0125FAE7FC
S315020042502DE9F04F83B0002900F09B80002B00F07F
S31502004260A88004460C98002800F0B380254615F86D
S31502004270107F17BB0026267404F11406DDE90DEC47
S3150200428020620EC69607C4E909EC12D144F64377BA
S315020042900E68C3F25017BE420BD1BEF1030F13DBF9
S315020042A0D4E90C7C57EA0C060ED0A66B8068B042A5
S315020042B008D91C21284605F007FB4FF0FF3003B052
S315020042C0BDE8F08FC3E9047C02EB01080F1D4745E8
S315020042D05DD23878052858D002280AD00128E8D1BC
S315020042E0D7E901122046FFF76EFE0028E1D00C370F
S315020042F0EDE707F1040B5FEA0B70DAD178787E8876
S315020043000290606A012824DBE169024600BF00BF11
S315020043100B781B07CDD1013A01F10801F8D14FF014
S31502004320000A4FF0000900BF94F8411021FA09F182
S31502004330C90708D0D4E9070150F80A0051F8291034
S3150200434000F0A2FA606A09F101090AF1080A814538
S31502004350EADB2046FFF701FF0028AAD1029846EAC7
S315020043600046012020742046A16A4FEA8609FFF71B
S3150200437079FEE369606A0090204659464A46FFF78D
S315020043808FFD07EB8600071DA1E704379FE7002094
S3150200439095E74CF2C5504CF20B724CF22D23C0F24B
S315020043A00A20C0F20A22C0F20A2340F2822102F057
S315020043B0B7FE4CF2C5504CF20B724CF24053C0F2AF
S315020043C00A20C0F20A22C0F20A2340F2832102F036
S315020043D0A7FE4CF2C5504CF20B724CF29123C0F27E
S315020043E00A20C0F20A22C0F20A234FF4217102F017
S315020043F097FE70B584B008AD064631CD8DE8310022
S315020044003046FFF725FF002806D40121304604B0C6
S31502004410BDE87040FFF7B8BE4FF0FF3004B070BD84
S315020044201EF0040F0CBFEFF30880EFF30980014979
S3150200443008470000C74400020F4B1968EFF30982D0
S315020044401EF0100F08BF22ED108A22E9F04FEFF39B
S315020044500B8342F8043D0A604FF0100080F3118886
S31502004460BFF34F8FBFF36F8F04F092FB4FF0000044
S3150200447080F3118800F002B844970E2207480168BB
S315020044800A6802CA81F30B88B2E8F04F1EF0100FD9
S3150200449008BFB2EC108A82F30988704744970E224D
S315020044A010B51020EFF3118480F3118804F044FC58
S315020044B030B14EF604504FF08051CEF2000001604A
S315020044C084F3118810BD806910F8020C022801D10C
S315020044D0FFF7D4BF042838BF704780B54BF6CA3001
S315020044E04CF2A8224BF6EA43C0F20A20C0F20A2294
S315020044F0C0F20A234FF47E7102F012FE283140F810
S31502004500481D44F229514FF0807CC0F2002122F06E
S315020045100102C1630264C0F844C06FF00201C0E93F
S3150200452009137047D4D4D4D400BE00BF00BF00BF65
S31502004530FEE7D4D4D4D4D4D44EF62250F021CEF20F
S315020045400000017000F016F84EF63470CEF200004C
S31502004550016841F04041016062B6BFF36F8FEFF32D
S31502004560148C2CF0040C8CF31488BFF36F8F02DFCB
S3150200457000BEFDE745F2DC6044F6D351C2F20E20DE
S31502004580C1F262010068A0FB01014FF0FF3000EBAF
S3150200459091110020B0EB116F18BF70474EF2100256
S315020045A0F023CEF2000251604EF62351CEF2000104
S315020045B00B709060072010607047EFF31180102196
S315020045C081F3118845F21861C2F20E210A68002AA7
S315020045D002F101020A6018BF704745F21C61C2F27D
S315020045E00E2108604EF60450CEF200000068C005A7
S315020045F000D1704780B54BF6CA304BF6F0324CF21A
S315020046008013C0F20A20C0F20A22C0F20A2340F244
S31502004610A44102F085FD45F21860C2F20E2001683F
S3150200462059B10139016018BF704745F21C60C2F2E8
S315020046300E20006880F31188704780B54BF6CA30A9
S315020046404CF633424BF6A433C0F20A20C0F20A22D9
S31502004650C0F20A2340F2AD4102F062FD80B598B382
S315020046604EF6902EC4F2010E9EF800100A0722D0D2
S315020046704EF2FA324AF2025CC4F20102CFF6FF7C33
S3150200468000201388A2F800C08EF8000043F42540EB
S315020046901080BFF34F8F30BFBFF36F8F62B6BFF389
S315020046A06F8F72B61088A2F800C08EF8001040F420
S315020046B02540108080BDBFF34F8F30BFBFF36F8F91
S315020046C062B6BFF36F8F72B680BD80B572B604F064
S315020046D005F90120FFF7C2FF62B6BDE8804004F08B
S315020046E057B980B5EFF30380103840B2002806D4DC
S315020046F04EF20041CEF20001405C0F2817D94EF669
S315020047000C50CEF200000068400558BF80BD4BF643
S31502004710CA304CF21F724BF61963C0F20A20C0F27D
S315020047200A22C0F20A2340F2216102F0F9FC4BF69A
S31502004730CA304CF21F724CF6D423C0F20A20C0F2E1
S315020047400A22C0F20A2340F20F6102F0E9FCF0B538
S3150200475083B0EFF31086012282F3108843F200023F
S31502004760C4F220020D4607461E201368012123F4D7
S3150200477080331360126802F0D8FC86F31088002199
S31502004780B8686E7BAC7BC4F2140100680022002379
S31502004790CDE90064FFF77CFC08B1032041E095F9FE
S315020047A00C102A7A4EF200100029CEF200004FEACF
S315020047B0021203D4431883F8002306E04EF6145679
S315020047C001F00F03CEF200069A5545F298620126D1
S315020047D0C2F20E2242F821704CF20032C4F20002FA
S315020047E052F8213023F4803342F8213052F8212046
S315020047F04A0901F01F01BFF35F8F00EB820306FA3D
S3150200480001F1C3F8801140F822107D602868F86033
S3150200481068687861002044F25451C5F24D2138612E
S31502004820396003B0F0BDB0B582B04FF07041EFF31E
S31502004830038001EB006045F298628115C2F20E22F6
S3150200484004165558A9680868FFF70EFCE86868B1AF
S31502004850286910B10168019100E001A86969016047
S31502004860E9688847286908B1019901604CF200306D
S31502004870C4F2000050F8241021F4803140F82410CC
S3150200488050F8240002B0B0BDB0B5D8B10129B8BF06
S31502004890B0BD00F01F021144A1F1200202EAE27249
S315020048A0BFF34F8FD2431144012202EB511E4EF643
S315020048B08051CEF2000100BFC1F8E80120300FF0AE
S315020048C005C829E04EF680500021CEF2000043F6DC
S315020048D0E07C4160BFF34F8F0268C2F34E31D308CA
S315020048E0C2F3C902541C9A074B0100BF00BF00BFA6
S315020048F003EA0C0544F001E0154400BF00BF00BF07
S31502004900C0F8EC5105F140450FF007C00029A1F1AE
S315020049100101A3F12003EBD1BFF34F8FBFF36F8FDA
S31502004920B0BDD4D4D4D4D4D4B0B5D8B10129B8BF8B
S31502004930B0BD00F01F021144A1F1200202EAE272A8
S31502004940BFF34F8FD2431144012202EB511E4EF6A2
S315020049508051CEF2000100BFC1F8F00120300FF005
S3150200496005C829E04EF680500021CEF2000043F63B
S31502004970E07C4160BFF34F8F0268C2F34E31D30829
S31502004980C2F3C902541C9A074B0100BF00BF00BF05
S3150200499003EA0C0544F001E0154400BF00BF00BF66
S315020049A0C0F8F45105F140450FF007C00029A1F106
S315020049B00101A3F12003EBD1BFF34F8FBFF36F8F3A
S315020049C0B0BDF0B581B0416004464E69EFF3108781
S315020049D0012080F3108843F208000D46C4F220003D
S315020049E0016821F40031016000681E20012102F0F5
S315020049F09CFB47F2004187F31088C4F234014FF65C
S31502004A00FE72CFF6BF72886820F002008860706876
S31502004A10104008603069086270694862F06A886509
S31502004A203089C86070890861B0894861F0898861F7
S31502004A30308BC862F0690863306A4863706A8863BB
S31502004A40306B086670680A68400860F341020A60C3
S31502004A50706BC1F80003B06BC1F80403F06BC1F8C8
S31502004A600803306CC1F80C03706DC1F82802B06DF2
S31502004A70C1F82C02F06DC1F83002306EC1F8340272
S31502004A80706EC1F83802B06EC1F83C02F06EC1F821
S31502004A904002306FC1F84402706FC1F84802706874
S31502004AA00A68400E60F359620A6070680A68800BF1
S31502004AB060F38F320A60F06CC1F89000306DC1F875
S31502004AC0A40070680A68800E60F39A620A60706CCD
S31502004AD0C1F88000F06F0864B6F8802006F178000D
S31502004AE08A6400212161E968A1602969E1602146A1
S31502004AF000F0B6F806F17A00214600F0B1F8316806
S31502004B0007C91268904720B944F64E11C5F25621DC
S31502004B10216001B0F0BD70B547F200460446406818
S31502004B20C4F2340645693068306820F0010030600E
S31502004B30B06820F00200B0607068C00708BF706DF0
S31502004B40286881680068C9688847306820F08060F4
S31502004B5030602868816800684968884700212160BA
S31502004B6095F979204EF2801CCEF2000C012602F055
S31502004B701F03520906FA03F34CF8223045F29863F2
S31502004B80BFF34F8FBFF36F8F95F97920C2F20E23D1
S31502004B9043F8221095F97B20540902F01F0206FA07
S31502004BA002F24CF824200446BFF34F8FBFF36F8FF7
S31502004BB095F97B201E2043F8221043F20801C4F225
S31502004BC02001EFF3108586F310880A6842F400325A
S31502004BD00A600968012102F0A8FA85F310882046C6
S31502004BE070BD4068406990F82820012A47F20042C9
S31502004BF0C4F2340202D1116351639163116841F424
S31502004C00800111601168C1F380511168C1F38051AE
S31502004C101168C1F380511168C1F380511168C1F363
S31502004C2080511168C1F380511168C1F38051116836
S31502004C30C1F380511168C1F380511168C1F38051EB
S31502004C40816CC2F88410116841F00101116091680B
S31502004C5041F002019160006881680068896808472E
S31502004C6080B590F9012003784EF2001C002ACEF29C
S31502004C70000C4FEA031304D40CEB020080F8003355
S31502004C8007E04EF6145002F00F0ECEF200000EF8B8
S31502004C90003045F298600123C2F20E2040F822103D
S31502004CA04CF20030C4F2000050F8221021F4803198
S31502004CB040F8221050F82200500902F01F02BFF3FA
S31502004CC05F8F0CEB800103FA02F2C1F880214CF8E7
S31502004CD0202080BD012000F000B82DE9F0418AB005
S31502004CE04FF07042EFF3038102EB016147F2044C8D
S31502004CF045F298648B15C4F2340CC2F20E240916DE
S31502004D0054F80380DCF80020DCF840308DE80D0012
S31502004D1098064FF0000003900FD5DCF80000C04360
S31502004D2010F0180F01D1002006E0DCF80000C0F3F5
S31502004D30C1400CEB8000C06A039043F08022D8F891
S31502004D400C00049042F00100CCF840004CF2003016
S31502004D50C4F2000050F8212022F4803240F82120CB
S31502004D6050F82100D8F81000694658B103460DF1F3
S31502004D70140C93E8F4008CE8F400024691E8F8007B
S31502004D80F8C200E00846D8F808108847D8F810009C
S31502004D9018B105A991E8EC00ECC00AB0BDE8F081B3
S31502004DA0F0B546F6004391F80CC0C4F234039A6C8F
S31502004DB022F0010262444EF2200CC4F2010C9A6403
S31502004DC0DCF80020BCF80440844644EA123E5FEA5E
S31502004DD00E70C2F3033E04F00F0009D445F2DC6202
S31502004DE0C2F20E22126802FA00F020FA0EF01BE05E
S31502004DF000F00704032505FA04F40126170B082818
S31502004E0038BF06FA00F407F0070045F2DC67C2F283
S31502004E100E2705FA00F012043D6805FB04F258BF9E
S31502004E2006FA0EF0B2FBF0F04DF683621F68C4F28A
S31502004E301B32A0FB02024FF0FF3000EB92403A0A0F
S31502004E4062F31F201860186940F00100186100BF64
S31502004E50D869C007FCD0087B012810D108685860C1
S31502004E600879DA6860F30402DA60986820F00100D3
S31502004E70986000BF00BF00BFD869C005FCD588682E
S31502004E8002686FF3DF425A6242689A628268DA62A5
S31502004E90C2681A6302695A63007D44F65012986327
S31502004EA0C4F65052186A40F0010018620020CCE99C
S31502004EB00021F0BD46F60842C4F23402916921F09F
S31502004EC001019161116841F0010111609368014687
S31502004ED023F001009060002000220A607047D4D4BB
S31502004EE070B504464160EFF31086012080F3108806
S31502004EF043F20800C4F220000D46016821F4003195
S31502004F00016000681E20012102F00FF986F3108865
S31502004F10296807C912689047064600285AD147F2FF
S31502004F201001C4F23401C86820F00100C86000BF55
S31502004F30C869C007FCD168680860A86888602869E3
S31502004F40086368694863D5E90602C1E91402E8689C
S31502004F50C1F87002E86A8866286B8867686BC1F8D0
S31502004F6088004FF0100E05F1380001F1F80200BF7B
S31502004F7050F8043B42F8103B0FF007C0AA6FC1F885
S31502004F80F821EA6FC1F87C2200212161D5F8801050
S31502004F90A16005F12000D5F88410E160214600F0F9
S31502004FA0C7F805F12200214600F0C2F805F12400F7
S31502004FB0214600F0BDF805F12600214600F0B8F8BA
S31502004FC005F12800214600F0B3F844F64310C4F672
S31502004FD050502060304670BDF0B581B0074640683B
S31502004FE04EF2801290F92110CEF200024D0901F024
S31502004FF01F03012101FA03F342F82530BFF34F8F55
S31502005000BFF36F8F90F9214045F29863C2F20E23E7
S31502005010002543F8245090F92340660904F01F0442
S3150200502001FA04F442F82640BFF34F8FBFF36F8FA5
S3150200503090F9236043F8265090F92560740906F02A
S315020050401F0601FA06F642F82460BFF34F8FBFF33C
S315020050506F8F90F9256043F8265090F927607409FE
S3150200506006F01F0601FA06F642F82460BFF34F8FD8
S31502005070BFF36F8F90F9276043F8265090F92960A5
S31502005080740906F01F06B14042F82410BFF34F8F91
S31502005090BFF36F8F90F9291043F821500068816899
S315020050A000684968884700B93D6001B0F0BD47F223
S315020050B01C010020C4F234010A6842F001020A60AF
S315020050C0704747F21C00C4F23400816D890301D493
S315020050D001207047016821F001010160C16841F0B9
S315020050E00101C1600020704747F28420C4F23400F7
S315020050F0026812F47F4F07D0026942F00102026190
S31502005100C0680860002070470D20704747F27002A1
S31502005110C4F23402106810F4003F4FF0010050EA66
S31502005120009008700020516841F4003151607047C8
S3150200513080B590F9012003784EF2001C002ACEF2C7
S31502005140000C4FEA031304D40CEB020080F8003380
S3150200515007E04EF6145002F00F0ECEF200000EF8E3
S31502005160003045F298600123C2F20E2040F8221068
S315020051704CF20030C4F2000050F8221021F48031C3
S3150200518040F8221050F82200500902F01F02BFF325
S315020051905F8F0CEB800103FA02F2C1F880214CF812
S315020051A0202080BD70B588B04FF07041EFF30380C8
S315020051B001EB006045F298618015C2F20E21EE46BF
S315020051C00C584FF47F41ADF8001047F27001C4F25B
S315020051D034010A680192E368039302F400324A60DA
S315020051E04CF20031C4F20001425822F4803242509D
S315020051F04058206958B103460DF1100C93E8660039
S315020052008CE8660001469EE86C006CC100E07046C0
S31502005210A1688847206918B104A991E86C006CC09E
S3150200522008B070BD2DE9F04389B04FF07041EFF33D
S31502005230038001EB006045F2986147F25002801547
S31502005240C2F20E21C4F234020C58D2F80090116B4D
S31502005250D2F8408021F08073536328F08073536440
S315020052604CF20032C4F20002835823F48033835096
S315020052708058E06804905FEAC9704FF001008DF82B
S3150200528004001CD02069029101A94FF000028DF89A
S31502005290052058B103460DF1140C93E8E4008CE89E
S315020052A0E400024691E8E800E8C200E00846A16888
S315020052B08847206918B105A991E8CC00CCC05FEAFD
S315020052C089701CD5206901218DF8051001A9CDF838
S315020052D0088058B103460DF1140C93E8E4008CE8FB
S315020052E0E400024691E8E800E8C200E00846A16848
S315020052F08847206918B105A991E8CC00CCC009B04D
S31502005300BDE8F083F0B589B04FF07041EFF303804A
S3150200531001EB006045F298618015C2F20E210F582A
S3150200532047F25001C4F23401096802218DF80410D3
S31502005330F96804914CF20031C4F20001425822F499
S31502005340803242504058FF208DF80500386900210E
S31502005350029101A958B103460DF1140C93E87400A9
S315020053608CE87400024691E8780078C200E00846AC
S31502005370B9688847386918B105A991E8CC00CCC04C
S3150200538009B0F0BD80B545F25422C5F24F02026063
S31502005390084600F005F8002080BDD4D4D4D4D4D475
S315020053A070B5044600F060F845F2946CEFF3108194
S315020053B0C2F20E2C012080F31088DCF8000038B906
S315020053C040F614500022C4F24000027040220270DD
S315020053D0DCF800000130CCF8000081F31088208848
S315020053E028B340F6000E0021C4F2400E00BF00BFF3
S315020053F0606800EBC10250F831309288D8034FEA58
S315020054001220D2B20BD50EEB801555F8226026F487
S31502005410803645F8226023F4803645F822600EEB8A
S315020054208010013140F8223020888142E0D30120E9
S31502005430EFF3108180F31088DCF8000020B1DCF86D
S3150200544000000138CCF80000DCF8000038B940F65C
S3150200545014500022C4F2400002708022027081F3CE
S31502005460108870BDD4D4D4D42DE9F04F81B004464F
S315020054700088002865D04EF64C4B0025C4F2010B7D
S315020054804FF0010A00BF00BF4DF22C4642F240081F
S315020054900027C0F20A26C4F2200800BF00BF00BFE0
S315020054A0606836F8021B00EBC50082888A423FD14B
S315020054B000689BF8001000F0B8500AFA07F9B0F13C
S315020054C0807F09EA010017D158B9012001F0D3FE05
S315020054D09BF8000040EA09008BF80000012001F069
S315020054E0A3FE98F90000002822D498F8000040F0A4
