S021000052413850314475616C436F726550726F6A6563745F435055302E737265635A
S3150200000020470022A9FC000291FA0002B3FC00027A
S31502000010B3FC0002B3FC0002B3FC0002B3FC000214
S3150200002000000000000000000000000079C9000284
S31502000030B3FC00020000000091C90002F9C90002E7
S3150200004003EE000285EE0002D9EE000259F4000228
S3150200005093E0000269E20002D1E30002B9E4000281
S315020000602DD20002FDD600027DD700025DD8000225
S30D020000707FCD0002CFD9000288
S315020000782100000008304200033113000331030057
S31502000088003000000430FF0002301C000630C300B6
S315020000980E3045002E300800343018001F5000007C
S315020000A8004332001836000012362900093752007A
S315020000B80C3703002038400021380100303636005C
S315020000C831360E003236E200333612002136E000AF
S315020000D80437A00003375A0015377800173701008E
S315020000E80B37600005371A00053902000639100079
S315020000F801390A003137120000360800013633008A
S315020001082D306000203652001B3720001C47500055
S31502000118133A4300183A0000193AF8003536130024
S31502000128363603003436400022360100014002000A
S315020001380440020005401A000150A30003350700D7
S31502000148003500000135FF00023500000A350000BF
S315020001580B3520000F3A3000103A28001B3A3000BF
S315020001681E3A2600113A60001F3A1400183A000097
S31502000178193A7C00063400008054010081540800B4
S31502000188825414008354280084545100855465000F
S315020001988654710087547D008854870089549100DB
S315020001A88A549A008B54AA008C54B8008D54CD00F8
S315020001B88E54DD008F54EA0090541D0080550600C7
S315020001C88355400084551000895510008A55000051
S315020001D88B55F800005823000158140002580F00E6
S315020001E803580F00045812000558260006580C003A
S315020001F80758080008580500095805000A58080053
S315020002080B580D000C5808000D5803000E58000034
S315020002180F58000010580300115809001258070019
S315020002281358030014580000155801001658030005
S315020002381758080018580D00195808001A580500CA
S315020002481B5806001C5808001D580E001E58290087
S315020002581F5817002058110021581100225815005E
S3150200026823582800245846002558260026580800F0
S315020002782758260028586400295826002A58240098
S315020002882B5822002C5824002D5824002E580600DC
S315020002982F58220030584000315842003258240064
S315020002A8335826003458240035582200365822007E
S315020002B83758260038584400395824003A58260038
S315020002C83B5828003C5842003D58CE000050A70033
S315020002D8203846002138000014383100153831001C
S315020002E80338040008380400093800000A380200F6
S315020002F80B3858000C4622003748100024380200F2
S315020003080150A3003D50000041470000FFFFFF00D7
S3150200031888700E220000000000000000D8020022A9
S313020003280000000000000000000000000101BD
S315020003402DE9F04385B01846154688460124082152
S31502000350202220230C9E4FF0000C18278DE8D00097
S31502000360CDF80CC04FF0080912F07AFA08212022C3
S31502000370202328460094CDF80C90CDE9016712F0AF
S315020003806FFA0821202220231020039040468DE890
S31502000390D00012F065FA05B0BDE8F0832DE9F0470A
S315020003A084B01E4690468946DDE90C0710211022CC
S315020003B010234FF0000C40240125CDE900574FF0E1
S315020003C0100A0294CDF80CC012F04AFA102110223B
S315020003D0102330460095CDF80CA0CDE9017412F039
S315020003E03FFA202003901021102210234846009540
S315020003F0CDE9017412F034FA1021102210233020B4
S3150200040003904046CDE90057029412F029FA04B04F
S31502000410BDE8F0872DE9F04784B01E46904689462E
S31502000420DDE90C072021082208234FF0000C802466
S315020004300125CDE900574FF0200A0294CDF80CC0F1
S3150200044012F00EFA20210822082330460095CDF834
S315020004500CA0CDE9017412F003FA4020039020218A
S315020004600822082348460095CDE9017412F0F8F9EE
S31502000470202108220823602003904046CDE9005738
S31502000480029412F0EDF904B0BDE8F0872DE9F043CD
S3150200049085B01846154688460124402104220423C5
S315020004A00C9E4FF0000CC0278DE8D000CDF80CC092
S315020004B04FF0400912F0D4F94021042204232846C1
S315020004C00094CDF80C90CDE9016712F0C9F94021EC
S315020004D0042204238020039040468DE8D00012F0C7
S315020004E0BFF905B0BDE8F0832DE9F04784B099461F
S315020004F016460846402104220423DDE90C874FF004
S31502000500000C4FF480740125CDE900574FF0400AE4
S315020005100294CDF80CC012F0A3F940210422042360
S3150200052030460095CDF80CA0CDE9017412F098F989
S315020005308020039040210422042348460095CDE9F9
S31502000540017412F08DF9402104220423C020039085
S315020005504046CDE90057029412F082F904B0BDE894
S31502000560F0872DE9F04385B01846154688460124E2
S315020005704021042204230C9E4FF0000CC0278DE874
S31502000580D000CDF80CC04FF0400912F069F94021B5
S315020005900422042328460094CDF80C90CDE9016785
S315020005A012F05EF940210422042380200390404683
S315020005B08DE8D00012F054F905B0BDE8F0832DE9BC
S315020005C0F04184B01D4610460C460127CDE9007362
S315020005D08021082208234FF0000CC0260296CDF88F
S315020005E00CC04FF0800812F03BF940210822082384
S315020005F02046CDE90075CDE9026812F031F904B062
S31502000600BDE8F0812DE9F04385B0184615468846C7
S3150200061001242021082208230C9E4FF0000C60279B
S315020006208DE8D000CDF80CC04FF0200912F018F971
S3150200063020210822082328460094CDF80C90CDE903
S31502000640016712F00DF920210822082340200390A9
S3150200065040468DE8D00012F003F905B0BDE8F083FC
S315020006602DE9F04184B01D4610460C460127CDE91E
S3150200067000734021102210234FF0000C60260296D0
S31502000680CDF80CC04FF0400812F0EAF820211022F3
S3150200069010232046CDE90075CDE9026812F0E0F894
S315020006A004B0BDE8F0812DE9F04385B01846154641
S315020006B0884601241021102210230C9E4FF0000CB4
S315020006C030278DE8D000CDF80CC04FF0100912F09B
S315020006D0C7F810211022102328460094CDF80C905A
S315020006E0CDE9016712F0BCF8102110221023202058
S315020006F0039040468DE8D00012F0B2F805B0BDE88E
S31502000700F0832DE9F04184B01D4610460C460127C0
S31502000710CDE900732021082208234FF0000C602641
S315020007200296CDF80CC04FF0200812F099F840213D
S31502000730082208232046CDE90075CDE9026812F0A9
S315020007408FF804B0BDE8F0812DE9F04385B0184674
S315020007501546884601242021082208230C9E4FF0C4
S31502000760000C60278DE8D000CDF80CC04FF02009B0
S3150200077012F076F820210822082328460094CDF8A4
S315020007800C90CDE9016712F06BF8202108220823AC
S315020007904020039040468DE8D00012F061F805B083
S315020007A0BDE8F0832DE9F04184B01D4610460C46A3
S315020007B00127CDE900734021042204234FF0000CE7
S315020007C0C0260296CDF80CC04FF0400812F048F849
S315020007D08021042204232046CDE90075CDE9026872
S315020007E012F03EF804B0BDE8F0812DE9F04385B081
S315020007F018461546884601244021042204230C9EED
S315020008004FF0000CC0278DE8D000CDF80CC04FF099
S31502000810400912F025F840210422042328460094B8
S31502000820CDF80C90CDE9016712F01AF840210422A6
S3150200083004238020039040468DE8D00012F010F881
S3150200084005B0BDE8F08370B58CB044F2883E0DF178
S31502000850200CC0F2012E63469EE8710071C3084661
S3150200086044F244366FF07F034BF6C6244FF4A86178
S31502000870CDE9003104930423114662464FF0010E7E
S31502000880C0F201260025C7F6EE74CDE90245CDE990
S31502000890056E00F04DF80CB070BD2DE9F04184B044
S315020008A01D4610460C460127CDE90073012102229E
S315020008B04FF4A8734FF0000C04260296CDF80CC034
S315020008C04FF0020811F0E8FF012102224FF4A8734B
S315020008D02046CDE90075CDE9026811F0DDFF04B0CE
S315020008E0BDE8F0812DE9F04184B01D461446084664
S315020008F00127CDE90073012104224FF4A8734FF0BA
S31502000900000C05260296CDF80CC04FF0040811F033
S31502000910C3FF012101224FF4A8732046CDE90075D9
S31502000920CDE9026811F0B8FF04B0BDE8F081D4D475
S315020009302DE9F04F03AF8DB089460446A7F1240096
S3150200094014219A469046D7F81CB012F0F2F8072006
S31502000950002500EB8B0047F838DC20F0070047F84B
S31502000960285CADEB000647F82C5C47F8305CB546D0
S315020009704FEA8B01304612F0DCF84846594612F02F
S31502000980D8F847F8345C82B0A7F13003A7F13400F7
S3150200099000905046D7E90B1200F07EF802B000280C
S315020009A000F0718047F83C9CA7F1240900BF00BF04
S315020009B082B00023504641464A46009500F0ACF804
S315020009C002B0834657F8343C82B0A7F1300000905B
S315020009D0504641464A4600F09FF802B014F90B1001
S315020009E056F82020114446F82010504641464A4601
S315020009F000F0C2F808B12FF025C857F8340C0121CF
S31502000A0001281CDB80EF5100FC69A7F1300120F0C0
S31502000A1001E000BF00BF00BFB1EC043F98FC434FAA
S31502000A2020EF54091FF009C051EC110BD7F828B07A
S31502000A3053EC102B484302FB03F1414302E0D7F883
S31502000A4028B0FC69012CD7E9080957F83C5C1ADB87
S31502000A50BA694FEAE07A01FB02F800BF00BF00BFA5
S31502000A6056F8040BA0EB080082B03A6A5346CDF85A
S31502000A70009000F09FF802B05844013C00F30700D2
S31502000A8005F8010BECD157F838DCA7F10C04A546A2
S31502000A90BDE8F08FD4D4D4D42DE9F043DDF81CE0C0
S31502000AA04FF0010C4FF00007CEF8007070B3012A28
S31502000AB02CDB4FF000084FF0000900BF00BF00BF5B
S31502000AC051F82960002E48BF0644B6F1FF3F5FEA9F
S31502000AD0DF9786425FEAA78CBCF1010F16D1B8F107
S31502000AE0010F1F46444605DB57F8045BB54209D0A1
S31502000AF0013CF9D143F82860DEF8004004F1010810
S31502000B00CEF8008009F101099145D9D16046BDE8C8
S31502000B10F083D4D4D4D4D4D42DE9F041012828DBEF
S31502000B20DDF818C040F001E0BCF1000F5FEA1F9744
S31502000B30012B5FEAAF960025002047EA060800BFB0
S31502000B40B8F1000F66461F4608D100BF00BF00BFBE
S31502000B5056F8044BA54207D0013FF9D151F825407A
S31502000B6052F8256004FB006001350FF017C8BDE896
S31502000B70F0810020BDE8F08110B56FF0030303EBAE
S31502000B80800319441A4400BF034601280EDB10688D
S31502000B9051F804E900F1010CBEEB0C0454EA009092
S31502000BA0E64542F80409A3F10100EDD0002B5FEA05
S31502000BB0DF9010BD70B5C117A2FB0046DDF810C06C
S31502000BC002FB0161CCF11E0E0025012252EA0DE55F
S31502000BD003FB00111019CCF11F02694150EA2D21C5
S31502000BE070BD45F6C00046F23011C0F20120C2F2D5
S31502000BF0022100680844704744F25070C2F2002095
S31502000C0070472DE9F04FB1B0044645F6CC00C0F26C
S31502000C10012046F23011C2F2022145F6C4020068F2
S31502000C20C0F201220844039045F6C80042F230168B
S31502000C30C0F20120C2F204264CF2301543F23019FA
S31502000C400068C2F20425084402901068C2F205291F
S31502000C5001EB000A4AF62C10C0F201204AF62811CE
S31502000C60C0F2012146F630180068C2F20528304467
S31502000C7008904AF6301047F63057C0F20120C2F209
S31502000C80052749F2305242F680630068C2F2052215
S31502000C9030440790086846F64441304406904AF6C6
S31502000CA02410C0F20221C0F20120C2F20E23006813
S31502000CB030440490086846F65041C0F202212844A6
S31502000CC02690086846F64C4128440B9046F6544056
S31502000CD0C0F20221C0F20220006828440A90086885
S31502000CE042F214312844099046F64840C0F20421E3
S31502000CF0C0F20220006828440590086842F22031BA
S31502000D00C0F2042148441B90086842F21831484454
S31502000D100E9042F21C30C0F20421C0F20420006898
S31502000D2048440D9008684AF61C5148440C904AF60D
S31502000D301450C0F20421C0F204200068404412900C
S31502000D404AF61850C0F20420006840441190086820
S31502000D504FF20C51404410904AF62050C0F2052141
S31502000D60C0F20420006840440F9008684FF2085110
S31502000D70C0F2052138441590086848F20441384407
S31502000D8014904FF20450C0F20621C0F2052000680A
S31502000D9038441390086848F20841C0F2062110440C
S31502000DA02B9008684FF61451104416904FF61C50BB
S31502000DB04CF23052C0F20620C2F20522C0F20621DF
S31502000DC00068104419904FF61850C0F206200068C9
S31502000DD010441890086845F25C711044179043F26B
S31502000DE0940040F23052C0F20720C2F20622C0F24C
S31502000DF0072100681044239043F29800C0F20720AE
S31502000E00006810441A90086845F2587146F230524A
S31502000E10C0F20721C2F2062210441E90086848F268
S31502000E20B46110441D9045F25470C0F20721C0F21D
S31502000E300720006810441C90086848F2B8614EF218
S31502000E403052C0F20721C2F2062210442C900868E2
S31502000E504EF6543110441F904EF65C3043F2305237
S31502000E60C0F20720C2F20722C0F20721006810442E
S31502000E7022904EF65830C0F20720006810442190A6
S31502000E80086840F25C511044209042F2345045F614
S31502000E903052C0F20820C2F20722C0F209210068CD
S31502000EA010442A9042F23850C0F2082000681044DA
S31502000EB02490086840F2585148F23052C0F2092193
S31502000EC0C2F2072210442890086845F6B011104471
S31502000ED0279040F25450C0F20B21C0F2092000685C
S31502000EE010442590086845F6AC1149F63052C0F216
S31502000EF00B21C2F2072210442990086846F2A43157
S31502000F001044309046F2D800C0F20B21C0F20B20FA
S31502000F1043F600120968C2F20E22006818442E90A7
S31502000F2046F2D400C0F20B20006818442D905018E7
S31502000F302F90204600F011FA44F6EC5B44F6E0509E
S31502000F40C2F2002BCDF800B0C2F20020DDE9022188
S31502000F505346FFF7F5F94AF620104FF4C042C0F2A5
S31502000F60012059460068304411F0E7FD204600F0A2
S31502000F7047FA4AF6F8564AF6EC50C2F200260499A7
S31502000F80CDE90016C2F200200899DDE90632FFF724
S31502000F9005FA46F640404FF48042C0F2022031463E
S31502000FA00068284411F0C9FD204600F081FA4EF689
S31502000FB004654EF6F850C2F200250599CDE90015F2
S31502000FC0C2F200200B99DDE90932FFF723FA42F259
S31502000FD010304FF40052C0F20420294600684844FB
S31502000FE011F0ABFD204600F0CBFA40F6106540F654
S31502000FF00460C2F201250095C2F201200E99DDE9D4
S315020010000C32FFF743FA4AF610504FF44062C0F230
S31502001010042029460068404411F08FFD204600F066
S315020010200FFB41F61C2541F61020C2F201250F994D
S31502001030CDE90015C2F201201299DDE91032FFF75F
S3150200104053FA4FF200504FF48052C0F2052029465F
S315020010500068384411F071FD204600F047FB42F665
S31502001060282542F61C20C2F201250095C2F2012073
S315020010701599DDE91332FFF774FA48F2004049F296
S315020010803051C0F20620C2F205214FF440620068D8
S315020010900844294611F051FD204600F07AFB43F23E
S315020010A0346543F22860C2F20125C2F201201B997F
S315020010B0169A2B46FFF783FA4FF610504CF2305130
S315020010C0C0F20620C2F205214FF4405200680844DD
S315020010D0294611F032FD204600F0B0FB46F240658B
S315020010E046F23460C2F201250095C2F20120199936
S315020010F0DDE91732FFF786FA43F2900040F23051EB
S31502001100C0F20720C2F206214FF4C052006808441A
S31502001110294611F012FD204600F0E5FB47F64C6524
S3150200112047F64060C2F20125C2F2012026991A9AB8
S315020011302B46FFF795FA45F2507046F23051C0F24F
S315020011400720C2F206214FF4C0420068084429462D
S3150200115011F0F3FC204600F01BFC4DF658654DF6E7
S315020011604C60C2F201250095C2F201201E99DDE90A
S315020011701C32FFF798FA48F2B0604EF23051C0F2D4
S315020011800720C2F206214FF440520068084429465D
S3150200119011F0D3FC204600F050FC40F6646540F6A0
S315020011A05860C2F20225C2F2022023991F9A2B46E8
S315020011B0FFF7A7FA4EF6503043F23051C0F207203D
S315020011C0C2F207214FF4C05200680844294611F0C2
S315020011D0B4FC204600F081FC42F2706542F2646083
S315020011E0C2F202250095C2F202202299DDE92032DE
S315020011F0FFF7AAFA42F2305045F63051C0F2082003
S31502001200C2F207214FF4C05200680844294611F081
S3150200121094FC204600F0B6FC43F67C6543F670600B
S31502001220C2F20225C2F202202B99249A2B46FFF71C
S31502001230B9FA40F2505048F23051C0F20920C2F2D7
S3150200124007214FF4406200680844294611F075FCF4
S31502001250204600F0ECFC44F6882544F67C20C2F2D7
S3150200126002250095C2F20220DDE92721259BFFF720
S31502001270BCFA45F6A01049F63056C0F20B20C2F26F
S3150200128007264FF400522C990068304411F055FCA1
S3150200129045F6A4104FF48052C0F20B202A9900683A
S315020012A0304411F04AFC45F6A8104FF44062C0F2F1
S315020012B00B2029460068304411F03FFC204600F01E
S315020012C00FFD45F2946545F28860C2F20225C2F22C
S315020012D0022029992A46FFF7B6FA46F2D00042F6CC
S315020012E08061C0F20B20C2F20E214FF4A8620068A0
S315020012F00844294611F021FC204600F05DFD45F622
S31502001300E03545F6D430C2F20225C2F20220DDE90A
S315020013102D212B46FFF7C1FA46F2A03043F6001103
S31502001320C0F20B20C2F20E214FF4A86200680844F4
S31502001330294611F002FC204600F08CFD46F22010F0
S3150200134044F25073C2F20220C2F20023DDE92F12E8
S3150200135031B0BDE8F04FFFF7C5BAB0B598B044F664
S31502001360240246F23015C0F2012244F6300100246E
S31502001370C2F202250028C0F201210B940A911168DB
S315020013800391CDE90C544FF4E0314FF440400690FE
S31502001390CDE90E54CDE90411CDE9105407D046F239
S315020013A030104FF4C041C2F2022011F0C2FB05F523
S315020013B00050CDE9140405F580404FF40051CDE903
S315020013C0160444F29830C0F201200991CDE90711C2
S315020013D044F2A031026803A8009047F28800C2F2E4
S315020013E00E20C0F201210AABCDE912540725CDE940
S315020013F001540BF0AAFA01305FEA1FA018B0B0BD83
S31502001400B0B59CB045F6D85242F23015C0F2012270
S3150200141045F6E0510024C2F204250028C0F201215B
S315020014200D940C9111680491CDE90E544FF42041AC
S315020014304FF4C0400790CDE91054CDE90511CDE92E
S31502001440125407D042F230104FF48041C2F2042007
S3150200145011F06FFB05F58051CDE9161445F6D00162
S3150200146005F50050C0F20121CDE9180405F54050FA
S315020014701A900A6804A8009047F2880045F6E0012F
S31502001480C2F20E20C0F201210CAB81EF5002CDE96F
S31502001490145408251B948DED081FCDE901540BF059
S315020014A054FA01305FEA1FA01CB0B0BDD4D4D4D424
S315020014B070B59EB04AF620710024C0F20121CDE932
S315020014C00C144AF610714CF23015C0F20121C2F228
S315020014D0042505F50056002809680391CDE90E5446
S315020014E04FF4E0414FF480400690CDE91054CDE927
S315020014F00411CDE9126407D04CF230104FF480414A
S31502001500C2F2042011F015FB05F52051CDE918149D
S315020015104AF6341116A0C0F201210CAB90ED001F61
S3150200152005F54050CDE91A0405F560500A68CDE983
S315020015301C044FF400600B9003A8009047F2880049
S315020015404AF64011C2F20E20C0F201218DED071FAC
S31502001550CDE91454CDE916640826CDE901640BF0F1
S31502001560F4F901305FEA1FA01EB070BD00BF00BFD4
S31502001570002000000008000000080000000800002B
S3150200158070B59CB047F220110024C0F20221CDE9C9
S315020015900C1447F2101143F23015C0F20221C2F2C6
S315020015A0052505F58056002809680491CDE90E54F3
S315020015B04FF460514FF400500790CDE91054CDE935
S315020015C00511CDE9126407D043F230104FF4E05111
S315020015D0C2F2052011F0ADFA46F6584114A0C0F247
S315020015E002210CAB90ED001F05F5A050CDE91804C1
S315020015F005F5C0501A900A6804A8009047F28800C0
S3150200160046F66041C2F20E20C0F202218DED081F9D
S315020016101B94CDE91454CDE916640826CDE901647C
S315020016200BF093F901305FEA1FA01CB070BD00BF3A
S315020016300010000000040000000400000004000086
S31502001640B0B59CB042F2645246F63015C0F204229E
S3150200165042F270510024C2F205250028C0F204218C
S315020016600D940C9111680491CDE90E544FF4A051DA
S315020016704FF440600790CDE91054CDE90511CDE94C
S31502001680125407D046F630104FF48051C2F20520AC
S3150200169011F04FFA05F58061CDE9161442F22431B4
S315020016A005F50060C0F20421CDE9180405F5406095
S315020016B01A900A6804A8009047F2880042F2303174
S315020016C0C2F20E20C0F204210CAB80EF5402CDE927
S315020016D0145408251B948DED081FCDE901540BF017
S315020016E034F901305FEA1FA01CB0B0BDB0B598B0A6
S315020016F04BF2E01247F63055C0F204224BF2F011DB
S315020017000024C2F205250028C0F204210B940A9196
S3150200171011680391CDE90C544FF4C0514FF4805037
S315020017200690CDE90E54CDE90411CDE9105407D047
S3150200173047F630504FF44061C2F2052011F0F9F934
S3150200174005F58060CDE9140405F500604FF480616B
S31502001750CDE916044AF62450C0F204200991CDE9D7
S3150200176007114AF63051026803A8009047F2880032
S31502001770C2F20E20C0F204210AABCDE912540725AB
S31502001780CDE901540BF0E1F801305FEA1FA018B071
S31502001790B0BDB0B596B04FF620010025C0F20521C6
S315020017A0CDE90A154FF6180149F23054C0F2052167
S315020017B0C2F205240028CDE90C45096804914FF4CC
S315020017C04051CDE90E454FF440600790CDE9051131
S315020017D004F50061CDE910150AD04FF400612046E8
S315020017E011F0A7F904F580504FF4005111F0A1F958
S315020017F04FF210514FF40060C0F20521089004F533
S315020018008050CDE914054FF4005009900A6804A8E7
S31502001810009047F288004FF22051C2F20E20C0F229
S3150200182005210AABCDE912450624CDE901450BF0A7
S315020018308CF801305FEA1FA016B0B0BD70B598B043
S3150200184048F280710026C0F20621CDE90A1648F256
S3150200185074714CF23054C0F20621C2F2052404F52A
S315020018608055002809680391CDE90C464FF4804162
S315020018704FF440500690CDE90E46CDE90411CDE96C
S31502001880105609D04FF40061204611F052F94FF478
S315020018908051284611F04DF904F5C050CDE91406E1
S315020018A048F20C404FF40061C0F20620CDE9071160
S315020018B0099148F21041026803A8009047F2880095
S315020018C0C2F20E20C0F206210AABCDE91256072556
S315020018D0CDE91646CDE901560BF037F801305FEA3D
S315020018E01FA018B070BDB0B596B040F21001002529
S315020018F0C0F20721CDE90A1540F2040140F2305444
S31502001900C0F20721C2F206240028CDE90C45096877
S3150200191004914FF4C041CDE90E454FF4C0500790F3
S31502001920CDE9051104F58051CDE910150AD04FF421
S315020019308051204611F0FDF804F500504FF4804125
S3150200194011F0F7F84FF620514FF48050C0F20621FD
S31502001950089004F50050CDE914054FF48040099033
S315020019600A6804A8009047F288004FF63051C2F286
S315020019700E20C0F206210AABCDE912450624CDE9B6
S3150200198001450AF0E2FF01305FEA1FA016B0B0BDC2
S3150200199070B598B043F2E0310026C0F20721CDE9D6
S315020019A00A1643F2DC3146F23054C0F20721C2F283
S315020019B0062404F50055002809680391CDE90C4672
S315020019C04FF400414FF4C0400690CDE90E46CDE9F2
S315020019D00411CDE9105609D04FF48051204611F07A
S315020019E0A8F84FF40051284611F0A3F804F5405028
S315020019F0CDE9140643F29C004FF48051C0F2072051
S31502001A00CDE90711099143F2A001026803A80090EB
S31502001A1047F28800C2F20E20C0F207210AABCDE9D6
S31502001A2012560725CDE91646CDE901560AF08DFF75
S31502001A3001305FEA1FA018B070BD70B596B045F6CA
S31502001A4040110024C0F20721CDE90A1445F63411EB
S31502001A504EF23055C0F20721C2F2062505F50056B0
S31502001A60002809680491CDE90C544FF4A0414FF4C3
S31502001A7040500790CDE90E54CDE90511CDE9106429
S31502001A8007D04EF230504FF42051C2F2062011F028
S31502001A9050F845F260714FF40050C0F207210890E9
S31502001AA04FF4006009900A6804A8009047F2880083
S31502001AB045F27071C2F20E20C0F207210AABCDE9DF
S31502001AC01254CDE914640626CDE901640AF03DFFFD
S31502001AD001305FEA1FA016B070BD70B598B048F627
S31502001AE030210026C0F20721CDE90A1648F6242144
S31502001AF043F23054C0F20721C2F2072404F580559E
S31502001B00002809680391CDE90C464FF420514FF4A1
S31502001B10C0500690CDE90E46CDE90411CDE9105626
S31502001B2009D04FF40061204611F003F84FF48051BA
S31502001B30284610F0FEFF04F5C050CDE9140648F21F
S31502001B40BC604FF40061C0F20720CDE9071109918C
S31502001B5048F2C061026803A8009047F28800C2F208
S31502001B600E20C0F207210AABCDE912560725CDE9B0
S31502001B701646CDE901560AF0E8FE01305FEA1FA0DB
S31502001B8018B070BDB0B596B04EF6B0510025C0F291
S31502001B900721CDE90A154EF6A45145F63054C0F296
S31502001BA00721C2F207240028CDE90C4509680491F1
S31502001BB04FF42051CDE90E454FF4C0500790CDE9C0
S31502001BC0051104F58051CDE910150AD04FF4805164
S31502001BD0204610F0AEFF04F500504FF4806110F07D
S31502001BE0A8FF4EF660314FF48050C0F207210890EC
S31502001BF004F50050CDE914054FF4806009900A6897
S31502001C0004A8009047F288004EF67031C2F20E2008
S31502001C10C0F207210AABCDE912450624CDE90145FA
S31502001C200AF093FE01305FEA1FA016B0B0BDB0B550
S31502001C3098B042F6C0110025C0F20821CDE90A1576
S31502001C4042F6BC1148F23054C0F20821C2F207240F
S31502001C500028CDE90C45096803914FF4C051CDE93E
S31502001C600E454FF440600690CDE9041104F540613B
S31502001C70CDE910150AD004F5A0504FF4806110F09A
S31502001C8058FF4FF40061204610F053FF04F5A050B0
S31502001C90CDE9140504F580604FF48061CDE916059F
S31502001CA042F23C50C0F208200991CDE9071142F2F6
S31502001CB04051026803A8009047F28800C2F20E2043
S31502001CC0C0F208210AABCDE912450724CDE9014548
S31502001CD00AF03BFE01305FEA1FA018B0B0BDD4D4B3
S31502001CE0B0B59CB030A141F63062C0F2092249F685
S31502001CF0305491ED001F41F64061C2F20724C0F252
S31502001D0009210C911168049141F2501100252144D8
S31502001D10CDE9121504F5A8710028CDE9141543F290
S31502001D2050110D9511958DED051F21444FF440601C
S31502001D3010940990CDE90E45CDE916150BD04FF456
S31502001D40A871204610F0F5FE45F250504FF4A85106
S31502001D50204410F0EEFE40F260514FF4A870C0F23B
S31502001D6009210A9045F250500CAB2044CDE91A05E0
S31502001D704FF4A8500B900A6804A8009047F2880016
S31502001D8040F27051C2F20E20C0F209211995189440
S31502001D900824CDE901450AF0D8FD01305FEA1FA00B
S31502001DA01CB0B0BD00BF00BF5091060050910600A6
S31502001DB00020000000100000B0B596B045F6803253
S31502001DC042F68065C0F20B2245F690310024C2F23B
S31502001DD00E250028C0F20B210B940A91116804917A
S31502001DE0CDE90C544FF428614FF4A8600790CDE971
S31502001DF00E54CDE90511CDE9105405D005F5A860BC
S31502001E004FF4A86110F095FE05F5FC61CDE91414B6
S31502001E1045F6B41105F5A860C0F20B21CDE912040E
S31502001E204FF42870089009900A6804A8009047F2B7
S31502001E30880045F6C011C2F20E20C0F20B210AAB91
S31502001E400625CDE901540AF080FD01305FEA1FA0A4
S31502001E5016B0B0BD70B592B046F250210024C0F261
S31502001E600B21CDE9081446F2442143F60015C0F2CF
S31502001E700B21C2F20E254FF4A86609680391CDE93B
S31502001E800A540F940E95CDE90C540696CDE90466D4
S31502001E9038B143F600104FF4A861C2F20E2010F0DA
S31502001EA048FE46F2DC0046F2E001C0F20B20C0F228
S31502001EB00B2108ABCDE91054026803A8009047F243
S31502001EC08800C2F20E2007960526CDE901640AF0C3
S31502001ED03CFD01305FEA1FA012B070BDD4D4D4D449
S31502001EE010B543F64064A821C2F20E24204610F033
S31502001EF020FE03202061606147F2B82043F6E861C4
S31502001F00C0F20B20A061C2F20E21E1614FF4006122
S31502001F1021620021A1626162E16244F2E862206606
S31502001F204FF0100E46F2A830C2F20E226266C4F8D4
S31502001F3068E02167E1666167BFF35F8FC0F20B203D
S31502001F400F3000BF00BF00BF10F8011904F8011BD3
S31502001F500FF007C0BFF35F8F10BDD4D4D4D4D4D44E
S31502001F602DE9F04381B014460D468046C7684FF00E
S31502001F70000900BF00BF00BFD8F81000FA43B842FC
S31502001F8006D91044D8F8081006E000BF00BF00BF0B
S31502001F90D8F8081010440844C91B884250EA318018
S31502001FA02946A04250EA3486D8F80400384432461C
S31502001FB010F0C3FDF019D8F80810411AA4EB060474
S31502001FC050EA1187B1443544BFF35F8FC8F80C70ED
S31502001FD00CB12FF02FC8484601B0BDE8F0832DE9B9
S31502001FE0F04381B000EB400043F64063C2F20E2399
S31502001FF0144603EBC003894603F11805D86A022882
S3150200200012D0012808D000283ED1EE682869F14393
S31502002010B04234D9084435E0EE682969B1420BD999
S31502002020F0430144A8680BE028464946224601B01F
S31502002030BDE8F043FFF794BFF243A8681144014498
S31502002040A14251EA3484871B68683044BC4207D2F5
S315020020504946224610F071FDBFF35F8F26440CE01D
S3150200206049463A4610F069FDE61B686809EB070126
S31502002070324610F062FDBFF35F8FEE6025E0AA687C
S3150200208008441044A04201D200241EE0D5E9010111
S315020020908F1B3044BC4208D24946224610F04DFD01
S315020020A0BFF35F8F06EB04080DE049463A4610F08F
S315020020B044FDA4EB0708686809EB0701424610F0E5
S315020020C03CFDBFF35F8FC5F80C80204601B0BDE82A
S315020020D0F083F0B581B043F640631446C2F20E2394
S315020020E00D4606461B78532B01D0FFF7F9FEEFF398
S315020020F011874FF0200181F3118830462946224686
S31502002100FFF76DFF87F3118801B0F0BDD4D4D4D4A4
S315020021102DE9F04F9BB091460F46002406A9169171
S3150200212040211791002105901A90CDE9181100BFA0
S3150200213017F8011B252907D0002900F06F8116A880
S3150200214000F07BF9E5E000BF4FF0000800BF00BFDA
S3150200215039782C2908DC23290ED02B2918D1042002
S315020021600FE000BF00BF00BF2D2909D030290FD1D3
S31502002170022006E000BF00BF082002E000BF00BF49
S31502002180012048EA00080137E2E700BF00BF00BFAE
S31502002190A1F13A0010F10A0F02D2002012E000BFAC
S315020021A000200A4600BF00BF17F8011F00EB80009F
S315020021B0A1F13A0302EB400013F10B0FA0F130003C
S315020021C00A46F1D82E290FD13A4612F8011F2A29BA
S315020021D00DD1D9F8001002370A1DC9F800200E6881
S315020021E001211DE000BF00BF0021002618E0A1F179
S315020021F03A0313F10A0F02D2002100260FE000264D
S3150200220012F8013F06EB8607A3F13A0601EB4701F6
S3150200221016F10B0FA1F130061946F1D80121174626
S3150200222017F8012B02F0FB03682BF9D0632A0FDCA7
S31502002230252A2ED0582A24D0632A6AD1D9F800003A
S31502002240011DC9F80010017879E700BF00BF00BF81
S31502002250A2F17003082B1ED8DFE803F0055B5B6171
S315020022605B4E5B5B1300D9F800001022011DC9F812
S3150200227000100168082300200826CDE9006016A890
S3150200228045E0D9F800100A1DC9F800200968102295
S3150200229039E0252153E7642A3BD1D9F800104CF6E0
S315020022A0CD4C0A1DC9F80020D1F800E0CCF6CC4C82
S315020022B0CEF100017246BEF1000F48BF0A460A2A55
S315020022C003914FF0010107DBA2FB0C35632A01F1F2
S315020022D001014FEAD502F7D88E4256EA818B0028D1
S315020022E040D0BEF1000F5FEA5F9108F0040241EAB6
S315020022F09201A0EB010A37E0D9F800100A1DC9F8CD
S31502002300002009680A22CDE9000816A8334600F023
S31502002310B7F8199CB4F1FF3F3FF70AAF89E0D9F845
S315020023200000021DC9F80020006846F6A632002801
S31502002330C0F20B2250EA12855FEA018800BF00BF95
S315020023402978002E5FEA18800029E2D00028E0D121
S3150200235016A8013500F071F8199C013EB4F1FF3F51
S31502002360EEDC66E04FF0000A5FEA88750CD55EB9CE
S31502002370002CCED4BEF1000F29D45FEA4870CDF806
S3150200238010E02DD52B2125E05FEAC870F0D1BAF115
S31502002390000FEDD0D345EBD20295CDF810E0AAF1AD
S315020023A0010500BF00BF00BF202116A800F045F8B6
S315020023B0199C002C3DD4681EA84202D2AB450546A4
S315020023C0F2D300F1010ADDF810E0029DD0E72D21DB
S315020023D00398049016A800F030F8199C002C28D413
S315020023E0002D05D40A22CDE900A816A804998DE786
S315020023F008F001003043F5D1BAF1000FF2D0AAF18C
S315020024000105554538BFD345ECD2302116A800F058
S3150200241014F8199CAA46002CF1D50AE044B1189D7D
S3150200242025B106A905982A46FFF753FE2C4400E07B
S31502002430002420461BB0BDE8F08F10B50446D0E953
S315020024400120431C934207D822681154A360E06816
S3150200245062680130E0601846904218BF10BD2168DC
S315020024602069FFF736FEA168884202D10020A060EB
S3150200247010BD4FF0FF30E06010BDD4D4D4D4D4D414
S315020024802DE9F04F81B015460E4691421F46814610
S31502002490DDF828B04FF0010007D3314600BF00BF78
S315020024A0B1FBF5F10130A942FAD2874257EA808A96
S315020024B0BBF1000F0B991BD011F0010018D1880750
S315020024C04FF0200048BF30202021002F50EA01881B
S315020024D0BBF1000F0CD0DA450AD248464146ABF1B1
S315020024E0010BFFF7AAFFD9F80C00B0F1FF3FEFDCB2
S315020024F0D9F80C0000283CD4012400BF00BF00BF5D
S31502002500022F01D3013F03E0B6FBF4F0A84201D348
S315020025106C43F5E744F24838C0F2012800BF00BF19
S31502002520B6FBF4F7484618F80710FFF786FFD9F806
S315020025300C00002806D4B4FBF5F007FB1466A5428E
S315020025400446EDD90B98C00718BFBBF1000F0AD19C
S315020025500FE020214846FFF770FFD9F80C00A3468A
S31502002560B0F1FF3F05DDABF101045C4538BFDA454A
S31502002570EFD301B0BDE8F08F2DE9F04F81B02DED1C
S31502002580108BADF58A5D07461BA80DF5805E0C46DD
S31502002590083044211D461A92DEF8A86110F0C9FAE5
S315020025A0701F089410F1040F1C944FF000041B973F
S315020025B0C0F01C84002D00F019841A98002800F03F
S315020025C015840DF5805EDEF8AC01002800F00E845D
S315020025D0DEF8B011002908BF5A2108460129D8BFE2
S315020025E001206428A8BF642031291991079705DCC8
S315020025F080B241F28831B1FBF0FA02E0C821A1EBC8
S31502002600400A09954FF0400E48F6504748F6705575
S3150200261048F6503648F21F59C0F20B27C0F20B2576
S31502002620C0F20B26C5F2EB194FF0FF080DF57061EB
S315020026300DF56C6200BF00BF56F8044B57F804CB89
S3150200264004FB0AF40CFB0AF04FF0010C323454FB83
S3150200265009F4323050FB09F04FEA641B0BEBD474D9
S315020026604311012C54EACC8403EBD07015F8013BDC
S31502002670FF2C54EAB884012850EACC80CC54FF28B7
S3150200268050EAB880D0540FF029C848F6505A4FF095
S31502002690000BC0F20B2A4FF00808B7EE000A4FF003
S315020026A0000C00BF00BF00BF0AEB8B00574690ED3F
S315020026B0001A0DF5746000EB8C050DF5825000EBE7
S315020026C08C0448F6705048F001E0C0F20B206044DA
S315020026D00CF1080C00BF00BF10F8016BB7EC014A01
S315020026E08B5D965D02EE103AB8EE422A03EE106A50
S315020026F0B8EE433A21EE022A21EE033A24EE022AEA
S3150200270024EE033A80EE022AA4EC012A80EE032A82
S31502002710A5EC012A0FF021C00BF1010BBBF1080F4A
S31502002720C2D10FF2DC600DF6B8240FF2E461099D06
S3150200273090ED001F08208DF8BC0A84ED000F1A9A4E
S31502002740280A91ED001F0FF2D8618DF8BD0A100A12
S315020027508DF8BF0A40F20310ADF8C10ADDF86490A5
S3150200276011208DF8BE5A8DF8C02A84ED8C0EB9F16F
S315020027705B0F4FF0190291ED001FB8BF222048F6F9
S31502002780B051089F8DF8C30AC0F20B213846079E46
S315020027904FF0110884ED140FB0470DF57061402219
S315020027A03846B0470DF5D761012238464FF0010A87
S315020027B08DF8B8A6B0470DF56C6140223846B04791
S315020027C0182238462146B04747F6AD101022C0F20D
S315020027D00B201024411C3846B04747F6BE110C2286
S315020027E0C0F20B213846B0470DF5D76101223846B3
S315020027F08DF8B846B04747F6CA101022C0F20B2031
S31502002800411C3846B04747F6DB11A222C0F20B2123
S315020028103846B0470DF5D761012238468DF8B8A67D
S31502002820B04747F67D201022C0F20B20411C3846E5
S31502002830B04747F68E210C22C0F20B213846B0472C
S315020028400DF5D761012238468DF8B886B04747F6AE
S315020028509A201022C0F20B20411C3846B04747F698
S31502002860AB21A222C0F20B213846B04748F6C95125
S315020028700E22C0F20B213846B0470DF5805EDEF817
S31502002880A8010228DEF8AC01804650EAD0901490E6
S315020028904FF00000C8BF08F10208B9F15B0FCDF88E
S315020028A0BC0ECDF8B80E80F28F81012DC0F2808267
S315020028B0681E13901A98DFEDBCDAA0F1010A0DF634
S315020028C0B82000F120010E9100F5007100F50870A4
S315020028D00C90AEA840300B900DF5D760DFEDB3EA51
S315020028E0DFEDB3FA9FEDB35A9FEDB3CA9FEDB3DAAC
S315020028F0B6EE00EA9FEDB2FADFEDB2CA002285EF2C
S3150200290050AF0D9140300A90002011901020159082
S31502002910002012900F9000BF1A980128C0F237814A
S315020029200020179000BF00BF44F2F8601092C2F276
S315020029300E2000240F9A0068169000BF00BF00BF49
S31502002940139918928A4252EAB180169A002A18BF3F
S31502002950081A1A9900FB01F3AEA800EB84050DF5DF
S31502002960D76000EB840710200DF5805140F001E09E
S315020029700DF6B82000EB8406103419941798D1E9A5
S315020029806AB2149C00BF00BF504550EABA810130BA
S31502002990194401FB0BF114F8019012F801C001EE83
S315020029A0109A18F8011000EE10CAB8EE411AB8EEE5
S315020029B0400A02EE101A21EE2D3AB8EE422AA0EE95
S315020029C02E3A21EE0C4A21EE0F1AA2EE2F3AA0EE73
S315020029D00D4AA0EE0E1AA2EE0E4AA2EE2C1A33EE03
S315020029E0050AA6EC010AA7EC014AA5EC011A0FF0AA
S315020029F035C8189A15980132199C8242A0D11BAC8F
S31502002A001198029047F64E3B48F24E3720460DF695
S31502002A10BC610DF6B8620DF6B823102600960DF5C8
S31502002A2082550195C0F20B2BCDF80CB0C0F20B27E4
S31502002A3004970D4600F0A8FC009637460DF582561F
S31502002A40CDE9016048F24E39204629460DF6B862B4
S31502002A500E9BCDF80CB0C0F20B29CDF810902C4687
S31502002A60154600F091FCCDE9020B1BA821462A4629
S31502002A700D9BCDE90076CDF8109000F085FCCDE9EE
S31502002A80020B1BA821462A460C9BCDE90076CDF8FF
S31502002A90109000F079FC11904FF0000C0DF1B8097E
S31502002AA0DDE90A600DF5DC7B0221324641F001E0E8
S31502002AB0494603465D4600BFA2F1400792FC001F4D
S31502002AC097FC005FB2FC201F97FC205FA3F1400732
S31502002AD004EF464D97FC007F04EF400D97FC207FE4
S31502002AE000EF420D93FC003F06EF486D00FF5A0DC2
S31502002AF0B3FC203FA5EC101E06EF422D02EF440D5B
S31502002B0000FF5A0DA1EC101E0FF02BC00CF1010CA8
S31502002B100BF1200B8030BCF1080F06F1800609F19B
S31502002B202009C1D11BAE0DF6BC670DF6B8690820A7
S31502002B3000901298029047F64E7448F24E7B304649
S31502002B4039464A466EAB0DF574650195C0F20B2403
S31502002B500394C0F20B2BCDF810B000F015FC02A9BD
S31502002B6012900820CDE9000510984A4681E811081E
S31502002B70304639462EAB00F007FC179A1A991032E6
S31502002B8017928A4202469FEDAD5AFFF6CDAE0F99D5
S31502002B90099810310F918142159800F11000159095
S31502002BA0FFF6BAAE04E100BFA245163F8716993E6C
S31502002BB0D578E93D000000C3E99AA9BE2ECA2CBE0B
S31502002BC0895ED6BEDB85A6BD012DC0F2F180681EE8
S31502002BD013901A984FF00009451E9FED958A9FEDB6
S31502002BE0959A9FED95AA9FED95BA9FED95CA9FED91
S31502002BF095DAB6EE00EA9FED94FADFED948A0022AA
S31502002C00DDF850A008201590002012900F9000BF0A
S31502002C101A980128C0F2C1800020179000BF00BF99
S31502002C2044F2F860CDE91029C2F20E2000240F9A70
S31502002C300068169000BF00BF139918928A4252EAA2
S31502002C40B180169A002A18BF081A1A9900FB01F3D6
S31502002C50AEA800EB84060DF5D76000EB84070820CA
S31502002C600DF5805140F001E00DF6B82000EB84002E
S31502002C7008341994179CD1E96A9200BF00BF00BFBD
S31502002C80AC4254EAB5810134194401FB09F11AF840
S31502002C9001B012F801C001EE10BA18F8011000EEE8
S31502002CA010CAB8EE411AB8EE400A02EE101A21EE28
S31502002CB0083AB8EE422AA0EE093A21EE0C4A21EE73
S31502002CC00F1AA2EE0A3AA0EE0D4AA0EE0E1AA2EED4
S31502002CD00E4AA2EE281A33EE0B0AA0EC010AA7EC62
S31502002CE0014AA6EC011A0FF035C8189A1598013256
S31502002CF0199C8242A0D10DF5825001901198029042
S31502002D0047F64E300DF6BC64C0F20B20039048F233
S31502002D104E300DF6B867C0F20B2004901BA8214670
S31502002D203A460DF6B8230826009600F02DFB81469A
S31502002D300DF5746001901298029047F64E700DF1EF
S31502002D406C0B0096C0F20B20039048F24E76584662
S31502002D5021463A460DF5D763C0F20B26049600F0DB
S31502002D6013FB1290082000900DF5746001901098E4
S31502002D70029047F64E70C0F20B20CDE90306584684
S31502002D8021463A46AEAB00F0FFFA179A1A99083274
S31502002D9017928A420246FFF643AF0F990998083105
S31502002DA00F918142159800F108001590FFF630AF99
S31502002DB048F6D8531BA8C0F20B230DF6BC610DF6DC
S31502002DC0B86200F01DFC089EFF208DF8B80A0DF6C9
S31502002DD0B82101223046079D0124A847D9208DF843
S31502002DE0B80A0DF6B82101223046A84720460DF54D
S31502002DF08A5DBDEC108B01B0BDE8F08F00BF00BF4D
S31502002E00FF000000C00000000000000011000000EA
S31502002E100000020011000100030011000100FF0082
S31502002E20C400000001000000A20000000000000033
S31502002E30A245163F8716993ED578E93D000000C3A4
S31502002E40E99AA9BE2ECA2CBE895ED6BEDB85A6BD70
S31502002E50B0B584B044F2FC650024C2F20E2528689F
S31502002E60E0B944F2007046F25071C2F20E200190AF
S31502002E7042F6A96046F2007CC0F20020C0F20B21A5
S31502002E804FF400620023C2F20E2CCDF808C0009463
S31502002E900EF0C5F9002808BF09242860204604B0B0
S31502002EA0B0BDD4D4D4D4D4D482B046F2687746F234
S31502002EB06A7A46F2707640F23804C2F20E274FF072
S31502002EC00209C2F20E2A0DF1040BC2F20E26C2F25A
S31502002ED000244FF0030800BF002001214FF0FF320B
S31502002EE001900FF094F809F014FE87F8009009F0AB
S31502002EF03EFE9AF80000594600F0B6F9054609F07A
S31502002F0008FE01983060256087F8008009F02FFEE0
S31502002F10E2E770B582B044F2FC66C2F20E2632686F
S31502002F20EAB30546653810F1640F01D2032437E08F
S31502002F300C4609F0EEFD46F26870C2F20E200178E8
S31502002F4019B109F014FE08242AE046F26971C2F2A8
S31502002F500E21097809B346F26A7146F26C72C2F220
S31502002F600E21C2F20E220D7046F27071C2F20E21CD
S31502002F701460002408220C6040F23801C2F20021DB
S31502002F800A600121017009F0F2FD30680021002279
S31502002F90022300940FF094F802E009F0E8FD2124E0
S31502002FA0204602B070BD70B54FF0030410B30E4652
S31502002FB001B3054609F0ADFD46F26870C2F20E2075
S31502002FC00178032913D146F26C71C2F20E21096807
S31502002FD0296046F27071C2F20E210968316040F230
S31502002FE03801C2F200210C680021017000E00824B9
S31502002FF009F0BDFD204670BD70B50C46054609F0C8
S3150200300088FD46F26870C2F20E20067809F0AFFD1E
S315020030100EB1082070BD46F269760020C2F20E2675
S3150200302030704FF00300C5B1BCB1E089F02815D16C
S31502003030208AF02812D140F600124AF20033C6F670
S315020030400002C0F202032846214600F009F820B920
S31502003050BFF35F8F01203070002070BD172070BD56
S3150200306000284FF0030C00F0F480002900F0F180F4
S31502003070002A00F0EE802DE9F04F03AF81B02DED6E
S31502003080108B8EB06C466FF30304A5460E88002E95
S3150200309000F0D5804D88002D00F0D1808C88002C60
S315020030A000F0CD80B1F80AA0BAF1000F00F0C78097
S315020030B0B1F80C80B8F1000F00F0C180B1F80E90A3
S315020030C0B9F1000F00F0BB80B4424FF0030CC0F020
S315020030D0B880B1F810E0BEF1000F00F0B280CC88E3
S315020030E05444B44200F2AD800E894644AE4200F228
S315020030F0A8800EFB09F44FF0170CB4F1553F00F20D
S31502003100A08004EB4404A342C0F09B80039052A02B
S3150200311081EF5F2800254FF0080C90ED005F4FF01D
S31502003120000A87FF586883EF5F088DED041FB9F127
S31502003130000F00F07A8088890B898E8800240AFBAA
S3150200314000F0B0FBFEF01844CB887043039E06EBFA
S315020031504000002600EB4308A9EB060309EB040036
S315020031600B95082B53EA3C8B01280A9580EF50A059
S3150200317098BF0120082850EA3C8EB145099508956A
S3150200318015D04B895546C24606FB03F80DF1200CB5
S31502003190B8FBF9F098442CF8020B0FF007C808A800
S315020031A04FF0080CD046AA4690ED00BF002509FB59
S315020031B00A601BF001E80836083C71FE4D0F98FCC8
S315020031C09B8E00EB40009BFF58A010449DED041F10
S315020031D0431C98FF58C00AEF50A193FF58E00CEF2A
S315020031E056C192EF5A052CEF5EC19CFF5AA020EF02
S315020031F05A0171FE4D0F80EC84CE023008EF5281E7
S3150200320093EF58A571FE4D0F83EC840E9EFF580076
S315020032102AEF500171FE4D0F80EC840EB1F80E902C
S315020032204E4599D3B1F810E001E04FF000090AF1DA
S31502003230010AF245FFF47BAF4FF0000C01E04FF0BC
S31502003240030CA7F15004A546BDEC108B01B0BDE8F6
S31502003250F04F6046704700BF0000030006000900F9
S315020032600C000F0012001500D1B3F0B587B08446EA
S3150200327046F26970C2F20E2046F274750C46C2F22C
S315020032800E25007800212160296001282AD1ACF19F
S31502003290650010F1640F4FF003003ED3009043F235
S315020032A01F304AF600474FF4803104910021059100
S315020032B08DF8181040F60016C0F2002003A9F0227D
S315020032C0F023C6F602070397C6F60006CDE9016C9F
S315020032D0FFF752F900B39DF8180028B117201CE039
S315020032E003207047212018E00599042914D3387861
S315020032F0FF284FF0640010D17A78D82A0DD1C81968
S3150200330010F8022CFF2A07D110F8010CD92803D194
S3150200331000202960216000E0642007B0F0BDD0B132
S31502003320C9B1B0B51546012A13DB0446007B80B944
S31502003330D4E90120121A0AD3954208D82268104409
S315020033402A460FF0FAFBA0682844A06001E001209B
S315020033502073BDE8B04070474FF0030290B189B1C7
S31502003360002202600A6046F27472C2F20E221268EB
S315020033703AB14AF60043C6F6020303600A60002227
S3150200338000E02122104670472DE9F04FCBB00DF137
S31502003390140C9A4603F11C0500268CE8070058997E
S315020033A0DDE954284FEAC2094FEA820B08684A90BF
S315020033B0D1F8C003499000BFA5F11C00A5F1180180
S315020033C0A5F11402A5F11003A5F10C04A5F1080755
S315020033D0A5F1040C03958DE8901000F051F954986C
S315020033E05D4406444E45E7D30825574600BF00BF55
S315020033F007EB0B0101EB0B0202EB0B0303EB0B00DA
S3150200340000EB0B06CDE9000606EB0B04384604EB8F
S315020034100B0CCDE9024C00F033F9013D07F104072C
S31502003420E6D148F6705183EF5F060020C0F20B2109
S3150200343083FF5F26022209AF42F001E043460D46B2
S31502003440544600BF00BF00BFB4EC045FB3EC047F78
S3150200345004FF564D35EECF1F33FE016F04EF464D86
S31502003460B5FC046FA2EF5665BBFF444727EE476FD4
S3150200347086FD005E0FF019C00130DA44082801F11A
S31502003480080108F12008D7D15698DDF82480804536
S3150200349007D1059C069E079D204631462A46579B24
S315020034A025E0B8EB0000079D0146DDE9054648BF69
S315020034B04142B1FA81F20229C2F120024FF0FF33F2
S315020034C038BF012291B200EBE0708B40ADF82220AA
S315020034D02A469843ADF82000579800EB8103204610
S315020034E0314600F08DF808AB204631462A4600F0F8
S315020034F087F807F1FC004FF03F0900BF00BF00BF8D
S3150200350050F8041919B9B9F10109F9D86CE0B9F101
S31502003510010F69DB4FF0010ACDF8108000BF00BF32
S3150200352007EB8A004FF0FF38002200BF00BF00BF42
S3150200353008F10108114608EB0A0B50F8045BCB456B
S3150200354004DC01F101020DB92FF00FC0B8F1100F22
S3150200355015DB08090126012888BF0E09DDF81CA023
S31502003560DDE9057400BF00BF38462146524649AB25
S3150200357000F046F8013EF7D108F00F0809AF002D1A
S31502003580284600D56842B0FA80F10228C1F120012E
S315020035904FF0FF3238BF012188B2ADF822108240C7
S315020035A0589905EBE573059E01EB8811069C079D6C
S315020035B023EA0202ADF8202001EB800330462146C1
S315020035C02A460BF1010A00F01BF8304621462A462C
S315020035D008AB00F015F8CB45A2DBB9F13F0FDDE9E8
S315020035E00665DDE9048405D04AAB204631462A4603
S315020035F000F006F840464BB0BDE8F08FD4D4D4D4E0
S315020036002DE9F04F83B05F88894611680192CD1982
S315020036101988D9F80020C5F118039940082D41EA06
S31502003620020425DB06460DF10A074FF0000B0DF1E9
S315020036300B0A00BF00BF00BF200C8DF80A00D6E9B6
S315020036400030012239466FEA0408984718F47F0FC2
S3150200365006D1D6E90030012251468DF80BB09847C3
S31502003660A5F108000F2D4FEA04240546E4DC00E02C
S3150200367028460199C9F80040086003B0BDE8F08FFA
S31502003680B0B50DF1100E90ED000A91ED002ADFEDB6
S31502003690341A9EE830509EED001A9CED004A30EE38
S315020036A0013A95ED006A30EE410A92ED001A32EEC9
S315020036B0045AD4ED000A32EE442A93ED004A31EE62
S315020036C0067A31EE461A34EE206A34EE604A76EE17
S315020036D0030A33EE463A37EE056A35EE475A34EEBA
S315020036E0014A72EE002A35EE035A74EE623A36EE5B
S315020036F0207A25EE215A30EEC66ADFED1A0A63EE0B
S31502003700A00A31EE021A73EE053A33EE452A9FED10
S31502003710163AB0EE605A21EE211AA4EE035A9FED34
S31502003720133AE2EE830A30EE413A30EE010A33EE04
S31502003730051A85ED001A33EE451A83ED001A30EEAE
S31502003740201A81ED001A30EE600A8EED000A80ED35
S31502003750007AC2ED003A84ED006A8CED002AB0BD13
S31502003760F304353F15EFC33ED48B0A3F753DA73FA1
S3150200377046F27870C2F20E20007808B10020704737
S3150200378010B546F278741421C2F20E2420460FF0C8
S31502003790D0F900F00DF849F26411C0F20B2107C905
S315020037A01268904700B110BD01202070002010BDA4
S315020037B080B5002044F24752C6F6FE700121C4F6D7
S315020037C050224FF0050EC1600260416040228260C5
S315020037D00021016141618261C161016241628162CE
S315020037E000F12C0200BF00BF42F8041B0FF005C017
S315020037F0BFF34F8F4FF0020E4EF66871CEF2000104
S31502003800024600BF00BF00BF0A6020320FF005C0AB
S31502003810BFF34F8FBFF36F8FBFF35F8F0022C2607C
S31502003820BFF34F8F4FF0020E086020300FF005C035
S31502003830BFF34F8FBFF36F8FBFF35F8F80BD4FF61E
S31502003840FD71CBF2AF510144012988BF704746F2A0
S315020038507871C2F20E2148600120BFF35F8F487073
S3150200386070472DE9F04F81B046F27877C2F20E2703
S315020038703E78012E05D10E460146387A28B102203D
S3150200388000E0012001B0BDE8F08F00294FF00300EF
S31502003890F8D0042EF6D31D46B3F57A7FF2D84FF64A
S315020038A0C070C0F20100864201D90420EAE7087816
S315020038B0FF2840F0C9804878D82840F0C58088198A
S315020038C0144610F8022CFF2A40F0BE8010F8010CB4
S315020038D0D92840F0B980BFF34F8F4FF0020E40F265
S315020038E0000AC6F6FE7A4EF6687B5046CEF2000B0A
S315020038F04BF80C0C20300FF005C8BFF34F8FBFF307
S315020039006F8F44F24752BFF35F8FC4F65022DAF844
S315020039100000904240F09A80DAF80400012840F054
S315020039209580DAF80800402840F09080DAF818000E
S31502003930402840F08B80DAF80C0000284FF0020095
S31502003940A0D10122CAF80C20B6F12003BFF34F8F93
S3150200395038BF00231F3340F001E0504602EB5318F4
S31502003960CBF8000020300FF005C8BFF34F8FBFF32E
S315020039706F8FBFF35F8F402040F20209C6F6FE70DA
S315020039803246C4F650290FF0D8F8CAF810900AF158
S315020039904009CAF814404020CAF818004846314681
S315020039A0CAF81C6000F010F9CAF820000020CAF814
S315020039B02400CAF82800CAF82C50BFF34F8F48F0EB
S315020039C001E0CBF8009009F120090FF007C0BFF320
S315020039D04F8FBFF36F8FBFF35F8FBFF34F8F4FF0E2
S315020039E0020E5046CBF8000020300FF005C8BFF398
S315020039F04F8FBFF36F8FBFF35F8F4FF0020ECAF880
S31502003A000CE0BFF34F8FCBF800A00AF1200A0FF0AB
S31502003A1007C0BFF34F8FBFF36F8FBFF35F8F0125D1
S31502003A203D72FC600EF0A4F849F264113861C0F2EE
S31502003A300B218A68086802215268C4F65021904711
S31502003A4030B106207D721DE703201BE7052019E72A
S31502003A50002017E7D4D4D4D4F0B581B010B304460D
S31502003A6046F27876C2F20E260020C4E90000A06073
S31502003A703078012818D1307A012819D10EF078F859
S31502003A803169401A4DF2C041C0F2010188420FD39A
S31502003A9001202080F0680A21C4E9010100F080F8C3
S31502003AA0072502E0032500E00125284601B0F0BD06
S31502003AB009F02FF87078776801284AD100257570C9
S31502003AC009F055F8307A0028EFD0BFF34F8F4FF048
S31502003AD0020E0020C6F6FE704EF65C710246CEF26B
S31502003AE0000100BF00BF00BF0A6020320FF005C010
S31502003AF0BFF34F8FBFF36F8F44F24752BFF35F8F0F
S31502003B00C4F650220168914246D14168012943D147
S31502003B108168402940D1816940293DD14169F268D5
S31502003B20914239D104220121C4F650222170416901
S31502003B3061609742816AA16025D00321C4F65021B3
S31502003B408F4229D1C168042926D1806A20BB01206F
S31502003B501DE009F00CF8307A00250128A5D1707A0B
S31502003B60C007A2D049F26410C0F20B208168006837
S31502003B704A680221C4F65021904708B1062594E707
S31502003B800025757291E7C068052805D1002060708E
S31502003B9000F006F8002588E700F002F8052584E71C
S31502003BA0B0B5FFF705FE08F0B4FF46F278740025BB
S31502003BB0C2F20E246570656008F0D9FF2581C4E95A
S31502003BC00355B0BDD4D4D4D44FF0000218B311B308
S31502003BD070B548F220334FF0FF324FF0000C082444
S31502003BE0CEF6B85300BF00BF10F80C5044F001E007
S31502003BF06A4000BF00BF00BF154683EA5202EE07C5
S31502003C0008BF6A080FF009C00CF1010C8C45EBD114
S31502003C10D243BDE870401046704700284FF00103BA
S31502003C2042D0002940D02DE9F04FD0F800E0BEF195
S31502003C30000F36D04469A4B3858895B3C68886B387
S31502003C40078977B3B0F80EB0BBF1000F29D0B0F8F0
S31502003C5010A0BAF1000F24D0B0F818C0BCF1000FC2
S31502003C601FD0B0F81A80B8F1000F1AD0B0F81C9025
S31502003C70B9F1000F15D00123AF4228BFE14511D398
S31502003C8043895B44AB420CD883895344B34208D878
S31502003C904EEA01032343DB0703D1624506D2022320
S31502003CA000E00123BDE8F04F18467047721E042358
S31502003CB002FB0752002AF5D4A8F1010505FB09C546
S31502003CC0002DEFD40EEB420304EB4502A34288BF5C
S31502003CD0724558D88B4201EB4C0388BF734552D8C4
S31502003CE0A34288BF8A424ED800220B46C789574351
S31502003CF00132B7FBFCF723F8027BB0F818C0624525
S31502003D00F4D3478BEFB34FF0000E4FF00008BCF12F
S31502003D10000F2ED0028A84890589868B08FB02F25F
S31502003D20B2FBF7F22244448902FB05F705684269B1
S31502003D300EFB0626002205EB470505EB4407002588
S31502003D400C460CEB05030832082BA5F1080528BF23
S31502003D50082313F001E831FE4D4FB4EC881E97FCA0
S31502003D60912EA6EC883EB0F818C06245E9D3478B7F
S31502003D7001E04FF0000C08F101080EF1020EB84501
S31502003D80C5D300238EE703238CE770B546F28C7504
S31502003D90C2F20E25286808B101241BE0002004F0B7
S31502003DA067FA286078B10021002404F02AFB46F263
S31502003DB090760028C2F20E26306028680CD004F0F5
S31502003DC0BBFA2C6006E046F290700221C2F20E2087
S31502003DD001600024204670BD4FF48071802207F0F6
S31502003DE041F846F29471C2F20E21086090B1286839
S31502003DF0012104F069FB00283060EAD1286801211C
S31502003E000022002403F0CEF900283060E2D100F04F
S31502003E100BF8C1E701203060286804F08DFA00240F
S31502003E20CFE7D4D4D4D4D4D42DE9F04F83B040F222
S31502003E30000A0020C6F6000A80EF50000122022482
S31502003E4087FF5F2E0DF104084FF0000B00BF00BF85
S31502003E5046F6AD3148F6DC53C0F20B21C0F20B2315
S31502003E6011F80B70A7F13001492900F25180DFE801
S31502003E7011F04A00AC0084009300B10070006B00A0
S31502003E806600C5007A00CA00F700F700F700F700DF
S31502003E90F700F700F7007500BB00A200F700F70075
S31502003EA0F700F700F700F700F700F700F700F70052
S31502003EB0F700D900F700F700F700F700F700F70060
S31502003EC0F700F700F700F700F700F700F700F70032
S31502003ED0F700F700CF00F700E3005C00C000F70030
S31502003EE0A7008900ED00F700DE007F006100D40024
S31502003EF098008E00F700E8009D00B600F200F70079
S31502003F00F700F700570048F6EB53C0F20B23A7E081
S31502003F10202F40F0A58048F6E153C0F20B239FE024
S31502003F2048F67263C0F20B239AE048F63B63C0F28E
S31502003F300B2395E048F68163C0F20B2390E048F626
S31502003F400E63C0F20B238BE048F60963C0F20B2323
S31502003F5086E048F60463C0F20B2381E048F61D634F
S31502003F60C0F20B237CE048F61863C0F20B2377E01D
S31502003F7048F64A63C0F20B2372E048F6F553C0F2E4
S31502003F800B236DE048F67C63C0F20B2368E048F62B
S31502003F905963C0F20B2363E048F6FA53C0F20B23CF
S31502003FA05EE048F65463C0F20B2359E048F66363B9
S31502003FB0C0F20B2354E048F62763C0F20B234FE00E
S31502003FC048F67763C0F20B234AE048F6F053C0F294
S31502003FD00B2345E048F6FF53C0F20B2340E048F6B8
S31502003FE06863C0F20B233BE048F62263C0F20B2360
S31502003FF036E048F64063C0F20B2331E048F613631D
S31502004000C0F20B232CE048F6E653C0F20B2327E05E
S3150200401048F63163C0F20B2322E048F64F63C0F242
S315020040200B231DE048F62C63C0F20B2318E047F67B
S315020040300F03C0F20B2313E048F63663C0F20B23DC
S315020040400EE048F65E63C0F20B2309E048F64563CC
S31502004050C0F20B2304E048F66D63C0F20B2300BFE7
S315020040601F791B68019340F200034FEA8B11C6F6D3
S3150200407000030B440026591D8DF80870CDF800A0E8
S3150200408001EBC60C4FF0050902FA06F7A4EE107B07
S315020040904546574644F001E029F001E871FE4D0F0E
S315020040A0B5FC046F04EF566127FECF0F20EF506177
S315020040B071FE4D0F22EF526129F001E8A9F10409C0
S315020040C071FE4D0FA7EC046F0FF01BC001360AF10B
S315020040D0080A082E8CF80200ACF80000D0D10BF1C9
S315020040E0010BDDF800A0BBF1230F0AF1400A986329
S315020040F0D8637FF4ADAE03B0BDE8F08F46F29070A0
S31502004100C2F20E20006870472DE9F04782B046F2EF
S315020041109878C2F20E2898F80070012F03D146F261
S31502004120907012212AE046F28C790746C2F20E29D5
S31502004130D9F8000098B10D4646F29471C2F20E21EA
S31502004140096881B19FB1002D05DD1446002A12DDF2
S315020041501E46AB421ADA46F290700A210EE046F289
S31502004160907002210AE046F29070042106E046F2BF
S315020041709070112102E046F290700B21C2F20E20DD
S3150200418001600026304602B0BDE8F08706F0C5FEA3
S3150200419046F2907A0028C2F20E2ACAF80000F0D13E
S315020041A0D9F800000321CDE90041394632462B46B3
S315020041B008F036F80028CAF80000E2D1691E621E2D
S315020041C0D9F8000017B20BB2002100220097002690
S315020041D007F0EFFF0028CAF80000D3D146F29C7020
S315020041E046F2A071C2F20E20C2F20E21012688F812
S315020041F0006005600C60C5E72DE9F04F83B046F21A
S315020042008C76C2F20E263568002D00F0AB8046F29F
S315020042109877C2F20E273F78002F00F0A780DDF8CC
S315020042203480B8F1000F40F3AD80904250EAC28468
S3150200423050EAB28A994251EAC38051EAB38950EAF6
S31502004240040100F1978046F29C71C2F20E210968C0
S315020042508A4580F28F8046F2A072C2F20E2212685E
S31502004260914580F287800C9B4FF0F80CA1F1010E6C
S3150200427003F01F070CEA1321013A41EA533CF90005
S3150200428041EA97014FF4407707EA530703F4FC63C8
S31502004290744554EABE8B47EA43130024904250EA1F
S315020042A0B28743EA0C4042180021284602F067FF13
S315020042B046F290710028C2F20E21086069D12AEAFC
S315020042C0EA70029429EAE971000102B208010FFAC2
S315020042D080F94FEA0B1005B24FEA081093460FFA1F
S315020042E080FA306811464A462B46CDE9009A07F015
S315020042F04BFB46F290710028C2F20E21086048D1AB
S31502004300380129460FFA80F830684A462B460024BF
S31502004310CDE9008A029407F037FB46F29071C2F2A9
S315020043200E210860A8BB3068294642465B46CDE9A5
S31502004330008A029407F028FB46F29071C2F20E211F
S31502004340086030BB30680D4600210291594642464C
S315020043505B46CDE9009A07F017FB00285FEA1F9437
S31502004360286016E046F2907002210EE046F2907046
S3150200437003210AE046F290700021C2F20E200124C7
S31502004380016006E046F290700A21C2F20E20016038
S315020043900024204603B0BDE8F08FF0B581B046F2A6
S315020043A08C76C2F20E26306848B346F29471C2F297
S315020043B00E21096851B346F29875C2F20E252A7883
S315020043C0DAB30022002406F001FE46F29077C2F22A
S315020043D00E273860C0BB306804F0AFF846F29C7214
S315020043E00028C2F20E225FEA1F912C703860146018
S315020043F046F2A072C2F20E2214600C462FE046F27A
S3150200440098700024C2F20E20022105E046F298704E
S315020044100024C2F20E200421047046F29C70C2F2FD
S315020044200E20046046F2A070C2F20E20046046F22C
S315020044309070C2F20E20016011E046F290700321E4
S31502004440C2F20E200024016046F29C7046F2A07170
S31502004450C2F20E20C2F20E212C7004600C602046BD
S3150200446001B0F0BDD4D4D4D42DE9F04F89B046F2D0
S315020044708C7AC2F20E2ADAF80050002D45D0804618
S3150200448046F29870C2F20E200078002841D01446F7
S31502004490002A42D0DDF848B0BBF1000F41DD0E46DE
S315020044A003F01F01F820CA0000EA13204FF44077F8
S315020044B042EA910103F4FC6240EA533007EA5303ED
S315020044C0002743EA421242EA0040421800212846E7
S315020044D002F055FE46F29079C2F20E29C9F80000A2
S315020044E030BBDAF800000221032202F05BFEC9F8B3
S315020044F0000008B30546DAF8000001210022002771
S3150200450002F050FEC9F8005012E046F29070022105
S315020045100AE046F29070032106E046F290701121FD
S3150200452002E046F290700A21C2F20E2001600027D4
S31502004530384609B0BDE8F08F0BEB8B00002700016F
S31502004540CBEBCB0100B20890080100B20790300114
S3150200455006B20BEB4B004FEA400B00BF00BF00BF99
S31502004560207820283CD000283DD046F6AD320021E6
S31502004570C0F20B2200BF00BF12F8013B834203D0F8
S3150200458001312329F8D1002140F20002DAF80000B5
S31502004590C6F60002052302EB811108220725CDE9A2
S315020045A0005701F0D2FE05460028C9F80000DAF8E5
S315020045B00000A2D14FEA0811089A09B20192079A9D
S315020045C0CDE9022105210722002300970496302512
S315020045D0059501F0EBFE0028C9F800007FF48AAFCA
S315020045E0D8440134BCE7DAF800000121002202F0C7
S315020045F0D9FD00285FEA1F97C9F8000098E780B541
S3150200460082B04FF000010191F0B1007803281BD16E
S3150200461047F2341001ABC2F20E204FF480620168F9
S3150200462040F2C760C0F201200EF07DF860B1019839
S3150200463050B14EF604504FF08051CEF200000160A8
S31502004640BFF34F8FBFF36F8F02B080BDD4D4D4D4E3
S3150200465070B54EF600444EF66876C6F63B044FF445
S3150200466096112046CEF200060EF063FA46F6004593
S3150200467047F20001C6F66105C0F2170128460EF0A0
S3150200468058FA4BF6FF7104F01F00C0F2120105F052
S315020046901F02084446F6FF71C0F217010123BFF359
S315020046A04F8F114403EB501E03EB511000BF00BFA6
S315020046B0346020340FF005C0BFF34F8FBFF36F8F06
S315020046C0BFF34F8F40F001E046F60040C6F66100A8
S315020046D0306020300FF005C0BFF34F8FBFF36F8FEE
S315020046E0BFF35F8F47F2001049F2C401C2F20E20F7
S315020046F0C0F20B2109F0ADFF044678B947F200106B
S31502004700C2F20E200AF0F2F938B1044647F200105E
S31502004710C2F20E200AF07AF900E00024204670BDAB
S31502004720B0B582B047F234150446C2F20E254FF4F4
S31502004730806128680BF096FF28684FF48061012299
S315020047400023009400240BF0D9FE400558BF142420
S31502004750204602B0B0BDD4D480B546F2A470002182
S31502004760C2F20E204AF60042C6F603024BF6FF7C60
S31502004770016046F2A870C2F20E20C0F2120C46F692
S315020047800043016002F01F00C6F61603604403F000
S315020047901F030121BFF34F8F634401EB501E4EF6F8
S315020047A07070CEF2000001EB531300BF00BF00BFD2
S315020047B0026020320FF005C042F600410122C6F621
S315020047C02901BFF34F8F01F01F01BFF36F8F6144C1
S315020047D0BFF34F8F43F001E002EB511146F6004260
S315020047E0C6F6160200BF00BF026020320FF005C0F7
S315020047F0BFF34F8FBFF36F8FBFF34F8F41F001E0CF
S3150200480042F60041C6F62901016020310FF005C0CB
S31502004810BFF34F8FBFF36F8FBFF35F8F47F2EC008B
S3150200482049F29801C2F20E20C0F20B21BDE8804087
S3150200483008F073BB10B547F2EC000021C2F20E205D
S3150200484008F07BFC044640B900F0D9F968B1044689
S3150200485000F0E4F928200CF031FF47F2EC00C2F236
S315020048600E2008F004FC204610BD0024FBE780B5AC
S3150200487000F0D4F900B180BD28200CF01FFF47F2EA
S31502004880EC00C2F20E20BDE8804008F0F0BBB0B5E5
S3150200489080B1054608F03DF946F2A470C2F20E2038
S315020048A0046846F2A870C2F20E200068286008F07A
S315020048B05EF900E000242046B0BD80B582B04FF01C
S315020048C000010191A8B30168022915D0012930D14E
S315020048D0017A890620D5C06870B146F2A4714FF4F8
S315020048E02052C2F20E21086046F2A870C2F20E20D1
S315020048F001680131016001E04FF4805247F2341041
S3150200490001ABC2F20E20BFF35F8F016840F2C760AF
S31502004910C0F201200DF007FF019850B14EF6045087
S315020049204FF08051CEF200000160BFF34F8FBFF30C
S315020049306F8F02B080BD70472DE9F04182B0861CB0
S315020049404AF6AA274FF6FF740DF1070800218DF8E3
S31502004950071000BF00BF00BF36F8020CB84213D0E2
S31502004960A04218D0317800F09BF936F8021CA0B9A3
S315020049700846414600F0CCF9C8B932789DF80730AE
S3150200498093421FD105E000BF30784FF47A710BF0E5
S315020049903CF80436E0E700251DE00546327847F28A
S315020049A0A5402B46C0F20B2000F019F813E005468D
S315020049B036F8021C47F287502A46C0F20B2000F056
S315020049C00EF808E036F8021C47F25B40C0F20B20F4
S315020049D000F005F80125284602B0BDE8F08183B053
S315020049E080B581B0844603A80EC003A800906A462B
S315020049F000206146FDF78CFB01B0BDE8804003B0A4
S31502004A007047D4D4F0B581B02DED048B0A204FF453
S31502004A107A710AF0FAFF46F6DC703C21C2F20E20E9
S31502004A20012209F08FF9002840F0C58047F60815E3
S31502004A30EFF31080C2F20E25012181F3108840F6B1
S31502004A4014542968C4F2400419B900212170402186
S31502004A50217029684FF6D04601312960CFF6FF76DC
S31502004A6080F3108843F6FA770121CFF6FE77A05934
S31502004A7038400430A051EFF3108081F31088296882
S31502004A8011B1296801392960296819B900212170F3
S31502004A908021217080F3108814204FF47A710AF075
S31502004AA0B4FF0121EFF3108081F31088296819B948
S31502004AB0002121704021217029680131296080F38B
S31502004AC010880121A059384040F00500A051EFF3AB
S31502004AD0108081F31088296811B12968013929608B
S31502004AE0296819B9002121708021217080F310886C
S31502004AF014204FF47A710AF088FF40F23C00C2F2A9
S31502004B000020FFF719FF002855D132204FF47A71A1
S31502004B100AF07BFF43F23500122100F0C1F80028AB
S31502004B2049D143F236007B2100F0BAF8002842D17F
S31502004B3043F23700082100F0B3F8E0BB43F2081055
S31502004B40122100F0ADF8B0BB46F2AC704DF6000192
S31502004B50C2F20E20C0F2B8519FED1C0AB6EE008AD0
S31502004B600160B1EEC09A9FED1A0AB0EE481A09EE3C
S31502004B70001A43F60C00BCEEC10A10EE104A210AD6
S31502004B8000F08EF8B8B9E1B243F60D0000F088F8ED
S31502004B9088B939EE080A43F60E00BCEEC00A10EEDA
S31502004BA0104A210A00F07CF828B9E1B243F60F0058
S31502004BB000F076F818B1BDEC048B01B0F0BDBDEC87
S31502004BC0048B01B0BDE8F04000F004B8007C9249C5
S31502004BD0ABAAAA3F80B582B00DF1070144F61400D4
S31502004BE000F096F848B99DF8070000F03F0144F638
S31502004BF014008DF8071000F053F802B080BD80B59E
S31502004C0043F20800022100F04BF800B180BD44F2E5
S31502004C1002200021BDE8804000F042B844F20220A2
S31502004C200F2100F03DB846F6DC7048F60471C2F278
S31502004C300E20C0F20B2108F0FBBFD4D4D4D4D4D4B6
S31502004C4070B546F2B075C2F20E252978884210D0A8
S31502004C500446FF2600BF00BF287801280BD0013E7C
S31502004C60300612D00A2001210AF0CFFE28788442AB
S31502004C70F2D1002070BD46F669002146C0F20B2033
S31502004C8000F096F84FF4967070BD2A7847F2C1206C
S31502004C90C0F20B20214600F08BF8142070BDD4D44C
S31502004CA080B582B08DF8071046F2B071C2F20E21BD
S31502004CB0020A8DF806000DF105008DF80520002286
S31502004CC00A7000F01F0102310122BFF34F8F02EB7F
S31502004CD0511E4EF66871CEF2000100BF00BF00BF42
S31502004CE0086020300FF005C0BFF34F8FBFF36F8F00
S31502004CF046F6DC700DF10501C2F20E2003220023F6
S31502004D0009F01AF810B90320FFF79AFF02B080BD26
S31502004D10B0B582B00C46002901464FF001003DD0E5
S31502004D200DF1060246F2B07502F01F02C2F20E251E
S31502004D30013200EB521E48BAADF806000020287078
S31502004D40BFF34F8F4EF668710DF10600CEF20001E9
S31502004D50086020300FF005C0BFF34F8FBFF36F8F8F
S31502004D6046F6DC700DF10601C2F20E200222012384
S31502004D7008F0E2FF90B90320FFF762FF70B9002046
S31502004D80287046F6DC700122C2F20E20002321466C
S31502004D9008F0CCFF10B90220FFF752FF02B0B0BDF7
S31502004DA028B146F2B0710079C2F20E21087070473E
S31502004DB083B080B581B0844603A80EC003A80090D4
S31502004DC06A4600206146FDF7A3F901B0BDE88040BE
S31502004DD003B0704770B598B00E4605466846602126
S31502004DE014460DF0A6FE042C01D816B90CB1002407
S31502004DF01BE034B104EB44003146C20068460DF0B4
S31502004E009CFE07F086FE46F2B4706946C2F20E2098
S31502004E106022E0E802540DF090FE46F61C000124E2
S31502004E20C2F20E20047007F0A2FE204618B070BD32
S31502004E30B0B5A0B1054607F06CFE46F61C00C2F2FC
S31502004E400E200478012C07D146F2B4716822C2F210
S31502004E500E2128460DF071FE07F089FE00E00024BF
S31502004E602046B0BDD4D4D4D400284FF0010C00F0B3
S31502004E70CD80002A00F0CA802DE9F04F03AF8BB037
S31502004E806C466FF30304A546BD69002D00F0B98098
S31502004E9045EA000616F0010640F0B380B1F5961F0A
S31502004EA002D24FF0020CACE0B3F5404F02D24FF003
S31502004EB0030CA6E0F969802902D24FF0040CA0E0A7
S31502004EC000F5961302F54041934288BF814200F2F3
S31502004ED09680AB4205F5807388BF834200F28F80CD
S31502004EE0A94288BF934200F28A8049A14FF0100E70
S31502004EF0082391ED001F4AA12C4691ED003F4FF485
S31502004F00167100BF00BF00BF23EE617EB9FF566077
S31502004F1021EE615EACEC086F23EE432F21EE430FC8
S31502004F20B9FF54400CED044F0FF013C000F5D470D6
S31502004F30009002F1020B002242F2091344F205101C
S31502004F40802100BF00BF00BF4FF416560192724384
S31502004F504FF60006C0F21F064FF000083240009ED0
S31502004F6032440392CDF808B0AC4605EB48054FF63D
S31502004F70FF72DA4695ED801EEDEE102A039A04AD15
S31502004F8071FE4D0F92FC912E0822B0FF420185ED73
S31502004F90001F42F001E000BF35F8029B4FEAD92418
S31502004FA0C9F3451609F01F022402A4EBD924C6EB65
S31502004FB006265C43C2EB022246435A4381EA9444E4
S31502004FC00AF8024C81EA16540AF8014C81EA924226
S31502004FD00AF8032B0FF021C0B8F1780F08F1080880
S31502004FE00BF1180B6546BFD3019ADDF808B0013202
S31502004FF00BF5C07B802AA7D14FF0000C01E04FF0E1
S31502005000050CA7F10C04A546BDE8F04F60467047B3
S315020050100400000005000000060000000700000072
S315020050200000000001000000020000000300000072
S3150200503000284FF0000C00F0A980002900F0A6809D
S31502005040012AC0F2A3802DE9F04F81B02DED088B25
S3150200505082B0B7EE001A42F29B4BB4EE410AA2F1BD
S315020050600109F1EE10FAB5EE400A4FF0000884EF9E
S31502005070532631FE001A9FED460AF1EE10FA48BF9A
S31502005080B0EE401A9FED430A4FF03A0AC3F60A4BB6
S3150200509080EF504000274FF0000C01F128030193E6
S315020050A007EB8703034493F904603A3606EE106A67
S315020050B0B8EEC66A26EE006AB4EE416AF1EE10FA5E
S315020050C05AD493ED008F29EE4A8FBBFF488639EEFC
S315020050D06B8E08FF528D39EE031F33FE09AF39EE90
S315020050E0CF1F35FE0B8FB4EE489AF1EE10FA43D974
S315020050F0F4EE689AF1EE10FA3ED9944508DA0CEB12
S315020051004C030CF1010401EBC3066346A44626E0F8
S31502005110022A18D349F001E000230125019E00BFAF
S3150200512003EB430496ED007A183601EBC404D4ED82
S31502005130040AB4EE607AF1EE10FA55EA43830135B9
S315020051400FF013C000E0002303EB430601EBC60693
S3150200515096ED047AB4EE476AF1EE10FA0CDD86EDAE
S31502005160009F86ED046A03EB430301EBC303C3F816
S31502005170148000BF00BF00BF0137B7F5A87F8FD1EB
S3150200518002B0BDEC088B01B0BDE8F04F6046704737
S31502005190000000009B240A3C2DE9F04F89B000284C
S315020051A04FF0000800F0E6800129C0F2E380B7EE76
S315020051B0001AB4EE410AF1EE10FAB5EE400A31FEDB
S315020051C0001A9FED6E0AF1EE10FA48BFB0EE401AD1
S315020051D00229009145D3009900F1280B8A1E013954
S315020051E04FF0000CCDE90112A1EB0C0EE2460CF1D8
S315020051F0010C5B466646554605EB450793ED002ACC
S31502005200183300EBC70797ED043AB4EE432AF1EEE2
S3150200521010FA56EAC58501360FF013C055451CD063
S315020052200AEB4A0303AA05EB4507644600EBC30EE5
S31502005230734600EBC70793E8621382E862133946A6
S31502005240A446B84691E8FC0003A98EE8FC0091E862
S31502005250FC0088E8FC00DDE9011292450BF1180B0F
S31502005260C2D100F10C0C4FF000094FF00008DDF836
S3150200527000B000BF00BF00BFB8F1010F09EB490E35
S3150200528067DB00EBCE0466464746257D00BF00BFBE
S31502005290317A8D4259D194ED002A16ED033AB4EED5
S315020052A0432A94ED014AF1EE10FA16ED025A94EDF4
S315020052B0027AB4EE454A16ED016A72FE032AD4ED6D
S315020052C0030AF1EE10FAB4EE476AD6ED001A74FE3E
S315020052D0053AF1EE10FAF4EE601A77FE064AF1EE9E
S315020052E010FA74EEE22AF0EE404AF5EE402A70FE1B
S315020052F0A15AF1EE10FA23D975EEE33AF0EE404ADE
S31502005300F5EE403AF1EE10FA1AD937EE422A36EEA7
S31502005310433A31EEC55A30EEC44A23EE053A02EE5E
S31502005320043A22EEA32AF0EE404A33EE423A82EEE5
S31502005330032AB5EE403AF1EE10FA88BFF0EE424A81
S31502005340F4EE414AF1EE10FA0FDC013F06F11806BF
S315020053509ED108EB480108F1010800EBCE0700EBED
S31502005360C10A97E87E008AE87E0009F10109D9455B
S315020053707FF482AF404609B0BDE8F08F000000001E
S31502005380AAB0FDF765FD60B1014646F62C70C0F283
S315020053900B2000F0DFF900BE4FF47A700CF08EF9A4
S315020053A0FAE746F616503C21C0F20B200A2200F01C
S315020053B0D1F940F2DC2048F63071C2F20020C0F288
S315020053C00B2107F070FC60B1014647F65300C0F2AC
S315020053D00B2000F0BFF900BE4FF47A700CF06EF9A4
S315020053E0FAE747F234140421C2F20E2420680BF0C5
S315020053F023F8FBF7F6FB0546FBF7FEFB079505B31D
S315020054000546F0B1206808210BF016F82068022143
S31502005410002201234FF0FF3600964FF0000B0BF0EF
S315020054206DF8800719D446F6C260C0F20B2000F070
S3150200543091F900BE00BF00BF4FF47A700CF03EF93E
S31502005440FAE747F26B00C0F20B2000F083F900BEC8
S315020054504FF47A700CF032F9FAE7069511A84EF677
S315020054605C75103003900EAFCEF200059FEDB58A43
S315020054709FEDB59A9FEDB5AA9FEDB5BAB6EE00CAF5
S3150200548000204FF000094FF000080C900B90089096
S31502005490CDE904000A9000BF09905FEAC970CDF811
S315020054A0A4B0CDE90FBB0DD110A80FA9FDF77BFD66
S315020054B0082842D00146B8BBDDF83C8010980B9014
S315020054C00498089038460DA9CDE90DBBFDF744FFB7
S315020054D070B1014647F2CA60C0F20B200B9A00F087
S315020054E039F900204FF000092DE000BF00BF00BFD0
S315020054F00D98404524D108990E988BB241460B9AD5
