S01C00004475616C436F726550726F6A6563745F435055312E73726563AA
S315020D0000000414222D150D0209140D0237150D02C9
S315020D001037150D0237150D0237150D0237150D025F
S315020D0020000000000000000000000000090C0D0297
S315020D003037150D0200000000210C0D02890C0D0270
S309020D004011100D0277
S315020D004410B540F22C44C2F214242046A82103F022
S315020D005465F903202061606143F6212040F2D44103
S315020D0064C0F20D20C2F21421A061E1614FF40061C8
S315020D007421620021A1626162E162206640F6D440EA
S315020D0084C2F2142060661020A0662167E1666167DC
S315020D009443F284310F20C0F20D21BFF35F8F00BFEF
S315020D00A40A5C0138431C04F8012BF9D1BFF35F8FA7
S315020D00B410BDD4D42DE9F04381B0C76814460D465C
S315020D00C480464FF0000900BFD8F81010D8F8080082
S315020D00D4FA43B9421144A0EB070698BF0144B14253
S315020D00E438BF0E46D8F80400A64228BF2646384421
S315020D00F42946324603F016F9D8F80800F119A41B5D
S315020D01040F1AB144354418BF0F46002CBFF35F8F47
S315020D0114C8F80C70D8D1484601B0BDE8F0832DE974
S315020D0124F04381B0144640F22C4200EB4000C2F279
S315020D0134142202EBC002D06A8946022802F118057E
S315020D014411D0012807D000283ED1EE682869B042A5
S315020D015434D9F14335E0EE682969B1420BD9F2433C
S315020D0164A86811440BE028464946224601B0BDE86B
S315020D0174F043FFF79FBFA868F24311440144A1421D
S315020D018438BF0C46871B6868BC42304407D24946C1
S315020D0194224603F0C7F8BFF35F8F26440CE04946A7
S315020D01A43A4603F0BFF8E61B686809EB07013246C7
S315020D01B403F0B8F8BFF35F8FEE6026E0A968F24349
S315020D01C410440844A04201D200241EE0D5E90101DF
S315020D01D48F1BBC42304408D24946224603F0A2F88C
S315020D01E4BFF35F8F06EB04080DE049463A4603F06A
S315020D01F499F8A4EB0708686809EB0701424603F070
S315020D020491F8BFF35F8FC5F80C80204601B0BDE8A7
S315020D0214F083F0B581B0144640F22C42C2F2142298
S315020D022412780D46532A064618BFFFF709FFEFF358
S315020D023411874FF0200181F3118830462946224653
S315020D0244FFF76DFF87F3118801B0F0BDFFF7F8BE16
S315020D02542DE9F04F9BB0934606AA169240221792A9
S315020D0264002200278A4605901A90CDE9182200BF6E
S315020D02741AF8012B252A07D0002A00F05D8116A84B
S315020D0284114600F068F93CE1881C4FF0000800BFE6
S315020D02949AF800102C2905DC232909D02B2911D112
S315020D02A4042108E02D2905D030290BD1022102E0C3
S315020D02B4082100E0012148EA01080AF1010A013088
S315020D02C4E6E700BFA1F13A02002612F10A0F0ED398
S315020D02D406EB860201EB420210F8011BA2F130066F
S315020D02E4A1F13A0313F10B0FF2D8A0F1010A2E294B
S315020D02F40ED1514611F8010F2A280CD1DBF8000054
S315020D03040AF1020A011DCBF8001004681FE000BFB2
S315020D0314002000241CE0A0F13A0212F10A0F03D2C6
S315020D0324002000248A4613E00AF10201002400BFCC
S315020D033404EB840200EB420211F8010BA2F1300424
S315020D0344A0F13A0313F10B0FF2D8A1F1010A012020
S315020D03541AF8011B01F0FB02682AF9D063290FDC96
S315020D036425292FD0582924D0632940F0CA80DBF8D9
S315020D03740000011DCBF80010017816A881E700BF15
S315020D0384A1F17002082A20D8DFE802F005BBBB539F
S315020D0394BB4CBBBB1300DBF800001022011DCBF8CE
S315020D03A40010016816A8082300270826CDE9006760
S315020D03B4A5E0DBF800001022011DCBF80010016840
S315020D03C416A899E016A825215BE7642940F09980C1
S315020D03D4DBF80000011DCBF800100568C5F1000C11
S315020D03E4002D284600D560464CF6CD430A28CCF698
S315020D03F4CC434FF0010907DBA0FB031263284FEA36
S315020D0404D20009F10109F7D84C4588BFA146AEB30E
S315020D04140020002D48BF012008F0040140EA910096
S315020D0424361A2CE0DBF80000011DCBF8001001682A
S315020D043460E0DBF800100A1DCBF800200E6843F2CB
S315020D044408723146002E18BF012100EA0105C0F2D9
S315020D04540D2208BF164600BF3178002951D0B4FAD1
S315020D046484F0400928404CD116A8013600F073F8E1
S315020D0474199F013CB7F1FF3FEEDC68E000265FEA07
S315020D048488710BD554B9002F3BD4002D24D45FEAC1
S315020D0494487004952BD503912B2121E05FEAC87090
S315020D04A4F1D1002EEFD0B145EDD2CDE902C10495BD
S315020D04B4751E00BF16A8202100F04DF8199F002FB6
S315020D04C445D4681EA84202D2A9450546F2D3049D17
S315020D04D4DDE902C1461CD6E703912D21CDF810C0E4
S315020D04E416A800F038F8199F0399002F2FD4002966
S315020D04F40ED4049916A80A222346CDE9006800F003
S315020D05044BF8199F5146B7F1FF3F3FF7B1AE1EE0C7
S315020D051408F001002043ECD1002EEAD0751EB54237
S315020D052438BFB145E5D216A8302100F014F8199F4B
S315020D05342E46002FF2D50AE047B1189C24B1059830
S315020D054406A92246FFF765FE274400E00027384632
S315020D05541BB0BDE8F08F10B50446D0E90120431C4B
S315020D0564934207D822681154E06862680130E0604C
S315020D05741846A360904218BF10BD21682069FFF783
S315020D058448FEA168884202D10020A06010BD4FF03A
S315020D0594FF30E06010BDD4D42DE9F04F81B0DDF803
S315020D05A428A01F4615468B46914281464FF00104FB
S315020D05B405D35846B0FBF5F00134A842FAD20B998D
S315020D05C4A74288BF3C46BAF1000F1DD011F00100B7
S315020D05D41AD14FF02008880748BF4FF03008202063
S315020D05E4002F18BF804600BFBAF1000F0CD0544538
S315020D05F40AD248464146AAF1010AFFF7ACFFD9F8D9
S315020D06040C00B0F1FF3FEFDCD9F80C0000283AD408
S315020D0614012600BF022F01D3013F03E0BBFBF6F017
S315020D0624A84202D306FB05F6F4E743F6D748C0F211
S315020D06340D2800BFBBFBF6F7484618F80710FFF75F
S315020D06448AFFD9F80C00002806D4B6FBF5F007FB91
S315020D065416BBB5420646EDD90B98C00718BFBAF1BB
S315020D0664000F0AD10FE048462021FFF774FFD9F88F
S315020D06740C00AA46B0F1FF3F05DDAAF10105554569
S315020D068438BF5445EFD301B0BDE8F08F022818BF29
S315020D0694704740F6245043F62451C2F21420C0F298
S315020D06A40D2100F004BD80B584B00021039190B3F1
S315020D06B4816840F6FC42C2F21422B1F5803F116004
S315020D06C429D1426840F6F440C2F21420026040F683
S315020D06D4E440C2F2142001680131016040F6205053
S315020D06E4C2F214200068B0B10DF10C0C4FF0000EDD
S315020D06F400210323CDE900EC02F054FB039850B11B
S315020D07044EF60450CEF200004FF080510160BFF355
S315020D07144F8FBFF36F8F04B080BDD4D486B040F231
S315020D07240808C6F68008FFF791FD43F2D140C0F2E0
S315020D07340D2000F08BF940F6105940F6145240F68E
S315020D0744185340F61C5EC2F214290020C2F214227A
S315020D0754C2F21423C2F2142EC9F8000010601860F6
S315020D0764CEF80000BFF35F8F4FF0D140006844F618
S315020D07743157C5F24837B84216D158F8040C012838
S315020D078412D1D8F8000002280ED1D8F80400012897
S315020D07940AD1D8F80800012806D1D8F80C00202869
S315020D07A402D1D8F81400A0B102201060D8F8007056
S315020D07B41F60D9F8001012681B6843F67900C0F25F
S315020D07C40D2000F043F900BF4FF47A7001F00CFED0
S315020D07D4FAE7D8F80CC0BCF1000F18D048F220374E
S315020D07E44FF0FF360025CEF6B85708EB0500007E0E
S315020D07F446400820344687EA5606E10708BF6608CE
S315020D08040138F7D101356545EFD1F74300E00027ED
S315020D0814D8F81000874240D10025002608EB0600C1
S315020D0824077EE8B280F0A500B84239D10136202EF2
S315020D083405F12505F2D10320C8F800000020352163
S315020D0844BFF35F8F00FB01F208EB0003013082F068
S315020D08545A0220281A76F5D12020C8F80C00D8F8A9
S315020D08640C20002102B348F220364FF0FF33002745
S315020D0874CEF6B85608EB0700007E4340082000BFAB
S315020D08841D4686EA5303EC0708BF6B080138F7D1F8
S315020D089401379742EED1D84307E0D8F8100001E0AC
S315020D08A4C9F80060106083E70020C8F81000C8F884
S315020D08B41410C8F804100420BFF35F8FC8F80000A3
S315020D08C40120BFF34F8FCEF8000043F62C30C0F251
S315020D08D40D2000F0BBF802F0B1F840F62051C2F239
S315020D08E41421086043F6F841C0F20D2107C91268B6
S315020D08F4904750B140F60051C2F21421086000BF70
S315020D09044FF47A7001F070FDFAE743F61450C0F213
S315020D09140D20D0F808A0D0E90041DAF800202046CF
S315020D0924904750B140F60051C2F21421086000BF3F
S315020D09344FF47A7001F058FDFAE7C82001F054FD20
S315020D094440F6005840F6E84940F60C56C2F2142811
S315020D0954C2F214290020C2F2142600BF411C21F052
S315020D09647F4B6FF07F41884208BF4FF0010B0BF1AD
S315020D09742147DAF80420002005902046394690478F
S315020D0984C8F8000078BB40F6F840C2F2142007609E
S315020D0994D9F8000000210130C9F8000000204FF0FB
S315020D09A4FF3205AB4FF4FA77009702F092F901285C
S315020D09B440F6EC40C2F2142012D1059800F07F41A4
S315020D09C4B1F1224F08D120F07F40584540F6F04050
S315020D09D4C2F2142004D106E040F6F040C2F214200D
S315020D09E401680131016040F6F840C2F21420016833
S315020D09F440F6F440C2F21420026840F6E44040F692
S315020D0A04EC47C2F21420C2F21427D9F8003000685A
S315020D0A143F6840F6F045C2F21425A6462C68D8F86E
S315020D0A240050D6F800C0CDE9000743F20F70C0F2AC
S315020D0A340D20029474460395CDF810C000F006F805
S315020D0A444FF47A7001F0D0FC584687E783B080B52F
S315020D0A5481B0844603A80EC003A800906A460020FE
S315020D0A646146FFF7F5FB01B0BDE8804003B0704760
S315020D0A7440F60452C2F21422106040F60850C2F235
S315020D0A841420016040F60C50C2F2142001680131A3
S315020D0A940160012080F3108800BFFDE77047FFF760
S315020D0AA4FDBF80B584B040F6D850C2F21420016859
S315020D0AB440F6645C0131016041F2C050C2F2142069
S315020D0AC40421CDE9001040F6113043F2BB3143F651
S315020D0AD42053C2F2142CC0F20D20C0F20D21C0F225
S315020D0AE40D234FF40072CDF808C001F02BFA40F62F
S315020D0AF4CC51C2F21421086008B104B080BD0020A5
S315020D0B04002104B0BDE8804000F009B810B50446D2
S315020D0B1400F008F82046BDE81040FFF7FFBD00BE01
S315020D0B247047D4D4B0B540F6D054C2F2142420681A
S315020D0B344FF0FF3101F0C6F8012803D020680021D9
S315020D0B44FFF7EDFF40F6D450C2F21420017801B13D
S315020D0B54B0BD01210170FFF7A2FF40F6D855C2F2CE
S315020D0B64142500BF286801382860F1D020680021B9
S315020D0B740022002300F072FE0128F3D02068002122
S315020D0B84FFF7CDFFEEE780B540F6D850C2F214203A
S315020D0B940021016040F6D450C2F2142040F6DC5214
S315020D0BA40170C2F214224FF48070012100F035FE59
S315020D0BB440F6D051C2F21421086018B90020002162
S315020D0BC4FFF7ADFFFFF76DFF01F097FC002080BD27
S315020D0BD440F62463C2F21423036040F68C60C2F21B
S315020D0BE41420086080201060704741F28C03C2F213
S315020D0BF41423036041F2F400C2F21420086080202B
S315020D0C04106070471EF0040F0CBFEFF30880EFF36C
S315020D0C140980014908470000AF0C0D020F4B1968F4
S315020D0C24EFF309821EF0100F08BF22ED108A22E996
S315020D0C34F04FEFF30B8342F8043D0A604FF01000B8
S315020D0C4480F31188BFF34F8FBFF36F8F01F0FCFB57
S315020D0C544FF0000080F3118800F002B8B813142285
S315020D0C64074801680A6802CA81F30B88B2E8F04F95
S315020D0C741EF0100F08BFB2EC108A82F30988704772
S315020D0C84B813142210B5EFF31184102080F31188D2
S315020D0C9401F0B0FC30B14EF60450CEF200004FF026
S315020D0CA48051016084F3118810BD806910F8020C1D
S315020D0CB4022808BFFFF7D4BF042838BF704780B592
S315020D0CC443F2C63043F6400243F2EA43C0F20D2024
S315020D0CD4C0F20D22C0F20D234FF47E7100F048FBD3
S315020D0CE4283140F8481D40F60D51C0F20D214FF042
S315020D0CF4807C22F00102C1636FF002010264C0F826
S315020D0D0444C0C0E90913704700BE00BFFEE7D4D440
S315020D0D144EF62250CEF20000F021017000F016F8C4
S315020D0D244EF63470CEF20000016841F04041016086
S315020D0D3462B6BFF36F8FEFF3148C2CF0040C8CF3A5
S315020D0D441488BFF36F8F02DF00BEFDE741F26430F4
S315020D0D54C2F21420006844F6D351C1F26201A0FB1B
S315020D0D6401014FF0FF3000EB91110020B0EB116F32
S315020D0D7418BF70474EF21002CEF2000251604EF6C3
S315020D0D842351CEF20001F0230B7090600720106000
S315020D0D9470471021EFF3118081F3118841F2F4218A
S315020D0DA4C2F214210A68531C0B605AB941F2F82196
S315020D0DB4C2F2142108604EF60450CEF20000006809
S315020D0DC4C00500D1704780B543F2C63043F2EC320A
S315020D0DD443F28273C0F20D20C0F20D22C0F20D232E
S315020D0DE440F2A44100F0C4FA41F2F420C2F21420F6
S315020D0DF4016859B10139016018BF704741F2F820F3
S315020D0E04C2F21420006880F31188704780B543F24C
S315020D0E14C63043F6B63243F29533C0F20D20C0F214
S315020D0E240D22C0F20D2340F2AD4100F0A1FA80B5B8
S315020D0E3498B34EF6902EC4F2010E9EF800100A07D0
S315020D0E4422D04EF2FA32C4F2010213884AF2025C3D
S315020D0E54CFF6FF7C0020A2F800C08EF8000043F402
S315020D0E6425401080BFF34F8F30BFBFF36F8F62B62D
S315020D0E74BFF36F8F72B61088A2F800C040F42540F6
S315020D0E848EF80010108080BDBFF34F8F30BFBFF3B5
S315020D0E946F8F62B6BFF36F8F72B680BD80B572B6B1
S315020D0EA401F07FF90120FFF7C2FF62B6BDE880406B
S315020D0EB401F0D2B980B5EFF30380103840B20028A1
S315020D0EC406D44EF20041CEF20001405C0F2817D92A
S315020D0ED44EF60C50CEF200000068400558BF80BD98
S315020D0EE443F2C63043F62A2243F26553C0F20D206D
S315020D0EF4C0F20D22C0F20D2340F2216100F038FA40
S315020D0F0443F2C63043F62A2243F66633C0F20D2067
S315020D0F14C0F20D22C0F20D2340F20F6100F028FA41
S315020D0F24416002468868C0231061C868C4F2020390
S315020D0F34906100205061086803EB401090600868C8
S315020D0F4403EB40104030D06091F90400002829D4F7
S315020D0F5449794EF2001CCEF2000C090100EB0C038A
S315020D0F6483F8001341F25431C2F2142141F82020C0
S315020D0F744CF20031C4F2000151F8203023F48033CF
S315020D0F8441F8203051F8201000F01F0101234009C9
S315020D0F9403FA01F10CEB8003BFF35F8FC3F88011E3
S315020D0FA44CF8201045F24301C5F249210020116087
S315020D0FB470478068026892034EBF0C208160002040
S315020D0FC4704782680020516070478446C0E9041355
S315020D0FD40020CCF8182070470146406890F90400A9
S315020D0FE400280FD400F01F02012303FA02F24EF277
S315020D0FF480134009CEF2000343F82020BFF34F8F2E
S315020D1004BFF36F8F002200200A607047B0B5EFF36D
S315020D101403804FF0704101EB00604CF200318015F4
S315020D1024C4F20001425822F480324250415841F230
S315020D10345431C2F214210C58E0680568E80304D54C
S315020D104420464FF4803100F00BF835F4403508BFD5
S315020D1054B0BD2046294600F003F8E0680561B0BD2F
S315020D10642DE9F04184B004464069E84630B10346A1
S315020D107493E8E400C4468CE8E40000E04046626866
S315020D1084B1F5803F126881600260A269C26002D125
S315020D1094E168C96800E000214160216988476069F9
S315020D10A410B198E88E008EC004B0BDE8F08180B50B
S315020D10B445F25422C5F24F020260084600F002F8C8
S315020D10C4002080BD70B5044600F05CF841F2503C38
S315020D10D4EFF31080012181F31088C2F2142CDCF88F
S315020D10E4001039B940F61451C4F2400100220A70B7
S315020D10F440220A70DCF800100131CCF8001080F39E
S315020D11041088208810B340F6000E0021C4F2400E5A
S315020D1114606800EBC102928850F83130100ADD0383
S315020D1124D2B20BD50EEB801555F8226026F4803615
S315020D113445F8226023F4803645F822600EEB8010C2
S315020D114440F82230208801318142E1D3EFF3108138
S315020D1154012080F31088DCF8000020B1DCF80000D1
S315020D11640138CCF80000DCF8000038B940F614500A
S315020D1174C4F24000002202708022027081F31088AC
S315020D118470BDD4D42DE9F04F81B0044600880028F1
S315020D11945CD042F240084EF64C4A43F6485BC4F222
S315020D11A420080026C4F2010AC0F20D2B4FF00109E4
S315020D11B4002700BF60683BF8172000EBC600818844
S315020D11C491423CD100689AF8001000F0B85009FA21
S315020D11D407F5B0F1807F05EA010015D150B901205A
S315020D11E400F07BF99AF8000028438AF800000120E2
S315020D11F400F04AF918F91700002820D418F8170038
S315020D120440F0800015E000BF50B1012000F065F9F1
S315020D12149AF80000A8438AF80000012000F034F978
S315020D122418F91700B0F1FF3F09DC18F8170000F0A2
S315020D12347F0008F81700C820012100F09CF8013739
S315020D1244032FB7D1208801368642B1D301B0BDE84A
S315020D1254F08FD4D44EF22401C4F2010188780988A0
S315020D1264C1F30312A2F1080103293BD8DFE801F009
S315020D1274022C101E40F20041C2F2142151F8200034
S315020D12844AF6AB21CAF6AA21A0FB0101480830E0B1
S315020D129440F20041C2F2142151F820004AF6AB2164
S315020D12A4CAF6AA21A0FB0101C80822E040F20041B8
S315020D12B4C2F2142151F820004AF6AB21CAF6AA212C
S315020D12C4A0FB0101080914E040F20041C2F2142107
S315020D12D451F820004AF6AB21CAF6AA21A0FB010158
S315020D12E4880806E040F20041C2F2142151F82000AA
S315020D12F4D04041F26431C2F214210860704770B5D0
S315020D130440F2004046F6004141F20022C2F2142098
S315020D1314C0F2DC21C0F27A0243F2006C4FF40043B0
S315020D1324C0F26E1C4CF6002E44F2553448F20045BA
S315020D133444F2006680E80E1040F6000143F6000200
S315020D1344C3F69A3EC1F2DE34C1F2D775C2F2C33682
S315020D1354C2F6AF71C1F69C42C0E9043EC0E9066409
S315020D1364C0E908518262BDE87040FFF773BFD4D459
S315020D137400BE00BFFEE741F26432C2F214221268C5
S315020D138441F20023C0F27A039A4201FB00F00FD315
S315020D139440F6FF01C0F23D0111444DF68362C4F2DB
S315020D13A41B32A1FB0212110DA0FB0101E9B11FE0D3
S315020D13B44CF6002348F63811C3F69A33C0F24101AE
S315020D13C4B3FBF2F2884207D24FF47A7100FB01F0B5
S315020D13D4B0FBF2F0800808E09200B0FBF2F088420E
S315020D13E406D24FF47A7100FB01F028B100F005B86C
S315020D13F44FF0FF3000F001B8704701380028FCD1D8
S315020D14047047D4D4F0B581B04CF20015C4F2000580
S315020D14142868296A41F2FC2701EA00060024C2F271
S315020D1424142700BF26FA04F0C00704D057F8241077
S315020D143409B1204688470134152CF3D12E6100BF1C
S315020D1444286A3042FCD101B0F0BD43F63050C0F2E9
S315020D14540D200088B8B14CF200310022C4F200010D
S315020D1464B2EB902F08600ED146F2400C4109C4F23C
S315020D1474000C5CF8213000F01F00012202FA00F084
S315020D148418434CF8210070470122EFF3108182F3C1
S315020D1494108841F25832C2F2142232F8103023B1B6
S315020D14A432F81030013B22F8103032F810208AB986
S315020D14B44EF2FA3CC4F2010C43F69C72BCF80030AF
S315020D14C4C0F20D2232F8100043F4254222EA00003E
S315020D14D4ACF8000081F31088704780B50122EFF352
S315020D14E4108182F3108841F25832C2F2142232F874
S315020D14F410308BB94EF2FA3C43F69C73C4F2010CCE
S315020D1504C0F20D23BCF800E033F8103043EA0E03A3
S315020D151443F42543ACF8003032F81030013322F887
S315020D1524103081F3108880BD00F006F8FFF72BFB0F
S315020D1534FEE700BE7047D4D4B0B54EF60850CEF2CF
S315020D154400004FF47001C0F8801040F20001C0F2A1
S315020D15540D214CF2040401600020C4F20104FFF7CC
S315020D156495F8FFF7CCFE206840F00100206000BF1D
S315020D157420680028FCD1012044F8040CFFF786F8F4
S315020D158440F20000C2F2142080F30A88002000F013
S315020D15942FF8FFF75FFE012000F02AF841F2BC5442
S315020D15A4C2F21424204601F0CDFE204601F0DEFEE1
S315020D15B443F6FA7043F6FA71C0F20D20C0F20D210C
S315020D15C4081A8410012C08DB43F6FA75C0F20D25B0
S315020D15D455F8040B8047013CFAD10220FFF756F861
S315020D15E4FFF733FF0020BDE8B04000F02EB8D4D487
S315020D15F4F0B581B043F67055C0F20D252E6804463A
S315020D160476B16868071D00BF7879844204D157E91B
S315020D16140101091A01F082FE013E07F10C07F3D10D
S315020D1624AE6886B1E86800F1080500BF68798442A0
S315020D163405D155E902022968121A01F073FE013E1B
S315020D164405F11005F2D101B0F0BD70474FF0FF312F
S315020D1654024642F8081F0021C0E90322C0E900121E
S315020D1664704700210161704780B5D1F800C01CF1A5
S315020D1674010207D000F108029646526813686345C3
S315020D1684FAD903E0D0F810E0DEF804204A6091603E
S315020D1694C1F808E0CEF80410086101680131016051
S315020D16A480BDD0E901230169936042685A604A6894
S315020D16B4824201D182684A600022026108680138B9
S315020D16C40860704770B500284BD00446C06BC0B392
S315020D16D40E46216CA0FB010199BBFFF75AFB20684C
S315020D16E4D4E90F12002502FB0103013901FB0201A4
S315020D16F4A563C4E90103FF20E16084F8440084F87C
S315020D1704450004F110004EB1FFF7A0FF04F12400C9
S315020D1714FFF79CFFFFF768FB012070BD01680029E6
S315020D1724F8D001F0A1F80028F4D04EF60450CEF20A
S315020D173400004FF080510160BFF34F8FBFF36F8FDF
S315020D1744E8E743F61F1043F69B3243F67223C0F2C3
S315020D17540D20C0F20D22C0F20D234FF4B671FFF720
S315020D176407FE43F61F1043F69B3243F64923C0F296
S315020D17740D20C0F20D22C0F20D2340F23711FFF7F0
S315020D1784F7FD10B582B043B3B8B11C4601B9A2B97F
S315020D179401B192B148230193019B482B2DD1019B93
S315020D17A4002908BF2246C4E90F0120460121226001
S315020D17B4FFF788FF204602B010BD43F61F1043F60D
S315020D17C40E0243F6A813C0F20D20C0F20D22C0F28A
S315020D17D40D234FF4D871FFF7CBFD43F61F1043F6D5
S315020D17E40E0243F2AC53C0F20D20C0F20D22C0F22A
S315020D17F40D234FF4C271FFF7BBFD43F61F1043F6DB
S315020D18040E0243F2C873C0F20D20C0F20D22C0F2CD
S315020D18140D234FF4CB71FFF7ABFDB0B582B060B1BA
S315020D18240D46814209D81446002100222346FFF7AC
S315020D1834A8FF2046A56302B0B0BD43F61F1043F6BA
S315020D1844CC0243F2BA53C0F20D20C0F20D22C0F2FD
S315020D18540D234FF45E71FFF78BFDD4D42DE9F04FB2
S315020D186485B00028049200F09D80994615460446DB
S315020D187419B9206C002840F0C580B9F1020F03D1C5
S315020D1884E06B012840F0AE80019101F0DDF810B94C
S315020D1894002D40F09780FFF77CFAA06BB9F1020F89
S315020D18A459D0E16B884256D304F11007012002AEDA
S315020D18B44FF0000B04AD00BF0499002966D0C00792
S315020D18C402D0304601F056F8FFF78EFA00F069FCA5
S315020D18D4FFF75FFA94F84400FF2808BF84F844B072
S315020D18E494F84500FF2808BF84F845B0FFF77CFA43
S315020D18F43046294601F04BF800284AD1FFF749FA3A
S315020D1904D4F838A0D4F83C80FFF76EFAC24515D147
S315020D19140499384600F04AFF204600F0BFF800F05D
S315020D19249BFC80B94EF60450CEF200004FF0805166
S315020D19340160BFF34F8FBFF36F8F04E0204600F0B3
S315020D1944ADF800F089FCFFF724FAA06BE16B88422F
S315020D19544FF00000B0D2019920464A4600F062F8D3
S315020D196454F8241F11B1204600F07EFF50B14EF6F5
S315020D19740450CEF200004FF080510160BFF34F8F39
S315020D1984BFF36F8FFFF730FA012008E0FFF72CFA49
S315020D199404E0204600F082F800F05EFC002005B05B
S315020D19A4BDE8F08F43F61F1043F2005243F6492366
S315020D19B4C0F20D20C0F20D22C0F20D2340F2B63153
S315020D19C4FFF7D6FC43F61F1043F2005243F21253AD
S315020D19D4C0F20D20C0F20D22C0F20D2340F2BB312E
S315020D19E4FFF7C6FC43F61F1043F2005243F2C253ED
S315020D19F4C0F20D20C0F20D22C0F20D234FF46E710A
S315020D1A04FFF7B6FC43F61F1043F2005243F6434367
S315020D1A14C0F20D20C0F20D22C0F20D2340F2B731F1
S315020D1A24FFF7A6FC70B5866B036C0446DBB115464F
S315020D1A3412B3E0681A4601F075FCE168206C22685F
S315020D1A44091A9142E16003D2A16840420844E0605A
S315020D1A54A81EB0FA80F040093146002E18BF0121A6
S315020D1A640840361A15E02068002598B9A06801F0D9
S315020D1A7454F8A56005460DE060681A4601F052FC5D
S315020D1A84D4E90101226C10448842606001D32068B6
S315020D1A9460600025711C2846A16370BDF0B581B046
S315020D1AA40446FFF776F994F94560012E0EDB04F12F
S315020D1AB4240500BF286848B1284600F0D5FE08B1B2
S315020D1AC400F0B5FF70B2013E0128F3DCFF2684F85F
S315020D1AD44560FFF789F9FFF75CF994F94470012F14
S315020D1AE40EDB04F1100500BF286848B1284600F044
S315020D1AF4BBFE08B100F09BFF78B2013F0128F3DC6F
S315020D1B0484F8446001B0BDE8F040FFF76DB9D4D452
S315020D1B142DE9F04F83B00028029200F0A2801646FA
S315020D1B248946044619B9206C002840F0BA8000F0A3
S315020D1B348BFF10B9002E40F0A480FFF72AF9D4F8D2
S315020D1B4438A0BAF1000F28D0226C52B1D4E90201A1
S315020D1B541144E160814224BF2168E160484601F0E7
S315020D1B64E1FB54F8100FAAF10101A16270B12046EE
S315020D1B7400F07AFE50B14EF60450CEF200004FF04C
S315020D1B8480510160BFF34F8FBFF36F8F0124FFF7AF
S315020D1B942BF9204603B0BDE8F08F04F12408012089
S315020D1BA46F464FF0000B02AE0299002955D0C007BD
S315020D1BB402D0384600F0DEFEFFF716F900F0F1FA10
S315020D1BC4FFF7E7F894F84400FF2808BF84F844B0F9
S315020D1BD494F84500FF2808BF84F845B0FFF704F9C9
S315020D1BE43846314600F0D3FE60B12046FFF756FF64
S315020D1BF400F032FBFFF7CDF8A56BFFF7F5F875B3D9
S315020D1C0422E000BFFFF7C5F8A56BFFF7EDF82DB17E
S315020D1C142046FFF743FF00F01FFB15E002994046ED
S315020D1C2400F0C4FD2046FFF739FF00F015FB58B945
S315020D1C344EF60450CEF200004FF080510160BFF310
S315020D1C444F8FBFF36F8F00BFFFF7A3F8D4F838A0F9
S315020D1C540020BAF1000FA7D076E7002497E70024F7
S315020D1C6497E743F61F1043F6F00243F29153C0F27F
S315020D1C740D20C0F20D22C0F20D2340F2E951FFF7F9
S315020D1C8477FB43F61F1043F6F00243F21253C0F2EA
S315020D1C940D20C0F20D22C0F20D2340F2F251FFF7D0
S315020D1CA467FB43F61F1043F6F00243F6B313C0F275
S315020D1CB40D20C0F20D22C0F20D2340F2ED51FFF7B5
S315020D1CC457FBD4D42DE9F04F83B00028029100F0CE
S315020D1CD4B2800446006C002840F0BD800D4600F02B
S315020D1CE4B3FE10B9002D40F0C680FFF752F8A16B72
S315020D1CF4D1B1481EA063206810B900F0E0FFA060C0
S315020D1D0454F8100F70B1204600F0AEFD50B14EF6E8
S315020D1D140450CEF200004FF080510160BFF34F8F95
S315020D1D24BFF36F8F012480E004F124094FF0000BF9
S315020D1D3401206E4602AF4FF0000800BF029900293A
S315020D1D4472D0C00702D0304600F014FEFFF74CF8ED
S315020D1D5400F027FAFFF71DF894F84400FF2808BF90
S315020D1D6484F844B094F84500FF2808BF84F845B0BA
S315020D1D74FFF73AF83046394600F009FE60B12046BF
S315020D1D84FFF78CFE00F068FAFFF703F8A56BFFF771
S315020D1D942BF8B5B32EE000BFFEF7FBFFD4F838A03F
S315020D1DA4FFF722F8BAF1000F05D02046FFF776FEAB
S315020D1DB400F052FA1EE0206838B9FEF7EAFFA06871
S315020D1DC400F055FE8046FFF70FF80299484600F0DB
S315020D1DD4EDFC2046FFF762FE00F03EFA50B94EF6D0
S315020D1DE40450CEF200004FF080510160BFF34F8FC5
S315020D1DF4BFF36F8FFEF7CDFFA16B002000299DD097
S315020D1E0477E7B8F1000F09D0FEF7C3FFD9F8000042
S315020D1E1430B1206B0068C0F1050102E0002406E032
S315020D1E240021A06800F0DFFE0024FEF7DDFF204648
S315020D1E3403B0BDE8F08F43F61F1043F2E37243F28B
S315020D1E449153C0F20D20C0F20D22C0F20D2340F2C1
S315020D1E548261FFF78DFA43F61F1043F2E37243F6DE
S315020D1E64C833C0F20D20C0F20D22C0F20D2340F28A
S315020D1E748661FFF77DFA43F61F1043F2E37243F2CE
S315020D1E841253C0F20D20C0F20D22C0F20D2340F200
S315020D1E948B61FFF76DFAD4D4B0B500B3D1B141F26B
S315020D1EA4683E4FF0000CC2F2142E0022002300BF2E
S315020D1EB40EEB02046568A8420DD023B92368002BE4
S315020D1EC418BF644623460832502AF1D1002B18BF97
S315020D1ED4C3E90010B0BD2346C3E90010B0BD43F6F5
S315020D1EE41F1043F2A73243F6C623C0F20D20C0F2E9
S315020D1EF40D22C0F20D2340F6C931FFF739FA70B53A
S315020D1F0415460E460446FEF744FF94F84400FF2890
S315020D1F1404BF002084F8440094F84500FF2804BF4A
S315020D1F24002084F84500FEF75FFFA06B28B904F183
S315020D1F34240031462A4600F05AFC2046BDE870407C
S315020D1F44FFF7ACBD2DE9F04F81B00B9F002F00F0CA
S315020D1F54E8800C9C002C00F0F480814668200090E9
S315020D1F640098682840F0FD8000980E46DDF828A0FA
S315020D1F74204668219846154601F0D0F9A90038463F
S315020D1F84A522276301F0C5F9206B6EB104F1340164
S315020D1F94002200BFB35C8B541BB10F2A02F101025E
S315020D1FA4F8D1002184F84310BAF1050F80F0E980C7
S315020D1FB400EB85000438251D20F007062846C4F8D3
S315020D1FC42CA0C4F844A0FFF74CFB04F11800FFF74C
S315020D1FD448FBCAF10500216BA06130464A464346C9
S315020D1FE424616462FEF77CFE2060FEF7D2FE41F2A6
S315020D1FF4DC30C2F21420016841F2B83B01310160B2
S315020D2004C2F2142BDBF8001041F2C03A41F2E83762
S315020D2014C2F2142AC2F2142761B1DAF800000028BA
S315020D202440D1DBF80000E16AC06A884298BFCBF85A
S315020D2034004037E0CBF800400068012832D1002673
S315020D2044B819FFF703FB1436642EF9D141F29448FD
S315020D2054C2F214284046FFF7F9FA41F2A849C2F230
S315020D206414294846FFF7F2FA41F26840C2F21420E7
S315020D2074FFF7ECFA41F2C430C2F21420FFF7E6FA86
S315020D208441F25040C2F21420FFF7E0FA41F28840C1
S315020D2094C2F21420C0F8008041F28C40C2F2142020
S315020D20A4C0F8009041F2BC30C2F21420016801312D
S315020D20B4016041F24C41C2F21421E06A0A6890426F
S315020D20C488BF086000EB800007EB80004068A060C3
S315020D20D48168E1604D608560E06A00EB800007EB84
S315020D20E48001616157F82010013147F82010FEF77F
S315020D20F47BFEDAF8000080B1DBF80000E16AC06A03
S315020D210488420AD24EF60450CEF200004FF08051A8
S315020D21140160BFF34F8FBFF36F8F204601B0BDE849
S315020D2124F08F43F65E1043F64A1243F28843C0F229
S315020D21340D20C0F20D22C0F20D2340F2F141FFF73C
S315020D214417F943F65E1043F64A1243F2D863C0F208
S315020D21540D20C0F20D22C0F20D2340F2F241FFF71B
S315020D216407F943F65E1043F64A1243F69943C0F253
S315020D21740D20C0F20D22C0F20D2340F2FA41FFF7F3
S315020D2184F7F843F65E1043F2F36243F26963C0F263
S315020D21940D20C0F20D22C0F20D2340F26471FFF739
S315020D21A4E7F841F2E030C2F2142001680131016010
S315020D21B470472DE9F04381B00E4641F2E431C2F285
S315020D21C414210D6841F28841C2F21421D1F800801E
S315020D21D441F28C4141F2B834C2F21421C2F21424F2
S315020D21E4D1F8009021680746081DFFF75AFA781CA4
S315020D21F416D1AEB141F25040C2F21420D0E900120A
S315020D2204236801319A6093682768FB60276804374F
S315020D22145F6023680433936022680160506117E09E
S315020D22242068ED194560206800F1040105D348467E
S315020D223401B0BDE8F043FFF717BA4046FFF714FAAB
S315020D224441F27C40C2F2142001688D4238BF05600A
S315020D225401B0BDE8F083D4D42DE9F047FEF799FD1C
S315020D226441F2E030C2F214200168002900F0AC807C
S315020D2274016801390160006828B10024FEF7B4FD36
S315020D22842046BDE8F08741F2DC30C2F21420006824
S315020D22940028F2D041F26840C2F21420016841F2DC
S315020D22A4644A41F2B8390029C2F2142AC2F2142937
S315020D22B464D041F24C4241F2E8330021C2F21422B7
S315020D22C4C2F214234FF0010CC768FC68D4E90775F2
S315020D22D4A66ABD60E7696F60776804F11805AF42B7
S315020D22E401D1276A7760A1623768013F3760D4E965
S315020D22F402656769B560A6686E607D68261DB5427E
S315020D230401D1E5687D6061613D68013D3D60E76A25
S315020D23141568AF4288BF176007EB870703EB87077C
S315020D23247F68A760BD68E5606E60BE60E76A07EB0D
S315020D2334870703EB8706666153F82760013643F870
S315020D23442760E76AD9F80060F66AB74288BFCAF809
S315020D235400C00768002FB7D141F28840C2F214209B
S315020D23640168096819B10068C068006801E04FF098
S315020D2374FF3041F27C41C2F21421086041F28448D5
S315020D2384C2F21428D8F8006056B1012400F032F9CD
S315020D239408B1CAF80040013EF8D10020C8F8000081
S315020D23A4DAF8000000283FF468AFD9F800004EF6BB
S315020D23B40450CEF200004FF080510160BFF34F8FEF
S315020D23C40124BFF36F8F59E743F65E1043F27A6227
S315020D23D443F6E123C0F20D20C0F20D22C0F20D2305
S315020D23E440F68B71FEF7C4FF80B580B141F2E03140
S315020D23F4C2F214210A6801320A600968012912D14E
S315020D24040021FFF7D6FEFFF727FF00B180BD4EF67A
S315020D24140450CEF200004FF080510160BFF34F8F8E
S315020D2424BFF36F8F80BD43F65E1043F6512243F61A
S315020D24345203C0F20D20C0F20D22C0F20D2340F656
S315020D24448E11FEF795FFD4D410B541F2E030C2F2E7
S315020D24541420006830B141F26440C2F21420012105
S315020D2464016010BD41F26440C2F21420002141F212
S315020D2474B8340160C2F21424206800682168096B1D
S315020D2484884204D8216820683431FEF7F1FA41F204
S315020D24944C4CC2F2142CDCF8001041F2E83301EB79
S315020D24A48102C2F2142353F8220003EB820228B9E5
S315020D24B499B152F8140D01390028F9D050684368C0
S315020D24C402F108008342536001D1D3685360D86880
S315020D24D42060CCF80010206810BD43F65E1043F25E
S315020D24E4754243F63543C0F20D20C0F20D22C0F2F9
S315020D24F40D2341F2FA31FEF73BFFB0B58AB044F231
S315020D25044940C4F24C500024069005A804A903AA16
S315020D25148DF81C40CDE90444FEF75AFBDDE9032090
S315020D2524059DCDE9004042F66970C0F20D2006A95B
S315020D253400230295FFF706FD41F28040C2F21420F4
S315020D2544056065B300F025FD012811D0013026D1B1
S315020D255443F65E1043F6CD2243F6BA03C0F20D20BE
S315020D2564C0F20D22C0F20D2340F6A961FEF700FF5B
S315020D257441F27C41C2F214214FF0FF32012080F365
S315020D258410880A6041F2C031C2F21421086041F288
S315020D2594E430C2F2142000210160FEF7B9FB43F6C2
S315020D25A4A870C0F20D2000680AB0B0BD70B541F234
S315020D25B4D834C2F214242068D0B141F2C43541F2A2
S315020D25C4DC36C2F21425C2F2142600BFFEF7E1FB75
S315020D25D4E868C0680430FFF764F830680138306083
S315020D25E4206801382060FEF7FFFB20680028EDD134
S315020D25F470BDD4D42DE9F04741F2E030C2F2142075
S315020D2604006848B141F28440C2F2142001680131D6
S315020D261401600020BDE8F08741F2E430C2F21420D5
S315020D2624016841F27C4C4A1CC2F2142C026022D37C
S315020D263441F28840C2F2142001680968002940F06B
S315020D26449F8041F28C43C2F2142301681F6807600E
S315020D2654196041F29041C2F214210B6801330B60E9
S315020D26640168096819B10068C068006801E04FF095
S315020D2674FF30CCF80000DCF80000824201D20020C3
S315020D268474E041F2884AC2F2142ADAF800004FF0D5
S315020D269400090068002864D041F24C4E41F2E83438
S315020D26A441F2B838C2F2142EC2F21424C2F214281C
S315020D26B4002000BFDAF80050ED68EE68374657F889
S315020D26C4045FAA4250D3D6E9021375698B60B168C9
S315020D26D459606968B94201D1F1686960C6F8149006
S315020D26E4296801392960B56A85B1D6E907138B6064
S315020D26F4F1695960696806F11803994201D1316A83
S315020D27046960C6F82890296801392960F56ADEF8E8
S315020D271400108D4205EB850188BFCEF8005004EBFF
S315020D272481014968B1608B68F3605F608F60F16AFD
S315020D273401EB810104EB8103736154F821300133FA
S315020D274444F82130F16AD8F80030DB6ADAF8005021
S315020D2754994288BF012029680029ABD14FF0FF3574
S315020D276402E04FF0FF350020CCF8005041F26441EF
S315020D2774C2F214210968002918BF0120BDE8F087A9
S315020D278443F65E1043F6FE0243F2FF33C0F20D200A
S315020D2794C0F20D22C0F20D2341F25F21FEF7E8FDD0
S315020D27A441F2E430C2F214200068704710B570B1DC
S315020D27B40C4641F2B831C2F2142109681831FEF7FA
S315020D27C453FF20460121BDE81040FFF7F2BC43F644
S315020D27D45E1043F6962243F66D03C0F20D20C0F247
S315020D27E40D22C0F20D234FF4A451FEF7C1FD10B50F
S315020D27F450B341F2B83CC2F2142C0346D0F804E0AD
S315020D2804DCF80000002AC0F81CE0DEF80800DCF84B
S315020D281400402062DCF8004004F118044460DCF840
S315020D2824000000F11800CEF80800DCF800008362FF
S315020D2834186818BF4FF0FF31441C084611461C6038
S315020D2844BDE81040FFF7B5BC43F65E1043F289624C
S315020D285443F66D03C0F20D20C0F20D22C0F20D2314
S315020D286441F2BE41FEF784FD80B5C068C0680028FA
S315020D287470D0D0E90713826A8B60C16959605368B7
S315020D288400F118018B4201D1036A5360002383625E
S315020D28941368013B136041F2E032C2F2142212684C
S315020D28A48AB141F2684CC2F2142CDCE900E2C2612F
S315020D28B493680362596091600EF10101C0F828C054
S315020D28C4CCF8001034E0D0E9021342698B608168BA
S315020D28D459605368011D8B4201D1C36853600023AD
S315020D28E44361136841F24C4C013B1360C2F2142C42
S315020D28F4C26ADCF800309A4288BFCCF8002041F255
S315020D2904E83C02EB8202C2F2142C0CEB82025268F0
S315020D291482609368C36059609160C16A01EB81015B
S315020D29240CEB810242615CF8212001324CF8212024
S315020D293441F2B831C2F21421C06A0968C96A8842E1
S315020D294491BF002041F26441C2F21421012088BFD5
S315020D2954086080BD43F65E1043F2A96243F29D53AD
S315020D2964C0F20D20C0F20D22C0F20D2341F2F54143
S315020D2974FEF7FEFC41F29041C2F214210968016090
S315020D298441F2E431C2F2142109684160704770B50F
S315020D299468B30D46D9B30446FEF7FBF941F2E43E9C
S315020D29A4C2F2142EDEF8003029684A1C16D041F202
S315020D29B4904CC2F2142CD4E90002DCF80060864273
S315020D29C401D093420CD29A1A914209D9881A2860D7
S315020D29D4DCF800002060DEF800006060002402E0EE
S315020D29E4002001242860FEF7FFF9204670BD43F648
S315020D29F45E1043F60C2243F20F63C0F20D20C0F2B1
S315020D2A040D22C0F20D2341F2A551FEF7B1FC43F698
S315020D2A145E1043F60C2243F26C73C0F20D20C0F223
S315020D2A240D22C0F20D2341F2A651FEF7A1FC41F28D
S315020D2A346440C2F2142001210160704741F2B8309C
S315020D2A44C2F214200068704741F2C030C2F214205B
S315020D2A54006850B141F2E030C2F214200068002839
S315020D2A644FF0000008BF022070470120704710B3D3
S315020D2A74F0B581B041F2B837C2F214270446C06AE2
S315020D2A843968C96A884218D2A169002904D43968F9
S315020D2A94C96AC1F10501A16141F2E836616900EB2A
S315020D2AA48000C2F2142606EB800081420ED03868ED
S315020D2AB4C06AE0622EE000207047606C3968C96A0C
S315020D2AC488424FF0000038BF012024E0251D284618
S315020D2AD4FEF7E7FD386841F24C41C06AC2F2142191
S315020D2AE4E0620A68904288BF086000EB800006EB3C
S315020D2AF480004068A0608168E1604D608560E06A8F
S315020D2B0400EB800006EB8001616156F8201001315D
S315020D2B1446F82010012001B0F0BDB0B5002840D012
S315020D2B24044641F2B830C2F21420006884423AD106
S315020D2B34A06C002847D00138A0644FF0000018BFDE
S315020D2B44B0BDE16A626C91422AD0251D2846FEF774
S315020D2B54A8FD606CC0F10501A16141F24C41E06230
S315020D2B64C2F214210A68904288BF086041F2E83124
S315020D2B7400EB8000C2F2142101EB80004068A060D4
S315020D2B848268E26055608560E06A00EB800001EBC5
S315020D2B948002626151F82020013241F82020012081
S315020D2BA4B0BD0020B0BD43F65E1043F6280243F2D3
S315020D2BB41963C0F20D20C0F20D22C0F20D2341F6A7
S315020D2BC42821FEF7D5FB43F65E1043F6280243F69B
S315020D2BD4FC23C0F20D20C0F20D22C0F20D2341F6E4
S315020D2BE42921FEF7C5FB70B528B30446806C00286F
S315020D2BF445D0626C8A4288BF114601281BD1E06A10
S315020D2C04884218D041F2B832C2F2142212689442A2
S315020D2C1445D0A269E162002A02D4C1F10501A1617E
S315020D2C2441F2E836616900EB8000C2F2142606EB26
S315020D2C348000814200D070BD251D2846FEF731FD68
S315020D2C4441F24C41C2F21421E06A0A68904288BFED
S315020D2C54086000EB800006EB80004068A060816886
S315020D2C64E1604D608560E06A00EB800006EB800151
S315020D2C74616156F82010013146F8201070BD43F6F5
S315020D2C845E1043F2456243F6FC23C0F20D20C0F2F8
S315020D2C940D22C0F20D2341F68621FEF769FB43F69A
S315020D2CA45E1043F2456243F65C23C0F20D20C0F278
S315020D2CB40D22C0F20D2341F6A121FEF759FB41F275
S315020D2CC4B830C2F21420006810B1816C01318164EE
S315020D2CD470472DE9F041002853D141F2E030C2F29A
S315020D2CE414200E4601681D46013101609046FEF719
S315020D2CF450F841F2B834C2F21424206890F86400F4
S315020D2D04022802D1FEF770F81EE02068069F016EB6
S315020D2D14B14301662068012180F86410FEF764F858
S315020D2D2497B138460121FFF744FAFFF795FA68B9C8
S315020D2D344EF60450CEF200004FF080510160BFF3FF
S315020D2D444F8FBFF36F8F01E0FFF786FAFEF721F877
S315020D2D5415B12068006E28602068002590F864106D
S315020D2D640020022905D1216801250A6E22EA0802EC
S315020D2D740A66216881F86400FEF736F82846BDE82E
S315020D2D84F08143F65E1043F2F77243F22F63C0F2FB
S315020D2D940D20C0F20D22C0F20D2341F62F61FEF76E
S315020D2DA4E7FAD4D4F0B581B0002800F09B8000294F
S315020D2DB440F0A880069F1E4615460446FEF77AF88D
S315020D2DC4EFF31181102080F311880FB1206E386054
S315020D2DD494F864000222042E84F8642011D8DFE8E4
S315020D2DE406F018030C0A0600226E2A4307E002288F
S315020D2DF401D1002072E025660BE0226E01322266B5
S315020D2E0407E041F2E432C2F214221268002A40F0BB
S315020D2E149980012861D1A06A002840F0838041F28D
S315020D2E24E030C2F21420006880B141F26840C2F269
S315020D2E341420D0E9002304F11806E3619F680132D8
S315020D2E4427627E609E60A062026032E0D4E90203CC
S315020D2E5462698360A06858605368201D834201D15C
S315020D2E64E3685360002363611368013B136041F207
S315020D2E744C43C2F21423E26A1F68BA4288BF1A602F
S315020D2E8441F2E83302EB8202C2F2142303EB82020D
S315020D2E945268A2609768E76078609060E06A00EB1A
S315020D2EA4800003EB8002626153F82020013243F85D
S315020D2EB4202041F2B832C2F21422E06A1268D26AB2
S315020D2EC490420AD9079808B10122026041F264427E
S315020D2ED4C2F214220120106000E0012081F3118850
S315020D2EE401B0F0BD43F65E1043F6AC2243F6111360
S315020D2EF4C0F20D20C0F20D22C0F20D2341F61E7151
S315020D2F04FEF736FA43F65E1043F6AC2243F2C2637B
S315020D2F14C0F20D20C0F20D22C0F20D2341F61F712F
S315020D2F24FEF726FA43F65E1043F6AC2243F6E13378
S315020D2F34C0F20D20C0F20D22C0F20D2341F67471BA
S315020D2F44FEF716FA43F65E1043F6AC2243F68913E0
S315020D2F54C0F20D20C0F20D22C0F20D2341F66971A5
S315020D2F64FEF706FA41F2E8344EF60455C2F214247B
S315020D2F74CEF200054FF08056FFF718FB20680228A3
S315020D2F8422BF2E60BFF34F8FBFF36F8FFDF786FF00
S315020D2F94F2E780B586B000F03BF841F2BC40C2F2CE
S315020D2FA41420006820B30020CDE9040005A804A965
S315020D2FB403AAFDF71AFEDDE903200321DDF814C089
S315020D2FC4CDE9001043F2910043F6AE31C0F20D2065
S315020D2FD4C0F20D210023CDF808C0FEF7B3FF41F26E
S315020D2FE4C041C2F21421086010B1012006B080BDA1
S315020D2FF443F2A54043F61F4243F27A73C0F20D2003
S315020D3004C0F20D22C0F20D234FF4A371FEF7B0F9EF
S315020D301470B582B0FDF7BDFE41F2BC46C2F214266E
S315020D3024306868BB41F2D044C2F214242046FEF73E
S315020D30340DFB41F2E445C2F214252846FEF706FBC2
S315020D304441F2C440C2F21420046041F2C840C2F2F5
S315020D3054142041F2405241F2F84305600025C2F2B2
S315020D30641422C2F214230A200C210095FEF789FBC1
S315020D3074306028B143F2FB41C0F20D21FEF70CFF7D
S315020D308402B0BDE87040FDF7AFBED4D484B041F2B0
S315020D3094C44841F2BC45C2F2142801ACC2F214254D
S315020D30A44FF0000BEA4600BFD8F80000D0F80090A6
S315020D30B4B9F1000F02D0C068066800E00026FFF7DA
S315020D30C470F8204600F0A2F8019919B1FFF7C4F879
S315020D30D42EE000BF0746B9F1000F08D0BE4206D84E
S315020D30E4FFF7BAF83046394600F0BBF820E0B9F1DD
S315020D30F4000F01D0002208E041F2C840C2F21420AA
S315020D310400680068B0FA80F042092868F11BFEF7E0
S315020D3114F6FEFFF7A1F858B94EF60450CEF20000AA
S315020D31244FF080510160BFF34F8FBFF36F8F00BF16
S315020D31342868CDE902BBCDF804B000BF21460022B2
S315020D3144FEF7E6FC0028AFD0019800284CD4039E66
S315020D3154706910B1301DFEF7A4FA504600F056F808
S315020D31640199013908293FD80746DFE801F005051B
S315020D31741C231C05051C230096F82400029BB16929
S315020D318440F0010086F82400194430463A4600F010
S315020D3194A0F848B396F8240041071BD400F0FA00B0
S315020D31A486F824001DE096F8240000F0FE0086F849
S315020D31B4240019E096F8240040F00101029886F8DD
S315020D31C42410B06190B1C11930463A463B4600F01F
S315020D31D480F809E00298B1693A460144304600F096
S315020D31E461F8316A304688472868A7E743F2A54055
S315020D31F443F6113243F6B243C0F20D20C0F20D224C
S315020D3204C0F20D234FF48261FEF7B2F8F0B581B028
S315020D32140446FFF7C5FA41F2CC46C2F214263168CA
S315020D3224054688420ED241F2C447C2F2142700BFA4
S315020D32343868016841B1C0684FF0FF31006800F08B
S315020D324410F8F5E7002007E041F2C841C2F2142155
S315020D32540A68086001203A6020602846356001B08C
S315020D3264F0BD70B541F2C442C2F21422126806468A
S315020D3274D2680D46D468201DFEF713FA94F824007D
S315020D3284410704D400F0FA0084F8240004E0204631
S315020D329431462A4600F006F8216A2046BDE87040FA
S315020D32A40847D4D470B50546806914460E460144C2
S315020D32B4284600BF334600F00CF848B1A869296ABE
S315020D32C4064428468847A869224681192846F1E705
S315020D32D470BD8C46014641F804CF9445006108D968
S315020D32E441F2C4409A42C2F214200AD29C4508D332
S315020D32F40DE08069D21A824209D241F2C840C2F265
S315020D3304142080B50068FEF7AFF9002080BD0120B8
S315020D331470470B4611461A4600F00DB80A460021AF
S315020D332400F009B810B500239A4203D0CC5CC454FC
S315020D33340133F9E710BD00239A4208BF7047C15401
S315020D33440133F9E710B505490446054AFFF7EAFFC5
S315020D3354044805492044FFF7E1FF10BD44000D0260
S315020D33640000000000000000000000000249401A9F
S315020D337402490860704700BF08000000B815142200
S315020D3384000000000000545452205245474745534D
S315020D3394007578437269746963616C4E65737469F9
S315020D33A46E6700765175657565416464546F526531
S315020D33B46769737472790049706320546872656122
S315020D33C464002E2E2F72612F6673702F7372632F04
S315020D33D4726D5F6672656572746F735F706F727408
S315020D33E42F706F72742E630076506F7274456E74FD
S315020D33F46572437269746963616C002820282028FA
S315020D3404202820707844656C617965645461736B08
S315020D34144C69737420292D3E75784E756D626572ED
S315020D34244F664974656D73203D3D202820554261D2
S315020D34347365547970655F74202920302029203FE5
S315020D3444202820282042617365547970655F7420A3
S315020D34542920312029203A2028202820426173650B
S315020D3464547970655F74202920302029202920295A
S315020D347400765461736B537769746368436F6E7424
S315020D348465787400707578537461636B42756666FC
S315020D3494657220213D202828766F69642A293029F0
S315020D34A4002E2E2F72612F6177732F467265655228
S315020D34B4544F532F4672656552544F532F536F759E
S315020D34C47263652F74696D6572732E63005B435067
S315020D34D455315D2052545420696E697469616C6963
S315020D34E47A65640D0A0075635356434E756D6265AE
S315020D34F472203C3D203300546D725100785175652E
S315020D3504756547656E6572696353656E6400212838
S315020D3514202820785461736B476574536368656418
S315020D3524756C657253746174652829203D3D202896
S315020D353420282042617365547970655F74202920B1
S315020D35443020292029202626202820785469636BC9
S315020D355473546F5761697420213D20302029202927
S315020D3564005F5F4E5649435F4765745072696F72C9
S315020D357469747947726F7570696E672829203C3DA7
S315020D3584202838202D203429202D20310028207082
S315020D35947851756575652029007078556E626C6F64
S315020D35A4636B656454434200707853746174696342
S315020D35B45175657565007848616E646C65002128E0
S315020D35C420282078436F7079506F736974696F6E12
S315020D35D4203D3D202820282042617365547970656B
S315020D35E45F742029203220292029202626202820EE
S315020D35F4707851756575652D3E75784C656E677473
S315020D36046820213D20312029202900707854696DC6
S315020D3614654F7574007078544342203D3D20707891
S315020D362443757272656E74544342007578496E64BD
S315020D36346578546F576169744F6E203C2028312981
S315020D364400765461736B5072696F72697479446949
S315020D365473696E6865726974416674657254696DCF
S315020D3664656F75740075785072696F726974792015
S315020D36743C2028352900785461736B526573756D38
S315020D368465416C6C00765461736B506C6163654F66
S315020D36946E4576656E744C6973745265737472698C
S315020D36A46374656400785461736B52656D6F7665E8
S315020D36B446726F6D4576656E744C697374007578D2
S315020D36C4496E646578546F4E6F74696679203C2031
S315020D36D42831290070785461736B4275666665727A
S315020D36E420213D202828766F69642A293029007005
S315020D36F47276496E697469616C6973654E65775440
S315020D370461736B00284E554C4C29005B4350553161
S315020D37145D2054583D253038582052583D253038B1
S315020D3724582054585F434E543D25752052585F43D5
S315020D37344E543D25752054494D454F55543D2575D9
S315020D37442050524F544F5F4552523D2575204653D4
S315020D3754505F4552523D257520535441434B5F4F9D
S315020D376456463D25750D0A0070785469636B73547C
S315020D37746F57616974007852657475726E002828E4
S315020D3784285343425F54797065202A29202828300C
S315020D3794784530303045303030554C29202B203089
S315020D37A47830443030554C2920292D3E4943535205
S315020D37B4202620283078314646554C202929203D8D
S315020D37C43D2030007853697A65203D3D2073697A30
S315020D37D4656F66282051756575655F7420290078B5
S315020D37E4517565756553656D6170686F7265546162
S315020D37F46B6500785461736B47656E657269634ECA
S315020D38046F74696679576169740078517565756562
S315020D381447656E6572696343726561746553746156
S315020D382474696300785461736B5072696F7269744B
S315020D383479446973696E68657269740076506F723C
S315020D38447453564348616E646C65725F43007578B2
S315020D38545363686564756C657253757370656E64CE
S315020D38646564203D3D2031550070784576656E744C
S315020D38744C697374005B435055315D20435055308A
S315020D3884205348415245445F4D454D207061747431
S315020D389465726E204641494C20494E4445583D2594
S315020D38A475204558503D25303258204143543D2507
S315020D38B43032580D0A007852657475726E20213DA8
S315020D38C42028202D3120290078517565756543729E
S315020D38D465617465436F756E74696E6753656D6163
S315020D38E470686F7265537461746963007851756596
S315020D38F475655265636569766500785461736B49BE
S315020D39046E6372656D656E745469636B007854618A
S315020D3914736B546F4E6F74696679002E2E2F726116
S315020D39242F6177732F4672656552544F532F467224
S315020D3934656552544F532F536F757263652F7175A7
S315020D39446575652E6300707276437265617465538F
S315020D395474617469635461736B002E2E2F72612F19
S315020D39646177732F4672656552544F532F467265AE
S315020D39746552544F532F536F757263652F7461736A
S315020D39846B732E6300785469636B436F756E742083
S315020D39943D3D2028205469636B547970655F74200C
S315020D39A42920300070784E6577517565756500214D
S315020D39B4282028202820707642756666657220298D
S315020D39C4203D3D202828766F69642A29302920292D
S315020D39D420262620282028207078517565756520A5
S315020D39E4292D3E75784974656D53697A6520213D95
S315020D39F42028205542617365547970655F742029B8
S315020D3A042030552029202900785461736B4368654B
S315020D3A14636B466F7254696D654F757400546572A6
S315020D3A246D696E616C0076506F727456616C696461
S315020D3A34617465496E746572727570745072696FCC
S315020D3A44726974790070785175657565007654617D
S315020D3A54736B44656C617900707854434220213D41
S315020D3A6420707843757272656E74544342007852AF
S315020D3A74657475726E20213D202820282028204247
S315020D3A84617365547970655F74202920302029206D
S315020D3A942900765461736B506C6163654F6E45767E
S315020D3AA4656E744C69737400785461736B47656EF5
S315020D3AB4657269634E6F7469667946726F6D4953A1
S315020D3AC4520078517565756500765461736B53743E
S315020D3AD46172745363686564756C657200757853A7
S315020D3AE463686564756C657253757370656E64652A
S315020D3AF46420213D2030550070785443422D3E7585
S315020D3B04784D75746578657348656C640070727664
S315020D3B1450726F6365737352656365697665644343
S315020D3B246F6D6D616E6473005B435055315D204359
S315020D3B34505530205348415245445F4D454D2070F2
S315020D3B4461747465726E20504153532C20726573E1
S315020D3B54706F6E7365207075626C69736865640D3A
S315020D3B640A00756C43757272656E745072696F7262
S315020D3B74697479203E3D2028282828312929203C9C
S315020D3B843C202838202D2034292929203E3E202860
S315020D3B9438202D2034290078517565756547656E73
S315020D3BA465726963526573657400546D722053763A
S315020D3BB4630076506F7274457869744372697469D9
S315020D3BC463616C00707851756575652D3E7578491E
S315020D3BD474656D53697A65203D3D20300028202891
S315020D3BE42026282070785443422D3E784576656EFC
S315020D3BF4744C6973744974656D202920292D3E70A0
S315020D3C0478436F6E7461696E65722029203D3D207D
S315020D3C142828766F69642A293029007854696D65D6
S315020D3C247243726561746554696D65725461736B21
S315020D3C34007578546F705072696F726974790021C8
S315020D3C442820282070764974656D546F51756575F3
S315020D3C5465203D3D202828766F69642A293029205E
S315020D3C6429202626202820707851756575652D3EE6
S315020D3C7475784974656D53697A6520213D2028202E
S315020D3C845542617365547970655F742029203055E8
S315020D3C9420292029007853697A65203D3D207369D0
S315020D3CA47A656F6628205443425F742029002820C2
S315020D3CB4707854696D65722D3E7854696D657250CE
S315020D3CC46572696F64496E5469636B73203E203065
S315020D3CD420290030313233343536373839414243AF
S315020D3CE4444546D40100000000050000AB060D0252
S315020D3CF4000000002C0D1422E83C0D02343D0D0289
S315020D3D0400000000DFFF00000000000000000000BC
S315020D3D14480D1422043D0D02343D0D02000000002F
S315020D3D240000000000000000000000005C00D4D476
S315020D3D34250F0D02B70F0D02C70F0D02CF0F0D0280
S315020D3D44DD0F0D02020403040404D4D40000A0689A
S315020D3D540000A068000000880000008800000074BE
S315020D3D640000007400001422000014220B0000004F
S315020D3D74883D0D02190000000C3E0D0204000000E0
S315020D3D84503D0D020000A0680000A0680001000D60
S315020D3D940000A0680000A0680001000D0000008864
S315020D3DA40000008800010008000000880000008859
S315020D3DB40001000800000074000000740001000AEE
S315020D3DC400000074000000740001000A00000000E7
S315020D3DD40000000000000006000000200000002084
S315020D3DE40000000700001422000014220000000344
S315020D3DF42C041422BC15142200000003BC15142233
S315020D3E04BC151422000000030000A0680000A0687F
S315020D3E14000000980001090D0000A0680000A068CA
S315020D3E240000007C00010B0D0000A0680000A068D4
S315020D3E34000000270001020D0000A0680000A06822
S315020D3E4444000D020001010D0000008800000088E7
S315020D3E54000000980001090800000088000000888F
S315020D3E640000007C00010B08000000880000008899
S315020D3E7400000027000102080000008800000088E7
S315020D3E8444000D02000101080000007400000074D4
S315020D3E94000000980001090A000000740000007475
S315020D3EA40000007C00010B0A00000074000000747F
S315020D3EB4000000270001020A0000007400000074CD
S315020D3EC444000D020001010A00000000000000007A
S315020D3ED40000009800010906000000000000000021
S315020D3EE40000007C00010B0600000000000000002B
S315020D3EF4000000270000020600000000000000007A
S315020D3F0444000D02000001060000002000000020FE
S315020D3F14000000980001090700000020000000209F
S315020D3F240000007C00010B070000002000000020A9
S315020D3F3400000027000002070000002000000020F8
S315020D3F4444000D0200000107000014220000142291
S315020D3F540000009800010903000014220000142237
S315020D3F640000007C00010B03000014220000142241
S315020D3F740000002700000203000014220000142290
S315020D3F8444000D0200000103BC151422BC151422B3
S315020D3F9444000D0200000103010002000800100096
S315020D3FA42000D4D40400000000000506362E352E5A
S315020D3FB430004275696C7420776974682052656E97
S315020D3FC46573617320416476616E63656420466C24
S315020D3FD4657869626C6520536F66747761726520C4
S315020D3FE45061636B6167652076657273696F6E20C6
S30B020D3FF4362E352E3000BB
S705020D152DA9
