S01C00004475616C436F726550726F6A6563745F435055302E73726563AB
S315020000006004002291340002B13200029B340002E5
S315020000109B3400029B3400029B3400029B34000294
S31502000020000000000000000000000000A51200020F
S315020000309B34000200000000BD12000225130002DC
S31502000040332100020923000271240002592500020D
S31502000050CF1500029B1600021B170002FB170002B7
S309020000606D1900020C
S315020000700100000000000000000000000000000077
S315020000800000080000000000000000000000000060
S315020000900000100800000000000000000000000040
S315020000A010B540F28C44A821C2F20024204605F085
S315020000B0F3F903202061606145F6DB4040F23451DA
S315020000C0C0F20020A061C2F20021E1614FF400619A
S315020000D021620021A1626162E16240F63452206629
S315020000E04FF0100E45F2FC40C2F200226266C4F8DE
S315020000F068E02167E1666167BFF35F8FC0F20020A7
S315020001000F3000BF00BF00BF10F8011904F8011B31
S315020001100FF007C0BFF35F8F10BDD4D4D4D4D4D4AC
S315020001202DE9F04381B014460D468046C7684FF06C
S31502000130000900BF00BF00BFD8F81000FA43B8425A
S3150200014006D91044D8F8081006E000BF00BF00BF69
S31502000150D8F8081010440844C91B884250EA318076
S315020001602946A04250EA3486D8F80400384432467A
S3150200017005F096F9F019D8F80810411AA4EB06040E
S3150200018050EA1187B1443544BFF35F8FC8F80C704B
S315020001900CB12FF02FC8484601B0BDE8F0832DE917
S315020001A0F04381B000EB400040F28C43C2F20023E0
S315020001B0144603EBC003894603F11805D86A0228E0
S315020001C012D0012808D000283ED1EE682869F143F2
S315020001D0B04234D9084435E0EE682969B1420BD9F8
S315020001E0F0430144A8680BE028464946224601B07E
S315020001F0BDE8F043FFF794BFF243A86811440144F7
S31502000200A14251EA3484871B68683044BC4207D253
S315020002104946224605F044F9BFF35F8F26440CE0B7
S3150200022049463A4605F03CF9E61B686809EB0701C0
S31502000230324605F035F9BFF35F8FEE6025E0AA6816
S3150200024008441044A04201D200241EE0D5E901016F
S315020002508F1B3044BC4208D24946224605F020F99B
S31502000260BFF35F8F06EB04080DE049463A4605F0F8
S3150200027017F9A4EB0708686809EB0701424605F07F
S315020002800FF9BFF35F8FC5F80C80204601B0BDE8B9
S31502000290F083F0B581B040F28C431446C2F20023DB
S315020002A00D4606461B78532B01D0FFF7F9FEEFF3F6
S315020002B011874FF0200181F31188304629462246E4
S315020002C0FFF76DFF87F3118801B0F0BDFFF7E8BEB7
S315020002D02DE9F04F9BB091460F46002406A91691D0
S315020002E040211791002105901A90CDE9181100BFFF
S315020002F017F8011B252907D0002900F06F8116A8DF
S3150200030000F07BF9E5E000BF4FF0000800BF00BF38
S3150200031039782C2908DC23290ED02B2918D1042060
S315020003200FE000BF00BF00BF2D2909D030290FD131
S31502000330022006E000BF00BF082002E000BF00BFA7
S31502000340012048EA00080137E2E700BF00BF00BF0C
S31502000350A1F13A0010F10A0F02D2002012E000BF0A
S3150200036000200A4600BF00BF17F8011F00EB8000FD
S31502000370A1F13A0302EB400013F10B0FA0F130009A
S315020003800A46F1D82E290FD13A4612F8011F2A2918
S315020003900DD1D9F8001002370A1DC9F800200E68DF
S315020003A001211DE000BF00BF0021002618E0A1F1D7
S315020003B03A0313F10A0F02D2002100260FE00026AB
S315020003C012F8013F06EB8607A3F13A0601EB470155
S315020003D016F10B0FA1F130061946F1D80121174685
S315020003E017F8012B02F0FB03682BF9D0632A0FDC06
S315020003F0252A2ED0582A24D0632A6AD1D9F8000099
S31502000400011DC9F80010017879E700BF00BF00BFDF
S31502000410A2F17003082B1ED8DFE803F0055B5B61CF
S315020004205B4E5B5B1300D9F800001022011DC9F870
S3150200043000100168082300200826CDE9006016A8EE
S3150200044045E0D9F800100A1DC9F8002009681022F3
S3150200045039E0252153E7642A3BD1D9F800104CF63E
S31502000460CD4C0A1DC9F80020D1F800E0CCF6CC4CE0
S31502000470CEF100017246BEF1000F48BF0A460A2AB3
S3150200048003914FF0010107DBA2FB0C35632A01F150
S3150200049001014FEAD502F7D88E4256EA818B00282F
S315020004A040D0BEF1000F5FEA5F9108F0040241EA14
S315020004B09201A0EB010A37E0D9F800100A1DC9F82B
S315020004C0002009680A22CDE9000816A8334600F082
S315020004D0B7F8199CB4F1FF3F3FF70AAF89E0D9F8A4
S315020004E00000021DC9F80020006845F66C120028BB
S315020004F0C0F2002250EA12855FEA018800BF00BFFF
S315020005002978002E5FEA18800029E2D00028E0D17F
S3150200051016A8013500F071F8199C013EB4F1FF3FAF
S31502000520EEDC66E04FF0000A5FEA88750CD55EB92C
S31502000530002CCED4BEF1000F29D45FEA4870CDF864
S3150200054010E02DD52B2125E05FEAC870F0D1BAF173
S31502000550000FEDD0D345EBD20295CDF810E0AAF10B
S31502000560010500BF00BF00BF202116A800F045F814
S31502000570199C002C3DD4681EA84202D2AB45054602
S31502000580F2D300F1010ADDF810E0029DD0E72D2139
S315020005900398049016A800F030F8199C002C28D471
S315020005A0002D05D40A22CDE900A816A804998DE7E4
S315020005B008F001003043F5D1BAF1000FF2D0AAF1EA
S315020005C00105554538BFD345ECD2302116A800F0B7
S315020005D014F8199CAA46002CF1D50AE044B1189DDC
S315020005E025B106A905982A46FFF753FE2C4400E0DA
S315020005F0002420461BB0BDE8F08F10B50446D0E9B2
S315020006000120431C934207D822681154A360E06874
S3150200061062680130E0601846904218BF10BD21683A
S315020006202069FFF736FEA168884202D10020A06049
S3150200063010BD4FF0FF30E06010BDD4D4D4D4D4D472
S315020006402DE9F04F81B015460E4691421F4681466E
S31502000650DDF828B04FF0010007D3314600BF00BFD6
S31502000660B1FBF5F10130A942FAD2874257EA808AF4
S31502000670BBF1000F0B991BD011F0010018D18807AE
S315020006804FF0200048BF30202021002F50EA018879
S31502000690BBF1000F0CD0DA450AD248464146ABF10F
S315020006A0010BFFF7AAFFD9F80C00B0F1FF3FEFDC10
S315020006B0D9F80C0000283CD4012400BF00BF00BFBB
S315020006C0022F01D3013F03E0B6FBF4F0A84201D3A7
S315020006D06C43F5E746F22008C0F2002800BF00BFCF
S315020006E0B6FBF4F7484618F80710FFF786FFD9F865
S315020006F00C00002806D4B4FBF5F007FB1466A542ED
S315020007000446EDD90B98C00718BFBBF1000F0AD1FA
S315020007100FE020214846FFF770FFD9F80C00A346E8
S31502000720B0F1FF3F05DDABF101045C4538BFDA45A8
S31502000730EFD301B0BDE8F08F2DE9F04F81B040F65E
S31502000740445540F6455640F6465940F6485740F657
S315020007504C58C2F20025C2F20026C2F20029C2F2A9
S315020007600027C2F20028002028703070A9F8000085
S315020007703860C8F8000040F6BC5046F27801C2F272
S315020007800020C0F2002101F023FA08B13860B1E07E
S3150200079040F6BC503C21C2F20020012201F0A2FA2E
S315020007A0002840F0888041F22444EFF31080C2F220
S315020007B00024012181F3108840F6145A2168C4F2FC
S315020007C0400A29B900218AF8001040218AF800104F
S315020007D021684FF6D04B01312160CFF6FF7B80F3C3
S315020007E0108843F6FA71CFF6FE715AF80B000840EC
S315020007F0012104304AF80B00EFF3108081F31088D0
S31502000800216811B1216801392160216829B90021C5
S315020008108AF8001080218AF8001080F310881420CC
S315020008204FF47A7102F001FD0121EFF3108081F39A
S315020008301088216829B900218AF8001040218AF817
S31502000840001021680131216080F3108843F6FA71A5
S315020008505AF80B00CFF6FE710840012140F0050060
S315020008604AF80B00EFF3108081F31088216811B16A
S31502000870216801392160216829B900218AF800100E
S3150200088080218AF8001080F3108814204FF47A71C0
S3150200089002F0CBFC40F6445143F20A00C2F20021B8
S315020008A000F02CF838B940F6455143F20B00C2F27B
S315020008B0002100F023F804462878317841EA002026
S315020008C0A9F8000040F6BC50C2F2002001F00FFA6F
S315020008D0002850EA1480002C50EA0480386048B997
S315020008E0B9F8000045F24061884203D10120C8F8F8
S315020008F0000000E0002001B0BDE8F08F69B3B0B59A
S3150200090082B040F230050C46C2F2002530218DF845
S3150200091006108DF807000020287040F6BC500DF135
S315020009200601C2F200200222012301F0D5F990B994
S31502000930032000F01DF870B90020287040F6BC5064
S315020009400122C2F200200023214601F0BFF910B9AC
S31502000950022000F00DF802B0B0BD0120704728B1A8
S3150200096040F230010079C2F2002108707047D4D4F7
S3150200097070B540F23005C2F200252978884213D0BC
S3150200098047F65F160446CFF6FE7600BF00BF00BFED
S31502000990287801280AD001360BD20A20012102F05A
S315020009A044FC28788442F3D1002070BD4FF496703F
S315020009B070BD142070BD022818BF704780B540F67E
S315020009C0A45046F23451C2F20020C0F2002101F0D6
S315020009D01EF80120BDE8804002F0F6BC80B584B066
S315020009E04FF00001039190B340F664528168C2F25F
S315020009F00022B1F5803F116029D1426840F65C5071
S31502000A00C2F20020026040F65050C2F20020016895
S31502000A100131016040F69C50C2F200200068B0B17C
S31502000A20002103230DF10C0C4FF0000ECDE900EC72
S31502000A3004F066FA039850B14EF604504FF0805116
S31502000A40CEF200000160BFF34F8FBFF36F8F04B089
S31502000A5080BDD4D4D4D4D4D488B0FFF737FC45F6BD
S31502000A600350C0F2002000F03EFB40F6785840F6F4
S31502000A707C5940F6805B40F68450C2F20028C2F2EE
S31502000A800029C2F2002BC2F2002046F2300745F6D8
S31502000A90BC040026C0F20027C0F200244FF4800AEC
S31502000AA0C8F80060C9F80060CBF80060066057F825
S31502000AB026502046294600F016FB4AF001E04FF088
S31502000AC0D04000BF00BF00BF40F8045B0FF005C076
S31502000AD0BFF34F8F4FF0D0404FF480024FF0D04318
S31502000AE050F8041BA94240F08C81013A03F1040339
S31502000AF0F6D10136042EDAD145F2B470C0F20020E6
S31502000B0000F0F1FA4FF4800E4FF0D0404FF0D04192
S31502000B1041F8040B04300FF005C8BFF34F8F4FF4B2
S31502000B2080024FF0D0404FF0D04300BF00BF00BF5D
S31502000B3053F8041B884240F07C81013A00F104001C
S31502000B40F6D145F62C60C0F2002000F0CCFA4FF444
S31502000B50800E4FF0D0406FF0D04100BF00BF00BF03
S31502000B6040F8041B04390FF005C8BFF34F8F4FF44A
S31502000B7080004FF0D0424FF0184300BF00BF00BFC5
S31502000B8052F8041B5F1E8F4240F058810138A3F1D0
S31502000B900403F5D145F6BE5048F2203649F6DF3A4F
S31502000BA0C0F20020CEF6B856C1F2573A00F09BFAD0
S31502000BB04FF0FF3000210825544600BF00BF00BF9A
S31502000BC084EA44334FF0D042002783EA534383EA50
S31502000BD0431442F821402346DAB245F001E0504080
S31502000BE0024686EA50005FEAC27C08BF50080FF050
S31502000BF009C801371B0A042FEED10131B1F5800F66
S31502000C00DED1BFF34F8F4FF0FF310022082400BF21
S31502000C104FF0D043002553F8227000BF00BF00BF3B
S31502000C20FBB244F001E059400B4686EA51015FEA05
S31502000C30C37C08BF59080FF009C801353F0A042DC5
S31502000C40EED10132B2F5800FE2D181426FEA0101A3
S31502000C5040F0FA8040F684520120C2F2002210606F
S31502000C6045F62630C0F2002000F03DFA45F61C504B
S31502000C70C0F2002000F037FA40F6885040F2000930
S31502000C8040F68C5A40F6905B40F6945840F69851DE
S31502000C90C2F20020C6F68009C2F2002AC2F2002B76
S31502000CA0C2F20028C2F20021B9F1D14FC0F8009079
S31502000CB04FF00002CAF80020CBF80020C8F8002046
S31502000CC00A60C0F0DE80012309F14002C6F6A003E5
S31502000CD09A4280F0D68044F631530022C5F2483358
S31502000CE0C9F80820C9F800300123C9F80430C9F848
S31502000CF00C30C9F810304FF0200EC9F814E0C9F8CC
S31502000D001C2009F120072523069702FB03F5013271
S31502000D1085F0A50507F8015B0FF009C84FF0FF3211
S31502000D200023082709EB030595F8205047F001E058
S31502000D306A4000BF00BF00BF154686EA5202EC07B2
S31502000D4008BF6A080FF009C00133202BEAD1D2434B
S31502000D50C9F81820BFF35F8F0222C9F80820BFF333
S31502000D604F8F01220A60016845F28F60C0F20020AF
S31502000D70402200F0B8F9FFF7DFFC40F646510028A2
S31502000D80C2F20021098800F0988045F66520C0F27B
S31502000D90002000F0A8F945F60140C0F2002000F05C
S31502000DA0A2F94FF244000021C4F20000C0F20D2164
S31502000DB00160002101744AF20151018445F689104D
S31502000DC0C0F2002000F08FF903F0E9FE46F2CC01F2
S31502000DD040F69C52C0F20021C2F200228B681060DB
S31502000DE0D1E900011A689047002876D040F668518A
S31502000DF0C2F20021086000BF4FF47A7003F096FB3E
S31502000E00FAE7C8F80030C9F80050CBF8001045F2EE
S31502000E104960D8F80010D9F80020DBF80030C0F29B
S31502000E20002000F060F900BF4FF47A7003F07EFBF9
S31502000E30FAE7C8F80000C9F80000E6E75842C8F821
S31502000E400000C9F80070E0E7C0434FF0D0424FF40B
S31502000E5080034FF0D0478AEA4A3686EA564686EA41
S31502000E60461A3E68564506D1013B07F1040702F1D0
S31502000E700402F0D1DFE7C8F80020C9F800A03968FB
S31502000E80C3E74FF0D141CBF80010C8F800900168D3
S31502000E9045F6BE60DAF80020DBF80030C0F200202A
S31502000EA0D8F80070009700F01EF900BF00BF00BF1F
S31502000EB04FF47A7003F03AFBFAE740F64850C2F272
S31502000EC00020026845F69330C0F2002000F00BF9CC
S31502000ED04FF47A7003F02AFBFAE746F2B001C0F249
S31502000EE0002113C922680590904750B140F6685117
S31502000EF0C2F20021086000BF4FF47A7003F016FBBD
S31502000F00FAE708250494002000214FF0FF324FF043
S31502000F10FF33009307AB079003F08AFF0128F2D153
S31502000F20079F07F07F40B0F1214F4BD140F6A0500A
S31502000F30C2F20020007800284CD0A220626860F33A
S31502000F401F6705983946904740F66851C2F200215C
S31502000F50086008B12FF029C840F6605240F668547E
S31502000F60C2F20022C2F20024176040F65457C2F2BF
S31502000F70002738680130386040F65C50C2F2002023
S31502000F80016840F65050C2F2002012680368D7F892
S31502000F9000E040F6585740F67450C2F20027C2F2FB
S31502000FA000203F682468D0F800C045F68920C0F2C8
S31502000FB00020CDE900E70294049CCDF80CC000F0B5
S31502000FC092F8A0E740F65851C2F2002108680130B3
S31502000FD0086098E744F63151BFF35F8FC5F2483196
S31502000FE0D9F80000884204BFD9F80400012858D174
S31502000FF0D9F80800042804BFD9F80C00002850D1FB
S31502001000D9F81000012804BFD9F81400202848D1C5
S31502001010D9F81C00002844D1D9F81400B0B14FF019
S31502001020FF31002209EB020393F8203045F001E07C
S3150200103059400B4686EA5101DF0708BF59080FF0EF
S3150200104009C001328242EDD1C84300E00020D9F83E
S315020010501810884242D10021069B002213F8010B88
S31502001060CFB287F05A07874233D101323531202A6F
S31502001070F4D10020C9F80C00BFF35F8FC9F808004D
S3150200108040F6A050C2F200200121BFF34F8F01703B
S3150200109045F2BA60C0F2002000F025F8079F049CD2
S315020010A04BE70420CBF80000D9F80800C8F8000086
S315020010B045F2E160DAF80010DBF80020D8F80030DB
S315020010C0C0F2002000F00FF84FF47A7003F02EFA07
S315020010D0FAE7CAF80020CBF80070E7E7D9F818104B
S315020010E0CBF80010E2E783B080B581B0844603A84E
S315020010F00EC003A800906A4600206146FFF7E8F892
S3150200110001B0BDE8804003B07047D4D4D4D4D4D45F
S3150200111040F66C52C2F20022106040F67050C2F2E3
S315020011200020016040F67450C2F2002001680131CD
S315020011300160012080F3108800BFFDE77047FFF7CA
S31502001140FDBF80B584B040F6A86046F2D803C2F26D
S31502001150002040F6346C41F2B06EC0F20023016802
S315020011604FF40072013101600420009041F2AB108D
S3150200117045F23351C0F20020C0F20021C2F2002C27
S31502001180C2F2002ECDE901EC02F072FF40F69C613C
S31502001190C2F20021086008B104B080BD002000211F
S315020011A004B0BDE8804000F009B810B5044600F06E
S315020011B007F82046BDE81040FFF74EBC00BE704758
S315020011C0B0B540F6A0644FF0FF31C2F200242068A9
S315020011D002F006FE012803D020680021FFF7EEFF89
S315020011E040F6A460C2F20020017801B1B0BD01212F
S315020011F00170FFF7A4FF40F6A865C2F2002500BF02
S31502001200286801382860F1D02068002100220023D6
S3150200121002F0A2FB0128F3D020680021FFF7CEFFDF
S31502001220EEE780B540F6A46240F6A860C2F200225C
S31502001230C2F200200021117040F6AC620160C2F2D7
S3150200124000224FF48070012102F063FB40F6A06198
S31502001250C2F20021086018B900200021FFF7AEFF94
S31502001260FFF76FFF03F0F2F9002080BD40F6F46C41
S3150200127040F65C73C2F2002CC2F20023C0F800C032
S315020012800B6080201060704741F25C1C41F2C4136F
S31502001290C2F2002CC2F20023C0F800C00B6080200C
S315020012A0106070471EF0040F0CBFEFF30880EFF3D7
S315020012B009800149084700004B1300020F4B1968C9
S315020012C0EFF309821EF0100F08BF22ED108A22E901
S315020012D0F04FEFF30B8342F8043D0A604FF0100023
S315020012E080F31188BFF34F8FBFF36F8F03F050F96E
S315020012F04FF0000080F3118800F002B8AC1400220F
S31502001300074801680A6802CA81F30B88B2E8F04FFF
S315020013101EF0100F08BFB2EC108A82F309887047DC
S31502001320AC14002210B51020EFF3118480F311885B
S3150200133003F00AFA30B14EF604504FF08051CEF265
S315020013400000016084F3118810BD806910F8020C58
S31502001350022801D1FFF7D4BF042838BF704780B5F1
S3150200136045F23E5045F6DB2245F27963C0F2002093
S31502001370C0F20022C0F200234FF47E7101F050FF4A
S31502001380283140F8481D41F2A9314FF0807CC0F265
S31502001390002122F00102C1630264C0F844C06FF06A
S315020013A00201C0E90913704700BE00BF00BF00BFBB
S315020013B0FEE7D4D4D4D4D4D44EF62250F021CEF2C1
S315020013C00000017000F016F84EF63470CEF20000FE
S315020013D0016841F04041016062B6BFF36F8FEFF3DF
S315020013E0148C2CF0040C8CF31488BFF36F8F02DF7D
S315020013F000BEFDE741F2584044F6D351C2F2002046
S31502001400C1F262010068A0FB01014FF0FF3000EB60
S3150200141091110020B0EB116F18BF70474EF2100207
S31502001420F023CEF2000251604EF62351CEF20001B5
S315020014300B709060072010607047EFF31180102147
S3150200144081F3118841F2C431C2F200210A68002AEE
S3150200145002F101020A6018BF704741F2C831C2F2B6
S31502001460002108604EF60450CEF200000068C00566
S3150200147000D1704780B545F23E5045F2645245F6BA
S31502001480A713C0F20020C0F20022C0F2002340F2ED
S31502001490A44101F0C5FE41F2C430C2F20020016847
S315020014A059B10139016018BF704741F2C830C2F222
S315020014B00020006880F31188704780B545F23E50DF
S315020014C045F6FC6245F20D53C0F20020C0F200223E
S315020014D0C0F2002340F2AD4101F0A2FE80B598B3FE
S315020014E04EF6902EC4F2010E9EF800100A0722D084
S315020014F04EF2FA324AF2025CC4F20102CFF6FF7CE5
S3150200150000201388A2F800C08EF8000043F425409C
S315020015101080BFF34F8F30BFBFF36F8F62B6BFF33A
S315020015206F8F72B61088A2F800C08EF8001040F4D1
S315020015302540108080BDBFF34F8F30BFBFF36F8F42
S3150200154062B6BFF36F8F72B680BD80B572B602F017
S31502001550C4FE0120FFF7C2FF62B6BDE8804002F07A
S3150200156017BF80B5EFF30380103840B2002806D4C7
S315020015704EF20041CEF20001405C0F2817D94EF61A
S315020015800C50CEF200000068400558BF80BD45F2FF
S315020015903E5045F6E44245F28873C0F20020C0F29E
S315020015A00022C0F2002340F2216101F039FE45F229
S315020015B03E5045F6E44245F66E63C0F20020C0F2A4
S315020015C00022C0F2002340F20F6101F029FE012041
S315020015D000F000B82DE9F0418AB04FF07042EFF307
S315020015E0038102EB016147F2044C41F228448B1558
S315020015F0C4F2340CC2F20024091654F80380DCF853
S315020016000020DCF840308DE80D0098064FF000000F
S3150200161003900FD5DCF80000C04310F0180F01D17B
S31502001620002006E0DCF80000C0F3C1400CEB8000AD
S31502001630C06A039043F08022D8F80C00049042F06E
S315020016400100CCF840004CF20030C4F2000050F821
S31502001650212022F4803240F8212050F82100D8F8C7
S315020016601000694658B103460DF1140C93E8F400D4
S315020016708CE8F400024691E8F800F8C200E0084659
S31502001680D8F808108847D8F8100018B105A991E8CB
S31502001690EC00ECC00AB0BDE8F08170B588B04FF03E
S315020016A07041EFF3038001EB006041F2284180159F
S315020016B0C2F20021EE460C584FF47F41ADF80010FD
S315020016C047F27001C4F234010A680192E368039397
S315020016D002F400324A604CF20031C4F20001425870
S315020016E022F4803242504058206958B103460DF127
S315020016F0100C93E866008CE8660001469EE86C00D2
S315020017006CC100E07046A1688847206918B104A937
S3150200171091E86C006CC008B070BD2DE9F04389B049
S315020017204FF07041EFF3038001EB006041F2284174
S3150200173047F250028015C2F20021C4F234020C585C
S31502001740D2F80090116BD2F8408021F08073536377
S3150200175028F0807353644CF20032C4F200028358BC
S3150200176023F4803383508058E06804905FEAC9709E
S315020017704FF001008DF804001CD02069029101A9E6
S315020017804FF000028DF8052058B103460DF1140CF6
S3150200179093E8E4008CE8E400024691E8E800E8C237
S315020017A000E00846A1688847206918B105A991E8B2
S315020017B0CC00CCC05FEA89701CD5206901218DF866
S315020017C0051001A9CDF8088058B103460DF1140C95
S315020017D093E8E4008CE8E400024691E8E800E8C2F7
S315020017E000E00846A1688847206918B105A991E872
S315020017F0CC00CCC009B0BDE8F083F0B589B04FF09B
S315020018007041EFF3038001EB006041F2284180153D
S31502001810C2F200210F5847F25001C4F2340109689E
S3150200182002218DF80410F96804914CF20031C4F2D9
S315020018300001425822F4803242504058FF208DF86F
S31502001840050038690021029101A958B103460DF13C
S31502001850140C93E874008CE87400024691E8780050
S3150200186078C200E00846B9688847386918B105A900
S3150200187091E8CC00CCC009B0F0BD02464160886850
S31502001880C0231061C4F20203C8689061002050614F
S31502001890086803EB401040309060086803EB401084
S315020018A0D06091F9040000282CD480B54EF2001CB9
S315020018B04979CEF2000C00EB0C03090183F8001300
S315020018C041F22841C2F2002141F820204CF20031B7
S315020018D0C4F2000151F8203023F4803341F820305D
S315020018E051F82010410900F01F0001230CEB810E74
S315020018F003FA00F0BFF35F8FCEF880014CF82100A7
S31502001900BDE8804045F243010020C5F2492111603D
S31502001910704780680268920302D481600020704793
S315020019200C2070478268002051607047844601612E
S315020019300020CCE9053270470146406890F9040060
S3150200194000280FD44EF2801C00F01F024009CEF28E
S31502001950000C012303FA02F24CF82020BFF34F8F4A
S31502001960BFF36F8F002000220A607047B0B54FF0B8
S315020019707041EFF3038001EB00604CF200318015F9
S31502001980C4F20001425822F48032425041F2284207
S315020019904158C2F200221458E0680568E80304D5EB
S315020019A04FF48031204600F00BF835F4403508BF7D
S315020019B0B0BD2046294600F003F8E0680561B0BDD7
S315020019C02DE9F04184B004464069E84630B1034649
S315020019D0C44693E8E4008CE8E40000E0404662680E
S315020019E0B1F5803F126802608160A169C16002D1CF
S315020019F0E168C96800E000214160216988476069A1
S31502001A0010B198E88E008EC004B0BDE8F08180B5B2
S31502001A1045F25422C5F24F020260084600F004F86D
S31502001A20002080BDD4D4D4D470B5044600F060F84A
S31502001A3041F2244CEFF31081C2F2002C012080F314
S31502001A401088DCF8000038B940F614500022C4F2BF
S31502001A504000027040220270DCF800000130CCF82F
S31502001A60000081F31088208828B340F6000E00217A
S31502001A70C4F2400E00BF00BF606800EBC10250F81E
S31502001A8031309288D8034FEA1220D2B20BD50EEB30
S31502001A90801555F8226026F4803645F8226023F434
S31502001AA0803645F822600EEB8010013140F8223074
S31502001AB020888142E0D30120EFF3108180F3108861
S31502001AC0DCF8000020B1DCF800000138CCF8000098
S31502001AD0DCF8000038B940F614500022C4F2400087
S31502001AE002708022027081F3108870BDD4D4D4D4DF
S31502001AF02DE9F04F81B004460088002865D04EF6E5
S31502001B004C4B0025C4F2010B4FF0010A00BF00BF87
S31502001B1046F2685642F240080027C0F20026C4F296
S31502001B20200800BF00BF00BF606836F8021B00EB4A
S31502001B30C50082888A423FD100689BF8001000F0F7
S31502001B40B8500AFA07F9B0F1807F09EA010017D105
S31502001B5058B9012001F00FFC9BF8000040EA090089
S31502001B608BF80000012001F0DFFB98F90000002845
S31502001B7022D498F8000040F0800017E000BF00BFB2
S31502001B8058B1012001F0F7FB9BF8000020EA09009A
S31502001B908BF80000012001F0C7FB98F90000B0F1B4
S31502001BA0FF3F09DC98F8000000F07F0088F800008B
S31502001BB0C820012101F039FB013708F10208032F81
S31502001BC0B2D1208801358542A2D301B0BDE8F08F9B
S31502001BD0F0B581B00C4609784EF200020546C4F211
S31502001BE0250243F2040702EB012028612C60C4F2AD
S31502001BF02007A0686860207B2872E0696863206A13
S31502001C00E8630020A863C5E90500C5E9070085F871
S31502001C10290085F82A0085F82B0085F82C0001207A
S31502001C20EFF3108680F310882178C1F1090188400C
S31502001C30396821EA0000386038681E20012101F067
S31502001C40F4FA86F310882846214600F0D1F8A069F6
S31502001C5058B141684FF4002209680A60D0E90112BE
S31502001C60006812689047064698B9606928B34168C9
S31502001C704FF0006209680A60D0E901120068126832
S31502001C809047D0B10646A06918B181680068096A12
S31502001C9088470120EFF3108580F3108821783A688F
S31502001CA0C1F10901884001211043386038681E20BD
S31502001CB001F0BBFA85F3108805E044F643100026CE
S31502001CC0C5F24920E860304601B0F0BD9C460123CA
S31502001CD080F82AC000F084B99C46002380F82AC006
S31502001CE000F07EB90346002059601A727047B0B5FB
S31502001CF0044600690025C5712046216800F078F87F
S31502001D0094F82600A16984F828002069C4E90751DD
S31502001D10B32184F82C5084F82A50C1712069C57108
S31502001D20E5602068816921B18A680868116A884776
S31502001D302068416921B18A680868116A8847206863
S31502001D4090F911004EF28011CEF20001430900F023
S31502001D501F02012000FA02F241F82320BFF34F8F3F
S31502001D60BFF36F8F226892F90E20530902F01F0209
S31502001D7000FA02F241F82320BFF34F8FBFF36F8FB1
S31502001D80226892F91020530902F01F0200FA02F2A9
S31502001D9041F82320BFF34F8FBFF36F8F226892F96A
S31502001DA00F20530902F01F0200FA02F241F8232023
S31502001DB043F20402BFF34F8FBFF36F8FEFF3108529
S31502001DC080F310882168C4F2200209781368C1F1F1
S31502001DD00901884001211843106010681E2001F095
S31502001DE024FA85F310880020B0BDD4D4D4D4D4D438
S31502001DF0F0B5026900231370402302691370026969
S31502001E0013785B06FCD5C0231370026803690825A4
S31502001E104EF6185C526ACEF2000C127942F0E002DB
S31502001E201A7402680369526AD27842F0E0025A745E
S31502001E3002680369526A927862F306159D70026817
S31502001E400569526A13785278012B5FEA1F9343EAB7
S31502001E50420242F00402EA70026844F24025C0F2ED
S31502001E600F0503695268AA424FF0770208BF6FF066
S31502001E7008025A71002302699371B3230269D3716E
S31502001E804EF2001291F911404B7BCEF20002002C69
S31502001E904FEA031303D4151985F8003304E004F05E
S31502001EA00F05654405F8043C41F2284E4CF2003316
S31502001EB0C2F2002EC4F2000301274EF8240053F8A2
S31502001EC0245025F4803543F8245053F824506509EC
S31502001ED004F01F04BFF35F8F02EB850607FA04F4D2
S31502001EE0C6F8804142F8254091F90F404D7B002CFF
S31502001EF04FEA051503D4161986F8005304E004F0D8
S31502001F000F06664406F8045C4EF8240053F8245083
S31502001F1025F4803543F8245053F82450650904F01B
S31502001F201F04BFF35F8F02EB850607FA04F4C6F8B7
S31502001F30804142F8254091F910404D7B002C4FEA32
S31502001F40051503D4161986F8005304E004F00F06AB
S31502001F50664406F8045C4EF8240053F8245025F42F
S31502001F60803543F8245053F82450650904F01F04C1
S31502001F70BFF35F8F02EB850607FA04F4C6F88041C9
S31502001F8042F8254091F90E40497B002C4FEA011197
S31502001F9003D4171987F8001305E004F00F0505EBC3
S31502001FA00C0707F8041C4EF8240004F01F0753F828
S31502001FB02410012621F4803143F8241053F824100A
S31502001FC0610906FA07F7BFF35F8F02EB8103C3F8D5
S31502001FD0807142F821709F2100690170F0BDD4D44E
S31502001FE090F808C0C0E90512BCF1010F09D190F8BA
S31502001FF004C04FF48071A0F8251043EA4C0180F822
S31502002000241010B581B04EF2200180F82930C4F2B6
S31502002010010109680091009901F00F210091DDF894
S3150200202000E0DDF800C001690B7C90F82C40B4B9E1
S31502002030CEF30322A2EB1C6203FA02F2042A09D3AC
S31502002040920800BF00BF00BF91F90130002B03D5F3
S31502002050013AF9D1082169E00022CA718269002198
S31502002060C0E9072190F8262080F8281080F827205A
S3150200207080F82B1080F82D1080F82E1080F82F1083
S3150200208080F830100168496A0A784B7891F805C0E1
S315020020908C79012A5FEA1F9242EA4302036942EA05
S315020020A00C1242EAC41242F00402DA70026913798F
S315020020B043F0100313710269137903F0F7031371E6
S315020020C00269137903F0EF0313710269C97913796F
S315020020D003F07F0343EAC111117101694A7942F0A3
S315020020E001024A71016891F90F1000290BD401F01F
S315020020F01F02012303FA02F24EF200134909CEF23D
S31502002100000343F8212001694A7A02F0F3024A7277
S315020021100169BF22CA7190F82C1019B1002180F80A
S315020021202C1003E00069022141700021084601B02B
S3150200213010BD10B582B04FF07041EFF3038001EB92
S3150200214000604CF200328015C4F20002835823F478
S31502002150803383508058EFF3038001EB006041F235
S3150200216028418015C2F200210C5894F82D0038B18E
S3150200217094F82E0001284DD1002084F82E0081E02B
S31502002180A069022804D82069017941F04001017151
S31502002190E06901280ED12069017941F0100101712F
S315020021A02069017941F0080101712069017901F084
S315020021B0EF01017120688269D2B1216994F8293050
S315020021C0012B15D1A369042B12D3D2F808C0033B05
S315020021D013311068DCF808C062699BB2E0472068D8
S315020021E0A2690321033AC4E90712012184F82E10D9
S315020021F0406AC079012803D10521204600F048FA39
S315020022002069C07C8DF807009DF80700012084F83C
S315020022102D0037E0E069A8B32168496AC979012926
S3150200222004D10521204600F033FAE06901282BD0BB
S31502002230022806D0032813D12069017941F0400112
S315020022400DE02069017941F01001017120690179DF
S3150200225041F0080101712069017901F0EF01017174
S31502002260D4E90401C07C226A8854D4E90701013802
S3150200227001F10101C4E9070104D12069017901F0E4
S31502002280BF01017102B010BD94F82A00012831D1B4
S3150200229020684EF28013CEF2000390F90F00420935
S315020022A000F01F01012000FA01F143F82210BFF3EA
S315020022B04F8FBFF36F8F2169CA7942F08002CA71CC
S315020022C021690A7942F010020A7121690A7902F03B
S315020022D0F7020A7121690A7902F0EF020A7121698D
S315020022E004224A7021694A7902F0FE024A7184F890
S315020022F02C00B5E72069417A01F0F70141722069A5
S3150200230008214170ACE7D4D4B0B54FF07041EFF379
S31502002310038001EB00604CF200358015C4F2000523
S31502002320425922F4803242514059EFF3038001EBC5
S31502002330006041F228418015C2F200210C5894F83F
S315020023402700B0B394F82610032907D194F8281071
S31502002350022903D194F83010002952D094F824505F
S315020023600128206919D121684969B1B194F8292057
S315020023709AB9A2698AB1D1F808C0A38B00F11202F8
S315020023800868DCF808C06169E04720690021A26993
S31502002390C4E90712012184F82F10857494F82800E5
S315020023A094F82710013084F82800481E84F8270084
S315020023B0B0BD94F8290020BB2068406AC079012884
S315020023C008D194F82B0028B9206A18B105212046B5
S315020023D000F05EF994F82F00012804D1002084F859
S315020023E02F00E0690CE0E06960B1D4E90401226AD9
S315020023F0895C8174D4E90710421C481EC4E90702AD
S3150200240000B1B0BD2069C17901F07F01C1712069B7
S315020024106FF0BE0100BF00BF90F90720B2F1FF3F87
S3150200242003DC002901F10101F6D1206890F91000C0
S3150200243055F8201021F4803145F8201055F8200077
S31502002440206890F9100000280BD44EF2802300F089
S315020024501F014009CEF20003012202FA01F143F8FC
S3150200246020102069C17941F04001C171B0BDD4D4B8
S3150200247010B54FF07041EFF3038001EB006041F2BB
S3150200248028418015C2F200210C582068406AC079A2
S31502002490012803D10521204600F0FAF894F8290014
S315020024A0012806D194F82700012802D194F83000B9
S315020024B080B3E06970BB94F82A00012822D1206813
S315020024C04EF28013CEF20003012290F90F0000F0C3
S315020024D01F01400902FA01F143F82010BFF34F8FA2
S315020024E0BFF36F8F2069C17941F08001C171206904
S315020024F0042141702069417901F0FE01417184F89D
S315020025002C2007E02069417A01F0F7014172206927
S31502002510082141702069C17901F0BF01C1712069AA
S315020025206FF0BE0100BF00BFC279520603D5002973
S3150200253001F10101F8D14FF07041EFF3038001EB95
S3150200254000604CF200318015C4F20001425822F4B8
S3150200255080324250405810BDB0B54FF07041EFF393
S31502002560038001EB006041F228418015C2F200218E
S315020025700C5821694A7A4B7A02F01F0002F00302D4
S315020025800F2803F0E0034B7201D83AB923E0216920
S315020025904B785B0658BF42F00102CAB1012084F8AB
S315020025A02B0020690025C57120462168FFF720FC13
S315020025B094F82600A16984F828002069C4E9075125
S315020025C0B32184F82C5084F82A50C17101214BE0C2
S315020025D04A78520611D4010706D494F82C20012A0F
S315020025E031D110F004022ED0E06910B994F82B0014
S315020025F090B3002919D4012035E0012084F82B007C
S315020026000820487020682369406A417902788079F7
S3150200261042EA011141EAC01040F00200D870206976
S31502002620417941F00101417121E00020A169C4E92B
S31502002630070194F8261084F8281084F82C0084F8F0
S315020026402A0001200CE0400711D52068406AC079B3
S3150200265001280CD1042107E094F8290080F0030038
S315020026602169B322CA71C1B2204600F011F84FF0B7
S315020026707041EFF3038001EB00604CF200318015EC
S31502002680C4F20001425822F4803242504058B0BD92
S31502002690B0B582B0856B044625B1D5E90002CDE915
S315020026A0000200E06D46E06B2860297120684169EE
S315020026B039B194F8292022B98A68086811698847CD
S315020026C02068806938B194F82910012903D18168FC
S315020026D0006809698847616B28468847A06B18B16C
S315020026E0DDE90012C0E90012002084F82B0002B0D6
S315020026F0B0BD2DE9F04141F2CC3240F20006C2F201
S3150200270000220D460446C2F2002613780BBB43F2A2
S3150200271000004FF00108C4F2200082F80080EFF3B7
S31502002720108788F31088016821F48001016000682F
S315020027301E20012100F079FD87F3108824213046FE
S3150200274002F0AAFE4AF60C40C4F20000866080F847
S315020027500080686890F90000002805D456F8201019
S3150200276029B10820BDE8F0810B20BDE8F081207177
S31502002770296811B1204600F00BF944F20030C4F288
S31502002780544020600020BDE8F081D4D4D4D4D4D4FF
S31502002790B0B5044690F904004CF200354FF6FF73CB
S315020027A0C4F20005CFF6FE6355F820201A4045F81C
S315020027B0202055F820004AF60E4294F90400C4F28D
S315020027C0000240F4004000BF13889842FCD0204625
S315020027D000F0DEF8BFF34F8F94F90410002055F88D
S315020027E0212042F0807245F82120B0BDD4D4D4D441
S315020027F010B582B00191009290F9041040F20002E5
S315020028004CF2003CC2F20022C4F2000C4FF6FF74F6
S3150200281052F821E0CFF6FE645CF8212022404CF803
S3150200282021205CF821104AF60E4190F90420C4F2E8
S31502002830000142F4004200BF0C88A242FCD00822EA
S315020028408A70019A12B1019ACEF80420009A12B146
S31502002850009ACEF80820DEF80020B2F1404F02DAE4
S31502002860AEF80C3005E00024B4EB927F08BFAEF858
S315020028700E3018228A70BFF34F8F90F90410002091
S315020028805CF8212042F080724CF8212002B010BD83
S31502002890BFF34F8F90F904104CF20032C4F20002DB
S315020028A0002052F8213043F0807342F821307047FD
S315020028B090F904004CF20031C4F200014FF6FF73A6
S315020028C0CFF6FE6351F820201A4041F8202051F835
S315020028D0200000207047062070470620704790F9B6
S315020028E0040040F20002C2F2002252F82000002246
S315020028F0C1E900220268B2F1804F05D24FF480325C
S315020029008A60C089C8600EE04FF480728A60C2890C
S31502002910D2B2CA600268B2F1404F04DA4FF4803292
S315020029200A608089486000207047D4D4D4D4D4D4B5
S3150200293080B590F904204CF2003CC4F2000C8646A5
S315020029404FF6FF705CF82230CFF6FE6018404CF866
S3150200295022005CF822004AF60E439EF90400C4F2F5
S31502002960000340F4004000BF19888842FCD040F2C0
S315020029700001C2F200210020002341F82230CEF8E5
S31502002980003080BD0620704706207047D4D4D4D4C8
S3150200299080B501F10E0200BF52F80EECBEF1804F77
S315020029A006D3B2F800C05FFA8CF343EA0C23138015
S315020029B01EF4400F02F11002EED14AF6104208232D
S315020029C0C4F20002137040F2000390F90400C2F24E
S315020029D0002343F820101820107080BD4EF2240107
S315020029E0C4F201018878098801F00F02A2F10801F8
S315020029F003293BD8DFE801F0022C101E40F26041A9
S31502002A00C2F2002151F820004AF6AB21CAF6AA21E9
S31502002A10A0FB0101480830E040F26041C2F2002109
S31502002A2051F820004AF6AB21CAF6AA21A0FB010101
S31502002A30C80822E040F26041C2F2002151F82000AB
S31502002A404AF6AB21CAF6AA21A0FB0101080914E045
S31502002A5040F26041C2F2002151F820004AF6AB2151
S31502002A60CAF6AA21A0FB0101880806E040F26041ED
S31502002A70C2F2002151F82000D04041F25841C2F280
S31502002A80002108607047D4D42DE9F04182B00FF2DC
S31502002A9078504EF2FA38C4F201084AF20151CFF6E2
S31502002AA0FF7190ED001F40F260400231A8F800105D
S31502002AB0C2F200200FF260514EF6014680ED001F71
S31502002AC04EF600474EF2140591ED001F48F2004102
S31502002AD040F6000280ED041F2030C1F2D77143F6A2
S31502002AE00003C4F20106C4F20107C4F20105C2F6EC
S31502002AF0AF72C1F69C430EC0FFF770FF4FF65060EF
S31502002B000A21CFF6FF703954092085F88E003878ED
S31502002B1018B93078800700F07282387858B90120E7
S31502002B203870C820012100F080FB00BF00BF00BF43
S31502002B3038780128FCD10020307038704AF20156EC
S31502002B40002085F82200A87795F828000007FBD513
S31502002B5042F602314EF61450C0F20101C5F8B41025
S31502002B6040F223416987002285F836204FF602118A
S31502002B70C5F8981040F251412987CEF200004EF274
S31502002B800001BFF34F8FBFF36F8F0368CEF20101CF
S31502002B9023F400330360C0F83C22BFF34F8FBFF328
S31502002BA06F8F0A6822F440520A60BFF34F8FBFF359
S31502002BB06F8F2A7802F0F80201322A7000BF00BF36
S31502002BC02A78D206FCD40A6842F440520A60BFF35D
S31502002BD04F8FBFF36F8F0168890312D4BFF34F8FF4
S31502002BE0BFF36F8F0021C0F83C12BFF34F8FBFF3C4
S31502002BF06F8F016841F400310160BFF34F8FBFF35D
S31502002C006F8F0020A87500BF95F828008006FBD5B7
S31502002C104CF200070020C4F213073870387838786F
S31502002C2038787868FA2807D0FA20C1F6006000BF23
S31502002C3078607968FA29FBD1B8687D2808D07D20AA
S31502002C40CEF2001000BF00BFB860B9687D29FBD183
S31502002C5043F23240C3F22320E86042F22010288277
S31502002C600520A874FFF7BAFE1E200121012400F0F8
S31502002C70DCFA78686FF39F20652828BF3C70FFF75F
S31502002C80ADFE42F200004FF42541C4F20000068078
S31502002C90BFF35F8F0472BFF35F8F018095F8C600A2
S31502002CA040F0400085F8C60095F9C600B0F1FF3F36
S31502002CB0FADC032085F8C000C92085F8C60095F81D
S31502002CC0C60000F0BF0085F8C60000BF00BF00BF07
S31502002CD095F9C6000028FBD4012085F83F000020A4
S31502002CE085F82A00802085F82A0095F8600040F0D1
S31502002CF0400085F8600000BF95F96000B0F1FF3F23
S31502002D00FADC072085F858004A2085F860000A2078
S31502002D1085F8600000BF00BF95F960000028FBD46B
S31502002D200720ADF806000DF1060000F07DF995F8D2
S31502002D30620040F0400085F8620000BF00BF00BF9D
S31502002D4095F96200B0F1FF3FFADC032085F85A00DC
S31502002D50CA2085F8620095F8620000F0BF0085F887
S31502002D60620000BF00BF00BF95F962000028FBD4D5
S31502002D7095F8410040F0400085F8410000BF00BFD1
S31502002D8095F94100B0F1FF3FFADC022085F84000D8
S31502002D90CA2085F8410095F8410000F0BF0085F889
S31502002DA0410000BF00BF00BF95F941000028FBD4D7
S31502002DB095F8430040F0400085F8430000BF00BF8D
S31502002DC095F94300B0F1FF3FFADC002085F8420096
S31502002DD0C72085F8430095F8430000F0BF0085F848
S31502002DE0430000BF00BF00BF95F943000028FBD493
S31502002DF095F8490040F0400085F8490000BF00BF41
S31502002E0095F94900B0F1FF3FFADC012085F8480048
S31502002E10C62085F8490095F8490000F0BF0085F8FC
S31502002E20490000BF00BF00BF95F949000028FBD446
S31502002E3095F8640040F0400085F8640000BF00BFCA
S31502002E4095F96400B0F1FF3FFADC022085F85C00D8
S31502002E50C92085F8640095F8640000F0BF0085F883
S31502002E60640000BF00BF00BF95F964000028FBD4D0
S31502002E7095F84B0040F0400085F84B0000BF00BFBC
S31502002E8095F94B00B0F1FF3FFADC012085F84A00C4
S31502002E90CA2085F84B0095F84B0000F0BF0085F874
S31502002EA04B0000BF00BF00BF95F94B000028FBD4C2
S31502002EB095F8630040F0400085F8630000BF00BF4C
S31502002EC095F96300B0F1FF3FFADC042085F85B0058
S31502002ED0CA2085F8630095F8630000F0BF0085F804
S31502002EE0630000BF00BF00BF95F963000028FBD452
S31502002EF095F8470040F0400085F8470000BF00BF44
S31502002F0095F94700B0F1FF3FFADC022085F846004A
S31502002F10CA2085F8470095F8470000F0BF0085F8FB
S31502002F20470000BF00BF00BF95F947000028FBD449
S31502002F3095F8C70040F0400085F8C70000BF00BF03
S31502002F4095F9C700B0F1FF3FFADC022085F8C1000F
S31502002F50C52085F8C70095F8C70000F0BF0085F8C0
S31502002F60C70000BF00BF00BF95F9C7000028FBD409
S31502002F7095F8C80040F0400085F8C80000BF00BFC1
S31502002F8095F9C800B0F1FF3FFADC012085F8C200CE
S31502002F90C52085F8C80095F8C80000F0BF0085F87E
S31502002FA0C80000BF00BF00BF95F9C8000028FBD4C7
S31502002FB095F8CA0040F0400085F8CA0000BF00BF7D
S31502002FC095F9CA00B0F1FF3FFADC092085F8C40082
S31502002FD0C92085F8CA0095F8CA0000F0BF0085F836
S31502002FE0CA0000BF00BF00BF95F9CA000028FBD483
S31502002FF04FF42540A8F8000002B0BDE8F0814FF476
S315020030007A7000F0C2F899E5006CDC0200127A00D0
S315020030100080000000366E010080000000CA9A3B64
S315020030200046C3235543DE132DE9F04F81B04EF21D
S31502003030FA3143F20406C4F201018246C4F22006C2
S315020030404AF20350B1F8009008804FF0010B0025B8
S315020030504FF480340127002004FA00F132680A4254
S3150200306010D1EFF310888BF3108832680BFA00F058
S3150200307011433160316805431E20012100F0D5F865
S3150200308088F31088F8074FF001004FF00007E3D1EC
S315020030904EF2750740F26041C4F20107C2F2002106
S315020030A0387800F00F0051F8200017F8081C01F0DC
S315020030B00F01022901D801220BE0CA1E052A06D2F7
S315020030C046F2E871C0F2002151F8221003E00839F5
S315020030D0102202FA01F1B0FBF1F04DF68361C4F25F
S315020030E01B31A0FB01016FF0010000EA51400121F2
S315020030F000F09BF8387840F04000387000BF00BFFF
S3150200310097F90000B0F1FF3FFADC9AF8010007F8E0
S31502003110080C9AF8000040F0400038709AF8000057
S31502003120387000BF00BF00BF97F900000028FBD42B
S3150200313000204FF0010A4FF48038012400BF00BF7F
S3150200314025FA00F1C90710D0EFF310878AF3108829
S3150200315008FA00F0316821EA0000306030681E206B
S31502003160012100F062F887F31088E0074FF00100B2
S315020031704FF00004E4D14EF2FA3149F42540C4F28C
S315020031800101088001B0BDE8F08F7047D4D4D4D4D1
S31502003190B0B542F22404C820C4F22004012100255D
S315020031A0257100F042F82570207808B12FF005C08D
S315020031B0207840F00200207020788007FCD400209E
S315020031C004F8020C00BF00BF14F8020C08B12FF07D
S315020031D005C84FF0030E002004F11C0100BF00BF1A
S315020031E011F8102002F07F0201F8102000BF00BF84
S315020031F011F91020002AFBD401300FF00FC801206C
S3150200320000F0B9F84EF64C410120C4F20101002249
S315020032100A70BDE8B04000F087B8D4D4D4D4D4D470
S3150200322000BE00BF00BF00BFFEE741F2584241F2B6
S315020032300023C2F20022C0F27A03484312689A427D
S315020032400FD344F23F21C0F20F0111444DF68362BF
S31502003250C4F21B32A1FB0212910CA0FB0101C9B1FF
S315020032601BE04CF60021C3F69A31B1FBF2F148F6A7
S315020032703812C0F24102904205D24FF47A7250439C
S31502003280B0FBF1F006E0B0FBF1F0904205D24FF44C
S315020032907A71484328B100F007B84FF0FF3000F0CA
S315020032A003B87047D4D4D4D401380028FCD170476F
S315020032B0F0B581B04CF2001541F2D037C4F20005E8
S315020032C00024C2F200272868296A01EA000600BF24
S315020032D026FA04F0C00703D0396809B120468847A8
S315020032E001340437152CF3D12E6100BF00BF00BF95
S315020032F0286A3042FCD101B0F0BDD4D4D4D4D4D49F
S3150200330080B54FF0090E4CF2003046F24051C4F23D
S315020033100000C0F2002100BF31F8022B02B10260A8
S3150200332004300FF007C880BDEFF31081012282F34B
S31502003330108841F24C42C2F2002232F8103023B118
S3150200334032F81030013B22F8103032F810207AB9E8
S315020033504EF2FA3246F2FC7CC4F20102C0F2002CB2
S3150200336013883CF8100043F4254323EA000010803A
S3150200337081F31088704710B5EFF31081012282F3B2
S31502003380108841F24C42C2F2002232F8103083B960
S315020033904EF2FA3E46F2FC7CC4F2010EC0F2002C5A
S315020033A0BEF800403CF81030234343F42543AEF800
S315020033B0003032F81030013322F8103081F31088D1
S315020033C010BDD4D4D4D4D4D470B543F60045044643
S315020033D0C4F2000500BF00BF95F8500008B12FF0F7
S315020033E005C84FF08700A8844FF0100028709CB1E2
S315020033F00020FFF7C0FF4EF253000126C4F201007F
S3150200340006700020FFF790FF85F8206000BF00BF1E
S3150200341095F850000007FBD40120A87000206870C0
S3150200342095F8500008B12FF005C842F20350C0F2D9
S315020034300500ACB14FF40C71A5F8481000BF00BFEF
S3150200344095F85010C907FBD16864002085F8400042
S3150200345047F2A830A8820120A8751120287070BDF5
S315020034606864002085F8400047F2A830A88201204F
S31502003470A87500BF00BF00BF2878C007FCD195F829
S31502003480500008B12FF009C00120287470BDD4D4B1
S3150200349000F006F8FDF7C5FEFEE700BE7047D4D47D
S315020034A070B54EF6005540F20120CEF20005C0F28C
S315020034B00E004EF200066861CEF20106BFF34F8F90
S315020034C0BFF36F8F2968C1F3035001285FEA1F9289
S315020034D011F00F0F5FEA0F911142316811D10228E4
S315020034E00FD241F0040030604EF20800BFF34F8F56
S315020034F0CEF20000BFF36F8F016841F480310160A4
S3150200350002E021F004003060BFF34F8FBFF36F8FEC
S315020035104FF4700040F20001C5F888000020C0F2A6
S315020035200021A9600024FDF746FAFFF7ADFA4EF234
S31502003530FA304EF6B022C4F20100C4F201024AF297
S315020035400251018014704FF4254101800120FDF7DC
S3150200355032FA40F26000C2F2002080F30A88306834
S31502003560800721D5A868B0F1007F1DD130694FF4DC
S315020035700071C0F3C300726901FA00F3C2F3C3001B
S3150200358081400020DA08CB080146064642F005C013
S31502003590E6E802010FF005C04FF0005243F005C005
S315020035A0E2E802010FF005C0002000F099F8FFF7EB
S315020035B015FAFFF7EDFD0320FFF7DDFE4FF00E0EC5
S315020035C040F63050C4F2400020F8044B0FF005C01C
S315020035D04EF210140320C4F20104FFF7A5FE0320E5
S315020035E0FFF7C9FE44F204000021C4F22000016084
S315020035F041608160C1600320FFF796FED4F8C802DD
S31502003600800714D42078A0B10120FFF7B4FE00BFD2
S3150200361094F9000010F1410FFADC0020207000BF7F
S3150200362020783F28FCD80120FFF77EFE01E0D4F87F
S31502003630C802D4F8C802400715D42079A8B10120DF
S31502003640FFF799FE00BF00BF94F9040010F1410F85
S31502003650FADC0020207100BF20793F28FCD8012027
S31502003660FFF762FE01E0D4F8C802012000F038F844
S3150200367041F2B064C2F20024204601F021FF204646
S3150200368001F032FFBFF34F8FBFF36F8F0020C5F8F3
S31502003690500246F65A0046F65A01C0F20020C0F21F
S315020036A00021BFF34F8F081ABFF36F8F8410012CCE
S315020036B00BDB46F65A05C0F2002500BF00BF00BF6D
S315020036C055F8040B8047013CFAD10220FDF773F945
S315020036D0FFF716FE0020BDE8704000F030B8D4D4E3
S315020036E0F0B581B046F2BC550446C0F200252E68FC
S315020036F076B16868071D00BF7879844204D157E91C
S315020037000101091A01F0C8FE013E07F10C07F3D1C7
S31502003710AE6896B1E86800F1080500BF00BF00BFB9
S315020037206879844205D155E902022968121A01F024
S31502003730B7FE013E05F11005F2D101B0F0BD7047AA
S3150200374001464FF0FF3241F8082F0022C0E903116B
S31502003750C0E900217047002101617047D4D4D4D456
S3150200376080B5D1F800C01CF1010207D000F10802B1
S315020037709646526813686345FAD903E0D0F810E01A
S31502003780DEF804204A609160C1F808E0CEF8041021
S31502003790086101680131016080BDD0E90123016938
S315020037A0936042685A604A68824201D182684A60DE
S315020037B000220261086801380860704770B5002867
S315020037C04BD00446C06BC0B30E46216CA0FB010170
S315020037D099BBFDF732FED4E90F010025226801FBF1
S315020037E000230138A56300FB0120C4E90123E06040
S315020037F0FF2084F8440084F8450004F110004EB11D
S31502003800FFF79EFF04F12400FFF79AFFFDF743FE40
S31502003810012070BD01680029F8D001F0D4F8002813
S31502003820F4D04EF604504FF08051CEF20000016003
S31502003830BFF34F8FBFF36F8FE8E745F6C23045F609
S31502003840A36245F66A53C0F20020C0F20022C0F21B
S3150200385000234FF4B671FFF7E3FC45F6C23045F696
S31502003860A36245F64153C0F20020C0F20022C0F224
S31502003870002340F23711FFF7D3FC10B582B043B3F1
S31502003880B8B11C4601B9A2B901B192B1482301935C
S31502003890019B482B2DD1002954EA0282019BC4E9DF
S315020038A00F01012120462260FFF788FF204602B061
S315020038B010BD45F6C23045F6332245F66243C0F2E4
S315020038C00020C0F20022C0F200234FF4D871FFF7A5
S315020038D0A7FC45F6C23045F6332245F2EE73C0F236
S315020038E00020C0F20022C0F200234FF4C271FFF79B
S315020038F097FC45F6C23045F6332245F6ED13C0F283
S315020039000020C0F20022C0F200234FF4CB71FFF771
S3150200391087FCB0B582B060B10D46814209D8144623
S31502003920002100222346FFF7A8FFA563204602B026
S31502003930B0BD45F6C23045F6403245F2FC73C0F2E0
S315020039400020C0F20022C0F200234FF45E71FFF79E
S3150200395067FCD4D4D4D4D4D42DE9F04F85B0002852
S31502003960049200F0A18004469946154619B9206CC6
S31502003970002840F0C980B9F1020F03D1E06B01289B
S3150200398040F0B280019101F010F910B9002D40F01B
S315020039909B80FDF752FDB9F1020FA06B5DD0E16B82
S315020039A088425AD304F11007012002AE4FF0000BF1
S315020039B004AD00BF00BF00BF0499002968D0C0074C
S315020039C002D0304601F087F8FDF765FD00F085FC70
S315020039D0FDF733FD94F84400FF2808BF84F844B08D
S315020039E094F84500FF2808BF84F845B0FDF753FD5B
S315020039F03046294601F07CF800284CD1FDF71DFD22
S31502003A00D4F838A0D4F83C80FDF745FDC24517D15D
S31502003A100499384600F07AFF204600F0C1F800F01B
S31502003A20B7FC90B94EF604504FF08051CEF200002A
S31502003A300160BFF34F8FBFF36F8F06E000BF00BF79
S31502003A40204600F0ADF800F0A3FCFDF7F6FCA06BF3
S31502003A50E16B88424FF00000AED2204601994A46F9
S31502003A6000F062F854F8241F11B1204600F0ABFFB3
S31502003A7050B14EF604504FF08051CEF20000016074
S31502003A80BFF34F8FBFF36F8FFDF705FD012008E0EF
S31502003A90FDF701FD04E0204600F082F800F078FC14
S31502003AA0002005B0BDE8F08F45F6C23045F223721C
S31502003AB045F64153C0F20020C0F20022C0F20023B4
S31502003AC040F2B631FFF7ACFB45F6C23045F223723F
S31502003AD045F23573C0F20020C0F20022C0F2002384
S31502003AE040F2BB31FFF79CFB45F6C23045F223722A
S31502003AF045F60403C0F20020C0F20022C0F2002301
S31502003B004FF46E71FFF78CFB45F6C23045F2237215
S31502003B1045F68973C0F20020C0F20022C0F20023EB
S31502003B2040F2B731FFF77CFB70B5866B036C044637
S31502003B30C3B11546FAB1E0681A4601F0B1FC216834
S31502003B40E268206C121AE2608A4203D24042A168FD
S31502003B500844E060022D5FEA1F90002E5FEA0080B3
S31502003B60361A15E02068002598B9A06801F084F895
S31502003B70A56005460DE060681A4601F091FCD4E99D
S31502003B800101226C10446060884201D320686060A3
S31502003B900025701CA063284670BDD4D4D4D4D4D4D6
S31502003BA0F0B581B00446FDF748FC94F94560012E54
S31502003BB00EDB04F1240500BF286848B1284600F050
S31502003BC002FF08B100F0E4FF70B2013E0128F3DC07
S31502003BD0FF2684F84560FDF75EFCFDF72EFC94F99E
S31502003BE04470012F10DB04F1100500BF00BF00BFB7
S31502003BF0286848B1284600F0E6FE08B100F0C8FF82
S31502003C0078B2013F0128F3DC84F8446001B0BDE8D4
S31502003C10F040FDF740BCD4D42DE9F04F83B0002824
S31502003C20029200F0AA8004461646894619B9206C0B
S31502003C30002840F0C28000F0B8FF10B9002E40F014
S31502003C40AC80FDF7FAFBD4F838A0BAF1000F29D000
S31502003C50226C52B1D4E902011144E160814201D3DE
S31502003C602168E160484601F01BFC54F8100F002859
S31502003C70AAF10100A0620ED0204600F0A4FE50B1C7
S31502003C804EF604504FF08051CEF200000160BFF3B1
S31502003C904F8FBFF36F8F0124FDF7FDFB204603B064
S31502003CA0BDE8F08F04F1240801206F464FF0000BA7
S31502003CB002AE00BF00BF00BF0299002959D0C0075B
S31502003CC002D0384600F007FFFDF7E5FB00F005FBE2
S31502003CD0FDF7B3FB94F84400FF2808BF84F844B00C
S31502003CE094F84500FF2808BF84F845B0FDF7D3FBDA
S31502003CF03846314600F0FCFE70B12046FFF750FF11
S31502003D0000F046FBFDF799FBA56BFDF7C4FB95B3E7
S31502003D1026E000BF00BF00BFFDF78FFBA56BFDF7D6
S31502003D20BAFB2DB12046FFF73BFF00F031FB17E04F
S31502003D300299404600F0EAFD2046FFF731FF00F007
S31502003D4027FB68B94EF604504FF08051CEF20000C0
S31502003D500160BFF34F8FBFF36F8F00BF00BF00BF7D
S31502003D60FDF76BFBD4F838A00020BAF1000FA3D000
S31502003D706EE7002490E7002490E745F6C23045F648
S31502003D80643245F2D373C0F20020C0F20022C0F2C0
S31502003D90002340F2E951FFF743FA45F6C23045F6F1
S31502003DA0643245F23573C0F20020C0F20022C0F23E
S31502003DB0002340F2F251FFF733FA45F6C23045F6D8
S31502003DC0643245F66D43C0F20020C0F20022C0F212
S31502003DD0002340F2ED51FFF723FAD4D4D4D4D4D43D
S31502003DE02DE9F04F83B00028029100F0B680044618
S31502003DF0006C002840F0C1800D4600F0D6FE10B9D6
S31502003E00002D40F0CA80FDF718FBA16BD1B1481E08
S31502003E10A063206810B901F001F8A06054F8100FF1
S31502003E2070B1204600F0CFFD50B14EF604504FF06F
S31502003E308051CEF200000160BFF34F8FBFF36F8F48
S31502003E40012484E004F124094FF0000B01206E46A0
S31502003E5002AF4FF0000800BF0299002976D0C007D2
S31502003E6002D0304600F037FEFDF715FB00F035FABA
S31502003E70FDF7E3FA94F84400FF2808BF84F844B03B
S31502003E8094F84500FF2808BF84F845B0FDF703FB08
S31502003E903046394600F02CFE70B12046FFF780FE10
S31502003EA000F076FAFDF7C9FAA56BFDF7F4FAD5B379
S31502003EB032E000BF00BF00BFFDF7BFFAD4F838A05A
S31502003EC0FDF7E9FABAF1000F05D02046FFF768FEC2
S31502003ED000F05EFA20E0206838B9FDF7AEFAA06875
S31502003EE000F076FE8046FDF7D6FA0299484600F0C3
S31502003EF00DFD2046FFF754FE00F04AFA60B94EF671
S31502003F0004504FF08051CEF200000160BFF34F8F94
S31502003F10BFF36F8F00BF00BFFDF78FFAA16B0020C2
S31502003F20002999D073E7B8F1000F09D0FDF785FA99
S31502003F30D9F8000030B1206B0068C0F1050102E03B
S31502003F40002406E00021A06800F0FCFE0024FDF734
S31502003F50A2FA204603B0BDE8F08F45F6C23045F618
S31502003F60082245F2D373C0F20020C0F20022C0F24A
S31502003F70002340F28261FFF753F945F6C23045F657
S31502003F80082245F60E73C0F20020C0F20022C0F2EB
S31502003F90002340F28661FFF743F945F6C23045F643
S31502003FA0082245F23573C0F20020C0F20022C0F2A8
S31502003FB0002340F28B61FFF733F9D4D4D4D4D4D49E
S31502003FC010B508B3D9B141F25C424FF0000C0A2396
S31502003FD0C2F200224FF0000E5468A04210D0BEF189
S31502003FE0000F03D11468002C52EA0C8E013B02F139
S31502003FF00802F1D1BEF1000F18BFCEE9001010BDC4
S315020040009646CEE9001010BD45F6C23045F21F5263
S3150200401045F6E153C0F20020C0F20022C0F20023AE
S3150200402040F6C931FFF7FCF870B515460E46044650
S31502004030FDF703FA94F84400FF2802D1002084F821
S31502004040440094F84500FF2802D1002084F8450078
S31502004050FDF721FAA06B28B904F1240031462A465D
S3150200406000F075FC2046BDE87040FFF799BDD4D438
S315020040702DE9F04782B00B9F002F00F0EE800C9CDA
S31502004080002C00F0FA808146682001900198682889
S3150200409040F003810E46019868212046984615464F
S315020040A0DDF828A001F0F8F9A900A5223846276311
S315020040B001F0EDF9206B7EB104F134010F2200BF4D
S315020040C016F8013B01F8013B1BB1002AA2F10102DD
S315020040D0F6D1002184F84310BAF1050F80F0ED8085
S315020040E000EB8500251D0438C4F82CA020F0070635
S315020040F02846C4F844A0FFF72EFB04F11800FFF788
S315020041002AFBCAF10500A061216B30464A464346A6
S3150200411024616462FDF734F92060FDF78EF941F2FD
S31502004120D04041F2AC4AC2F20020C2F2002A41F269
S31502004130B4490168C2F2002901310160DAF80010BF
S3150200414061B1D9F80000002844D1DAF80000E16A2A
S31502004150C06A884298BFCAF800403BE0CAF80040ED
S315020041600068012836D141F2DC460527C2F2002654
S315020041703046FFF7E5FA013F06F11406F8D141F29F
S315020041808858C2F200284046FFF7DAFA41F29C56F6
S31502004190C2F200263046FFF7D3FA41F25C50C2F271
S315020041A00020FFF7CDFA41F2B840C2F20020FFF735
S315020041B0C7FA41F24450C2F20020FFF7C1FA41F2B7
S315020041C07C5041F28051C2F20020C2F20021C0F8B6
S315020041D000800E6041F2B040C2F200200168013157
S315020041E0016041F24051E06AC2F200210A6890423F
S315020041F088BF086000EB800041F2DC41C2F2002178
S3150200420001EB80004068A0608268E26055608560CC
S31502004210E06A00EB800001EB8002626151F8202027
S31502004220013241F82020FDF736F9D9F8000080B1B5
S31502004230DAF80000E16AC06A88420AD24EF60450F1
S315020042404FF08051CEF200000160BFF34F8FBFF3F3
S315020042506F8F204602B0BDE8F08745F6184045F656
S31502004260ED3245F20063C0F20020C0F20022C0F235
S31502004270002340F2F141FEF7D3FF45F6184045F61A
S31502004280ED3245F63C13C0F20020C0F20022C0F225
S31502004290002340F2F241FEF7C3FF45F6184045F609
S315020042A0ED3245F6DF73C0F20020C0F20022C0F202
S315020042B0002340F2FA41FEF7B3FF45F6184045F6F1
S315020042C0571245F6AB03C0F20020C0F20022C0F23C
S315020042D0002340F26471FEF7A3FF41F2D440C2F21A
S315020042E0002001680131016070472DE9F04381B079
S315020042F041F2D84241F27C53C2F2002241F2AC446E
S31502004300C2F20023C2F20024156841F28052C2F2C0
S315020043100022D3F8008006460F46D2F800902268A3
S31502004320101DFFF73AFA701C16D1AFB141F2445094
S31502004330C2F20020D0E90012236801319A60936824
S315020043402768FB60276804375F602368043393603D
S3150200435022680160506117E02068AD194560206847
S3150200436000F1040105D3484601B0BDE8F043FFF76A
S31502004370F7B94046FFF7F4F941F27050C2F2002055
S3150200438001688D4238BF056001B0BDE8F083D4D420
S315020043902DE9F047FDF751F841F2D440C2F2002070
S315020043A00168002900F0B2800168013901600068E5
S315020043B028B10024FDF76FF82046BDE8F08741F2E8
S315020043C0D040C2F2002000680028F2D041F25C50D0
S315020043D041F2585AC2F2002041F2AC49C2F2002A16
S315020043E0C2F200290168002967D041F2405E41F21B
S315020043F0DC430021C2F2002EC2F200234FF0010C70
S31502004400C768FC6804F11802D4E90775A66ABD609C
S31502004410E7696F607568954201D1226A7260A1628E
S315020044203268013A3260261DD4E902256769956031
S31502004430A2686A607A68B24201D1E2687A60616112
S315020044403A68013A3A60E76ADEF80020974207EBDB
S31502004450870288BFCEF8007003EB82025268A26020
S315020044609568E5606E609660E26A02EB820203EB93
S315020044708205656153F82250013543F82250E26AFB
S31502004480D9F80040E46AA24288BFCAF800C00268AE
S315020044900AB12FF04BC841F27C50C2F200200168EB
S315020044A0096819B10068C068006801E04FF0FF3082
S315020044B041F27051C2F20021086041F27858C2F20C
S315020044C00028D8F800606EB1012400BF00BF00BF0B
S315020044D000F03AF908B1CAF80040013EF8D10020CE
S315020044E0C8F80000DAF8000000283FF462AFD9F8F5
S315020044F000004EF60450CEF200004FF08051012427
S315020045000160BFF34F8FBFF36F8F53E745F6184035
S3150200451045F6DE0245F6FC53C0F20020C0F2002248
S31502004520C0F2002340F68B71FEF77AFE80B580B1A9
S3150200453041F2D441C2F200210A6801320A600968D6
S31502004540012912D10021FFF7D0FEFFF721FF00B1AA
S3150200455080BD4EF604504FF08051CEF2000001604D
S31502004560BFF34F8FBFF36F8F80BD45F6184045F6F8
S31502004570495245F6ED23C0F20020C0F20022C0F2F5
S31502004580002340F68E11FEF74BFED4D4D4D4D4D4F5
S31502004590B0B541F2D440C2F20020006830B141F217
S315020045A058500121C2F200200160B0BD41F25850BC
S315020045B041F2AC45C2F20020C2F2002500210160A0
S315020045C0286800682968096B884205D8286800F1BE
S315020045D034012868FCF79CFD41F2405C41F2DC4361
S315020045E0C2F2002CC2F20023DCF8001001EB8102B9
S315020045F053F8220003EB820248B900BF00BF00BF96
S31502004600A1B152F8140D013908B92FF007C8506844
S3150200461002F1080443685360A34201D1D368536090
S31502004620D8682860CCF800102868B0BD45F6184056
S3150200463045F2ED5245F67B73C0F20020C0F200222D
S31502004640C0F2002341F2FA31FEF7EAFDB0B58AB0B4
S3150200465044F2494004A9C4F24C50069005A803AAA4
S3150200466000248DF81C40CDE90444FCF7FFFD45F219
S31502004670C900DDE9032CC0F2002006A90023059D2E
S315020046800094CDE901C5FFF7F3FC41F27450C2F282
S315020046900020056065B300F030FD012811D001301D
S315020046A026D145F6184045F6E85245F61433C0F2CF
S315020046B00020C0F20022C0F2002340F6A961FEF7F4
S315020046C0AFFD41F270510120C2F2002180F3108841
S315020046D04FF0FF320A6041F2B441C2F20021086093
S315020046E041F2D840C2F2002000210160FCF764FECC
S315020046F046F60800C0F2002000680AB0B0BDD4D465
S3150200470070B541F2CC44C2F200242068D8B141F21D
S31502004710B84541F2D046C2F20025C2F2002600BFD9
S31502004720FCF78BFEE868C0680430FFF736F830689D
S3150200473001383060206801382060FCF7ACFE206842
S3150200474008B12FF013C870BD2DE9F04F81B041F2C8
S31502004750D440C2F20020006840B141F27850C2F261
S3150200476000200168013101600020B6E041F2D84024
S3150200477041F2705CC2F20020C2F2002C016811F113
S31502004780010BC0F800B022D341F27C50C2F20020E5
S3150200479001680968002940F0A38041F2805301684C
S315020047A0C2F200231F680760196041F28451C2F207
S315020047B000210B6801330B600168096819B10068B2
S315020047C0C068006801E04FF0FF30CCF80000DCF86A
S315020047D00000834501D2002077E041F27C5A4FF077
S315020047E00009C2F2002ADAF800000068002867D041
S315020047F041F2405E41F2DC4441F2AC48C2F2002E84
S31502004800C2F20024C2F20028002000BF00BF00BF8F
S31502004810DAF80050ED68EE68374657F8045FAB45A4
S3150200482051D3D6E9021375698B60B168596069681C
S31502004830B94201D1F1686960C6F814902968013954
S315020048402960B56A85B1D6E9071306F118028B60AD
S31502004850F16959606968914201D1316A6960C6F8A5
S315020048602890296801392960F56ADEF800108D4220
S3150200487005EB850188BFCEF8005004EB810149683B
S31502004880B1608A68F26057608F60F16A01EB81015C
S3150200489004EB8102726154F82120013244F821208E
S315020048A0F16AD8F80020D26ADAF80030914288BF5D
S315020048B00120196809B12FF055C84FF0FF3502E003
S315020048C04FF0FF350020CCF8005041F25851C2F2A9
S315020048D000210968002918BF012001B0BDE8F08F48
S315020048E045F6184045F6723245F27753C0F200207B
S315020048F0C0F20022C0F2002341F25F21FEF790FCD3
S3150200490041F2D840C2F200200068704710B570B17B
S315020049100C4641F2AC41C2F2002109681831FEF799
S315020049201FFF01212046BDE81040FFF7DEBC45F619
S31502004930184045F68E5245F60833C0F20020C0F202
S315020049400022C0F200234FF4A451FEF769FC10B511
S3150200495048B341F2AC4CD0F804E0C2F2002C002A73
S31502004960DCF80030C3F81CE0DEF80830DCF8004062
S315020049702362DCF8004004F118045C60DCF80030C5
S3150200498003F11803CEF80830DCF80030986218BF3D
S315020049904FF0FF3103680133036008461146BDE854
S315020049A01040FFF7A2BC45F6184045F6ED0245F663
S315020049B00833C0F20020C0F20022C0F2002341F206
S315020049C0BE41FEF72DFC80B5C068C068002872D0D3
S315020049D0D0E9073100F1180C826A9960C3694B600D
S315020049E05168614501D1016A5160002181621168F5
S315020049F00139116041F2D441C2F20021096891B134
S31502004A0041F25C5EC2F2002EDEE90023C3619968C0
S31502004A100162C1F804C0C3F808C0C0F828E0511CFE
S31502004A20CEF8001035E0D0E9023100F1040C4269FB
S31502004A30996083684B605168614501D1C1685160D4
S31502004A400021416141F240531168C2F2002301394B
S31502004A501160C26A19688A4288BF1A6002EB820133
S31502004A6041F2DC42C2F2002202EB81014968816016
S31502004A708B68C360C3F804C0C1F808C0C16A01EB01
S31502004A80810102EB8103436152F82130013342F87E
S31502004A90213041F2AC41C06AC2F200210968C96AFA
S31502004AA0884206D941F258510120C2F2002108601B
S31502004AB080BD002080BD45F6184045F60D1245F230
S31502004AC0DF73C0F20020C0F20022C0F2002341F2DE
S31502004AD0F541FEF7A5FB41F28451C2F200210968B5
S31502004AE0016041F2D841C2F2002109684160704773
S31502004AF070B568B30D46D9B30446FCF79EFC41F285
S31502004B00D84EC2F2002EDEF8003029684A1C16D0B2
S31502004B1041F2845CD4E90002C2F2002CDCF80060A7
S31502004B20864201D093420CD29A1A914209D9881A26
S31502004B302860DCF800002060DEF8000060600024D7
S31502004B4002E0012400202860FCF7A5FC204670BD87
S31502004B5045F6184045F6C64245F65103C0F2002016
S31502004B60C0F20022C0F2002341F2A551FEF758FB23
S31502004B7045F6184045F6C64245F67313C0F20020C4
S31502004B80C0F20022C0F2002341F2A651FEF748FB12
S31502004B9041F258500121C2F200200160704741F2F1
S31502004BA0AC40C2F200200068704741F2B440C2F243
S31502004BB00020006850B141F2D440C2F200200068E1
S31502004BC000284FF0000008BF0220704701207047FE
S31502004BD010B3F0B581B041F2AC470446C2F20027E9
S31502004BE0C06A3968C96A884218D2A169002904D400
S31502004BF03968C96AC1F10501A16100EB800041F281
S31502004C00DC46C2F20026616906EB800081420CD0C6
S31502004C103868C06AE0622CE000207047606C396830
S31502004C20C96A88425FEA2F9024E0251D2846FEF7CE
S31502004C30B4FD386841F24051C2F20021C06AE06216
S31502004C400A68904288BF086000EB800006EB80008D
S31502004C504068A0608168E1604D608560E06A00EBB3
S31502004C60800006EB8001616156F82010013146F89A
S31502004C702010012001B0F0BDB0B5002840D0044696
S31502004C8041F2AC40C2F20020006884423AD1A06CE4
S31502004C90002847D00138A0644FF000002FD1616C84
S31502004CA0E26A8A4208BFB0BD251D2846FEF775FD99
S31502004CB0606CE062C0F10501A16141F24051C2F2AD
S31502004CC000210A68904288BF086000EB800041F22A
S31502004CD0DC41C2F2002101EB80004068A0608268DC
S31502004CE0E26055608560E06A00EB800001EB8002BD
S31502004CF0626151F82020013241F820200120B0BD26
S31502004D000020B0BD45F6184045F64D2245F65B0338
S31502004D10C0F20020C0F20022C0F2002341F6282190
S31502004D20FEF77EFA45F6184045F64D2245F617631C
S31502004D30C0F20020C0F20022C0F2002341F629216F
S31502004D40FEF76EFA70B528B3826C0446002A45D087
S31502004D50606C884250EA8180012A1BD1E16A814255
S31502004D6018D041F2AC42C2F200221268944245D0F7
S31502004D70A269E062002A02D4C0F10500A06101EB3B
S31502004D80810041F2DC46C2F20026616906EB800030
S31502004D90814200D070BD251D2846FEF7FEFC41F279
S31502004DA04051E06AC2F200210A68904288BF086058
S31502004DB000EB800006EB80004068A0608168E1603D
S31502004DC04D608560E06A00EB800006EB8001616160
S31502004DD056F82010013146F8201070BD45F61840ED
S31502004DE045F6870245F61763C0F20020C0F200229C
S31502004DF0C0F2002341F68621FEF712FA45F6184064
S31502004E0045F6870245F65453C0F20020C0F200224E
S31502004E10C0F2002341F6A121FEF702FA41F2AC40AC
S31502004E20C2F20020006810B1816C013181647047C2
S31502004E30F0B581B0002853D141F2D4400E46C2F2F9
S31502004E4000201D461446016801310160FCF7F5FA9F
S31502004E5041F2AC47C2F20027386890F86400022893
S31502004E6002D1FCF718FB1EE03868016EB1430166F9
S31502004E703868069E012180F86410FCF70CFB96B197
S31502004E8001213046FFF731FAFFF782FA68B94EF68A
S31502004E9004504FF08051CEF200000160BFF34F8FF5
S31502004EA0BFF36F8F01E0FFF773FAFCF7C6FA15B18D
S31502004EB03868006E28603868002590F86400022879
S31502004EC04FF0000004D1396801250A6EA2430A6632
S31502004ED0396881F86400FCF7DEFA284601B0F0BDB5
S31502004EE045F6184045F61C2245F67103C0F200202D
S31502004EF0C0F20022C0F2002341F62F61FEF790F9BC
S31502004F00F0B581B0002800F09C80002940F0A9800D
S31502004F1004461E461546069FFCF723FBEFF3118156
S31502004F20102080F311880FB1206E386094F8640067
S31502004F30042E4FF0020284F8642011D8DFE806F04E
S31502004F4018030C0A0600226E2A4307E0022801D142
S31502004F50002072E025660BE0226E0132226607E02F
S31502004F6041F2D842C2F200221268002A40F0998029
S31502004F70012861D1A06A002840F0838041F2D44022
S31502004F80C2F20020006880B141F25C5004F11806BA
S31502004F90C2F20020D0E90023E361013202609F6879
S31502004FA027627E609E60A06232E0D4E90237201D4D
S31502004FB062699F60A3687B605368834201D1E3689C
S31502004FC05360002363611368013B136041F240534F
S31502004FD0E26AC2F200231F68BA4288BF1A6002EB75
S31502004FE0820241F2DC43C2F2002303EB82025268E0
S31502004FF0A2609768E76078609060E06A00EB8000E4
S3150200500003EB8002626153F82020013243F820202C
S3150200501041F2AC40E26AC2F200200068C06A8242F3
S315020050200AD9079808B10122026041F258520120BA
S31502005030C2F20022106000E0012081F3118801B063
S31502005040F0BD45F6184045F6A45245F68533C0F242
S315020050500020C0F20022C0F2002341F61E71FEF7C4
S31502005060DFF845F6184045F6A45245F62613C0F277
S315020050700020C0F20022C0F2002341F61F71FEF7A3
S31502005080CFF845F6184045F6A45245F62773C0F206
S315020050900020C0F20022C0F2002341F67471FEF72E
S315020050A0BFF845F6184045F6A45245F64343C0F20A
S315020050B00020C0F20022C0F2002341F66971FEF719
S315020050C0AFF8D4D4D4D4D4D441F2DC444EF6045549
S315020050D0C2F20024CEF200054FF0805600BF00BF98
S315020050E0FFF70EFB2068022804D32E60BFF34F8F12
S315020050F0BFF36F8FFCF729FAF2E780B586B000F0AE
S315020051003AF841F2B050C2F20020006818B300200B
S31502005110CDE9040005A804A903AAFCF7B5F80DF128
S315020051200C0E0320009045F2F11045F6B661C0F26E
S3150200513000209EE80450C0F200210023CDE901CEF2
S31502005140FEF796FF41F2B451C2F20021086010B197
S31502005150012006B080BD45F21D6045F6657245F632
S315020051608113C0F20020C0F20022C0F200234FF4E5
S31502005170A371FEF755F870B582B0FCF75EF941F2FD
S31502005180B056C2F20026306868BB41F2C454C2F27D
S3150200519000242046FEF7D4FA41F2D855C2F2002581
S315020051A02846FEF7CDFA41F2B85041F2BC51C2F29E
S315020051B00020C2F2002141F2346241F2EC53046053
S315020051C00D60C2F20022C2F200230A200C21002541
S315020051D00095FEF752FB306028B145F28A61C0F2B3
S315020051E00021FEF7EDFE02B0BDE87040FCF753B9B0
S315020051F084B041F2B85841F2B055C2F2002801AC6F
S31502005200C2F200254FF0000BEA4600BF00BF00BF06
S31502005210D8F80000D0F80090B9F1000F04D0C068A9
S31502005220066802E000BF00BF0026FFF756F82046D8
S3150200523000F0A6F8019919B1FFF7AAF830E000BF0D
S315020052400746B9F1000F08D0BE4206D8FFF7A0F80C
S315020052503046394600F0C1F822E0B9F1000F01D01C
S31502005260002208E041F2BC50C2F200200068006849
S3150200527000285FEA1F922868F11BFEF7D5FEFFF7AA
S3150200528087F868B94EF604504FF08051CEF200000E
S315020052900160BFF34F8FBFF36F8F00BF00BF00BF28
S315020052A0CDF80CB0CDE901BB286800222146FEF7F5
S315020052B0B3FC08B92FF055C001980028F4D4039E18
S315020052C0706910B1301DFEF768FA504600F058F8C2
S315020052D0019901390829E7D80746DFE801F00505F3
S315020052E01E251E05051E250096F82400029BB1699F
S315020052F03A4640F0010086F824001944304600F090
S31502005300A6F808B92FF031C096F8240041071BD43D
S3150200531000F0FA0086F824001DE096F8240000F05A
S31502005320FE0086F82400BFE796F824100298B061C2
S3150200533041F0010186F8241088B1C11930463A4677
S315020053403B4600F084F8AFE70298B1690144304663
S315020053503A4600F065F8316A30468847A4E745F2D6
S315020053601D6045F6536245F6F873C0F20020C0F29E
S315020053700022C0F200234FF48261FDF751FFD4D41C
S31502005380F0B581B00446FFF7BBFA41F2C0560546B6
S31502005390C2F200263168884210D241F2B857C2F2F0
S315020053A0002700BF00BF00BF3868016841B1C0686E
S315020053B04FF0FF31006800F010F8F5E7002007E033
S315020053C041F2BC51C2F200210A68086001203A602B
S315020053D020603560284601B0F0BD70B541F2B85282
S315020053E00646C2F200220D461268D268D468201D13
S315020053F0FEF7D3F994F82400410704D400F0FA002A
S3150200540084F8240004E0204631462A4600F008F8D3
S31502005410216A2046BDE870400847D4D4D4D4D4D4F7
S3150200542070B50446806915460E460144204600BF03
S31502005430334600F00CF848B1A069216A06442046BA
S315020054408847A0692A4681192046F1E770BD8C4635
S3150200545001469445006141F804CF08D941F2B8509B
S315020054609A42C2F200200AD29C4508D30DE0806916
S31502005470D21A824209D241F2BC50C2F2002080B551
S315020054800068FEF76DF9002080BD012070470B46CB
S3150200549011461A4600F00DB80A46002100F009B876
S315020054A010B5002322B1CC5C013AC4540133F9E7AA
S315020054B010BD03461AB103F8011B013AFAE7704719
S315020054C010B505490446054AFFF7EAFF04480549AF
S315020054D02044FFF7E1FF10BDA0000002000000001B
S315020054E000000000000000000249401A024908605C
S315020054F0704700BF08000000AC1600220000000042
