S021000052413850314475616C436F726550726F6A6563745F435055312E7372656359
S315020D800000041822F9880D02D5870D0203890D0287
S315020D801003890D0203890D0203890D0203890D02DF
S315020D8020000000000000000000000000CD810D02DE
S315020D803003890D0200000000E5810D024D820D023D
S315020D8040022818BF704740F22C404AF64001C2F290
S315020D80501820C0F20D2100F011BAD4D4012001F07E
S315020D806071FBFBE77047FFF7FDBF00BE7047D4D427
S315020D8070B0B540F23444C2F2182420684FF0FF31F5
S315020D808000F0FEFF012803D020680021FFF7EDFF67
S315020D809040F23840C2F21820017801B1B0BD01217B
S315020D80A00170FFF7E0FF40F23C45C2F2182500BF12
S315020D80B0286801382860F1D02068002100220023AB
S315020D80C000F0B4FD0128F3D020680021FFF7CDFFA3
S315020D80D0EEE780B540F23C40C2F218200021016065
S315020D80E040F23840C2F2182040F240420170C2F20C
S315020D80F018224FF48070012100F077FD40F23441D1
S315020D8100C2F21821086018B900200021FFF7ADFF51
S315020D811000F01EF801F095FB002080BD40F2884369
S315020D8120C2F21823036040F2E840C2F2182008603A
S315020D813080201060704740F2E863C2F21823036094
S315020D814040F24870C2F21820086080201060704715
S315020D815080B584B040F23C40C2F21820016840F668
S315020D8160481C0131016040F67040C2F2182001210F
S315020D8170CDE9001048F2BB104AF271514AF2C01312
S315020D8180C2F2182CC0F20D20C0F20D21C0F20D2341
S315020D81904FF48072CDF808C001F08EF840F6A811A2
S315020D81A0C2F21821086008B104B080BD002000217A
S315020D81B004B0BDE88040FFF758BF10B50446FFF77F
S315020D81C057FF2046BDE81040FFF748BF1EF0040FCB
S315020D81D00CBFEFF30880EFF3098001490847000051
S315020D81E073820D020F4B1968EFF309821EF0100F01
S315020D81F008BF22ED108A22E9F04FEFF30B8342F806
S315020D8200043D0A604FF0100080F31188BFF34F8FC3
S315020D8210BFF36F8F01F0C6FA4FF0000080F311889D
S315020D822000F002B86C0A1822074801680A6802CAE9
S315020D823081F30B88B2E8F04F1EF0100F08BFB2ECB7
S315020D8240108A82F3098870476C0A182210B5EFF36B
S315020D82501184102080F3118801F070FB30B14EF6B7
S315020D82600450CEF200004FF08051016084F3118864
S315020D827010BD806910F8020C022808BFFFF7D4BFA3
S315020D8280042838BF704780B54AF2EA104AF22652E0
S315020D82904AF2F523C0F20D20C0F20D22C0F20D23D3
S315020D82A04FF47E7100F04CFA283140F8481D48F221
S315020D82B0D121C0F20D214FF0807C22F00102C16363
S315020D82C06FF002010264C0F844C0C0E90913704799
S315020D82D000BE00BFFEE7D4D44EF62250CEF2000009
S315020D82E0F021017000F016F84EF63470CEF2000051
S315020D82F0016841F04041016062B6BFF36F8FEFF343
S315020D8300148C2CF0040C8CF31488BFF36F8F02DFE0
S315020D831000BEFDE740F61820C2F21820006844F6AA
S315020D8320D351C1F26201A0FB01014FF0FF3000EB08
S315020D833091110020B0EB116F18BF70474EF210026B
S315020D8340CEF2000251604EF62351CEF20001F02319
S315020D83500B7090600720106070471021EFF31180AB
S315020D836081F3118840F6AC11C2F218210A68531C2A
S315020D83700B605AB940F6B011C2F2182108604EF6DA
S315020D83800450CEF200000068C00500D1704780B5DA
S315020D83904AF2EA104AF210224AF29743C0F20D202F
S315020D83A0C0F20D22C0F20D2340F2A44100F0C8F92D
S315020D83B040F6AC10C2F21820016859B101390160BC
S315020D83C018BF704740F6B010C2F21820006880F34D
S315020D83D01188704780B54AF2EA104AF25D724AF286
S315020D83E0C413C0F20D20C0F20D22C0F20D2340F2CD
S315020D83F0AD4100F0A5F980B598B34EF6902EC4F2B4
S315020D8400010E9EF800100A0722D04EF2FA32C4F27D
S315020D8410010213884AF2025CCFF6FF7C0020A2F815
S315020D842000C08EF8000043F425401080BFF34F8F35
S315020D843030BFBFF36F8F62B6BFF36F8F72B6108800
S315020D8440A2F800C040F425408EF80010108080BDC1
S315020D8450BFF34F8F30BFBFF36F8F62B6BFF36F8F10
S315020D846072B680BD80B572B601F049F80120FFF7EC
S315020D8470C2FF62B6BDE8804001F09CB880B545F2F8
S315020D84805422C5F24F020260084600F003F800209E
S315020D849080BDD4D470B5044600F05CF840F6082CC5
S315020D84A0EFF31080012181F31088C2F2182CDCF84B
S315020D84B0001039B940F61451C4F2400100220A7077
S315020D84C040220A70DCF800100131CCF8001080F35E
S315020D84D01088208810B340F6000E0021C4F2400E1B
S315020D84E0606800EBC102928850F83130100ADD0344
S315020D84F0D2B20BD50EEB801555F8226026F48036D6
S315020D850045F8226023F4803645F822600EEB801082
S315020D851040F82230208801318142E1D3EFF31081F8
S315020D8520012080F31088DCF8000020B1DCF8000091
S315020D85300138CCF80000DCF8000038B940F61450CA
S315020D8540C4F24000002202708022027081F310886C
S315020D855070BDD4D42DE9F04F81B0044600880028B1
S315020D85605CD042F240084EF64C4A4AF64C0BC4F227
S315020D857020080026C4F2010AC0F20D2B4FF00109A4
S315020D8580002700BF60683BF8172000EBC600818804
S315020D859091423CD100689AF8001000F0B85009FAE1
S315020D85A007F5B0F1807F05EA010015D150B901201A
S315020D85B000F07BF99AF8000028438AF800000120A2
S315020D85C000F04AF918F91700002820D418F81700F8
S315020D85D040F0800015E000BF50B1012000F065F9B2
S315020D85E09AF80000A8438AF80000012000F034F939
S315020D85F018F91700B0F1FF3F09DC18F8170000F063
S315020D86007F0008F81700C820012100F09CF80137F9
S315020D8610032FB7D1208801368642B1D301B0BDE80A
S315020D8620F08FD4D44EF22401C4F201018878098860
S315020D8630C1F30312A2F1080103293BD8DFE801F0C9
S315020D8640022C101E40F20041C2F2182151F82000F0
S315020D86504AF6AB21CAF6AA21A0FB0101480830E071
S315020D866040F20041C2F2182151F820004AF6AB2120
S315020D8670CAF6AA21A0FB0101C80822E040F2004178
S315020D8680C2F2182151F820004AF6AB21CAF6AA21E8
S315020D8690A0FB0101080914E040F20041C2F21821C3
S315020D86A051F820004AF6AB21CAF6AA21A0FB010118
S315020D86B0880806E040F20041C2F2182151F8200066
S315020D86C0D04040F61821C2F218210860704770B5E5
S315020D86D040F2004046F6004141F20022C2F2182055
S315020D86E0C0F2DC21C0F27A0243F2006C4FF4004371
S315020D86F0C0F26E1C4CF6002E44F2553448F200457B
S315020D870044F2006680E80E1040F6000143F60002C0
S315020D8710C3F69A3EC1F2DE34C1F2D775C2F2C33642
S315020D8720C2F6AF71C1F69C42C0E9043EC0E90664C9
S315020D8730C0E908518262BDE87040FFF773BF70470A
S315020D874000BE00BFFEE740F61822C2F218221268DA
S315020D875041F20023C0F27A039A4201FB00F00FD3D5
S315020D876040F6FF01C0F23D0111444DF68362C4F29B
S315020D87701B32A1FB0212110DA0FB0101E9B11FE093
S315020D87804CF6002348F63811C3F69A33C0F241016E
S315020D8790B3FBF2F2884207D24FF47A7100FB01F075
S315020D87A0B0FBF2F0800808E09200B0FBF2F08842CE
S315020D87B006D24FF47A7100FB01F028B100F005B82C
S315020D87C04FF0FF3000F001B8704701380028FCD198
S315020D87D07047D4D4F0B581B04CF20015C4F2000541
S315020D87E02868296A40F6B41701EA00060024C2F287
S315020D87F0182700BF26FA04F0C00704D057F8241034
S315020D880009B1204688470134152CF3D12E6100BFDC
S315020D8810286A3042FCD101B0F0BD4AF6A020C0F262
S315020D88200D200088B8B14CF200310022C4F20001CD
S315020D8830B2EB902F08600ED146F2400C4109C4F2FC
S315020D8840000C5CF8213000F01F00012202FA00F044
S315020D885018434CF8210070470122EFF3108182F381
S315020D8860108840F60C22C2F2182232F8103023B1CB
S315020D887032F81030013B22F8103032F810208AB946
S315020D88804EF2FA3CC4F2010C4AF6A222BCF80030B2
S315020D8890C0F20D2232F8100043F4254222EA0000FE
S315020D88A0ACF8000081F31088704780B50122EFF312
S315020D88B0108182F3108840F60C22C2F2182232F889
S315020D88C010308BB94EF2FA3C4AF6A223C4F2010CD1
S315020D88D0C0F20D23BCF800E033F8103043EA0E0364
S315020D88E043F42543ACF8003032F81030013322F848
S315020D88F0103081F3108880BD00F006F8FFF7E9FB12
S315020D8900FEE700BE7047D4D4B0B54EF60850CEF28F
S315020D891000004FF47001C0F8801048F20001C0F259
S315020D89200D214CF2040401600020C4F20104FFF78C
S315020D893087FBFFF7CCFE206840F00100206000BFE8
S315020D894020680028FCD1012044F8040CFFF778FBBF
S315020D895040F20000C2F2182080F30A88002000F0CF
S315020D89602FF8FFF75FFE012000F02AF840F670445B
S315020D8970C2F21824204601F005FC204601F016FC31
S315020D89804AF6FE204AF6FE21C0F20D20C0F20D2156
S315020D8990081A8410012C08DB4AF6FE25C0F20D25B5
S315020D89A055F8040B8047013CFAD10220FFF748FB2C
S315020D89B0FFF733FF0020BDE8B040FFF7C0BED4D4A9
S315020D89C0F0B581B04AF67405C0F20D252E6804463F
S315020D89D076B16868071D00BF7879844204D157E9DC
S315020D89E00101091A01F0B9FB013E07F10C07F3D19A
S315020D89F0AE6886B1E86800F1080500BF6879844261
S315020D8A0005D155E902022968121A01F0AAFB013EA7
S315020D8A1005F11005F2D101B0F0BD4FF0FF3102465E
S315020D8A2042F8081F0021C0E90322C0E9001270476F
S315020D8A30002101617047D4D480B5D1F800C01CF174
S315020D8A40010207D000F10802964652681368634583
S315020D8A50FAD903E0D0F810E0DEF804204A609160FE
S315020D8A60C1F808E0CEF80410086101680131016011
S315020D8A7080BDD0E901230169936042685A604A6854
S315020D8A80824201D182684A60002202610868013879
S315020D8A900860704770B500284BD00446C06BC0B352
S315020D8AA00E46216CA0FB010199BBFFF756FC20680F
S315020D8AB0D4E90F12002502FB0103013901FB020164
S315020D8AC0A563C4E90103FF20E16084F8440084F83C
S315020D8AD0450004F110004EB1FFF79FFF04F124008B
S315020D8AE0FFF79BFFFFF764FC012070BD01680029AB
S315020D8AF0F8D001F05DF80028F4D04EF60450CEF20F
S315020D8B0000004FF080510160BFF34F8FBFF36F8F9F
S315020D8B10E8E74AF2C1504AF242724AF2B763C0F22C
S315020D8B200D20C0F20D22C0F20D234FF4B671FFF7E0
S315020D8B3007FE4AF2C1504AF242724AF2A463C0F2E9
S315020D8B400D20C0F20D22C0F20D2340F23711FFF7B0
S315020D8B50F7FD10B582B043B3B8B11C4601B9A2B93F
S315020D8B6001B192B148230193019B482B2DD1019B53
S315020D8B70002908BF2246C4E90F01204601212260C1
S315020D8B80FFF788FF204602B010BD4AF2C1504AF2E5
S315020D8B900C524AF22B63C0F20D20C0F20D22C0F226
S315020D8BA00D234FF4D871FFF7CBFD4AF2C1504AF2AD
S315020D8BB00C524AF28B33C0F20D20C0F20D22C0F2D6
S315020D8BC00D234FF4C271FFF7BBFD4AF2C1504AF2B3
S315020D8BD00C524AF2DD43C0F20D20C0F20D22C0F254
S315020D8BE00D234FF4CB71FFF7ABFDB0B582B060B17B
S315020D8BF00D46814209D81446002100222346FFF76D
S315020D8C00A8FF2046A56302B0B0BD4AF2C1504AF292
S315020D8C107C524AF29933C0F20D20C0F20D22C0F2F7
S315020D8C200D234FF45E71FFF78BFDD4D42DE9F04F72
S315020D8C3085B00028049200F09D809946154604469B
S315020D8C4019B9206C002840F0C580B9F1020F03D185
S315020D8C50E06B012840F0AE80019101F093F810B956
S315020D8C60002D40F09780FFF778FBA06BB9F1020F4C
S315020D8C7059D0E16B884256D304F11007012002AE9A
S315020D8C804FF0000B04AD00BF0499002966D0C00752
S315020D8C9002D0304601F012F8FFF78AFB00F02FFCE6
S315020D8CA0FFF75BFB94F84400FF2808BF84F844B035
S315020D8CB094F84500FF2808BF84F845B0FFF778FB06
S315020D8CC03046294601F007F800284AD1FFF745FB41
S315020D8CD0D4F838A0D4F83C80FFF76AFBC24515D10B
S315020D8CE00499384600F006FF204600F0B5F800F06C
S315020D8CF061FC80B94EF60450CEF200004FF0805161
S315020D8D000160BFF34F8FBFF36F8F04E0204600F073
S315020D8D10A3F800F04FFCFFF720FBA06BE16B884236
S315020D8D204FF00000B0D2019920464A4600F062F893
S315020D8D3054F8240F70B1204600F03AFF50B14EF6AA
S315020D8D400450CEF200004FF080510160BFF34F8FF9
S315020D8D50BFF36F8FFFF72CFB012008E0FFF728FB0F
S315020D8D6004E0204600F078F800F024FC002005B05F
S315020D8D70BDE8F08F4AF2C1504AF20B324AF2A463B1
S315020D8D80C0F20D20C0F20D22C0F20D2340F2B63113
S315020D8D90FFF7D6FC4AF2C1504AF20B324AF21D33A4
S315020D8DA0C0F20D20C0F20D22C0F20D2340F2BB31EE
S315020D8DB0FFF7C6FC4AF2C1504AF20B324AF2A13310
S315020D8DC0C0F20D20C0F20D22C0F20D234FF46E71CA
S315020D8DD0FFF7B6FC4AF2C1504AF20B324AF2AC73B5
S315020D8DE0C0F20D20C0F20D22C0F20D2340F2B731B2
S315020D8DF0FFF7A6FC70B5866B036C044643B31546A6
S315020D8E00CAB1E0681A4601F0ACF9E168206C226835
S315020D8E10091A9142E16003D2A16840420844E0601A
S315020D8E20A81EB0FA80F040093146002E18BF012166
S315020D8E300840361A0CE060681A4601F092F9D4E938
S315020D8E400101226C10448842606001D32068606083
S315020D8E50701CA06370BDD4D4F0B581B00446FFF783
S315020D8E607CFA94F94560012E0EDB04F1240500BF50
S315020D8E70286848B1284600F09BFE08B100F07BFF3A
S315020D8E8070B2013E0128F3DCFF2684F84560FFF738
S315020D8E908FFAFFF762FA94F94470012F0EDB04F193
S315020D8EA0100500BF286848B1284600F081FE08B1BA
S315020D8EB000F061FF78B2013F0128F3DC84F84460CB
S315020D8EC001B0BDE8F040FFF773BAD4D42DE9F04FE7
S315020D8ED083B00028029200F0A28016468946044607
S315020D8EE019B9206C002840F0BA8000F04BFF10B97A
S315020D8EF0002E40F0A480FFF730FAD4F838A0BAF16C
S315020D8F00000F28D0226C52B1D4E902011144E1605E
S315020D8F10814224BF2168E160484601F022F954F8E6
S315020D8F20100FAAF10101A16270B1204600F040FEB8
S315020D8F3050B14EF60450CEF200004FF08051016052
S315020D8F40BFF34F8FBFF36F8F0124FFF731FA204620
S315020D8F5003B0BDE8F08F04F1240801206F464FF0EF
S315020D8F60000B02AE0299002955D0C00702D0384631
S315020D8F7000F0A4FEFFF71CFA00F0C1FAFFF7EDF9B7
S315020D8F8094F84400FF2808BF84F844B094F84500CD
S315020D8F90FF2808BF84F845B0FFF70AFA384631466E
S315020D8FA000F099FE60B12046FFF756FF00F002FB76
S315020D8FB0FFF7D3F9A56BFFF7FBF975B322E000BFF7
S315020D8FC0FFF7CBF9A56BFFF7F3F92DB12046FFF7A6
S315020D8FD043FF00F0EFFA15E00299404600F08AFDD4
S315020D8FE02046FFF739FF00F0E5FA58B94EF6045060
S315020D8FF0CEF200004FF080510160BFF34F8FBFF3E9
S315020D90006F8F00BFFFF7A9F9D4F838A00020BAF187
S315020D9010000FA7D076E7002497E7002497E74AF2D8
S315020D9020C1504AF2A0524AF27033C0F20D20C0F27C
S315020D90300D22C0F20D2340F2E951FFF781FB4AF2F0
S315020D9040C1504AF2A0524AF21D33C0F20D20C0F2AF
S315020D90500D22C0F20D2340F2F251FFF771FB4AF2D7
S315020D9060C1504AF2A0524AF23663C0F20D20C0F246
S315020D90700D22C0F20D2340F2ED51FFF761FBD4D460
S315020D90802DE9F04F83B00028029100F08E80044640
S315020D9090006C002840F099800D4600F073FE10B961
S315020D90A0002D40F0A280FFF758F9A16BD1B154F80B
S315020D90B0100F0139A16270B1204600F079FD50B151
S315020D90C04EF60450CEF200004FF080510160BFF310
S315020D90D04F8FBFF36F8F0124FFF76AF9204603B056
S315020D90E0BDE8F08F4EF6045904F1240801206E46B0
S315020D90F04FF0000B02AFCEF200094FF0805A00BFBF
S315020D9100029900294DD0C00702D0304600F0D6FD97
S315020D9110FFF74EF900F0F3F9FFF71FF994F8440043
S315020D9120FF2808BF84F844B094F84500FF2808BF0D
S315020D913084F845B0FFF73CF93046394600F0CBFDD1
S315020D914060B12046FFF788FE00F034FAFFF705F905
S315020D9150A56BFFF72DF935B31CE000BFFFF7FDF840
S315020D9160A56BFFF725F92DB12046FFF775FE00F029
S315020D917021FA0FE00299404600F0BCFC2046FFF7AB
S315020D91806BFE00F017FA28B9C9F800A0BFF34F8F8E
S315020D9190BFF36F8FFFF7E1F8A16B00200029AFD067
S315020D91A085E7002498E7002498E74AF2C1504AF26F
S315020D91B0F8424AF27033C0F20D20C0F20D22C0F20F
S315020D91C00D2340F28261FFF7BBFA4AF2C1504AF211
S315020D91D0F8424AF26F73C0F20D20C0F20D22C0F2B0
S315020D91E00D2340F28661FFF7ABFA4AF2C1504AF2FD
S315020D91F0F8424AF21D33C0F20D20C0F20D22C0F222
S315020D92000D2340F28B61FFF79BFAD4D4B0B500B3B0
S315020D9210D1B140F61C2E4FF0000CC2F2182E0022D0
S315020D9220002300BF0EEB02046568A8420DD023B9D8
S315020D92302368002B18BF644623460832502AF1D103
S315020D9240002B18BFC3E90010B0BD2346C3E90010B9
S315020D9250B0BD4AF2C1504AF2D6124AF2F163C0F2D9
S315020D92600D20C0F20D22C0F20D2340F6C931FFF7D3
S315020D927067FA70B515460E460446FFF76EF894F872
S315020D92804400FF2804BF002084F8440094F84500EA
S315020D9290FF2804BF002084F84500FFF789F8A06B6C
S315020D92A028B904F1240031462A4600F044FC204632
S315020D92B0BDE87040FFF7D0BD2DE9F04F81B00B9D93
S315020D92C0002D00F0DC800C9C002C00F0E88081461D
S315020D92D0602000900098602840F0F18000980E46BC
S315020D92E00A9F204660219846924600F036FF256376
S315020D92F066B104F134000021725C42541AB10F2991
S315020D930001F10101F8D1002084F84300052F80F008
S315020D9310E68005EB8A000438251D20F0070628464F
S315020D9320E762FFF785FB04F11800FFF781FBC7F132
S315020D93300500216BA06130464A46434624616462AC
S315020D9340FEF7B2FF2060FFF708F840F69020C2F252
S315020D93501820016840F66C2B01310160C2F2182B00
S315020D9360DBF8001040F6742A40F69C27C2F2182A42
S315020D9370C2F2182761B1DAF80000002840D1DBF8F5
S315020D93800000E16AC06A884298BFCBF8004037E018
S315020D9390CBF800400068012832D10026B819FFF734
S315020D93A03CFB1436642EF9D140F64838C2F2182821
S315020D93B04046FFF732FB40F65C39C2F218294846A1
S315020D93C0FFF72BFB40F61C30C2F21820FFF725FBE8
S315020D93D040F67820C2F21820FFF71FFB40F6043044
S315020D93E0C2F21820FFF719FB40F63C30C2F21820E4
S315020D93F0C0F8008040F64030C2F21820C0F8009046
S315020D940040F67020C2F2182001680131016040F663
S315020D94100031C2F21821E06A0A68904288BF0860DC
S315020D942000EB800007EB80004068A0608168E16078
S315020D94304D608560E06A00EB800007EB800161619B
S315020D944057F82010013147F82010FEF7B1FFDAF870
S315020D9450000080B1DBF80000E16AC06A88420AD2D8
S315020D94604EF60450CEF200004FF080510160BFF36C
S315020D94704F8FBFF36F8F204601B0BDE8F08F4AF2D2
S315020D948000604AF2EC524AF2AC23C0F20D20C0F251
S315020D94900D22C0F20D2340F2F141FFF751F94AF2C6
S315020D94A000604AF2EC524AF25143C0F20D20C0F26C
S315020D94B00D22C0F20D2340F2F241FFF741F94AF2B5
S315020D94C000604AF2EC524AF60203C0F20D20C0F2D7
S315020D94D00D22C0F20D2340F2FA41FFF731F94AF29D
S315020D94E000604AF26C424AF2F833C0F20D20C0F225
S315020D94F00D22C0F20D2340F26471FFF721F940F6F9
S315020D95009420C2F2182001680131016070472DE9DD
S315020D9510F04381B00E4640F69821C2F218210D682D
S315020D952040F63C31C2F21821D1F8008040F64031A6
S315020D953040F66C24C2F21821C2F21824D1F800901A
S315020D954021680746081DFFF794FA781C16D1AEB1AD
S315020D955040F60430C2F21820D0E900122368013118
S315020D95609A6093682768FB60276804375F602368F3
S315020D95700433936022680160506117E02068ED198B
S315020D95804560206800F1040105D3484601B0BDE8E7
S315020D9590F043FFF751BA4046FFF74EFA40F6303028
S315020D95A0C2F2182001688D4238BF056001B0BDE8D0
S315020D95B0F083D4D42DE9F047FEF7CFFE40F6942082
S315020D95C0C2F218200168002900F0AC800168013949
S315020D95D00160006828B10024FEF7EAFE2046BDE8C8
S315020D95E0F08740F69020C2F2182000680028F2D0CB
S315020D95F040F61C30C2F21820016840F6183A40F6C1
S315020D96006C290029C2F2182AC2F2182964D040F632
S315020D9610003240F69C230021C2F21822C2F2182310
S315020D96204FF0010CC768FC68D4E90775A66ABD60E0
S315020D9630E7696F60776804F11805AF4201D1276AB1
S315020D96407760A1623768013F3760D4E902656769C1
S315020D9650B560A6686E607D68261DB54201D1E568C6
S315020D96607D6061613D68013D3D60E76A1568AF4207
S315020D967088BF176007EB870703EB87077F68A7602D
S315020D9680BD68E5606E60BE60E76A07EB870703EBB0
S315020D96908706666153F82760013643F82760E76A45
S315020D96A0D9F80060F66AB74288BFCAF800C00768E3
S315020D96B0002FB7D140F63C30C2F218200168096876
S315020D96C019B10068C068006801E04FF0FF3040F63E
S315020D96D03031C2F21821086040F63838C2F2182825
S315020D96E0D8F8006056B1012400F028F908B1CAF87D
S315020D96F00040013EF8D10020C8F80000DAF800005B
S315020D970000283FF468AFD9F800004EF60450CEF2A9
S315020D971000004FF080510160BFF34F8F0124BFF35C
S315020D97206F8F59E74AF200604AF209424AF20C7308
S315020D9730C0F20D20C0F20D22C0F20D2340F68B7140
S315020D9740FEF7FEFF80B580B140F69421C2F21821D4
S315020D97500A6801320A600968012912D10021FFF750
S315020D9760D6FEFFF727FF00B180BD4EF60450CEF2AE
S315020D977000004FF080510160BFF34F8FBFF36F8F23
S315020D978080BD4AF200604AF2AC624AF23853C0F228
S315020D97900D20C0F20D22C0F20D2340F68E11FEF7FA
S315020D97A0CFFFD4D480B540F69420C2F218200068BB
S315020D97B030B140F61830C2F218200121016080BD89
S315020D97C040F61830C2F21820002140F6003C016026
S315020D97D0C2F2182CDCF8001040F69C2301EB810234
S315020D97E0C2F2182353F8220003EB820230B900BFEE
S315020D97F0B9B152F8140D01390028F9D050684368F1
S315020D980002F108008342536001D1D3685360D868D0
S315020D981040F66C22C2F218221060CCF800101068C5
S315020D982080BD4AF200604AF299224AF29E73C0F254
S315020D98300D20C0F20D22C0F20D2341F2FA31FEF7D0
S315020D98407FFFB0B58AB044F24940C4F24C500024B1
S315020D9850069005A804A903AA8DF81C40CDE9044477
S315020D9860FEF75CFCDDE90320059DCDE9004049F6D6
S315020D9870AD50C0F20D2006A900230295FFF71CFD7F
S315020D988040F63430C2F21820056065B300F0A5FA31
S315020D9890012811D0013026D14AF200604AF2F8624F
S315020D98A04AF25F53C0F20D20C0F20D22C0F20D2313
S315020D98B040F6A961FEF744FF40F63031C2F2182197
S315020D98C04FF0FF32012080F310880A6040F67421B2
S315020D98D0C2F21821086040F69820C2F21820002123
S315020D98E00160FEF7F9FC4AF6AC20C0F20D200068C5
S315020D98F00AB0B0BD70B540F68C24C2F218242068A9
S315020D9900D0B140F6782540F69026C2F21825C2F25D
S315020D9910182600BFFEF721FDE868C0680430FFF780
S315020D9920A8F8306801383060206801382060FEF7EB
S315020D99303FFD20680028EDD170BDD4D42DE9F04746
S315020D994040F69420C2F21820006848B140F638302D
S315020D9950C2F218200168013101600020BDE8F087CE
S315020D996040F69820C2F21820016840F6303C4A1C97
S315020D9970C2F2182C026022D340F63C30C2F21820F5
S315020D998001680968002940F09F8040F64033C2F213
S315020D9990182301681F680760196040F64431C2F248
S315020D99A018210B6801330B600168096819B100684B
S315020D99B0C068006801E04FF0FF30CCF80000DCF81B
S315020D99C00000824201D2002074E040F63C3AC2F217
S315020D99D0182ADAF800004FF000090068002864D052
S315020D99E040F6003E40F69C2440F66C28C2F2182E34
S315020D99F0C2F21824C2F21828002000BFDAF800506D
S315020D9A00ED68EE68374657F8045FAA4250D3D6E999
S315020D9A10021375698B60B16859606968B94201D1E3
S315020D9A20F1686960C6F81490296801392960B56A2A
S315020D9A3085B1D6E907138B60F1695960696806F13C
S315020D9A401803994201D1316A6960C6F828902968CE
S315020D9A5001392960F56ADEF800108D4205EB8501A4
S315020D9A6088BFCEF8005004EB81014968B1608B685E
S315020D9A70F3605F608F60F16A01EB810104EB810394
S315020D9A80736154F82130013344F82130F16AD8F864
S315020D9A900030DB6ADAF80050994288BF0120296846
S315020D9AA00029ABD14FF0FF3502E04FF0FF35002014
S315020D9AB0CCF8005040F61831C2F218210968002977
S315020D9AC018BF0120BDE8F0874AF200604AF2AE5295
S315020D9AD04AF22323C0F20D20C0F20D22C0F20D234D
S315020D9AE041F25F21FEF72CFE40F69820C2F21820B5
S315020D9AF00068704710B570B10C4640F66C21C2F283
S315020D9B00182109681831FEF797FF20460121BDE895
S315020D9B101040FFF7FCBC4AF200604AF2DB624AF2E1
S315020D9B205353C0F20D20C0F20D22C0F20D234FF495
S315020D9B30A451FEF705FE10B550B340F66C2CC2F2D9
S315020D9B40182C0346D0F804E0DCF80000002AC0F811
S315020D9B501CE0DEF80800DCF800402062DCF800406C
S315020D9B6004F118044460DCF8000000F11800CEF888
S315020D9B700800DCF800008362186818BF4FF0FF3149
S315020D9B80441C084611461C60BDE81040FFF7BFBCD9
S315020D9B904AF200604AF218424AF25353C0F20D20BD
S315020D9BA0C0F20D22C0F20D2341F2BE41FEF7C8FDF1
S315020D9BB080B5C068C068002870D0D0E90713826AE4
S315020D9BC08B60C1695960536800F118018B4201D14E
S315020D9BD0036A5360002383621368013B136040F6E8
S315020D9BE09422C2F2182212688AB140F61C3CC2F2C5
S315020D9BF0182CDCE900E2C261936803625960916038
S315020D9C000EF10101C0F828C0CCF8001034E0D0E9FD
S315020D9C10021342698B60816859605368011D8B423C
S315020D9C2001D1C368536000234361136840F6003CBB
S315020D9C30013B1360C2F2182CC26ADCF800309A425C
S315020D9C4088BFCCF8002040F69C2C02EB8202C2F2B1
S315020D9C50182C0CEB8202526882609368C3605960BD
S315020D9C609160C16A01EB81010CEB810242615CF8E4
S315020D9C70212001324CF8212040F66C21C2F2182126
S315020D9C80C06A0968C96A884291BF002040F6183138
S315020D9C90C2F21821012088BF086080BD4AF2006019
S315020D9CA04AF238424AF27C33C0F20D20C0F20D223E
S315020D9CB0C0F20D2341F2F541FEF742FD40F6443165
S315020D9CC0C2F218210968016040F69821C2F21821E4
S315020D9CD009684160704770B568B30D46D9B304463D
S315020D9CE0FEF73BFB40F6982EC2F2182EDEF8003038
S315020D9CF029684A1C16D040F6443CC2F2182CD4E907
S315020D9D000002DCF80060864201D093420CD29A1A08
S315020D9D10914209D9881A2860DCF800002060DEF825
S315020D9D2000006060002402E0002001242860FEF796
S315020D9D303FFB204670BD4AF200604AF28F624AF23C
S315020D9D40EE33C0F20D20C0F20D22C0F20D2341F208
S315020D9D50A551FEF7F5FC4AF200604AF28F624AF20D
S315020D9D608143C0F20D20C0F20D22C0F20D2341F245
S315020D9D70A651FEF7E5FC40F61830C2F21820012175
S315020D9D800160704740F67420C2F21820006850B187
S315020D9D9040F69420C2F21820006800284FF0000009
S315020D9DA008BF0220704701207047D4D440F69C2488
S315020D9DB04EF60455C2F21824CEF200054FF0805627
S315020D9DC0FFF798FD2068022822BF2E60BFF34F8F42
S315020D9DD0BFF36F8FFEF746FBF2E780B586B000F054
S315020D9DE03BF840F67030C2F21820006820B300200E
S315020D9DF0CDE9040005A804A903AAFEF79CF9DDE93D
S315020D9E0003200321DDF814C0CDE9001049F6D56013
S315020D9E104AF25571C0F20D20C0F20D210023CDF884
S315020D9E2008C0FFF749FA40F67431C2F218210860EC
S315020D9E3010B1012006B080BD4AF2C9204AF28872DD
S315020D9E404AF28F43C0F20D20C0F20D22C0F20D234D
S315020D9E504FF4A371FEF774FC70B582B0FEF77DFA6E
S315020D9E6040F67036C2F21826306868BB40F6843466
S315020D9E70C2F218242046FEF7D0FD40F69835C2F2FE
S315020D9E8018252846FEF7C9FD40F67830C2F218208D
S315020D9E90046040F67C30C2F2182040F6F43240F6E9
S315020D9EA0AC3305600025C2F21822C2F218230A202D
S315020D9EB00C210095FEF74DFE306028B14AF20631AF
S315020D9EC0C0F20D21FFF7A2F902B0BDE87040FEF710
S315020D9ED06FBAD4D484B040F6783840F67035C2F2F3
S315020D9EE0182801ACC2F218254FF0000BEA4600BF46
S315020D9EF0D8F80000D0F80090B9F1000F02D0C06872
S315020D9F00066800E00026FFF7FAFA204600F0A2F8EE
S315020D9F10019919B1FFF74EFB2EE000BF0746B9F1C5
S315020D9F20000F08D0BE4206D8FFF744FB304639462D
S315020D9F3000F0BBF820E0B9F1000F01D0002208E0D5
S315020D9F4040F67C30C2F2182000680068B0FA80F044
S315020D9F5042092868F11BFFF78CF9FFF72BFB58B95D
S315020D9F604EF60450CEF200004FF080510160BFF361
S315020D9F704F8FBFF36F8F00BF2868CDE902BBCDF8B7
S315020D9F8004B000BF21460022FEF7A0FF0028AFD085
S315020D9F90019800284CD4039E706910B1301DFEF74E
S315020D9FA068FD504600F056F80199013908293FD847
S315020D9FB00746DFE801F005051C231C05051C2300D9
S315020D9FC096F82400029BB16940F0010086F8240040
S315020D9FD0194430463A4600F0A0F848B396F82400E4
S315020D9FE041071BD400F0FA0086F824001DE096F80E
S315020D9FF0240000F0FE0086F8240019E096F82400ED
S315020DA00040F00101029886F82410B06190B1C11991
S315020DA01030463A463B4600F080F809E00298B169AF
S315020DA0203A460144304600F061F8316A30468847B7
S315020DA0302868A7E74AF2C9204AF227724AF61B0395
S315020DA040C0F20D20C0F20D22C0F20D234FF4826133
S315020DA050FEF776FBF0B581B00446FFF745FD40F6F7
S315020DA0608036C2F218263168054688420ED240F66F
S315020DA0707837C2F2182700BF3868016841B1C06847
S315020DA0804FF0FF31006800F010F8F5E7002007E009
S315020DA09040F67C31C2F218210A68086001203A6046
S315020DA0A020602846356001B0F0BD70B540F67832B5
S315020DA0B0C2F2182212680646D2680D46D468201DD1
S315020DA0C0FEF7D7FC94F82400410704D400F0FA00F9
S315020DA0D084F8240004E0204631462A4600F006F8AC
S315020DA0E0216A2046BDE870400847D4D470B50546AE
S315020DA0F0806914460E460144284600BF334600F0D9
S315020DA1000CF848B1A869296A064428468847A86901
S315020DA110224681192846F1E770BD8C46014641F863
S315020DA12004CF9445006108D940F678309A42C2F2BE
S315020DA13018200AD29C4508D30DE08069D21A8242B4
S315020DA14009D240F67C30C2F2182080B50068FEF7BF
S315020DA15073FC002080BD012070470A46002100F0E5
S315020DA16009B810B500239A4203D0CC5CC45401330E
S315020DA170F9E710BD00239A4208BF7047C154013357
S315020DA180F9E7D4D410B505490446054AFFF7E9FFA8
S315020DA190044805492044FFF7E0FF10BD40800D023B
S315020DA1A00000000000000000000000000249401AF5
S315020DA1B002490860704700BF080000006C0C1822A7
S315020DA1C0000000007578437269746963616C4E65AF
S315020DA1D07374696E6700765175657565416464546D
S315020DA1E06F5265676973747279002E2E2F72612F05
S315020DA1F06673702F7372632F726D5F667265657209
S315020DA200746F735F706F72742F706F72742E63003A
S315020DA21076506F7274456E746572437269746963B2
S315020DA220616C002820282028202820707844656C2F
S315020DA230617965645461736B4C69737420292D3E83
S315020DA24075784E756D6265724F664974656D7320CC
S315020DA2503D3D2028205542617365547970655F74C2
S315020DA260202920302029203F2028202820426173D2
S315020DA27065547970655F74202920312029203A2092
S315020DA2802820282042617365547970655F742029F0
S315020DA290203020292029202900765461736B5377AB
S315020DA2A069746368436F6E7465787400707578535C
S315020DA2B07461636B42756666657220213D2028289E
S315020DA2C0766F69642A293029002E2E2F72612F612D
S315020DA2D077732F4672656552544F532F46726565D5
S315020DA2E052544F532F536F757263652F74696D6593
S315020DA2F072732E630075635356434E756D626572A6
S315020DA300203C3D203300546D7251007851756575B0
S315020DA3106547656E6572696353656E640021282013
S315020DA3202820785461736B47657453636865647549
S315020DA3306C657253746174652829203D3D20282071
S315020DA340282042617365547970655F742029203027
S315020DA35020292029202626202820785469636B730C
S315020DA360546F5761697420213D2030202920290020
S315020DA3702820707851756575652029007078556E9F
S315020DA380626C6F636B6564544342007078537461FB
S315020DA3907469635175657565007848616E646C659F
S315020DA3A000212820282078436F7079506F736974C5
S315020DA3B0696F6E203D3D2028202820426173655429
S315020DA3C07970655F742029203220292029202626BE
S315020DA3D0202820707851756575652D3E75784C650A
S315020DA3E06E67746820213D2031202920290070785E
S315020DA3F054696D654F75740075785072696F72691F
S315020DA4007479203C2028352900785461736B526586
S315020DA41073756D65416C6C00765461736B506C612E
S315020DA42063654F6E4576656E744C697374526573CA
S315020DA4307472696374656400785461736B52656DE9
S315020DA4406F766546726F6D4576656E744C6973747B
S315020DA4500070785461736B42756666657220213D94
S315020DA460202828766F69642A293029007072764968
S315020DA4706E697469616C6973654E65775461736B48
S315020DA4800070785469636B73546F57616974007801
S315020DA49052657475726E002828285343425F5479AB
S315020DA4A07065202A292028283078453030304530ED
S315020DA4B03030554C29202B20307830443030554CD5
S315020DA4C02920292D3E494353522026202830783102
S315020DA4D04646554C202929203D3D203000785369AA
S315020DA4E07A65203D3D2073697A656F662820517520
S315020DA4F06575655F742029007851756575655365B7
S315020DA5006D6170686F726554616B65007851756522
S315020DA510756547656E6572696343726561746553E8
S315020DA52074617469630076506F7274535643486151
S315020DA5306E646C65725F4300757853636865647506
S315020DA5406C657253757370656E646564203D3D204E
S315020DA55031550070784576656E744C697374007862
S315020DA56052657475726E20213D2028202D312029C9
S315020DA570004E657720546872656164007851756581
S315020DA5807565437265617465436F756E74696E6741
S315020DA59053656D6170686F7265537461746963009A
S315020DA5A0785175657565526563656976650078548A
S315020DA5B061736B496E6372656D656E745469636B17
S315020DA5C0002E2E2F72612F6177732F46726565529B
S315020DA5D0544F532F4672656552544F532F536F7511
S315020DA5E07263652F71756575652E6300707276439C
S315020DA5F072656174655374617469635461736B003A
S315020DA6002E2E2F72612F6177732F46726565525406
S315020DA6104F532F4672656552544F532F536F7572B2
S315020DA62063652F7461736B732E630070784E657755
S315020DA63051756575650021282028202820707642DF
S315020DA64075666665722029203D3D202828766F693C
S315020DA650642A293029202920262620282028207000
S315020DA66078517565756520292D3E75784974656D28
S315020DA67053697A6520213D20282055426173655420
S315020DA6807970655F7420292030552029202900789C
S315020DA6905461736B436865636B466F7254696D657E
S315020DA6A04F757400707851756575650076546173D2
S315020DA6B06B44656C6179007852657475726E2021F2
S315020DA6C03D20282028202820426173655479706523
S315020DA6D05F74202920302029202900765461736B5E
S315020DA6E0506C6163654F6E4576656E744C69737415
S315020DA6F00078517565756500765461736B53746197
S315020DA70072745363686564756C657200757853630C
S315020DA710686564756C657253757370656E64656490
S315020DA72020213D2030550070727650726F6365732D
S315020DA730735265636569766564436F6D6D616E64AB
S315020DA740730078517565756547656E6572696352F5
S315020DA7506573657400546D72205376630076506F7F
S315020DA760727445786974437269746963616C0070B9
S315020DA7707851756575652D3E75784974656D5369A4
S315020DA7807A65203D3D2030007854696D65724372BD
S315020DA7906561746554696D65725461736B00757884
S315020DA7A0546F705072696F7269747900212820286E
S315020DA7B02070764974656D546F5175657565203DCA
S315020DA7C03D202828766F69642A29302920292026DA
S315020DA7D026202820707851756575652D3E75784948
S315020DA7E074656D53697A6520213D20282055426195
S315020DA7F07365547970655F742029203055202920A0
S315020DA80029007853697A65203D3D2073697A656F13
S315020DA8106628205443425F742029002820707854FC
S315020DA820696D65722D3E7854696D657250657269F2
S315020DA8306F64496E5469636B73203E203020290084
S315020DA84000000000000000000000000002040304E6
S315020DA8500404D4D40000E06F0000E06F000000880D
S315020DA8600000008800000074000000740000182229
S315020DA870000018220B0000008CA80D021900000022
S315020DA88010A90D020400000054A80D020000E06F8D
S315020DA8900000E06F0001000D0000E06F0000E06FA8
S315020DA8A00001000D0000008800000088000100086C
S315020DA8B000000088000000880001000800000074F6
S315020DA8C0000000740001000A00000074000000740C
S315020DA8D00001000A00000000000000000000000652
S315020DA8E000000020000000200000000700001822D2
S315020DA8F000001822000000032C041822700C1822E6
S315020DA90000000003700C1822700C182200000003C0
S315020DA9100000E06F0000E06F000000980001090DD5
S315020DA9200000E06F0000E06F0000007C00010B0DDF
S315020DA9300000E06F0000E06F000000270001020D2D
S315020DA9400000E06F0000E06F40800D020001010D76
S315020DA9500000008800000088000000980001090828
S315020DA96000000088000000880000007C00010B0832
S315020DA9700000008800000088000000270001020880
S315020DA980000000880000008840800D0200010108C9
S315020DA9900000007400000074000000980001090A0E
S315020DA9A000000074000000740000007C00010B0A18
S315020DA9B00000007400000074000000270001020A66
S315020DA9C0000000740000007440800D020001010AAF
S315020DA9D000000000000000000000009800010906BA
S315020DA9E000000000000000000000007C00010B06C4
S315020DA9F00000000000000000000000270000020613
S315020DAA00000000000000000040800D02000001065B
S315020DAA100000002000000020000000980001090738
S315020DAA2000000020000000200000007C00010B0742
S315020DAA300000002000000020000000270000020791
S315020DAA40000000200000002040800D0200000107DA
S315020DAA5000001822000018220000009800010903C8
S315020DAA6000001822000018220000007C00010B03D2
S315020DAA700000182200001822000000270000020321
S315020DAA80000018220000182240800D02000001036A
S315020DAA90700C1822700C182240800D020000010362
S315020DAAA00000010002000800100020000400000052
S315020DAAB000000506362E352E30004275696C74205F
S315020DAAC0776974682052656E657361732041647689
S315020DAAD0616E63656420466C657869626C652053A8
S315020DAAE06F667477617265205061636B616765206D
S313020DAAF076657273696F6E20362E352E300026
S705020D88F96A
