S021000052413850314475616C436F726550726F6A6563745F435055312E7372656359
S315020D80008004182261DD0D0225DC0D026BDD0D02E9
S315020D80106BDD0D026BDD0D026BDD0D026BDD0D02EF
S315020D8020000000000000000000000000C5B20D02B5
S315020D80306BDD0D0200000000DDB20D0245B30D022F
S315020D804089C80D025DCA0D02BDCB0D02A1CC0D0272
S315020D8050E1B50D027BB60D028FB70D02A7B80D0263
S315020D80603FCE0D023FCE0D02D3BF0D02F5BE0D0260
S311020D80705BC00D02ADC00D021BC20D025D
S315020D808001000000000000000000000000000000DA
S315020D809000000800000000000000000000000000C3
S315020D80A000001008000000000000000000000000A3
S309020D80B01040000067
S315020D80B810B582B040F2AC44C2F21824206808B159
S315020D80C8012013E040F2B04240F2C8434FF0000CD3
S315020D80D8C2F21822C2F2182301201821CDF800C0C7
S315020D80E806F013F82060002818BF012002B010BD53
S315020D80F8D0B101460068B8B1486800284FF00000B3
S315020D810811D040F2AC42C2F2182212685AB180B5A9
S315020D811810460022002306F067F80138B0FA80F0FF
S315020D81284009BDE880407047002070470A4601465F
S315020D813800284FF000000FD040F2AC43C2F21823CC
S315020D81481B684BB180B5184606F020FA0138B0FA0D
S315020D815880F04009BDE88040704770B1002148F2B1
S315020D8168851248F2B91348F2052CC0F20D22C0F257
S315020D81780D23C0F20D2C80E80E10704780B542F61D
S315020D8188B450C0F20E2000F083F870B142F6AC403E
S315020D8198C0F20E2000F07CF838B142F63050C0F22B
S315020D81A80E20BDE8804000F073B8002080BDD4D4FF
S315020D81B880B52DED028B42F6B450C0F20E20B0EE0C
S315020D81C8608A00F084F890B142F6AC40C0F20E20F7
S315020D81D8B0EE480A00F07BF808B1012008E042F635
S315020D81E8B4509FED050AC0F20E2000F070F800207B
S315020D81F8BDEC028B80BD00BF0000000070B52DEDF1
S315020D8208028BB7EE001A42F63056B4EE410AC0F2A8
S315020D82180E26F1EE10FA346831FE008AB5EE408A62
S315020D822820460021F1EE10FA9FED180A48BFB0EE6E
S315020D8238408A002505F09DFA2046012105F099FA96
S315020D824830460021B0EE480A00F091F8C8B142F660
S315020D825830509FED0E0AC0F20E20012100F087F86C
S315020D826830B1B5EE408AF1EE10FA03D1012508E0D8
S315020D8278002506E02046002105F06DFAB0FA80F0D9
S315020D828845092846BDEC028B70BD00BF00000000F3
S315020D8298C8B110B50446D4E90112006812689047B0
S315020D82A80E2800D088B92068002105F062FA2068E8
S315020D82B8012105F05EFAA168206849688847B0FA77
S315020D82C880F0400910BD00207047002010BD70B522
S315020D82D82DED028BB7EE001AB4EE410AF1EE10FA45
S315020D82E831FE000ABFEE001AB4EE401AF1EE10FA8C
S315020D82F831FE008AB5EE408A0026F1EE10FA48BF25
S315020D830802260446C8BF012600684FF000014FF049
S315020D83180005B1EE480A48BFB0EE408A05F029FAC3
S315020D83282068012105F025FA20460021B0EE480AFB
S315020D833800F01DF8B8B120460121B0EE480A00F04A
S315020D834816F828B1012E05D0022E0BD1012102E015
S315020D8358002508E00021206805F0FDF9B0FA80F045
S315020D8368450900E001252846BDEC028B70BDB0B566
S315020D83782DED028B84B0B0EE408AB7EE000AB4EE4C
S315020D8388408A05460020F1EE10FACDE90200019069
S315020D839824DC1DB3B5EE408AF1EE10FA1ED40C4656
S315020D83A8A96828684A6A01A9904708B1002015E00C
S315020D83B89DED030AB6EE001AB8EE400A20EE080A3B
S315020D83C8A96830EE010ABCEEC00A2868CB6910EE20
S315020D83D8101A22469847B0FA80F0400904B0BDEC4F
S315020D83E8028BB0BD70B110B52021044607F044FDCD
S315020D83F8204600F030F838B104F11000FFF7ADFE53
S315020D8408012010BD00207047002010BD10B3007961
S315020D841840F24001C2F21821087040F21050C2F221
S315020D842818200068B0B180B582B0002101AA019169
S315020D843807F063F9019850B14EF60450CEF20000DA
S315020D84484FF080510160BFF34F8FBFF36F8F02B0AC
S315020D8458BDE880407047F0B110B5044641F60C40B0
S315020D8468C2F21820C068C0B107F0D6F840F2105112
S315020D8478C2F218210860002048F2BF4148F239526B
S315020D848848F2D753C0F20D21C0F20D22C0F20D23C8
S315020D84980FC4012010BD0020704741F60C4042F66C
S315020D84A8F851C2F21820C0F20E2103F0D6FF0028A9
S315020D84B8DAD0002010BD2DE9F04184B04FF0000549
S315020D84C893B30A9C0F2C2FD841F60C401746C2F2CD
S315020D84D8182001221E464FF0010804F061F808B172
S315020D84E8002521E08DF800706F46781C314622462C
S315020D84F807F0C6FC002001210022002507F0A5F889
S315020D850840F24000C2F2182080F8008041F60C4075
S315020D8518621CC2F218203946002304F022F818B953
S315020D8528032000F057F80546284604B0BDE8F08149
S315020D85382DE9F04182B04FF000068DF8072023B3DE
S315020D8548089D15B341F60C40C2F2182001221C46AD
S315020D8558012704F025F808B1002616E000200121AE
S315020D85680022002607F071F840F2400841F60C4049
S315020D8578C2F21828C2F218200DF1070101220123B1
S315020D858888F8007003F0EDFF18B1304602B0BDE869
S315020D8598F081032000F01EF80028DDD0002001210D
S315020D85A800220127002607F050F841F60C40C2F2C8
S315020D85B8182021462A46002388F8007003F0CBFFBF
S315020D85C80028E2D1022000F005F80646DDE7084646
S315020D85D806F07CBC10B5044600200121142207F0D2
S315020D85E834F848B140F24000C2F218200078001B58
S315020D85F8B0FA80F0400910BD41F60C40C2F21820BF
S315020D860803F0B5FF002010BDB0B5054600284FF0A2
S315020D8618000019D00C46B9B194ED050AB5EE400A1B
S315020D8628F1EE10FA10D994ED040AB5EE400AF1EE00
S315020D863810FA09D42846302107F01EFC07CC07C5C7
S315020D864894E80F000FC50120B0BDC8B190ED051A0B
S315020D8658016AB1EE412AB4EE410AF1EE10FAB4EE10
S315020D8668402A31FE001AF1EE10FAC1614FF00001EF
S315020D867832FE010A4162012180ED0A0A80F82C10A8
S315020D8688704718B1002180F82C1041627047D4D476
S315020D86980246002818BF01220B46002918BF0123DE
S315020D86A802EA030CF5EE400A00229FED7C1AF1EE62
S315020D86B810FA88BF0122002302EA0C02F4EE410ADF
S315020D86C8F1EE10FAD8BF01231A40012A40F0D680DE
S315020D86D890ED062AB0EEC01AB4EE412A9FED701A35
S315020D86E8F1EE10FA90ED083A31FE000A20EE204A14
S315020D86F89FED6C2A34EE034AB4EE424AF1EE10FAB5
S315020D870809DD9FED693A00BF34EE034AB4EE424ADB
S315020D8718F1EE10FAF8DC9FED653AB4EE434AF1EE46
S315020D872810FA08D59FED625A34EE054AB4EE434A5D
S315020D8738F1EE10FAF8D490F82C3080ED084A002B99
S315020D874800F0988090ED071A31EE441AB4EE421AEB
S315020D8758F1EE10FA09DD9FED544A00BF31EE041A07
S315020D8768B4EE421AF1EE10FAF8DCB4EE431AF1EE53
S315020D877810FA08D59FED4E2A31EE021AB4EE431AB7
S315020D8788F1EE10FAF8D490ED092A21EE203A90ED81
S315020D8798035A33EE022AB1EE457AB4EE452AF1EEC4
S315020D87A810FAB4EE427A90ED003A90ED014A35FE92
S315020D87B8025AF1EE10FA90ED026A37FE052A24EEF8
S315020D87C8024A23EE013A33EE043A26EE000A90EDFA
S315020D87D8044A33EE403AB1EE445AB4EE443AF1EE57
S315020D87E810FAB4EE435A34FE030AF1EE10FAB4EE59
S315020D87F8453A35FE000AF1EE10FA04DBB4EE443AB8
S315020D8808F1EE10FA09D9B5EE401AF1EE10FA37D58E
S315020D8818B4EE403AF1EE10FA32DD80ED092A90ED0A
S315020D88280A1A90ED052A31EE401AB1EE423AB4EE25
S315020D8838421AF1EE10FAB4EE413A32FE012AF1EE7F
S315020D884810FA33FE021A81ED001A90ED0A1A90ED0E
S315020D8858052A30EE010AB1EE421AB4EE420AF1EEDB
S315020D886810FAB4EE401A32FE002AF1EE10FA31FE73
S315020D8878021A01E00020086081ED011A10467047C0
S315020D8888B5EE401AF1EE10FAC9DDB4EE403AF1EE44
S315020D889810FA48BF80ED092AC1E700BFCDCCCC3D01
S315020D88A800000000000034430000B4C3000034C3C6
S315020D88B80000B443002814BF90F82C00002000F0E5
S315020D88C8010070472DE9F04383B0002500288DF885
S315020D88D806506DD01F46002B6AD01646002A67D061
S315020D88E8DDF82890B9F1000F62D0884604460B9D33
S315020D88F81030142107F0C0FAC4E9008601260DF1DD
S315020D89080603404629467522C4E90279257400965E
S315020D8918B84700284BD09DF8060000F07E0168295D
S315020D892845D16074D4E90007217C01250DF10703B1
S315020D89386B228DF807500095B847C0B3404664219F
S315020D8948C8470322D4E90007217C8DF8082002AB1B
S315020D89581A220095B84750B30922D4E90007217C9B
S315020D89688DF8092001260DF1090319220096B8473B
S315020D89784FF00005E0B1D4E90007217C0DF10A0399
S315020D89881B228DF80A500096B84788B1D4E900071C
S315020D8998217C002501260DF10B031C228DF80B50A7
S315020D89A80096B84720B1012584F8206000E000251D
S315020D89B8284603B0BDE8F08300287ED0B0B586B050
S315020D89C804460D4600294FF0000079D094F8201080
S315020D89D8C90775D02068D4F808C0217C4FF00E0E51
S315020D89E80DF10A033B22CDF800E0E047002866D0D8
S315020D89F8BDF80A009FED331AC0BA00EE100ABDF88B
S315020D8A080C00B8EEC00A20EE010AC0BA85ED000ABE
S315020D8A1800EE100ABDF80E00B8EEC00A20EE010AE5
S315020D8A28C0BA85ED010A00EE100ABDF81000B8EEBF
S315020D8A38C00AC0BA20EE010A01EE100A9FED222ADB
S315020D8A48B8EEC11ABDF8120081EE021AC0BA02EECC
S315020D8A58100A9FED1F3AB8EEC22ABDF8140082EE2F
S315020D8A68032AC0BA04EE100AB8EEC44ABDF81600B7
S315020D8A7884EE034AC0BA05EE100AB8EEC55A85EE5B
S315020D8A88033A9FED125A85ED020A31EE050A85ED76
S315020D8A98060A94ED050A012032EE400A85ED030A0F
S315020D8AA894ED060A34EE400A85ED040A94ED070A9A
S315020D8AB833EE400A85ED050A02E0002070470020D4
S315020D8AC806B0B0BD000080380000AA43B81E124297
S315020D8AD8000003432DE9F0412DED068B88B00446BF
S315020D8AE800284FF000003BD00D46C9B39FED1F8AF3
S315020D8AF8164600270DF10408B0EE489AB0EE48AABC
S315020D8B08C4E90577E76100BF20464146FFF754FFE2
S315020D8B1828B39DED040A9DED051A9DED062A2068DA
S315020D8B28E26831463AEE00AA39EE019A38EE028A21
S315020D8B3890470137B8B2A842E6D300EE105AB8EEFE
S315020D8B48400A8AEE001A89EE002A88EE000A0120EA
S315020D8B5884ED051A84ED062A84ED070A00E0002045
S315020D8B6808B0BDEC068BBDE8F08100BF0000000021
S315020D8B78002859D070B582B005464069002851D0F3
S315020D8B88A86900284ED0E86900284BD040F2145641
S315020D8B98C2F218263046A42107F06EF91ECD3046CC
S315020D8BA81EC095E81E001EC040F2EE20C6F89C00B7
S315020D8BB842F22840A6F8A000D6E904020021A6F83A
S315020D8BC87410904790B396E81E0006F120054FF0F3
S315020D8BD8680C2846CDE9004CFFF774FE40B32846CB
S315020D8BE84FF4FA710222FFF775FF08B341F20C51E1
S315020D8BF806F14400C0F20E21FFF706FDE8B100F0BA
S315020D8C0821F83069F1699FED0E0A884770B14CF665
S315020D8C18CD40C3F64C70C6F88C000120A6F8760036
S315020D8C28002006E0012006E001207047032000E03F
S315020D8C38052086F8900002B070BD0120F9E700BF45
S315020D8C48CDCC4C3FB0B540F21454C2F2182404F1FF
S315020D8C584400FFF716FD9FED080A2069A169002554
S315020D8C68F0EE400A84F87850884710B9032084F844
S315020D8C789000C4E92155B0BD0000000070B52DED78
S315020D8C88048B8AB0B0EE408A9FED6F0A40F21455F6
S315020D8C98B4EE408AC2F21825F1EE10FA4FF001042D
S315020D8CA800F3CA80B5EE408AF1EE10FA40F2C4809E
S315020D8CB895F87600C00700F0BF809FED640AB6EE00
S315020D8CC8001A28EE000A30EE010A95F87700BCEE76
S315020D8CD8C00A10EE106A88B995ED230AB5EE400A58
S315020D8CE8F1EE10FA0ADDD5F894003044B0F5FA6FB4
S315020D8CF8C5F8940024BF012085F8770005F14404D0
S315020D8D082046FFF7D7FD30B305F1200003A9FFF77B
S315020D8D1853FE00285FD09DED080A01A92046F0EE04
S315020D8D28480A85ED200AFFF7B3FC002800F081807A
S315020D8D389DED019A9DED028A2869A969B0EE490A47
S315020D8D48F0EE480A884700286DD0686E85ED219A9F
S315020D8D5885ED228AE86795F87400012839D1D5F888
S315020D8D68980095F8751030440329C5F898004FD028
S315020D8D78022934D0012954D141F2883188424FF063
S315020D8D88000459D3FFF75EFF95F8A1009FED301A3F
S315020D8D9800EE100AB8EE400A80EE018A022085F826
S315020D8DA875002869A969C5F89840B1EE489AB0EEDA
S315020D8DB8480AF0EE490A884730B99FED268A0324F8
S315020D8DC8B0EE489A85F8904085ED218A85ED229A6E
S315020D8DD817E0002432E0FFF735FF05242CE0D5F81D
S315020D8DE89C100024884227D3FFF72CFF032095F801
S315020D8DF8A01085F875000020C5F8984000F02CF8EB
S315020D8E08044674B1052085F87500FFF71BFF13E0BC
S315020D8E1841F28831884204D3FFF714FF042085F8FE
S315020D8E287500002408E0032085F890000020C5E9A6
S315020D8E382100FFF707FF032485F8904020460AB064
S315020D8E48BDEC048B70BD00BFCDCCCC3D00007A4481
S315020D8E580000C84200000000652907D340F21451EC
S315020D8E68C2F21821012081F89000704710B52DED38
S315020D8E78028B00EE101A9FED171AB8EE400A80EE15
S315020D8E88010A002840F21454C2F2182404F14400CF
S315020D8E98B1EE401A00FE018AB0EE480AFFF7D5FB7D
S315020D8EA82069A2690121B0EE480AF0EE480A84F853
S315020D8EB87810904708B1002004E09FED078A032039
S315020D8EC884F8900084ED218A84ED228ABDEC028B0A
S315020D8ED810BD00BF0000C8420000000070B52DEDA0
S315020D8EE8048B40F21456C2F2182678B1054696F846
S315020D8EF8760001284FF002000DD10C4696F8771030
S315020D8F08C90708D0642C0BD9012004E0FFF79AFE95
S315020D8F180020A6F8740086F89000BDEC048B70BD8F
S315020D8F28FFF790FE681E00210328A6F87410EBD8E9
S315020D8F3800EE104A9FED1D1AB8EE400A80EE018A20
S315020D8F48DFE800F0022E041500202AE03069B16927
S315020D8F58B1EE489AB0EE490AF0EE480A88479FEDF7
S315020D8F68140A002800FE091A00FE080A0FE03069E5
S315020D8F78B169B1EE489AB0EE480AF0EE490A884749
S315020D8F889FED0B0A002800FE081A00FE090A4FF08B
S315020D8F98030018BF002086ED211A86ED220ABAE7CC
S315020D8FA801202146FFF758FFB5E700BF0000C8426A
S315020D8FB80000000010B540F21454C2F2182494F8B9
S315020D8FC8760001284FF0020010D194F87710C907E0
S315020D8FD80CD0FFF737FE40F2011094F8A010A4F852
S315020D8FE874000020C4F89800FFF736FF84F8900045
S315020D8FF810BDD4D410B52DED028B40F21454024691
S315020D9008C2F2182464294FF001001FD894F876305D
S315020D9018DB071BD000EE101A9FED0F1AB8EE400AA9
S315020D902880EE010A9FED0D1A002A2069E16901FEFB
S315020D9038008AB0EE480A884738B1002084ED238AA3
S315020D904884F87700C4F8940000E0032084F89000B1
S315020D9058BDEC028B10BD00BF0000C8420000000027
S315020D9068B0B540F214550128C2F2182501D90120CE
S315020D907809E00446FFF7E6FD002085F8744085F8F9
S315020D90887500C5F8980085F89000B0BD10B5FFF7C4
S315020D9098D9FD40F21454C2F21824E16919B12069B6
S315020D90A89FED050A88470020C4F88C0084F87700DE
S315020D90B8052084F8750010BD0000000080B582B049
S315020D90C840F2B85240F2CC534FF0000CC2F21822BD
S315020D90D8C2F2182301201421CDF800C005F015F8A7
S315020D90E840F21461C2F218210860002818BF012047
S315020D90F802B080BD014600284FF0000010D040F2A4
S315020D91081462C2F21822126852B180B510460022B4
S315020D911805F03CFA0138B0FA80F04009BDE8804006
S315020D91287047D4D410B540F21864C2F218242046FA
S315020D9138A82106F0A1FE03202061606142F23E30AD
S315020D914840F2C061C0F20E20C2F21821A061E1619F
S315020D91584FF4006121620021A1626162E16220661B
S315020D916840F6C060C2F2182060661020A06621671C
S315020D9178E166616741F228510F20C0F20E21BFF355
S315020D91885F8F00BF0A5C0138431C04F8012BF9D125
S315020D9198BFF35F8F10BDD4D42DE9F04381B0C768F4
S315020D91A814460D4680464FF0000900BFD8F8101038
S315020D91B8D8F80800FA43B9421144A0EB070698BF3E
S315020D91C80144B14238BF0E46D8F80400A64228BF5C
S315020D91D8264638442946324606F052FED8F8080085
S315020D91E8F119A41B0F1AB144354418BF0F46002CAA
S315020D91F8BFF35F8FC8F80C70D8D1484601B0BDE8E9
S315020D9208F0832DE9F04381B0144640F2186200EB63
S315020D92184000C2F2182202EBC002D06A8946022821
S315020D922802F1180511D0012807D000283ED1EE68A3
S315020D92382869B04234D9F14335E0EE682969B1425D
S315020D92480BD9F243A86811440BE028464946224633
S315020D925801B0BDE8F043FFF79FBFA868F24311447A
S315020D92680144A14238BF0C46871B6868BC4230448C
S315020D927807D24946224606F003FEBFF35F8F264400
S315020D92880CE049463A4606F0FBFDE61B686809EB13
S315020D92980701324606F0F4FDBFF35F8FEE6026E056
S315020D92A8A968F24310440844A04201D200241EE0E4
S315020D92B8D5E901018F1BBC42304408D249462246E4
S315020D92C806F0DEFDBFF35F8F06EB04080DE0494697
S315020D92D83A4606F0D5FDA4EB0708686809EB0701BF
S315020D92E8424606F0CDFDBFF35F8FC5F80C802046CA
S315020D92F801B0BDE8F083F0B581B0144640F21862AC
S315020D9308C2F2182212780D46532A064618BFFFF7DF
S315020D931809FFEFF311874FF0200181F311883046CB
S315020D932829462246FFF76DFF87F3118801B0F0BD76
S315020D93382DE9F04F9BB0934606AA16924022179234
S315020D9348002200278A4605901A90CDE9182200BFF9
S315020D93581AF8012B252A07D0002A00F05D8116A8D6
S315020D9368114600F068F93CE1881C4FF0000800BF71
S315020D93789AF800102C2905DC232909D02B2911D19D
S315020D9388042108E02D2905D030290BD1022102E04E
S315020D9398082100E0012148EA01080AF1010A013013
S315020D93A8E6E700BFA1F13A02002612F10A0F0ED323
S315020D93B806EB860201EB420210F8011BA2F13006FA
S315020D93C8A1F13A0313F10B0FF2D8A0F1010A2E29D6
S315020D93D80ED1514611F8010F2A280CD1DBF80000DF
S315020D93E80AF1020A011DCBF8001004681FE000BF3E
S315020D93F8002000241CE0A0F13A0212F10A0F03D252
S315020D9408002000248A4613E00AF10201002400BF57
S315020D941804EB840200EB420211F8010BA2F13004AF
S315020D9428A0F13A0313F10B0FF2D8A1F1010A0120AB
S315020D94381AF8011B01F0FB02682AF9D063290FDC21
S315020D944825292FD0582924D0632940F0CA80DBF864
S315020D94580000011DCBF80010017816A881E700BFA0
S315020D9468A1F17002082A20D8DFE802F005BBBB532A
S315020D9478BB4CBBBB1300DBF800001022011DCBF859
S315020D94880010016816A8082300270826CDE90067EB
S315020D9498A5E0DBF800001022011DCBF800100168CB
S315020D94A816A899E016A825215BE7642940F099804C
S315020D94B8DBF80000011DCBF800100568C5F1000C9C
S315020D94C8002D284600D560464CF6CD430A28CCF623
S315020D94D8CC434FF0010907DBA0FB031263284FEAC1
S315020D94E8D20009F10109F7D84C4588BFA146AEB39A
S315020D94F80020002D48BF012008F0040140EA910022
S315020D9508361A2CE0DBF80000011DCBF800100168B5
S315020D951860E0DBF800100A1DCBF800200E6841F654
S315020D95282F423146002E18BF012100EA0105C0F26D
S315020D95380E2208BF164600BF3178002951D0B4FA5B
S315020D954884F0400928404CD116A8013600F073F86C
S315020D9558199F013CB7F1FF3FEEDC68E000265FEA92
S315020D956888710BD554B9002F3BD4002D24D45FEA4C
S315020D9578487004952BD503912B2121E05FEAC8701B
S315020D9588F1D1002EEFD0B145EDD2CDE902C1049548
S315020D9598751E00BF16A8202100F04DF8199F002F41
S315020D95A845D4681EA84202D2A9450546F2D3049DA2
S315020D95B8DDE902C1461CD6E703912D21CDF810C06F
S315020D95C816A800F038F8199F0399002F2FD40029F1
S315020D95D80ED4049916A80A222346CDE9006800F08E
S315020D95E84BF8199F5146B7F1FF3F3FF7B1AE1EE053
S315020D95F808F001002043ECD1002EEAD0751EB542C3
S315020D960838BFB145E5D216A8302100F014F8199FD6
S315020D96182E46002FF2D50AE047B1189C24B10598BB
S315020D962806A92246FFF767FE274400E000273846BB
S315020D96381BB0BDE8F08F10B50446D0E90120431CD6
S315020D9648934207D822681154E06862680130E060D7
S315020D96581846A360904218BF10BD21682069FFF70E
S315020D96684AFEA168884202D10020A06010BD4FF0C3
S315020D9678FF30E06010BDD4D42DE9F04F81B0DDF88E
S315020D968828A01F4615468B46914281464FF0010486
S315020D969805D35846B0FBF5F00134A842FAD20B9918
S315020D96A8A74288BF3C46BAF1000F1DD011F0010042
S315020D96B81AD14FF02008880748BF4FF030082020EE
S315020D96C8002F18BF804600BFBAF1000F0CD05445C3
S315020D96D80AD248464146AAF1010AFFF7ACFFD9F864
S315020D96E80C00B0F1FF3FEFDCD9F80C0000283AD494
S315020D96F8012600BF022F01D3013F03E0BBFBF6F0A3
S315020D9708A84202D306FB05F6F4E742F65838C0F22C
S315020D97180E2800BFBBFBF6F7484618F80710FFF7E9
S315020D97288AFFD9F80C00002806D4B6FBF5F007FB1C
S315020D973816BBB5420646EDD90B98C00718BFBAF146
S315020D9748000F0AD10FE048462021FFF774FFD9F81A
S315020D97580C00AA46B0F1FF3F05DDAAF101055545F4
S315020D976838BF5445EFD301B0BDE8F08F0021A0F8FC
S315020D97780012A0F8021270470021A0F80012A0F8F4
S315020D97880212704780B5B0F80022531C9AB2B2F590
S315020D9798007218BF1A46B0F802C21FFA82FEE645D3
S315020D97A804D0B0F80032C154A0F80022BEEB0C006A
S315020D97B818BF012080BD29B1B0F80022B0F80232D7
S315020D97C89A4201D100207047B0F80222825C0A70D3
S315020D97D8B0F8021201318AB2B2F5007218BF0A4602
S315020D97E8A0F802220120704710B540F6D064C2F2E5
S315020D97F81824207800284FF0000010D142F688313F
S315020D9808C0F20E21C4E90000C4E9020007C91268B4
S315020D98189047002818BF10BD01202070002010BDEA
S315020D98280221C4F65021884218BF704740F6D0600F
S315020D9838C2F2182001214170BFF35F8F7047E0B164
S315020D98482DE9F0412021044606F016FB40F6D067B5
S315020D9858C2F218273878012811D1B878012811D102
S315020D986842F68830C0F20E20816800684A68796827
S315020D9878904720B30420BDE8F081032070470120EC
S315020D9888BDE8F0810026C6F6FE7601F0DEFD7D788E
S315020D98980020787001F004FEBFF35F8F15B9F068EA
S315020D98A8022809D17069A060F069E060306A20610A
S315020D98B8F06A397AA08339B10220BDE8F081002019
S315020D98C8B8707860BDE8F081316844F247520425D4
S315020D98D8C4F65022C4F65025012091424FF00101DB
S315020D98E81ED17168012918D1B168402917D1B169FC
S315020D98F8402914D1F16802292CD13169AA1E914247
S315020D990809D1F169042906D3F1694FF6C072C0F27D
S315020D99180102914220D9052102E0022100E003212C
S315020D99282070A161B16235610520BFF35F8FF060CA
S315020D993842F68830C0F20E208168BFF35F8F006849
S315020D99484A682946904710B10120B8707D600320F8
S315020D9958BDE8F0810421E3E7F16AB1F57A7F4FF0AC
S315020D99680301DDD8F160BFF35F8FF169BFF35F8F36
S315020D997896F84000FF2824D196F84100D82820D120
S315020D9988701890F83E20FF2A3AD1403010F8010C93
S315020D9998D92835D106F14008404600F079F82169F3
S315020D99A8606188422ED14FF4807121800121A17008
S315020D99B8C4F804803972A1680020A061F960BDE877
S315020D99C8F08106204FF00108A4F80080A061B0626C
S315020D99D835610520BFF35F8FF06042F68830C0F21D
S315020D99E80E208168BFF35F8F00684A682946904743
S315020D99F818B187F802807D603CE70020BDE8F0814A
S315020D9A080720DFE70820DDE7B0B540F6D065C2F2DC
S315020D9A1818252B78012B1CBF0120B0BD0346287AC9
S315020D9A2801284FF0030032D1EC68A34218BFB0BD2E
S315020D9A380320C4F65020441C0C20002A08BF0E220F
S315020D9A48C6F6FE7000291EBF0324C4F65024002252
S315020D9A58C26144604FF00501BFF35F8F18BF042141
S315020D9A68016042F68830C0F20E208168BFF35F8F1F
S315020D9A7800684A68214690474FF0000120B101203F
S315020D9A88A87004206C6000E000202972E960B0BD60
S315020D9A984FF00002E8B1E1B1B0B548F2203E4FF001
S315020D9AA8FF324FF0000CCEF6B85E00BF10F80C3040
S315020D9AB85A40082314468EEA5202E50708BF620881
S315020D9AC8013BF7D10CF1010C8C45EFD1D243BDE820
S315020D9AD8B04010467047B0B582B040F6E063032435
S315020D9AE8C2F21823012000210022009404F00DFB76
S315020D9AF840F62875C2F2182540F62C732860C2F274
S315020D9B081823012000210022009404F0FEFA2A6887
S315020D9B1840F67471C2F218214FF0090408609AB31F
S315020D9B2890B340F67870C2F21820FFF71FFE41F285
S315020D9B387C10C2F218200021017041F27D10C2F28A
S315020D9B481820017041F28010C2F21820016041F20C
S315020D9B588410C2F21820016042F65C61C0F20E2131
S315020D9B6807C91268904740B1044641F66370C0F2C0
S315020D9B780E20214600F00BF806E041F21270C0F2F3
S315020D9B880E2000F004F80024204602B0B0BD83B0C2
S315020D9B9880B581B0844603A80EC003A800906A4614
S315020D9BA800206146FFF7C4FB01B0BDE8804003B053
S315020D9BB870472DE9F04F83B0074600284FF0010094
S315020D9BC800F0D4800C46002900F0D0801646022AF1
S315020D9BD8C0F0CC803978002900F0C8800025984657
S315020D9BE8257000F0C7F841F27D10C2F218200570F3
S315020D9BF841F2801941F27C10C2F21829C2F21820DC
S315020D9C08C9F80050057041F28810C2F21820056095
S315020D9C1841F28410C2F21820056042F22820C0F2E1
S315020D9C280E203946FFF7B3FF384606F039F981B2E9
S315020D9C38384600F0CFF8002840F09880404600F0EC
S315020D9C48EBF8002840F09280B8F1000F52D042F698
S315020D9C583C60C0F20E2090F905004EF20013CEF2CA
S315020D9C68000300F01F0101224FEA501B03F1800089
S315020D9C7802FA01F71D460190701E00264FF0000AE2
S315020D9C880090D9F80000002842D141F27D10C2F2A7
S315020D9C981820007801283ED001980DF10B0140F8E5
S315020D9CA82B7040F67870BFF34F8FC2F21820BFF3B0
S315020D9CB86F8FFFF780FD45F82B70B0B100991FFA2B
S315020D9CC88AF0814238D99DF80B100AF1010A2154FE
S315020D9CD81FFA8AF000212154204600F0EFF8A0BBA6
S315020D9CE8204600F013F918B138E000F033F90136C1
S315020D9CF84645C6D341F28810C2F21820026841F6CB
S315020D9D08DD50C0F20E202146FFF741FF14202DE04B
S315020D9D18D9F800002AE041F28410C2F2182001682F
S315020D9D2841F28810C2F21820026841F68370C0F219
S315020D9D380E20FFF72CFF06E041F64210C0F20E2068
S315020D9D482146FFF724FFCB2010E041F23770C0F20F
S315020D9D580E202146FFF71BFF002007E042F2CF70C7
S315020D9D68C0F20E202146FFF712FF012003B0BDE80F
S315020D9D78F08FD4D470B542F63C60C0F20E2090F93D
S315020D9D8805004EF2001600F01F0101224509CEF21A
S315020D9D98000602FA01F406EB8500C0F8804040F68B
S315020D9DA87870BFF34F8FC2F21820BFF36F8FFFF78C
S315020D9DB8E3FC46F8254040F67474C2F2182400BF37
S315020D9DC82068002808BF70BD002104F0B9FC0128DF
S315020D9DD8F6D070BDF1B170B5054641F27C1040F66C
S315020D9DE828760C46C2F218200021C2F218260170F6
S315020D9DF83068002104F0A4FC0128F9D042F65C6013
S315020D9E08C0F20E20816800688B6829462246BDE895
S315020D9E187040184701207047014600284FF003008D
S315020D9E2826D040F62872C2F21822126802B341F2FF
S315020D9E387C10C2F21820007838B980B5104604F0A5
S315020D9E487FFC0128BDE8804007D141F28010C2F29D
S315020D9E581820006838B90020704741F28010C2F206
S315020D9E681820006828B141F28010C2F21820006845
S315020D9E7870471420704770B542F63C61C0F20E2148
S315020D9E8891F905204EF20016014602F01F00012334
S315020D9E985509CEF2000603FA00F406EB8500C0F862
S315020D9EA8804040F67870BFF34F8FC2F21820BFF389
S315020D9EB86F8FFFF780FC46F8254070BD70B541F6E9
S315020D9EC8B2250446C0F20E2542F20146014600BFEE
S315020D9ED80846294605F0F7FFA0B1A04206D010F8AC
S315020D9EE8011C0A39B1FA81F1490900E0012100295B
S315020D9EF800F10101ECD082780D2AE9D826FA02F290
S315020D9F08D207E5D0002818BF012070BD70B541F6FD
S315020D9F18C961C0F20E21044605F0D5FFB0B141F66E
S315020D9F28C9650646C0F20E25A64203D016F8010CDF
S315020D9F380A2804D130460A2105F0BAFF40B9701C29
S315020D9F48294605F0C0FF06460028EDD1002070BD52
S315020D9F58012070BD40F67470C2F21820006810B167
S315020D9F68012104F0EDBB012004F0B0BF70B5ADF5CB
S315020D9F78007D0C46064668464FF40071154605F0F7
S315020D9F887BFF8CB1207878B1694630464FF4007262
S315020D9F982B46FFF70EFE40B96846214605F093FF9C
S315020D9FA8B0FA80F0400900E001200DF5007D70BD84
S315020D9FB810B5ADF5007D044668464FF4007105F0FF
S315020D9FC85BFFCCB142F61420C0F20E2069464FF45F
S315020D9FD8007241F28833FFF7ECFD70B941F2F36175
S315020D9FE8C0F20E21684605F06EFF28B1007AA0F17F
S315020D9FF83301C9B2FD2903D201200DF5007D10BD2D
S315020DA008303820700020F8E7022884BF01207047F7
S315020DA01842F66831C0F20E2151F8200041F6B221FE
S315020DA028C0F20E2141F28832FFF7A0BF80B542F287
S315020DA038047041F6B221C0F20E20C0F20E2141F291
S315020DA0488832FFF793FF00B180BD40F6B83004F0B1
S315020DA0583DFF41F2A56041F6B221C0F20E20C0F2D3
S315020DA0680E2141F28832BDE88040FFF77FBF2DE908
S315020DA078F04FADF5437D0F46064683A84FF4807122
S315020DA088144605F0F9FE0DF10C0A50464FF400710F
S315020DA09805F0F2FE002E4FF0010042D0002F40D0FF
S315020DA0A8002C3ED0304605F0FBFE0546384605F037
S315020DA0B8F7FE0146A5F1210010F1200F4FF0010020
S315020DA0C82FD3403911F1380F2BD330462C2105F0F9
S315020DA0D8EFFE28BB30460D2105F0EAFE00BB3046E1
S315020DA0E80A2105F0E5FED8B938462C2105F0E0FE21
S315020DA0F8B0B938460D2105F0DBFE88B938460A2176
S315020DA10805F0D6FE60B942F62222C0F20E2283A8C7
S315020DA1184FF480713346009705F008FFFF2804D9DE
S315020DA12801200DF5437DBDE8F08F0746FFF722FEA8
S315020DA13841F27D1B41F2801541F27C11C2F2182BB8
S315020DA1480020C2F21825C2F218218BF800002860E9
S315020DA158087041F28811C2F21821086041F2841181
S315020DA168C2F21821086042F29740C0F20E2031461B
S315020DA178FFF70DFD83A83946FFF72CFE0028D0D12F
S315020DA1884FF47A70FFF748FE0028CAD10DF10B0677
S315020DA1984FF0000800272868002841D19BF80000D7
S315020DA1A8E0BB3046FFF767FE50B3B7F5FF7F35D8EC
S315020DA1B89DF80B0007F101090AF80700002041F680
S315020DA1C869110AF809005046C0F20E2105F07BFE08
S315020DA1D818B10A2105F06CFE88BB41F6B521504629
S315020DA1E8C0F20E2105F06FFE20B10A21074605F0D1
S315020DA1F85FFE60BB5046FFF789FE4F4690B903E0F6
S315020DA208FFF7A8FE08F10108A045C4D342F25A5039
S315020DA218C0F20E20FFF7BBFC142082E7CB2080E7A5
S315020DA22828687EE741F6C961C0F20E2103A805F03A
S315020DA2384AFE014642F28C30C0F20E200CE042F282
S315020DA2484730C0F20E20FFF7A2FC002069E742F262
S315020DA258DE70C0F20E20394600F001F860E72DE9EE
S315020DA268F041A0B06D460E4604462846802105F0FB
S315020DA27803FE44B33EB330460A2105F019FE08B172
S315020DA288871B03E0304605F00BFE07464FF0000824
S315020DA29837B1F01910F8010C0D2808BF013F00E07F
S315020DA2A800277F2F28BF7F27284631463A4605F0D5
S315020DA2B8E7FD42F6ED00C0F20E2021462A4605F8C4
S315020DA2C80780FFF764FC20B0BDE8F08110B5A0B099
S315020DA2D804466846802105F0CFFD04B300202070A0
S315020DA2E842F26230C0F20E206946802241F288336C
S315020DA2F8FFF75FFCA0B942F20D01C0F20E216846C6
S315020DA30805F0E1FD58B1C07900F0FE01302906D1FC
S315020DA3183138B0FA80F040092070002000E00120A3
S315020DA32820B010BDF0B581B0074600208DF80300A8
S315020DA3380DF1030015460E46FFF7C8FF044660BB2E
S315020DA3489DF8030008B1002427E0384631462A460F
S315020DA358FFF78DFE40B1044641F23950C0F20E2088
S315020DA3682146FFF714FC18E005250DF1030400BF7D
S315020DA3782046FFF7ABFF18B99DF80300C0070FD1AA
S315020DA3884FF4FA7004F0A2FD013DF1D141F63640C3
S315020DA398C0F20E20FFF7FBFB1424204601B0F0BDD8
S315020DA3A842F20D70C0F20E20FFF7F1FBCBE72DE955
S315020DA3B8F04FADF5237D0D46064683A8802114463A
S315020DA3C805F05AFD03A84FF4007105F055FD4FF03F
S315020DA3D801000EB304B3FDB13178E9B130462C2133
S315020DA3E805F066FDB8B930460D2105F061FD90B947
S315020DA3F830460A2105F05CFD68B9FF2042F27F124C
S315020DA4082070C0F20E2283A880213346009505F0EE
S315020DA4188DFD7F2804D901200DF5237DBDE8F08F2A
S315020DA42883A803A94FF4007242F21073FFF7C1FB1A
S315020DA4380028F1D103AD2846214600F050F840B167
S315020DA448217842F6C500C0F20E20FFF7A0FB0020C8
S315020DA458E2E728464FF4007105F00EFD41F2801B26
S315020DA46841F27D16C2F2182BC2F218260DF10B0512
S315020DA47841F288374FF000084FF00009DBF800006B
S315020DA48850BB307830BB2846FFF7F5FCA0B1B8F5BE
S315020DA498FF7F1FD89DF80B0003A908F1010A01F8E1
S315020DA4A80800002001F80A000846214600F017F8B0
S315020DA4B80028D046C4D103E0FFF74CFD09F1010986
S315020DA4C8B945DBD341F61130C0F20E20FFF75FFB1B
S315020DA4D81420A1E7CB209FE7DBF800009CE7B0B577
S315020DA4E80C4642F23271C0F20E21054605F0EBFC1E
S315020DA4F808B1063008E041F63331C0F20E2128467E
S315020DA50805F0E1FC30B10A300078A0F13801C9B284
S315020DA518F82901D20020B0BD303820700120B0BD17
S315020DA52810B5A0B06C462046802105F0A5FC42F672
S315020DA538A600C0F20E202146802241F28833FFF78B
S315020DA54838FB044638B142F2BC40C0F20E20214611
S315020DA558FFF71DFB05E042F29520C0F20E20FFF72C
S315020DA56816FB204620B010BD80B582B0002100280A
S315020DA57801914CD00179072915DD082903D0102937
S315020DA58801D0202943D141F28010C2F218200121AF
S315020DA598016040F62870C2F218200068B0B101A910
S315020DA5A803F071FF12E0022915D004292FD141F2C9
S315020DA5B88811C2F218210A6801320A60017A40F638
S315020DA5C87870C2F21820FFF7DDF810B340F67470F2
S315020DA5D8C2F2182009E041F27C10C2F218200121BC
S315020DA5E8017040F62870C2F21820006810B101A950
S315020DA5F803F049FF019850B14EF60450CEF2000011
S315020DA6084FF080510160BFF34F8FBFF36F8F02B0CA
S315020DA61880BD41F27D10C2F218200121017041F26E
S315020DA6288410C2F21820016801310160E2E72DE9B2
S315020DA638F04389B0044601A8471C894638461F21AE
S315020DA6489846164605F018FC072C4FF003054DD80B
S315020DA658B9F1000F4AD0002E48D0B8F1000F45D0F7
S315020DA6681B2042F2B8528DF80400C0F20E2238466B
S315020DA6781F212346009605F059FC1E2801D91725D8
S315020DA68834E0441CFFF776FB41F27D10C2F2182026
S315020DA6980021017041F28010C2F21820016041F2C8
S315020DA6A88810C2F21820016041F28410C2F21820F5
S315020DA6B80160A1B201A8FFF78DFB08B1054615E0A9
S315020DA6C84046FFF7A9FB28B1054641F60650C0F2EA
S315020DA6D80E2008E0404600F029F858B1054641F625
S315020DA6E83950C0F20E202946FFF751FA284609B00D
S315020DA6F8BDE8F08348463146FFF76CFB0028DDD1ED
S315020DA7084046FFF789FB28B1054642F63420C0F2CA
S315020DA7180E20E8E7404600F009F828B1054642F250
S315020DA7281500C0F20E20DEE70025DFE72DE9F04F12
S315020DA738A3B001904EF2001603A88021CEF20006B0
S315020DA74805F09AFB42F63C60C0F20E2090F9050020
S315020DA758012200F01F0141F2801841F27D1B02FA17
S315020DA76801F9450906F180040027C2F21828C2F23A
S315020DA778182B4FF0000A00BFD8F80000002846D162
S315020DA7889BF80000012845D044F8259040F67870CC
S315020DA798BFF34F8FC2F218200DF10B01BFF36F8F66
S315020DA7A8FFF709F846F8259010B3BAF17F0F36D29E
S315020DA7B89DF80B00BB4603AFA84607F80A000AF137
S315020DA7C8010A0025384607F80A50FFF777FBB0BB92
S315020DA7D83846FFF79BFB45465F4641F2801841F224
S315020DA7E87D1BC2F21828C2F2182B00BB03E000BF6C
S315020DA7F8FFF7B0FB013701988742BDD342F2C55028
S315020DA808C0F20E2003A9FFF7C2F9142517E0D8F8EE
S315020DA818005014E041F63E30C0F20E2003E041F638
S315020DA8287210C0F20E20FFF7B2F9CB2507E042F2FD
S315020DA838AE30C0F20E2003A9FFF7A9F90125284665
S315020DA84823B0BDE8F08FD4D4012004F03FFBFBE71B
S315020DA858022818BF704741F2F45042F60841C2F277
S315020DA8681820C0F20E2101F025BD80B582B0002157
S315020DA8780191D8B1817AC90718D04068FEF7D0FF81
S315020DA88841F27C60C2F21820006801AA002104F088
S315020DA89834FF019850B14EF60450CEF200004FF037
S315020DA8A880510160BFF34F8FBFF36F8F02B080BD2A
S315020DA8B890B0FDF7FDFB40B941F69610C0F20E2099
S315020DA8C800F082F8002004F030FBFEF78DFF48B148
S315020DA8D8014642F29510C0F20E2000F075F80020DE
S315020DA8E804F023FB42F6602000214FF6C072C0F237
S315020DA8F80E20C6F6FE71C0F2010200F065F842F2AC
S315020DA908E84A41F65C4B08AC4FF0F0184FF00009D7
S315020DA91802ADC0F20E2AC0F20E2B00BF2046FEF77C
S315020DA9288EFF9DF82210012924D109AA07CA0D9B6B
S315020DA938CDE90202BDF83C00CDE90413ADF81C00C1
S315020DA9482846CDF81880ADF81E90FDF7D1FBA8BBA9
S315020DA9580A9800210B22FFF757F80A99074650461F
S315020DA96800F032F8042F29D141F6BE20C0F20E208E
S315020DA97819E000BF07469DF82000012816D19DF85B
S315020DA988210050B90A99DDE90C360E9A42F68E2047
S315020DA998C0F20E20009600F017F8042F0ED142F2DF
S315020DA9A83970C0F20E2000F00FF807E017F0FD0F10
S315020DA9B804D05846394600F007F800BF0020012199
S315020DA9C8642204F042FEA9E783B080B581B08446BD
S315020DA9D803A80EC003A800906A4600206146FEF73A
S315020DA9E8A7FC01B0BDE8804003B070478EB0FEF7F4
S315020DA9F865FB50B9FEF74AFB42F27E50C0F20E20B5
S315020DAA0800F078F8002004F090FA06A8FDF7EAFCA3
S315020DAA1850B9FEF73BFB42F6F400C0F20E2000F0E9
S315020DAA2869F8002004F081FA06A8FEF7A1F860B1CC
S315020DAA380446FEF72BFB42F21E10C0F20E202146EB
S315020DAA4800F058F8002004F070FA04F091FC9FED1E
S315020DAA58288A0646002701AC6D4600902046FEF769
S315020DAA6849FB78B19DF80500042821D8DFE800F0E6
S315020DAA78031911140E009DF810009DF81210FEF719
S315020DAA882DFA15E0F8071AD1002724E0FEF7FEFA8B
S315020DAA980EE0FEF78FFA0BE09DF81100FEF7E0FACD
S315020DAAA806E09DF813109DF81400FEF7A3FA00BFF1
S315020DAAB804F05EFC9DF8041006460129E4D104F063
S315020DAAC857FC801BC92805D3002000210027FEF755
S315020DAAD805FA00E00127B0EE480AFEF7CFF808B1ED
S315020DAAE8FEF7D4FA28460A2104F064F8B6E700BF41
S315020DAAF80AD7233C83B080B581B0844603A80EC01D
S315020DAB0803A800906A4600206146FEF711FC01B0C3
S315020DAB18BDE8804003B07047012004F0D7F9FBE782
S315020DAB288EB0FEF7D8FF48B1014642F63A10C0F28A
S315020DAB380E2000F0CAF9002004F0F7F941F67C0060
S315020DAB48C0F20E2040F6B83100F0BFF940F6B83023
S315020DAB5804F0BCF942F21D40C0F20E2000F0B5F920
S315020DAB6841F28C1441F2A56541F6713841F25E57F0
S315020DAB78C2F21824C0F20E25C0F20E28C0F20E2714
S315020DAB8820464FF4007105F077F9284621464FF411
S315020DAB98007240F6B833FFF70CF868B920464FF441
S315020DABA8007105F069F9404621464FF4007240F6E8
S315020DABB8B833FEF7FEFF70B106460C2000F097F982
S315020DABC83846314641F2883200F07FF941F2883033
S315020DABD804F07CF9D4E741F67D30C0F20E2000F080
S315020DABE874F941F6E11442F2004641F27D7741F6D7
S315020DABF87E4B41F6B4054FF0FF0A0DF12009C0F25E
S315020DAC080E24C0F20E26C0F20E27C0F20E2BC0F28B
S315020DAC180E2500BF48468DF81FA0FFF7C9F998B152
S315020DAC2880462846414600F050F90C2000F05FF99F
S315020DAC385846414641F2883200F047F941F28830CA
S315020DAC4804F044F9E6E700BF9DF82010D9B142F2A7
S315020DAC582060C0F20E2000F038F90020FFF7D4F973
S315020DAC680028DDD1FFF7E2F90028D9D14846FFF7CA
S315020DAC789FF90028D4D19DF82000002800F0F08015
S315020DAC884FF00108CDE7204600F01FF93046394648
S315020DAC984EF66022FFF746FB41F28C35C2F21825B5
S315020DACA8804628464FF4007105F0E6F841F29950B0
S315020DACB8C0F20E2029464FF4007241F28833FEF790
S315020DACC878FFB8F1000F054609D035B141F6216076
S315020DACD8C0F20E20294600F0F8F80C2006E055B110
S315020DACE80120012D98BF05460C20A84641F6B4054C
S315020DACF8C0F20E259AE741F28C3041F65B61C2F23B
S315020DAD081820C0F20E2105F0DEF80028E8D0FFF76C
S315020DAD1807FC30B1014642F2EE50C0F20E2000F0A9
S315020DAD28D4F842F24145C0F20E25284641F2883141
S315020DAD380DF11F02FFF73BFB10B180460D20D5E73B
S315020DAD489DF81F3041F6FA50C0F20E20294641F2FF
S315020DAD58883200F0BAF801AD28464FF0FF31FDF7FB
S315020DAD68E5F90028F8D00198002800F0A980029884
S315020DAD780322A0F10111CFF6FF7241F6B4059142F5
S315020DAD88C0F20E25C0F09A80BDF81810B1F57A7F7B
S315020DAD9800F2948044F65222C4F250720892039A33
S315020DADA841F601030993BDF8143012BA0A921ABA7A
S315020DADB8BDF81630120CADF82C201A0AB0469DF8BD
S315020DADC81F608DF82E20020C8DF82F3000238DF87A
S315020DADD83120020A8DF83300080A8DF830308DF8C5
S315020DADE832208DF834008DF83510ADF836303046F0
S315020DADF84946182241F28833FFF719FC002861D11A
S315020DAE08029AAAB1002500BF0198541BB4F5806FAA
S315020DAE1828BF4FF4806441193046224641F28833E1
S315020DAE28FFF705FC08BB029A2544954201D2EBE7CA
S315020DAE380022DDE90313BDF8187041F24070C0F225
S315020DAE480E20009700F041F801AD28460121002297
S315020DAE5800F064F841F6E114C0F20E2446467BE78B
S315020DAE6842F25360C0F20E200EE70746039942F2EC
S315020DAE782F20C0F20E202A463B4600F026F841F650
S315020DAE88E114C0F20E24464641F6B405C0F20E256B
S315020DAE98039942F2D330C0F20E203A4600F015F865
S315020DAEA801A800210E2200F039F8FFF739FB41F20D
S315020DAEB87D778DF81FA0C0F20E27ABE60327E7E7CD
S315020DAEC80327E1E707464646E2E783B080B581B038
S315020DAED8844603A80EC003A800906A460020614660
S315020DAEE8FEF726FA01B0BDE8804003B0704710B5EB
S315020DAEF886B0044668460021FDF718F960B1029935
S315020DAF0841F6BC40C0F20E202246FFF7DEFF684628
S315020DAF180021224600F002F806B010BD10B504460F
S315020DAF288068FEF771FD58B10246042809D1A16859
S315020DAF3841F6B170C0F20E20BDE81040FFF7C5BF4D
S315020DAF4810BDA16841F66F60C0F20E20BDE8104033
S315020DAF58FFF7BBBF80B584B041F28860C2F21820F4
S315020DAF68016841F28C5C0131016042F2B050C2F2C5
S315020DAF7818200621CDE900104AF6C77041F60F21B1
S315020DAF8842F67433C2F2182CC0F20D20C0F20E210D
S315020DAF98C0F20E234FF48072CDF808C003F0ECFC14
S315020DAFA841F2F051C2F21821086008B104B080BD11
S315020DAFB80020002104B0BDE8804000F04AB810B563
S315020DAFC8044600F049F82046BDE81040FFF73CBCA0
S315020DAFD87047FFF7FDBF80B584B041F28860C2F2B3
S315020DAFE81820016841F2186C0131016042F6B01061
S315020DAFF8C2F218200521CDE900104BF2490041F69F
S315020DB008F92142F69433C2F2182CC0F20D20C0F281
S315020DB0180E21C0F20E234FF48072CDF808C003F04C
S315020DB028ABFC41F27C61C2F21821086008B104B08A
S315020DB03880BD0020002104B0BDE8804000F009B8AB
S315020DB04810B5044600F008F82046BDE81040FFF793
S315020DB0582FBC00BE7047D4D4B0B541F28064C2F29B
S315020DB068182420684FF0FF3103F06AFB012803D03C
S315020DB07820680021FFF7EDFF41F28460C2F2182025
S315020DB088017801B1B0BD01210170FFF7A2FF41F2AE
S315020DB0988865C2F2182500BF286801382860F1D0E4
S315020DB0A8206800210022002303F09EF80128F3D020
S315020DB0B820680021FFF7CDFFEEE780B541F28860E3
S315020DB0C8C2F218200021016041F28460C2F21820F2
S315020DB0D841F28C620170C2F218224FF4807001217E
S315020DB0E803F062F841F28061C2F21821086018B9BC
S315020DB0F800200021FFF7ADFF00F026F8FFF72AFF23
S315020DB10800F060F800F09CF8FFF765FF03F0D7FF33
S315020DB118002080BD41F2D463C2F21823036041F2C6
S315020DB1283870C2F21820086080201060704741F608
S315020DB1383813C2F21823036041F69C10C2F2182086
S315020DB148086080201060704780B584B041F288602F
S315020DB158C2F21820016841F64C4C0131016042F6E3
S315020DB168B050C2F218200721CDE900104BF2BB10E0
S315020DB17841F6EC7142F62063C2F2182CC0F20D208C
S315020DB188C0F20E21C0F20E234FF48072CDF808C01C
S315020DB19803F0F2FB41F6B041C2F21821086008B17C
S315020DB1A804B080BD0020002104B0BDE88040FFF741
S315020DB1B850BF10B50446FFF74FFF2046BDE81040B5
S315020DB1C8FFF714BC80B584B041F28860C2F218202C
S315020DB1D8016841F6B44C0131016043F2B010C2F276
S315020DB1E818200221CDE900104BF2372041F2877162
S315020DB1F842F62463C2F2182CC0F20D20C0F20E21BB
S315020DB208C0F20E234FF48072CDF808C003F0B4FBDA
S315020DB21841F61851C2F21821086008B104B080BD72
S315020DB2280020002104B0BDE88040FFF712BF10B51B
S315020DB2380446FFF711FF2046BDE81040FFF76CBC28
S315020DB24880B584B041F28860C2F21820016841F6D1
S315020DB258505C0131016043F2B050C2F2182004214C
S315020DB268CDE900104BF2B32042F2115142F6686352
S315020DB278C2F2182CC0F20D20C0F20E21C0F20E2316
S315020DB2884FF4C062CDF808C003F076FB41F6B4510F
S315020DB298C2F21821086008B104B080BD0020002151
S315020DB2A804B0BDE88040FFF7D4BE10B50446FFF7DB
S315020DB2B8D3FE2046BDE81040FFF732BC1EF0040F40
S315020DB2C80CBFEFF30880EFF3098001490847000028
S315020DB2D86BB30D020F4B1968EFF309821EF0100FAF
S315020DB2E808BF22ED108A22E9F04FEFF30B8342F8DD
S315020DB2F8043D0A604FF0100080F31188BFF34F8F9B
S315020DB308BFF36F8F03F08CFE4FF0000080F31188A8
S315020DB31800F002B8CC221822074801680A6802CA48
S315020DB32881F30B88B2E8F04F1EF0100F08BFB2EC8E
S315020DB338108A82F309887047CC22182210B5EFF3CA
S315020DB3481184102080F3118803F03CFF30B14EF6BC
S315020DB3580450CEF200004FF08051016084F311883B
S315020DB36810BD806910F8020C022808BFFFF7D4BF7A
S315020DB378042838BF704780B541F2E35041F6CF62D3
S315020DB38841F2FC63C0F20E20C0F20E22C0F20E2369
S315020DB3984FF47E7102F0F8FB283140F8481D4BF246
S315020DB3A8C931C0F20D214FF0807C22F00102C16332
S315020DB3B86FF002010264C0F844C0C0E90913704770
S315020DB3C800BE00BFFEE7D4D44EF62250CEF20000E0
S315020DB3D8F021017000F016F84EF63470CEF2000028
S315020DB3E8016841F04041016062B6BFF36F8FEFF31A
S315020DB3F8148C2CF0040C8CF31488BFF36F8F02DFB8
S315020DB40800BEFDE741F66460C2F21820006844F6F4
S315020DB418D351C1F26201A0FB01014FF0FF3000EBDF
S315020DB42891110020B0EB116F18BF70474EF2100242
S315020DB438CEF2000251604EF62351CEF20001F023F0
S315020DB4480B7090600720106070471021EFF3118082
S315020DB45881F3118841F6B851C2F218210A68531CB4
S315020DB4680B605AB941F6BC51C2F2182108604EF664
S315020DB4780450CEF200000068C00500D1704780B5B1
S315020DB48841F2E35041F2096241F66453C0F20E20CD
S315020DB498C0F20E22C0F20E2340F2A44102F074FB52
S315020DB4A841F6B850C2F21820016859B10139016046
S315020DB4B818BF704741F6BC50C2F21820006880F3D7
S315020DB4C81188704780B541F2E35042F6010241F206
S315020DB4D8A553C0F20E20C0F20E22C0F20E2340F280
S315020DB4E8AD4102F051FB80B598B34EF6902EC4F2DB
S315020DB4F8010E9EF800100A0722D04EF2FA32C4F255
S315020DB508010213884AF2025CCFF6FF7C0020A2F8EC
S315020DB51800C08EF8000043F425401080BFF34F8F0C
S315020DB52830BFBFF36F8F62B6BFF36F8F72B61088D7
S315020DB538A2F800C040F425408EF80010108080BD98
S315020DB548BFF34F8F30BFBFF36F8F62B6BFF36F8FE7
S315020DB55872B680BD80B572B603F096FB0120FFF771
S315020DB568C2FF62B6BDE8804003F0E8BB80B5EFF3D3
S315020DB5780380103840B2002806D44EF20041CEF2AE
S315020DB5880001405C0F2817D94EF60C50CEF200007A
S315020DB5980068400558BF80BD41F2E35042F26D3254
S315020DB5A841F6E103C0F20E20C0F20E22C0F20E23BE
S315020DB5B840F2216102F0E8FA41F2E35042F26D32AD
S315020DB5C842F26E73C0F20E20C0F20E22C0F20E23A4
S315020DB5D840F20F6102F0D8FA80B5EFF303804FF00F
S315020DB5E8704101EB00604CF200318015C4F2000186
S315020DB5F8425822F480324250415841F61C61C2F239
S315020DB60818210858D0E90612914222D002694AB188
S315020DB61890F820E0BEF1100F07D383681B6842F835
S315020DB62821300CE08268126809E08368BEF1080FC2
S315020DB638D3F800C034BF02F801C022F811C08268DF
S315020DB6484FF000439366C26901319142816118BF79
S315020DB65880BD4068012290F9030000F01F0102FA2D
S315020DB66801F14EF200124009CEF2000242F8201004
S315020DB67880BDEFF303804FF070424CF2003102EBBE
S315020DB6880060C4F200018015425822F480324250FD
S315020DB698425841F61C62C2F2182210584268136AC1
S315020DB6A85B78012B36D1C369D0F814C0013B9C4592
S315020DB6B81DD192F903204EF2001C51F82230CEF21A
S315020DB6C8000C23F4803341F8223051F8221002F08F
S315020DB6D81F010123520903FA01F10CEB8203BFF391
S315020DB6E85F8FC3F880114CF8221000F015B8116956
S315020DB6F8002908BF00F010B892F90310012301F0D2
S315020DB7081F0203FA02F24EF200134909CEF20003A2
S315020DB71843F8212000F000B842684169537A83B98B
S315020DB728126A72B1527B012A0BD18268136D9B0084
S315020DB73828D5C369013B994203D1536923F0800386
S315020DB7485361C269914208BF70478268136D9B00A7
S315020DB758FCD5C3683BB190F820C0BCF1100F04D3D9
S315020DB76853F8213007E0002305E0BCF1080F34BF7A
S315020DB7785B5C33F81130136082684FF00053013168
S315020DB7889366416170474FF070424CF20031EFF308
S315020DB798038002EB0062C4F200019015435823F4AC
S315020DB7A880334350435841F61C63C2F21823185886
S315020DB7B883681B6D9B0104D543685B7A012B18BF01
S315020DB7C8704780B513164EF2001ECEF2000E03F028
S315020DB7D81F024FF0010C5B090CFA02F20EEB830302
S315020DB7E8C3F88020BFF34F8FBFF36F8F426892F96C
S315020DB7F80230002B2AD403F01F025B090CFA02F25F
S315020DB8080EEB8303C3F88020BFF34F8FBFF36F8F01
S315020DB8188268936823F001039360426892F90220C5
S315020DB82851F8223023F4803341F8223051F8221090
S315020DB83802F01F0152090CFA01F10EEB8203BFF356
S315020DB8485F8FC3F880114EF8221004E081688A686A
S315020DB85822F001028A600121BDE8804000F000B89D
S315020DB8682DE9F04184B00446806A0DF1040828B129
S315020DB878024692E8E0004346E0C300E040466268AD
S315020DB888127801710260E16A8160616A8847A06A6D
S315020DB89810B198E80E000EC004B0BDE8F081F0B5FF
S315020DB8A881B04FF07041EFF3038001EB006641F66C
S315020DB8B81C61B015C2F218210C584CF2003560689D
S315020DB8C8C4F2000590F9020000282FD44EF2001397
S315020DB8D800F01F0101224009CEF2000302FA01F11E
S315020DB8E803EB8000C0F88010BFF34F8FBFF36F8F45
S315020DB8F8A068816821F001018160606890F90200F3
S315020DB90855F8201021F4803145F8201055F82010ED
S315020DB91800F01F01400902FA01F103EB8002BFF3A1
S315020DB9285F8FC2F8801143F8201004E0A068816881
S315020DB93821F001018160A0680021076DCFF68051C3
S315020DB9483A01816603D520460521FFF789FFF801DD
S315020DB95803D520460421FFF783FFF84310F0A05FB5
S315020DB9684FEA266603D120460821FFF779FF55F8D7
S315020DB978260020F4803045F8260055F8260001B039
S315020DB988F0BDD4D42DE9F0470D460446087848F2A1
S315020DB9980001C4F2350101EB00206062002020701F
S315020DB9A825626969A162A969C4E90B01A078D5F86E
S315020DB9B81C8020F00300411CA170697811B940F072
S315020DB9C80200A07095F90B604EF20019CEF200092D
S315020DB9D806F01F014FF0010C0CFA01F309F1800173
S315020DB9E87009AA7A41F820304CF2003ABFF34F8F0C
S315020DB9F8C4F2000ABFF36F8F5AF8260041F61C6E81
S315020DBA0820F480304AF826005AF82600100109F566
S315020DBA184072C2F2182E90554EF8264095F9050039
S315020DBA282E7900F01F030CFA03F3470941F8273064
S315020DBA38BFF34F8FBFF36F8F5AF8203023F480333D
S315020DBA484AF820305AF82030330113544EF8204064
S315020DBA5895F90700AB7900F01F060CFA06F64709A9
S315020DBA6841F82760BFF34F8FBFF36F8F5AF82060E7
S315020DBA781B0126F480364AF820605AF820601354C2
S315020DBA884EF8204095F909002B7A00F01F060CFA9C
S315020DBA9806F6470941F82760BFF34F8FBFF36F8F3D
S315020DBAA85AF8201021F480314AF820105AF820103D
S315020DBAB8190111544EF82040EFF310868CF31088B5
S315020DBAC843F204022878C4F220024FF000411368AB
S315020DBAD821FA00F023EA0000106010681E200121E9
S315020DBAE802F055F886F31088606A4FF4806181601A
S315020DBAF8E869EB786A784FF48047467807EA833324
S315020DBB08417B077806F0010662F3092301F001016C
S315020DBB1843EAC63207F0030742EA415141EA076191
S315020DBB28626A01F58051D0F804C05161027802F0BB
S315020DBB38FE01022907D14FF60471CFF60071022ACA
S315020DBB4808BF203101E0DCF80010626A0C2311618E
S315020DBB58027BAF78817863F39F024FF44073022F0D
S315020DBB6808BF4FF48073002F18BF1A4301F0010165
S315020DBB78636A42EA0171D960626A002191612A7883
S315020DBB88092A04D8626A0023C1F61F735362827B9F
S315020DBB98B0F80F00636A42EA002041F60172C0F25C
S315020DBBA81F02104018632046C4E90411C4E90611A0
S315020DBBB800F065F9B8F80A001021A081606AC9F685
S315020DBBC807518166206A90F905205AF8220002F07B
S315020DBBD81F0120F480304AF822005AF8220001206B
S315020DBBE800FA01F309F5C0715209BFF35F8F41F8E7
S315020DBBF8223049F82230226A92F90B205AF822305D
S315020DBC0823F480334AF822305AF8223002F01F0301
S315020DBC1800FA03F35209BFF35F8F41F8223049F850
S315020DBC282230226A92F907205AF8223023F48033F9
S315020DBC384AF822305AF8223002F01F0300FA03F3AB
S315020DBC485209BFF35F8F41F8223049F82230226A32
S315020DBC5892F909205AF8223023F480334AF8223011
S315020DBC685AF8223002F01F0398405209BFF35F8F2C
S315020DBC7841F8220049F82200606A40F21141C0F2E9
S315020DBC8801018160606A00BF017FC907FCD044F6D5
S315020DBC984211C5F2433100206160BDE8F0870346C3
S315020DBCA80020C3E90612704780B5D0F824E0DEF805
S315020DBCB808C02CF44013CEF80830D0F824C000BFC3
S315020DBCC8DCF848305B00FBD5DCF8083023F01003AE
S315020DBCD8CCF80830D0F824C09CF81C30DB06FBD40F
S315020DBCE8C0E90412DCF8080040F010110020CCF867
S315020DBCF8081080BD70B50446406A0D4682684FF637
S315020DBD08EE71CFF6CE71114081600020206120467A
S315020DBD1822F4401600F0B3F82868616A0861616A70
S315020DBD2800208E6070BD4FF0FF3200200A604A6017
S315020DBD387047D4D48A0701D4062212E0426A936860
S315020DBD4823F440139360426A936C5B00FCD59368A7
S315020DBD5823F010039360426A137FDB06FCD400229C
S315020DBD684261C9071CBF0022C2611046704784464C
S315020DBD78C0E90A130020CCF830207047B0B5044646
S315020DBD88406844F64211C5F2433188421CBF07206A
S315020DBD98B0BD606A816821F440118160606A81686C
S315020DBDA821F010018160606A017FC906FCD4206A00
S315020DBDB890F90710012001F01F024B094EF280116E
S315020DBDC800FA02F2CEF2000141F82320BFF34F8F9B
S315020DBDD8BFF36F8F226A92F9092002F01F0300FA48
S315020DBDE803F3520941F82230BFF34F8FBFF36F8F1A
S315020DBDF8626A936823F480339360226A92F9052066
S315020DBE0802F01F0300FA03F3520941F82230BFF379
S315020DBE184F8FBFF36F8F226A92F90B2002F01F0321
S315020DBE2800FA03F3520941F82230BFF34F8FBFF3DD
S315020DBE386F8FEFF3108580F31088206A43F20402A0
S315020DBE480078C4F220024FF00041136821FA00F07F
S315020DBE581843106010681E20012101F098FE85F323
S315020DBE68108800206060B0BD0246C06908600021D6
S315020DBE780020D1617047062070470620704770B5BD
S315020DBE880446006AC5690020A060687C68B34EF254
S315020DBE985400C4F20100017801F00F01022901D8FC
S315020DBEA801220BE0CA1E052A06D242F69861C0F295
S315020DBEB80E2151F8226003E00839102202FA01F622
S315020DBEC8407800F00F0001F056FE41F66462C2F2A8
S315020DBED81822697C1268B0FBF6F002FB01F1B1FB80
S315020DBEE8F0F0012101EB9000A06070BDB0B5EFF343
S315020DBEF803804FF0704101EB00604CF20031801562
S315020DBF08C4F20001425822F480324250415841F699
S315020DBF181C61C2F218210C58206A01696069C1B9FF
S315020DBF28C0B1A07800F003012069022905D1008865
S315020DBF38616A20F4DC40486002E00078616A0871A3
S315020DBF48A078616900F00302881A216960611144BB
S315020DBF582161A0B9616A02228D68A06862F315553E
S315020DBF6810B101F056FE616A8D60A06A0021216149
S315020DBF7828B120468022BDE8B04000F001B8B0BD18
S315020DBF882DE9F04385B08146C06A0DF1040830B13A
S315020DBF98054695E8D800C4468CE8D80000E0404628
S315020DBFA8D9F820301B78816003600271D9F83010F8
S315020DBFB8C160D9F828108847D9F82C0010B198E82D
S315020DBFC88E008EC005B0BDE8F08310B582B0EFF3D2
S315020DBFD803804FF0704101EB00604CF20031801581
S315020DBFE8C4F20001425822F480324250415841F6B9
S315020DBFF81C61C2F218210C58A07800F00302606A7F
S315020DC008022A03D101686FF35F2100E00178E06926
S315020DC018019198B1A06901A903F032FFA078A1692F
S315020DC028E26900F003000144101AA161E0610ED124
S315020DC038A06A60B120460021012203E0A06A30B150
S315020DC0482046042202B0BDE81040FFF799BF02B0A0
S315020DC05810BD10B54FF07041EFF3038001EB00618F
S315020DC06841F61C628815C2F2182210584FF6EF7463
S315020DC078426ACFF6CF74936823409360826A0C1690
S315020DC0881AB100210222FFF77BFF4CF20030C4F2EF
S315020DC098000050F8241021F4803140F8241050F88D
S315020DC0A8240010BD4FF07041EFF3038001EB006CD5
S315020DC0B841F61C614FEAAC50C2F218210858817834
S315020DC0C8436A01F00301022903D119686FF35F214F
S315020DC0D800E01978B0B59A6C202404EAD24E1024E1
S315020DC0E8082514EA126405EA12627244224403D040
S315020DC0F89D6C2D0458BF40329D6E4FEA2C6445F057
S315020DC108C8559D66836A0BB1FFF73AFF4CF20030AC
S315020DC118C4F2000050F8241021F4803140F824109E
S315020DC12850F82400B0BD416002468868C0231061EC
S315020DC138C868C4F20203906100205061086803EBD7
S315020DC14840109060086803EB40104030D06091F9BA
S315020DC1580400002829D449794EF2001CCEF2000CAF
S315020DC168090100EB0C0383F8001341F61C61C2F2B8
S315020DC178182141F820204CF20031C4F2000151F881
S315020DC188203023F4803341F8203051F8201000F086
S315020DC1981F010123400903FA01F10CEB8003BFF3DA
S315020DC1A85F8FC3F880114CF8201045F24301C5F292
S315020DC1B849210020116070478068026892034EBFBC
S315020DC1C80C208160002070478268002051607047FC
S315020DC1D88446C0E904130020CCF81820704701469E
S315020DC1E8406890F9040000280FD400F01F020123BD
S315020DC1F803FA02F24EF280134009CEF2000343F817
S315020DC2082020BFF34F8FBFF36F8F002200200A60E5
S315020DC2187047B0B5EFF303804FF0704101EB006044
S315020DC2284CF200318015C4F20001425822F48032D4
S315020DC2384250415841F61C61C2F218210C58E06869
S315020DC2480568E80304D520464FF4803100F00BF853
S315020DC25835F4403508BFB0BD2046294600F003F82F
S315020DC268E0680561B0BD2DE9F04184B00446406928
S315020DC278E84630B1034693E8E400C4468CE8E40088
S315020DC28800E040466268B1F5803F1268816002603F
S315020DC298A269C26002D1E168C96800E00021416065
S315020DC2A821698847606910B198E88E008EC004B07E
S315020DC2B8BDE8F08180B545F25422C5F24F020260FF
S315020DC2C8084600F003F8002080BDD4D470B50446A4
S315020DC2D800F05CF841F6186CEFF31080012181F33A
S315020DC2E81088C2F2182CDCF8001039B940F6145130
S315020DC2F8C4F2400100220A7040220A70DCF80010CE
S315020DC3080131CCF8001080F31088208810B340F65E
S315020DC318000E0021C4F2400E606800EBC10292883D
S315020DC32850F83130100ADD03D2B20BD50EEB80155B
S315020DC33855F8226026F4803645F8226023F48036B5
S315020DC34845F822600EEB801040F822302088013124
S315020DC3588142E1D3EFF31081012080F31088DCF8D6
S315020DC368000020B1DCF800000138CCF80000DCF83A
S315020DC378000038B940F61450C4F24000002202708B
S315020DC3888022027081F3108870BDD4D42DE9F04F46
S315020DC39881B00446008800285CD042F240084EF669
S315020DC3A84C4A42F6C06BC4F220080026C4F2010AB2
S315020DC3B8C0F20E2B4FF00109002700BF60683BF84B
S315020DC3C8172000EBC600818891423CD100689AF885
S315020DC3D8001000F0B85009FA07F5B0F1807F05EAAA
S315020DC3E8010015D150B9012001F08EFC9AF8000012
S315020DC3F828438AF80000012001F05DFC18F91700A0
S315020DC408002820D418F8170040F0800015E000BF68
S315020DC41850B1012001F078FC9AF80000A8438AF879
S315020DC4280000012001F047FC18F91700B0F1FF3F93
S315020DC43809DC18F8170000F07F0008F81700C82065
S315020DC448012101F0A4FB0137032FB7D1208801364C
S315020DC4588642B1D301B0BDE8F08FF0B581B00C4676
S315020DC468054608784EF20001C4F2250101EB0020BB
S315020DC47828612C60A06843F204076860207BC4F229
S315020DC48820072872E0696863206AE8630020A863BA
S315020DC498C5E90500C5E9070085F8290085F82A00CA
S315020DC4A885F82B0085F82C00EFF31086012080F312
S315020DC4B8108821783A68C1F10901884022EA0000FC
S315020DC4C8386038681E20012101F061FB86F3108859
S315020DC4D82846214600F06AF8A06958B141684FF41A
S315020DC4E8002209680A60D0E90112006812689047AD
S315020DC4F8064698B9606928B341684FF00062096823
S315020DC5080A60D0E90112006812689047D0B1064652
S315020DC518A06918B181680068096A8847EFF3108522
S315020DC528012080F3108821783A68C1F10901884003
S315020DC5381043386038681E20012101F028FB85F367
S315020DC548108805E044F64310C5F249200026E86036
S315020DC558304601B0F0BD9C46012380F82AC000F092
S315020DC568E7B89C46002380F82AC000F0E1B8B0B5BA
S315020DC578044600690025C5712168204600F016F8A3
S315020DC58894F82600216984F82800A069B322C4E923
S315020DC5980750002084F82C5084F82A50CA71B0BD71
S315020DC5A80346416000201A727047D4D4F0B5026969
S315020DC5B800231370026940231370026913785B0610
S315020DC5C8FCD5C023137002680369526A08251279CD
S315020DC5D84EF2001C42F0E0021A7402680369526AAE
S315020DC5E8CEF2000CD27841F61C6E42F0E0025A7475
S315020DC5F802680369526AC2F2182E927862F3061518
S315020DC6089D7002680369526A15785278013DB5FA2A
S315020DC61885F56D0945EA420242F00402DA700268AE
S315020DC62844F2402552680369C0F20F05AA424FF03B
S315020DC638770208BF6FF008025A71026900239371D7
S315020DC6480269B323D3714A7B91F9116013010CF573
S315020DC658407293554CF200334EF82600C4F200038D
S315020DC66853F8264006F01F0524F4803443F8264075
S315020DC67853F82640012404FA05F70CF5C075760918
S315020DC688BFF35F8F45F826704CF826704E7B91F9ED
S315020DC6980F703601D6554EF8270053F8276026F443
S315020DC6A8803643F8276053F8276007F01F0604FA09
S315020DC6B806F67F09BFF35F8F45F827604CF82760AA
S315020DC6C84E7B91F910703601D6554EF8270053F860
S315020DC6D8276026F4803643F8276053F8276007F05B
S315020DC6E81F0604FA06F67F09BFF35F8F45F8276022
S315020DC6F84CF827604E7B91F90E10360156544EF8BA
S315020DC708210053F8212022F4803243F8212053F8D0
S315020DC718212001F01F0204FA02F24909BFF35F8FC5
S315020DC72845F821204CF8212000699F210170F0BDA2
S315020DC73890F808C0C0E90512BCF1010F08D10179BC
S315020DC7484FF4807C43EA4101A0F825C080F82410F5
S315020DC75810B581B04EF2200180F82930C4F20101DC
S315020DC76809680091009901F00F210091DDF800E0AA
S315020DC778DDF800C001690B7C90F82C409CB9CEF30C
S315020DC7880322A2EB1C6203FA02F2042A06D39208CA
S315020DC79891F90130002B03D5013AF9D108216CE044
S315020DC7A80022CA71826990F82630002180F8281075
S315020DC7B8C0E9072180F8273080F82B1080F82D1054
S315020DC7C880F82E1080F82F1080F830100168D0F8F6
S315020DC7D810C0496A0B784C78013BB3FA83F34A7950
S315020DC7E85B0991F806E043EA440343EA021242EA78
S315020DC7F8CE1242F004028CF803200269137943F033
S315020DC808100313710269137903F0F70313710269A1
S315020DC818137903F0EF0313710269C979137903F0DA
S315020DC8287F0343EAC111117101694A7942F0010286
S315020DC8384A71016891F90F1000290BD401F01F02F4
S315020DC848012303FA02F24EF200134909CEF200034E
S315020DC85843F8212001694A7A02F0F3024A72016904
S315020DC868BF22CA7190F82C1019B1002180F82C102C
S315020DC87803E00069022141700021084601B010BD8E
S315020DC88810B582B0EFF303804FF0704101EB0060F3
S315020DC8984CF200328015C4F20002835823F4803319
S315020DC8A883508058EFF3038001EB006041F61C615B
S315020DC8B88015C2F218210C5894F82D0038B194F847
S315020DC8C82E0001284DD1002084F82E0080E0A069A3
S315020DC8D8022804D82069017941F040010171E06905
S315020DC8E801280ED12069017941F0100101712069E3
S315020DC8F8017941F0080101712069017901F0EF0111
S315020DC908017120688269D2B1216994F82930012B07
S315020DC91815D1A369042B12D3D2F808C01068DCF816
S315020DC92808C06269033B13319BB2E047A269032132
S315020DC9382068033AC4E90712012184F82E10406AC9
S315020DC948C079012803D12046052100F043FA206952
S315020DC958C07C8DF807009DF80700012084F82D008C
S315020DC96836E0E069A0B32168496AC979012904D17B
S315020DC9782046052100F02EFAE06901282AD0022860
S315020DC98806D0032813D12069017941F040010DE043
S315020DC9982069017941F0100101712069017941F08F
S315020DC9A8080101712069017901F0EF010171D4E9DC
S315020DC9B80401C07C226A8854D4E907100130013972
S315020DC9C8C4E9071004D12069017901F0BF0101718B
S315020DC9D802B010BD94F82A00012831D120684EF212
S315020DC9E8801390F90F10012001F01F0200FA02F2CE
S315020DC9F84909CEF2000343F82120BFF34F8FBFF347
S315020DCA086F8F2169CA7942F08002CA7121690A7942
S315020DCA1842F010020A7121690A7902F0F7020A71C7
S315020DCA2821690A7902F0EF020A71216904224A7014
S315020DCA3821694A7902F0FE024A7184F82C00B6E79A
S315020DCA482069417A01F0F701417220690821417086
S315020DCA58ADE7D4D4B0B5EFF303804FF070414CF285
S315020DCA68003501EB0060C4F200058015425922F427
S315020DCA78803242514059EFF3038001EB006041F6D3
S315020DCA881C618015C2F218210C5894F82700A0B320
S315020DCA9894F82610032907D194F82810022903D1F0
S315020DCAA894F83010002950D094F8245022690128A0
S315020DCAB817D120684069A0B194F8291089B9A169DE
S315020DCAC879B181680068D1F808C06169A38B123201
S315020DCAD8E047A16900202269C4E90701012084F80B
S315020DCAE82F00957494F8280094F82710013084F8CD
S315020DCAF82800481E84F82700B0BD94F8290020BBEB
S315020DCB082068406AC079012808D194F82B0028B903
S315020DCB18206A18B12046052100F05CF994F82F0019
S315020DCB28012804D1002084F82F00E0690CE0E069A1
S315020DCB3860B1D4E90401226A895C8174D4E90710CB
S315020DCB48421C481EC4E9070200B1B0BD2069C1796D
S315020DCB5801F07F01C17120696FF0BE0190F90720BE
S315020DCB68B2F1FF3F03DC002901F10101F6D120687C
S315020DCB7890F9100055F8201021F4803145F820104F
S315020DCB8855F82000206890F9100000280BD400F003
S315020DCB981F01012202FA01F14EF280224009CEF25C
S315020DCBA8000242F820102069C17941F04001C17195
S315020DCBB8B0BDD4D410B5EFF303804FF0704101EB3D
S315020DCBC8006041F61C618015C2F218210C582068C6
S315020DCBD8406AC079012803D12046052100F0FAF8EA
S315020DCBE894F82900012806D194F82700012802D1C4
S315020DCBF894F8300080B3E06970BB94F82A000128D6
S315020DCC0822D12068012290F90F004EF2801300F00E
S315020DCC181F0102FA01F14009CEF2000343F8201072
S315020DCC28BFF34F8FBFF36F8F2069C17941F0800132
S315020DCC38C1712069042141702069417901F0FE0113
S315020DCC48417184F82C2007E02069417A01F0F70139
S315020DCC5841722069082141702069C17901F0BF012D
S315020DCC68C17120696FF0BE01C279520603D500293A
S315020DCC7801F10101F8D1EFF303804FF0704101EB99
S315020DCC8800604CF200318015C4F20001425822F4BC
S315020DCC9880324250405810BDB0B5EFF303804FF0C5
S315020DCCA8704101EB006041F61C618015C2F2182134
S315020DCCB80C5821694A7A4B7A02F01F0003F0E003F9
S315020DCCC80F2802F003024B7201D83AB924E0216902
S315020DCCD84B785B0658BF42F00102D2B1012084F8A7
S315020DCCE82B0020690025C57121682046FFF75EFCD9
S315020DCCF894F82600216984F82800A069C4E907502A
S315020DCD08B32084F82C5084F82A50C8712046012184
S315020DCD184DE04A78520611D4010706D494F82C2010
S315020DCD28012A31D110F004022ED0E06910B994F817
S315020DCD382B0098B3002919D4012036E0012084F876
S315020DCD482B000820487020682169406A02784379C9
S315020DCD58807942EA031242EAC01040F00200C87016
S315020DCD682069417941F00101417122E094F82600CA
S315020DCD78002184F82800A069C4E90710012084F867
S315020DCD882C1084F82A100DE0400712D52068406A47
S315020DCD98C07901280DD12046042108E094F829000E
S315020DCDA880F003002169B322CA71C1B2204600F090
S315020DCDB811F8EFF303804FF0704101EB00604CF26E
S315020DCDC800318015C4F20001425822F480324250D5
S315020DCDD84058B0BDB0B582B0856B0446002D1ABF5A
S315020DCDE8D5E90002CDE900026D46E06B297128608E
S315020DCDF82068416939B194F8292022B98A680868E8
S315020DCE08116988472068806938B194F82910012973
S315020DCE1803D18168006809698847616B2846884786
S315020DCE28A06B18B1DDE90012C0E90012002084F8E2
S315020DCE382B0002B0B0BD70B582B04FF07041EFF362
S315020DCE48038001EB006141F61C628815C2F21822B5
S315020DCE5810583C2342794CF2003403EA92031A44E1
S315020DCE68C323C0F2400363F31F2249F60053CFF6DC
S315020DCE78FF73D25CC4F2000402F00306032E4FEAD6
S315020DCE88216507D054F8251021F4803144F8251070
S315020DCE9854F82510816829B14279C068CDE9000296
S315020DCEA868468847032E07D154F8250020F48030AA
S315020DCEB844F8250054F8250002B070BD2DE9F04F4F
S315020DCEC881B00D46097C012204460D294FF000005A
S315020DCED802FA01F188BF0120E16065602074287CA1
S315020DCEE842F20001C4F2320101EB0020A06068692A
S315020DCEF843F610796061A8694FF00008C4F2320949
S315020DCF08C4E90680D5F81CB0C9F80020EFF31087DE
S315020DCF1882F31088287C4FF0004A011F062943F236
S315020DCF2810012AFA00F0C4F220016FEA00000A681D
S315020DCF3838BF6FF000601040086008681E20012196
S315020DCF4800F025FE87F31088207B00070DD0EFF33E
S315020DCF581080012181F31088A189B9F8F22022EAFD
S315020DCF680101A9F8F21080F31088A0684FF4254143
S315020DCF780160A068C0F82C80A068C0F83C80A06843
S315020DCF88C0F848802978287A0329A1684FEAC05043
S315020DCF986A6808BF00F58030C862A068C0F810A09C
S315020DCFA8A068C0F814A0A068C0F818A0A068C0F8B8
S315020DCFB82480A068C0F82880DBF81800A168C8612B
S315020DCFC8DBF81C00A1680862A068511E8166A0687C
S315020DCFD841662978DBF85090012938D029B9696854
S315020DCFE84FF0FF3202EB510108E0A268E968936E31
S315020DCFF803F1010329B1994203D201394FF0000811
S315020DD00827E099424FF0000328BF0123526B676848
S315020DD018B1FA81FC02F0100102F00C023F78043AD3
S315020DD028B2FA82F25209032F40F200084FF0010EAE
S315020DD03888BF8EEA1112002AC0F2033808BF4FEADA
S315020DD0485C13002B1CBF40F20008C0F202284FF0F9
S315020DD058FF31A2685165A26891652A78042A03D31D
S315020DD068A268D165A2681166DBF85010C9BB9BF898
S315020DD0780010012916D12A789BF80110022A03D02D
S315020DD088032A03D1032205E0092203E00922002916
S315020DD09808BF06220B0143EA8111114441EA090030
S315020DD0A840F480799BF8021001291AD12A789BF847
S315020DD0B80310022A04D0032A05D14FF4403208E0A0
S315020DD0C84FF4102205E04FF41022002908BF4FF441
S315020DD0D8C0220B0543EA8151114441EA090040F089
S315020DD0E8807961680023C96901F1300291F84870A7
S315020DD0F8DF40FF070DD052F82370A0681E46042B99
S315020DD10808BF0326013F032B08BF042600EB860042
S315020DD118C7640133062BE9D1287C0D2802D8A068ED
S315020DD12800214164A06800218163A068C0F88810B7
S315020DD138DBF8500040B99BF820009BF821104003FC
S315020DD14840EA417049EA00099BF84800A16800289F
S315020DD1584FF4A00008BF4FF4AA00086428780128E6
S315020DD16804D1A0680021C164A0680165A068C0F851
S315020DD17834909BF85510A2689BF854004901D36A5E
S315020DD18841EA00101843D062A06848F00301016312
S315020DD198A06848F001010163D4E902124EF20010AB
S315020DD1A8CA6095F912304CF2003141F61C62CEF284
S315020DD1B80000C4F20001002BC2F218221CD46F7CA7
S315020DD1C8C6183F0186F8007342F8234051F82370BA
S315020DD1D8012627F4803741F8237051F8237003F09E
S315020DD1E81F075B0906FA07F700EB8306BFF35F8F86
S315020DD1F8C6F8807140F823709BF92830002B1DD490
S315020DD2089BF82270C6183F0186F8007342F8234030
S315020DD21851F82370012627F4803741F8237051F807
S315020DD228237003F01F075B0906FA07F700EB83065F
S315020DD238BFF35F8FC6F8807140F823709BF92930CA
S315020DD248002B1DD49BF82370C6183F0186F8007370
S315020DD25842F8234051F82370012627F4803741F806
S315020DD268237051F8237003F01F075B0906FA07F7B7
S315020DD27800EB8306BFF35F8FC6F8807140F8237003
S315020DD2889BF92A30002B1DD49BF82470C6183F0132
S315020DD29886F8007342F8234051F82370012627F4C5
S315020DD2A8803741F8237051F8237003F01F075B0985
S315020DD2B806FA07F700EB8306BFF35F8FC6F8807190
S315020DD2C840F823709BF92B30002B1DD49BF8257043
S315020DD2D8C6183F0186F8007342F8234051F82370A9
S315020DD2E8012627F4803741F8237051F8237003F08D
S315020DD2F81F075B0906FA07F700EB8306BFF35F8F75
S315020DD308C6F8807140F823709BF92C30002B1DD47A
S315020DD3189BF82670C6183F0186F8007342F823401B
S315020DD32851F82370012627F4803741F8237051F8F6
S315020DD338237003F01F075B0906FA07F700EB83064E
S315020DD348BFF35F8FC6F8807140F823709BF92D30B5
S315020DD358002B1DD49BF82770C6183F0186F800735B
S315020DD36842F8234051F8232022F4803241F8232033
S315020DD37851F8231003F01F01012202FA01F15A098D
S315020DD38800EB8203BFF35F8FC3F8801140F82210BA
S315020DD39845F25401C0F247010020216001B0BDE8F3
S315020DD3A8F08FD0E9021200204A607047D0E90212C6
S315020DD3B800208A607047D0E902120020CA607047C1
S315020DD3C880B5D0E9011EC969D1E901C3CA6843F01E
S315020DD3D80043CEF81430836842F000429A6182689F
S315020DD3E84CF0004313610A6983685A624969826877
S315020DD3F80020916280BD81684FF000420A61816802
S315020DD4084A6181688A61816800224A6281680020C0
S315020DD4188A62704783684A1E9A6643681B783BB9C7
S315020DD4284FF0FF3C83680CEB51015965836899658A
S315020DD4388168CB6ADB0707D14A6681684FF4AA026F
S315020DD4480A64D0E90201C160002070472DE9F04354
S315020DD45883B004460020164601904FF0FF3002F0C5
S315020DD468030900906A4620463346884600F03DF980
S315020DD478A068056B019F97B931074FF0040158BF94
S315020DD4880221009AB30701D44B4604E000EB810052
S315020DD498C264A0680123194300EB8100C2647006B9
S315020DD4A80CD4022E38460FD138466FB16A4620463D
S315020DD4B84146012300F019F9019805E0A068016CAF
S315020DD4C841F480010164384625F4403141EA0741A9
S315020DD4D8B9F1010F18BF0D4625F04072B9F1000FCB
S315020DD4E818BF42EA0061A2680020116303B0BDE8C5
