S021000052413850314475616C436F726550726F6A6563745F435055312E7372656359
S315020D800000041822AD990D0271980D02B7990D0251
S315020D8010B7990D02B7990D02B7990D02B7990D02CF
S315020D802000000000000000000000000025840D0283
S315020D8030B7990D02000000003D840D02A5840D02C4
S315020D804085900D0259920D02B9930D029D940D0262
S315020D8050D5860D026F870D0283880D029B890D024F
S315020D80603B960D025D8B0D027F8A0D02E58B0D028D
S30D020D8070378C0D02B98C0D02CD
S315020D8078012002F059FCFBE7022818BF704740F2AF
S315020D808894404BF6A451C2F21820C0F20D2100F00D
S315020D809860BED4D4012002F047FCFBE7012002F0B2
S315020D80A843FCFBE7012002F03FFCFBE7012002F04F
S315020D80B83BFCFBE780B584B040F20C50C2F21820A7
S315020D80C8016840F22C4C0131016041F24830C2F28E
S315020D80D818200621CDE9001048F227104BF2C0618F
S315020D80E84BF25C43C2F2182CC0F20D20C0F20D21E0
S315020D80F8C0F20D234FF48072CDF808C002F0D4F900
S315020D810840F29041C2F21821086008B104B080BD50
S315020D81180020002104B0BDE8804000F04AB810B531
S315020D8128044600F049F82046BDE81040FFF7A0BF07
S315020D81387047FFF7FDBF80B584B040F20C50C2F20E
S315020D81481820016840F29C4C0131016041F24870D9
S315020D8158C2F218200521CDE9001048F2A9104BF2FA
S315020D81683F714BF64053C2F2182CC0F20D20C0F2E5
S315020D81780D21C0F20D234FF48072CDF808C002F01E
S315020D818893F940F20051C2F21821086008B104B001
S315020D819880BD0020002104B0BDE8804000F009B87A
S315020D81A810B5044600F008F82046BDE81040FFF762
S315020D81B871BF00BE7047D4D4B0B540F20454C2F2B2
S315020D81C8182420684FF0FF3102F052F8012803D027
S315020D81D820680021FFF7EDFF40F20850C2F2182081
S315020D81E8017801B1B0BD01210170FFF7A2FF40F27E
S315020D81F80C55C2F2182500BF286801382860F1D03F
S315020D8208206800210022002301F008FE0128F3D080
S315020D821820680021FFF7CDFFEEE780B540F20C503E
S315020D8228C2F218200021016040F20850C2F218204D
S315020D823840F210520170C2F218224FF480700121D9
S315020D824801F0CCFD40F20451C2F21821086018B9AA
S315020D825800200021FFF7ADFF00F026F8FFF72AFFF1
S315020D826800F060F800F09CF8FFF765FF02F0DBFB03
S315020D8278002080BD40F25853C2F21823036040F223
S315020D8288BC50C2F21820086080201060704740F278
S315020D8298BC73C2F21823036040F62000C2F21820FE
S315020D82A8086080201060704780B584B040F20C508B
S315020D82B8C2F21820016840F6202C0131016041F600
S315020D82C84830C2F218200721CDE9001048F21B30BA
S315020D82D84BF6EA014BF6CC53C2F2182CC0F20D201E
S315020D82E8C0F20D21C0F20D234FF48072CDF808C0ED
S315020D82F802F0DAF840F68421C2F21821086008B1B4
S315020D830804B080BD0020002104B0BDE88040FFF70F
S315020D831850BF10B50446FFF74FFF2046BDE8104083
S315020D8328FFF7BCBE80B584B040F20C50C2F21820DD
S315020D8338016840F6882C0131016041F64870C2F297
S315020D834818200221CDE9001048F297304BF2A751B9
S315020D83584BF6D053C2F2182CC0F20D20C0F20D21E5
S315020D8368C0F20D234FF48072CDF808C002F09CF8C6
S315020D837840F6EC21C2F21821086008B104B080BD9E
S315020D83880020002104B0BDE88040FFF712BF10B5EA
S315020D83980446FFF711FF2046BDE81040FFF782BEDF
S315020D83A880B584B040F20C50C2F21820016840F62E
S315020D83B8F02C0131016042F24830C2F21820042134
S315020D83C8CDE9001048F213404BF641314BF6D45322
S315020D83D8C2F2182CC0F20D20C0F20D21C0F20D23E7
S315020D83E84FF48072CDF808C002F05EF840F65431AB
S315020D83F8C2F21821086008B104B080BD0020002120
S315020D840804B0BDE88040FFF7D4BE10B50446FFF7A9
S315020D8418D3FE2046BDE81040FFF748BE1EF0040FF6
S315020D84280CBFEFF30880EFF30980014908470000F6
S315020D8438CB840D020F4B1968EFF309821EF0100F4C
S315020D844808BF22ED108A22E9F04FEFF30B8342F8AB
S315020D8458043D0A604FF0100080F31188BFF34F8F69
S315020D8468BFF36F8F02F090FA4FF0000080F3118878
S315020D847800F002B864101822074801680A6802CA91
S315020D848881F30B88B2E8F04F1EF0100F08BFB2EC5D
S315020D8498108A82F3098870476410182210B5EFF313
S315020D84A81184102080F3118802F040FB30B14EF68C
S315020D84B80450CEF200004FF08051016084F311880A
S315020D84C810BD806910F8020C022808BFFFF7D4BF49
S315020D84D8042838BF704780B54BF286404BF67402B6
S315020D84E84BF29153C0F20D20C0F20D22C0F20D23AC
S315020D84F84FF47E7101F06EF9283140F8481D48F2A5
S315020D85082951C0F20D214FF0807C22F00102C16380
S315020D85186FF002010264C0F844C0C0E9091370473E
S315020D852800BE00BFFEE7D4D44EF62250CEF20000AE
S315020D8538F021017000F016F84EF63470CEF20000F6
S315020D8548016841F04041016062B6BFF36F8FEFF3E8
S315020D8558148C2CF0040C8CF31488BFF36F8F02DF86
S315020D856800BEFDE740F6FC30C2F21820006844F65C
S315020D8578D351C1F26201A0FB01014FF0FF3000EBAE
S315020D858891110020B0EB116F18BF70474EF2100211
S315020D8598CEF2000251604EF62351CEF20001F023BF
S315020D85A80B7090600720106070471021EFF3118051
S315020D85B881F3118840F65831C2F218210A68531C04
S315020D85C80B605AB940F65C31C2F2182108604EF6B4
S315020D85D80450CEF200000068C00500D1704780B580
S315020D85E84BF286404BF2AC424BF2E573C0F20D20CC
S315020D85F8C0F20D22C0F20D2340F2A44101F0EAF8B1
S315020D860840F65830C2F21820016859B10139016095
S315020D861818BF704740F65C30C2F21820006880F326
S315020D86281188704780B54BF286404BF6C0324BF235
S315020D86386043C0F20D20C0F20D22C0F20D2340F2A6
S315020D8648AD4101F0C7F880B598B34EF6902EC4F237
S315020D8658010E9EF800100A0722D04EF2FA32C4F223
S315020D8668010213884AF2025CCFF6FF7C0020A2F8BB
S315020D867800C08EF8000043F425401080BFF34F8FDB
S315020D868830BFBFF36F8F62B6BFF36F8F72B61088A6
S315020D8698A2F800C040F425408EF80010108080BD67
S315020D86A8BFF34F8F30BFBFF36F8F62B6BFF36F8FB6
S315020D86B872B680BD80B572B602F014F80120FFF7C6
S315020D86C8C2FF62B6BDE8804002F066B880B5EFF328
S315020D86D803804FF0704101EB00604CF200318015BA
S315020D86E8C4F20001425822F480324250415840F6F3
S315020D86F8B831C2F218210858D0E90612914222D091
S315020D870802694AB190F820E0BEF1100F07D38368CB
S315020D87181B6842F821300CE08268126809E083680A
S315020D8728BEF1080FD3F800C034BF02F801C022F813
S315020D873811C082684FF000439366C26901319142B6
S315020D8748816118BF80BD4068012290F9030000F0CF
S315020D87581F0102FA01F14EF200124009CEF2000291
S315020D876842F8201080BDEFF303804FF070424CF2B1
S315020D8778003102EB0060C4F200018015425822F462
S315020D878880324250425840F6B832C2F21822105878
S315020D87984268136A5B78012B36D1C369D0F814C0C7
S315020D87A8013B9C451DD192F903204EF2001C51F84E
S315020D87B82230CEF2000C23F4803341F8223051F8E0
S315020D87C8221002F01F010123520903FA01F10CEBE3
S315020D87D88203BFF35F8FC3F880114CF8221000F0A5
S315020D87E815B81169002908BF00F010B892F90310DF
S315020D87F8012301F01F0203FA02F24EF20013490990
S315020D8808CEF2000343F8212000F000B84268416910
S315020D8818537A83B9126A72B1527B012A0BD18268D5
S315020D8828136D9B0028D5C369013B994203D1536940
S315020D883823F080035361C269914208BF704782686B
S315020D8848136D9B00FCD5C3683BB190F820C0BCF1F3
S315020D8858100F04D353F8213007E0002305E0BCF1CD
S315020D8868080F34BF5B5C33F81130136082684FF022
S315020D8878005301319366416170474FF070424CF2D5
S315020D88880031EFF3038002EB0062C4F2000190158A
S315020D8898435823F480334350435840F6B833C2F253
S315020D88A81823185883681B6D9B0104D543685B7A98
S315020D88B8012B18BF704780B513164EF2001ECEF265
S315020D88C8000E03F01F024FF0010C5B090CFA02F2BF
S315020D88D80EEB8303C3F88020BFF34F8FBFF36F8F61
S315020D88E8426892F90230002B2AD403F01F025B0963
S315020D88F80CFA02F20EEB8303C3F88020BFF34F8FF7
S315020D8908BFF36F8F8268936823F001039360426801
S315020D891892F9022051F8223023F4803341F822309D
S315020D892851F8221002F01F0152090CFA01F10EEB51
S315020D89388203BFF35F8FC3F880114EF8221004E04D
S315020D894881688A6822F001028A600121BDE88040A9
S315020D895800F000B82DE9F04184B00446806A0DF1A5
S315020D8968040828B1024692E8E0004346E0C300E057
S315020D897840466268127801710260E16A8160616A35
S315020D89888847A06A10B198E80E000EC004B0BDE87B
S315020D8998F081F0B581B04FF07041EFF3038001EB32
S315020D89A8006640F6B831B015C2F218210C584CF2D1
S315020D89B800356068C4F2000590F9020000282FD42C
S315020D89C84EF2001300F01F0101224009CEF20003F8
S315020D89D802FA01F103EB8000C0F88010BFF34F8F46
S315020D89E8BFF36F8FA068816821F00101816060680D
S315020D89F890F9020055F8201021F4803145F820101F
S315020D8A0855F8201000F01F01400902FA01F103EB97
S315020D8A188002BFF35F8FC2F8801143F8201004E07D
S315020D8A28A068816821F001018160A0680021076DA7
S315020D8A38CFF680513A01816603D520460521FFF707
S315020D8A4889FFF80103D520460421FFF783FFF84372
S315020D8A5810F0A05F4FEA266603D120460821FFF7DC
S315020D8A6879FF55F8260020F4803045F8260055F88A
S315020D8A78260001B0F0BDB0B5EFF303804FF070419B
S315020D8A8801EB00604CF200318015C4F20001425828
S315020D8A9822F480324250415840F6B831C2F21821BA
S315020D8AA80C58206A01696069C1B9C0B1A07800F095
S315020D8AB803012069022905D10088616A20F4DC4088
S315020D8AC8486002E00078616A0871A078616900F071
S315020D8AD80302881A2169606111442161A0B9616A8C
S315020D8AE802228D68A06862F3155510B100F0B7FE23
S315020D8AF8616A8D60A06A0021216128B12046802213
S315020D8B08BDE8B04000F001B8B0BD2DE9F04385B01F
S315020D8B188146C06A0DF1040830B1054695E8D800BC
S315020D8B28C4468CE8D80000E04046D9F820301B78B8
S315020D8B38816003600271D9F83010C160D9F8281026
S315020D8B488847D9F82C0010B198E88E008EC005B06A
S315020D8B58BDE8F08310B582B0EFF303804FF0704194
S315020D8B6801EB00604CF200318015C4F20001425847
S315020D8B7822F480324250415840F6B831C2F21821D9
S315020D8B880C58A07800F00302606A022A03D1016824
S315020D8B986FF35F2100E00178E069019198B1A06950
S315020D8BA801A902F028FCA078A169E26900F0030088
S315020D8BB80144101AA161E0610ED1A06A60B1204686
S315020D8BC80021012203E0A06A30B12046042202B038
S315020D8BD8BDE81040FFF799BF02B010BD10B54FF0B2
S315020D8BE87041EFF3038001EB006140F6B832881548
S315020D8BF8C2F2182210584FF6EF74426ACFF6CF74A6
S315020D8C08936823409360826A0C161AB100210222D8
S315020D8C18FFF77BFF4CF20030C4F2000050F8241027
S315020D8C2821F4803140F8241050F8240010BD4FF07D
S315020D8C387041EFF3038001EB006C40F6B8314FEA51
S315020D8C48AC50C2F2182108588178436A01F0030123
S315020D8C58022903D119686FF35F2100E01978B0B5BF
S315020D8C689A6C202404EAD24E1024082514EA1264BA
S315020D8C7805EA12627244224403D09D6C2D0458BF34
S315020D8C8840329D6E4FEA2C6445F0C8559D66836A3F
S315020D8C980BB1FFF73AFF4CF20030C4F2000050F860
S315020D8CA8241021F4803140F8241050F82400B0BD68
S315020D8CB8B0B5EFF303804FF0704101EB00604CF253
S315020D8CC800318015C4F20001425822F48032425016
S315020D8CD8415840F6B831C2F218210C58E0680568B9
S315020D8CE8E80304D520464FF4803100F00BF835F42D
S315020D8CF8403508BFB0BD2046294600F003F8E068A6
S315020D8D080561B0BD2DE9F04184B004464069E846D7
S315020D8D1830B1034693E8E400C4468CE8E40000E06B
S315020D8D2840466268B1F5803F126881600260A269A9
S315020D8D38C26002D1E168C96800E00021416021697B
S315020D8D488847606910B198E88E008EC004B0BDE8F8
S315020D8D58F08180B545F25422C5F24F0202600846EB
S315020D8D6800F002F8002080BD70B5044600F05CF8EC
S315020D8D7840F6B43CEFF31080012181F31088C2F25C
S315020D8D88182CDCF8001039B940F61451C4F240011A
S315020D8D9800220A7040220A70DCF800100131CCF864
S315020D8DA8001080F31088208810B340F6000E0021BB
S315020D8DB8C4F2400E606800EBC102928850F8313059
S315020D8DC8100ADD03D2B20BD50EEB801555F82260CB
S315020D8DD826F4803645F8226023F4803645F822605B
S315020D8DE80EEB801040F82230208801318142E1D302
S315020D8DF8EFF31081012080F31088DCF8000020B112
S315020D8E08DCF800000138CCF80000DCF8000038B9AF
S315020D8E1840F61450C4F240000022027080220270FD
S315020D8E2881F3108870BDD4D42DE9F04F81B0044674
S315020D8E38008800285CD042F240084EF64C4A4BF6A2
S315020D8E48D85BC4F220080026C4F2010AC0F20D2B23
S315020D8E584FF00109002700BF60683BF8172000EBA9
S315020D8E68C600818891423CD100689AF8001000F03C
S315020D8E78B85009FA07F5B0F1807F05EA010015D158
S315020D8E8850B9012000F066FD9AF8000028438AF8C9
S315020D8E980000012000F035FD18F91700002820D42E
S315020D8EA818F8170040F0800015E000BF50B10120F8
S315020D8EB800F050FD9AF80000A8438AF80000012038
S315020D8EC800F01FFD18F91700B0F1FF3F09DC18F87D
S315020D8ED8170000F07F0008F81700C820012100F0DE
S315020D8EE87CFC0137032FB7D1208801368642B1D3D0
S315020D8EF801B0BDE8F08FD4D4F0B502690023137022
S315020D8F08026940231370026913785B06FCD5C023E8
S315020D8F18137002680369526A082512794EF2001C0B
S315020D8F2842F0E0021A7402680369526ACEF2000C24
S315020D8F38D27840F6B83E42F0E0025A7402680369E6
S315020D8F48526AC2F2182E927862F306159D7002685D
S315020D8F580369526A15785278013DB5FA85F56D0998
S315020D8F6845EA420242F00402DA70026844F24025EA
S315020D8F7852680369C0F20F05AA424FF0770208BF7D
S315020D8F886FF008025A710269002393710269B323BD
S315020D8F98D3714A7B91F9116013010CF54072935501
S315020D8FA84CF200334EF82600C4F2000353F826405D
S315020D8FB806F01F0524F4803443F8264053F826405C
S315020D8FC8012404FA05F70CF5C0757609BFF35F8F10
S315020D8FD845F826704CF826704E7B91F90F703601BE
S315020D8FE8D6554EF8270053F8276026F4803643F8EF
S315020D8FF8276053F8276007F01F0604FA06F67F095D
S315020D9008BFF35F8F45F827604CF827604E7B91F9C1
S315020D901810703601D6554EF8270053F8276026F4F8
S315020D9028803643F8276053F8276007F01F0604FABF
S315020D903806F67F09BFF35F8F45F827604CF8276060
S315020D90484E7B91F90E10360156544EF8210053F8FF
S315020D9058212022F4803243F8212053F8212001F0F1
S315020D90681F0204FA02F24909BFF35F8F45F8212060
S315020D90784CF8212000699F210170F0BD10B582B010
S315020D9088EFF303804FF0704101EB00604CF20032B2
S315020D90988015C4F20002835823F480338350805816
S315020D90A8EFF3038001EB006040F6B8318015C2F28A
S315020D90B818210C5894F82D0038B194F82E00012871
S315020D90C84DD1002084F82E0080E0A069022804D82C
S315020D90D82069017941F040010171E06901280ED13B
S315020D90E82069017941F0100101712069017941F078
S315020D90F8080101712069017901F0EF0101712068FA
S315020D91088269D2B1216994F82930012B15D1A36947
S315020D9118042B12D3D2F808C01068DCF808C06269AD
S315020D9128033B13319BB2E047A26903212068033A38
S315020D9138C4E90712012184F82E10406AC079012864
S315020D914803D12046052100F043FA2069C07C8DF82B
S315020D915807009DF80700012084F82D0036E0E06926
S315020D9168A0B32168496AC979012904D12046052186
S315020D917800F02EFAE06901282AD0022806D0032823
S315020D918813D12069017941F040010DE02069017979
S315020D919841F0100101712069017941F0080101714F
S315020D91A82069017901F0EF010171D4E90401C07C4E
S315020D91B8226A8854D4E9071001300139C4E9071027
S315020D91C804D12069017901F0BF01017102B010BD08
S315020D91D894F82A00012831D120684EF2801390F9AD
S315020D91E80F10012001F01F0200FA02F24909CEF210
S315020D91F8000343F82120BFF34F8FBFF36F8F216909
S315020D9208CA7942F08002CA7121690A7942F01002BE
S315020D92180A7121690A7902F0F7020A7121690A7936
S315020D922802F0EF020A71216904224A7021694A790C
S315020D923802F0FE024A7184F82C00B6E72069417ADB
S315020D924801F0F7014172206908214170ADE7D4D4C6
S315020D9258B0B5EFF303804FF070414CF2003501EBD8
S315020D92680060C4F200058015425922F4803242513B
S315020D92784059EFF3038001EB006040F6B8318015D3
S315020D9288C2F218210C5894F82700A0B394F82610A8
S315020D9298032907D194F82810022903D194F830101E
S315020D92A8002950D094F824502269012817D1206834
S315020D92B84069A0B194F8291089B9A16979B1816873
S315020D92C80068D1F808C06169A38B1232E047A1691B
S315020D92D800202269C4E90701012084F82F0095743C
S315020D92E894F8280094F82710013084F82800481EAF
S315020D92F884F82700B0BD94F8290020BB2068406A7F
S315020D9308C079012808D194F82B0028B9206A18B11A
S315020D93182046052100F05CF994F82F00012804D1A6
S315020D9328002084F82F00E0690CE0E06960B1D4E909
S315020D93380401226A895C8174D4E90710421C481E0D
S315020D9348C4E9070200B1B0BD2069C17901F07F01F8
S315020D9358C17120696FF0BE0190F90720B2F1FF3F86
S315020D936803DC002901F10101F6D1206890F91000FC
S315020D937855F8201021F4803145F8201055F82000B3
S315020D9388206890F9100000280BD400F01F01012265
S315020D939802FA01F14EF280224009CEF2000242F89B
S315020D93A820102069C17941F04001C171B0BDD4D4F4
S315020D93B810B5EFF303804FF0704101EB006040F6F4
S315020D93C8B8318015C2F218210C582068406AC07946
S315020D93D8012803D12046052100F0FAF894F8290050
S315020D93E8012806D194F82700012802D194F83000F5
S315020D93F880B3E06970BB94F82A00012822D120684F
S315020D9408012290F90F004EF2801300F01F0102FAA5
S315020D941801F14009CEF2000343F82010BFF34F8F36
S315020D9428BFF36F8F2069C17941F08001C17120693F
S315020D9438042141702069417901F0FE01417184F8D8
S315020D94482C2007E02069417A01F0F7014172206963
S315020D9458082141702069C17901F0BF01C1712069E6
S315020D94686FF0BE01C279520603D5002901F1010139
S315020D9478F8D1EFF303804FF0704101EB00604CF227
S315020D948800318015C4F20001425822F4803242504E
S315020D9498405810BDB0B5EFF303804FF0704101EBA4
S315020D94A8006040F6B8318015C2F218210C582169B0
S315020D94B84A7A4B7A02F01F0003F0E0030F2802F0F6
S315020D94C803024B7201D83AB924E021694B785B063F
S315020D94D858BF42F00102D2B1012084F82B0020694F
S315020D94E80025C57121682046FFF706FD94F826006A
S315020D94F8216984F82800A069C4E90750B32084F8C5
S315020D95082C5084F82A50C871204601214DE04A781C
S315020D9518520611D4010706D494F82C20012A31D10A
S315020D952810F004022ED0E06910B994F82B0098B306
S315020D9538002919D4012036E0012084F82B000820D1
S315020D9548487020682169406A02784379807942EA2F
S315020D9558031242EAC01040F00200C8702069417930
S315020D956841F00101417122E094F82600002184F8A8
S315020D95782800A069C4E90710012084F82C1084F884
S315020D95882A100DE0400712D52068406AC0790128D5
S315020D95980DD12046042108E094F8290080F0030035
S315020D95A82169B322CA71C1B2204600F011F8EFF350
S315020D95B803804FF0704101EB00604CF200318015CB
S315020D95C8C4F20001425822F4803242504058B0BDCE
S315020D95D8B0B582B0856B0446002D1ABFD5E90002D7
S315020D95E8CDE900026D46E06B297128602068416954
S315020D95F839B194F8292022B98A6808681169884709
S315020D96082068806938B194F82910012903D1816837
S315020D9618006809698847616B28468847A06B18B1A7
S315020D9628DDE90012C0E90012002084F82B0002B011
S315020D9638B0BD70B582B04FF07041EFF3038001EB08
S315020D9648006140F6B8328815C2F2182210583C232A
S315020D965842794CF2003403EA92031A44C323C0F248
S315020D9668400363F31F2249F60053CFF6FF73D25C0C
S315020D9678C4F2000402F00306032E4FEA216507D051
S315020D968854F8251021F4803144F8251054F8251084
S315020D9698816829B14279C068CDE9000268468847D2
S315020D96A8032E07D154F8250020F4803044F82500FE
S315020D96B854F8250002B070BD4EF22401C4F2010120
S315020D96C888780988C1F30312A2F1080103293BD848
S315020D96D8DFE801F0022C101E40F20041C2F21821F9
S315020D96E851F820004AF6AB21CAF6AA21A0FB0101C0
S315020D96F8480830E040F20041C2F2182151F8200024
S315020D97084AF6AB21CAF6AA21A0FB0101C80822E036
S315020D971840F20041C2F2182151F820004AF6AB2157
S315020D9728CAF6AA21A0FB0101080914E040F200417C
S315020D9738C2F2182151F820004AF6AB21CAF6AA211F
S315020D9748A0FB0101880806E040F20041C2F2182189
S315020D975851F82000D04040F6FC31C2F218210860BB
S315020D9768704770B540F2004046F6004141F20022BC
S315020D9778C2F21820C0F2DC21C0F27A0243F2006C62
S315020D97884FF40043C0F26E1C4CF6002E44F25534CB
S315020D979848F2004544F2006680E80E1040F60001D4
S315020D97A843F60002C3F69A3EC1F2DE34C1F2D7750C
S315020D97B8C2F2C336C2F6AF71C1F69C42C0E9043E87
S315020D97C8C0E90664C0E908518262BDE87040FFF738
S315020D97D873BF704700BE00BFFEE740F6FC32C2F209
S315020D97E81822126841F20023C0F27A039A4201FB4B
S315020D97F800F00FD340F6FF01C0F23D0111444DF6BC
S315020D98088362C4F21B32A1FB0212110DA0FB0101E8
S315020D9818E9B11FE04CF6002348F63811C3F69A3320
S315020D9828C0F24101B3FBF2F2884207D24FF47A71C4
S315020D983800FB01F0B0FBF2F0800808E09200B0FBE5
S315020D9848F2F0884206D24FF47A7100FB01F028B184
S315020D985800F005B84FF0FF3000F001B87047013837
S315020D98680028FCD17047D4D4F0B581B04CF200155E
S315020D9878C4F200052868296A40F6603701EA00062F
S315020D98880024C2F2182700BF26FA04F0C00704D036
S315020D989857F8241009B1204688470134152CF3D1FF
S315020D98A82E6100BF286A3042FCD101B0F0BDD4D476
S315020D98B870B54BF6B0514CF2003246F240034FF0FA
S315020D98C8000EC0F20D21C4F20002C4F200034FF0DD
S315020D98D8010C002031F8104074B1BEEB942F42F8FA
S315020D98E8204009D1650953F8256004F01F040CFAC6
S315020D98F804F4344343F8254001300E2808BF70BDE1
S315020D9908E8E70122EFF3108182F3108840F6F03270
S315020D9918C2F2182232F8103023B132F81030013B58
S315020D992822F8103032F810208AB94EF2FA3CC4F2F7
S315020D9938010C4CF22C02BCF80030C0F20D2232F8A2
S315020D9948100043F4254222EA0000ACF8000081F328
S315020D99581088704780B50122EFF3108182F31088C3
S315020D996840F6F032C2F2182232F810308BB94EF2A6
S315020D9978FA3C4CF22C03C4F2010CC0F20D23BCF8CE
S315020D998800E033F8103043EA0E0343F42543ACF8EE
S315020D9998003032F81030013322F8103081F3108876
S315020D99A880BDD4D400F006F8FEF737FCFEE700BEFC
S315020D99B87047D4D4B0B54EF60850CEF200004FF427
S315020D99C87001C0F8801048F20001C0F20D214CF268
S315020D99D8040401600020C4F20104FEF74DFBFFF7F3
S315020D99E8C0FE206840F00100206000BF20680028F4
S315020D99F8FCD1012044F8040CFEF73EFB40F20000B0
S315020D9A08C2F2182080F30A88002000F02FF8FFF71B
S315020D9A1853FE012000F02AF841F24434C2F218240A
S315020D9A28204601F0F9FC204601F00AFD4CF28A00A7
S315020D9A384CF28A01C0F20D20C0F20D21081A8410CB
S315020D9A48012C08DB4CF28A05C0F20D2555F8040BDC
S315020D9A588047013CFAD10220FEF70EFBFFF728FFDD
S315020D9A680020BDE8B040FFF7B4BED4D4F0B581B03E
S315020D9A784BF60065C0F20D252E68044676B1686868
S315020D9A88071D00BF7879844204D157E90101091AE5
S315020D9A9801F0ADFC013E07F10C07F3D1AE6886B1B4
S315020D9AA8E86800F1080500BF6879844205D155E9D1
S315020D9AB802022968121A01F09EFC013E05F11005F3
S315020D9AC8F2D101B0F0BDD4D4F0B581B000283DD0A5
S315020D9AD840F61046A0F10805C2F218260446B5420C
S315020D9AE852D306F2FF37BD424ED854F8040C00285D
S315020D9AF85AD52968002967D120F0004044F8040C8C
S315020D9B0800F0F0FD40F60440C2F2182054F8041C89
S315020D9B18026840F608430A44C2F2182302601A463E
S315020D9B2810461268AA42FBD3984203D0B0425BD3C1
S315020D9B38B84259D84368C718AF4202D119440546E7
S315020D9B4841606B18934203D013460DE001B0F0BD88
S315020D9B5840F60043C2F218231B689A4204D0526893
S315020D9B681144696001680B68A8422B6018BF05602D
S315020D9B7841F21000C2F2182001680131016001B0EC
S315020D9B88BDE8F04000F008BE4BF686004BF6EE1225
S315020D9B984BF2B753C0F20D20C0F20D22C0F20D23BF
S315020D9BA84FF4B571FFF716FE4BF686004BF6EE121D
S315020D9BB84BF60B13C0F20D20C0F20D22C0F20D2387
S315020D9BC840F26B11FFF706FE4BF686004BF6EE12C8
S315020D9BD84BF6D233C0F20D20C0F20D22C0F20D2380
S315020D9BE84FF4B671FFF7F6FD4BF686004BF28A6215
S315020D9BF84BF6C943C0F20D20C0F20D22C0F20D2359
S315020D9C084FF4FD71FFF7E6FD4FF0FF31024642F8BC
S315020D9C18081F0021C0E90322C0E90012704700217E
S315020D9C280161704780B5D1F800C01CF1010207D059
S315020D9C3800F108029646526813686345FAD903E09D
S315020D9C48D0F810E0DEF804204A609160C1F808E009
S315020D9C58CEF80410086101680131016080BDD0E9B2
S315020D9C6801230169936042685A604A68824201D1AA
S315020D9C7882684A60002202610868013808607047E6
S315020D9C8870B500284BD00446C06BC0B30E46216C86
S315020D9C98A0FB010199BBFEF788FC2068D4E90F12D7
S315020D9CA8002502FB0103013901FB0201A563C4E983
S315020D9CB80103FF20E16084F8440084F8450004F1AD
S315020D9CC810004EB1FFF7A0FF04F12400FFF79CFF29
S315020D9CD8FEF796FC012070BD01680029F8D001F047
S315020D9CE85FF80028F4D04EF60450CEF200004FF07D
S315020D9CF880510160BFF34F8FBFF36F8FE8E74BF6C5
S315020D9D08C3104BF6A5324BF60733C0F20D20C0F23F
S315020D9D180D22C0F20D234FF4B671FFF75BFD4BF61C
S315020D9D28C3104BF6A5324BF6F423C0F20D20C0F242
S315020D9D380D22C0F20D2340F23711FFF74BFD10B578
S315020D9D4882B05BB3D0B11C4601B9BAB901B1AAB199
S315020D9D5848230193019B482B30D1019B012384F89B
S315020D9D684630002908BF2246C4E90F0120460121C3
S315020D9D782260FFF785FF204602B010BD4BF6C310D1
S315020D9D884BF65A024BF66923C0F20D20C0F20D228C
S315020D9D98C0F20D234FF4D871FFF71CFD4BF6C31015
S315020D9DA84BF65A024BF2D263C0F20D20C0F20D22C7
S315020D9DB8C0F20D234FF4C271FFF70CFD4BF6C3101B
S315020D9DC84BF65A024BF62B03C0F20D20C0F20D22AA
S315020D9DD8C0F20D234FF4CB71FFF7FCFCB0B582B080
S315020D9DE860B10D46814209D8144600210022234648
S315020D9DF8FFF7A5FF2046A56302B0B0BD4BF6C3100B
S315020D9E084BF67E124BF2E063C0F20D20C0F20D2224
S315020D9E18C0F20D234FF45E71FFF7DCFC2DE9F04F0E
S315020D9E2885B00028049200F09D8099461546044691
S315020D9E3819B9206C002840F0C580B9F1020F03D17B
S315020D9E48E06B012840F0AE80019101F093F810B94C
S315020D9E58002D40F09780FEF7A8FBA06BB9F1020F13
S315020D9E6859D0E16B884256D304F11007012002AE90
S315020D9E784FF0000B04AD00BF0499002966D0C00748
S315020D9E8802D0304601F012F8FEF7BAFB00F02AFCB2
S315020D9E98FEF78BFB94F84400FF2808BF84F844B0FC
S315020D9EA894F84500FF2808BF84F845B0FEF7A8FBCD
S315020D9EB83046294601F007F800284AD1FEF775FB08
S315020D9EC8D4F838A0D4F83C80FEF79AFBC24515D1D2
S315020D9ED80499384600F006FF204600F0B5F800F062
S315020D9EE85BFC80B94EF60450CEF200004FF080515D
S315020D9EF80160BFF34F8FBFF36F8F04E0204600F06A
S315020D9F08A3F800F049FCFEF750FBA06BE16B884203
S315020D9F184FF00000B0D2019920464A4600F062F889
S315020D9F2854F8240F70B1204600F03AFF50B14EF6A0
S315020D9F380450CEF200004FF080510160BFF34F8FEF
S315020D9F48BFF36F8FFEF75CFB012008E0FEF758FBA7
S315020D9F5804E0204600F078F800F01EFC002005B05B
S315020D9F68BDE8F08F4BF6C3104BF225624BF6F42380
S315020D9F78C0F20D20C0F20D22C0F20D2340F2B63109
S315020D9F88FFF728FC4BF6C3104BF225624BF23763EB
S315020D9F98C0F20D20C0F20D22C0F20D2340F2BB31E4
S315020D9FA8FFF718FC4BF6C3104BF225624BF2E8632A
S315020D9FB8C0F20D20C0F20D22C0F20D234FF46E71C0
S315020D9FC8FFF708FC4BF6C3104BF225624BF63543E9
S315020D9FD8C0F20D20C0F20D22C0F20D2340F2B731A8
S315020D9FE8FFF7F8FB70B5866B036C044643B315464B
S315020D9FF8CAB1E0681A4601F0FEF9E168206C2268DA
S315020DA008091A9142E16003D2A16840420844E06010
S315020DA018A81EB0FA80F040093146002E18BF01215C
S315020DA0280840361A0CE060681A4601F0E4F9D4E9DC
S315020DA0380101226C10448842606001D32068606079
S315020DA048701CA06370BDD4D4F0B581B00446FEF77A
S315020DA058ACFA94F94560012E0EDB04F1240500BF16
S315020DA068286848B1284600F09BFE08B100F07BFF30
S315020DA07870B2013E0128F3DCFF2684F84560FEF72F
S315020DA088BFFAFEF792FA94F94470012F0EDB04F12A
S315020DA098100500BF286848B1284600F081FE08B1B0
S315020DA0A800F061FF78B2013F0128F3DC84F84460C1
S315020DA0B801B0BDE8F040FEF7A3BAD4D42DE9F04FAE
S315020DA0C883B00028029200F0A280164689460446FD
S315020DA0D819B9206C002840F0BA8000F04BFF10B970
S315020DA0E8002E40F0A480FEF760FAD4F838A0BAF133
S315020DA0F8000F28D0226C52B1D4E902011144E16055
S315020DA108814224BF2168E160484601F074F954F88A
S315020DA118100FAAF10101A16270B1204600F040FEAE
S315020DA12850B14EF60450CEF200004FF08051016048
S315020DA138BFF34F8FBFF36F8F0124FEF761FA2046E7
S315020DA14803B0BDE8F08F04F1240801206F464FF0E5
S315020DA158000B02AE0299002955D0C00702D0384627
S315020DA16800F0A4FEFEF74CFA00F0BCFAFEF71DFA53
S315020DA17894F84400FF2808BF84F844B094F84500C3
S315020DA188FF2808BF84F845B0FEF73AFA3846314635
S315020DA19800F099FE60B12046FFF756FF00F0FCFA73
S315020DA1A8FEF703FAA56BFEF72BFA75B322E000BF8D
S315020DA1B8FEF7FBF9A56BFEF723FA2DB12046FFF73D
S315020DA1C843FF00F0E9FA15E00299404600F08AFDD0
S315020DA1D82046FFF739FF00F0DFFA58B94EF604505C
S315020DA1E8CEF200004FF080510160BFF34F8FBFF3DF
S315020DA1F86F8F00BFFEF7D9F9D4F838A00020BAF14F
S315020DA208000FA7D076E7002497E7002497E74BF6C9
S315020DA218C3104BF6A2124BF2A563C0F20D20C0F283
S315020DA2280D22C0F20D2340F2E951FFF7D3FA4BF690
S315020DA238C3104BF6A2124BF23763C0F20D20C0F2D1
S315020DA2480D22C0F20D2340F2F251FFF7C3FA4BF677
S315020DA258C3104BF6A2124BF67423C0F20D20C0F2B0
S315020DA2680D22C0F20D2340F2ED51FFF7B3FAD4D405
S315020DA2782DE9F04F83B00028029100F08E80044636
S315020DA288006C002840F099800D4600F073FE10B957
S315020DA298002D40F0A280FEF788F9A16BD1B154F8D2
S315020DA2A8100F0139A16270B1204600F079FD50B147
S315020DA2B84EF60450CEF200004FF080510160BFF306
S315020DA2C84F8FBFF36F8F0124FEF79AF9204603B01D
S315020DA2D8BDE8F08F4EF6045904F1240801206E46A6
S315020DA2E84FF0000B02AFCEF200094FF0805A00BFB5
S315020DA2F8029900294DD0C00702D0304600F0D6FD8E
S315020DA308FEF77EF900F0EEF9FEF74FF994F84400E0
S315020DA318FF2808BF84F844B094F84500FF2808BF03
S315020DA32884F845B0FEF76CF93046394600F0CBFD98
S315020DA33860B12046FFF788FE00F02EFAFEF735F9D2
S315020DA348A56BFEF75DF935B31CE000BFFEF72DF9D7
S315020DA358A56BFEF755F92DB12046FFF775FE00F0F0
S315020DA3681BFA0FE00299404600F0BCFC2046FFF7A7
S315020DA3786BFE00F011FA28B9C9F800A0BFF34F8F8A
S315020DA388BFF36F8FFEF711F9A16B00200029AFD02D
S315020DA39885E7002498E7002498E74BF6C3104BF699
S315020DA3A846024BF2A563C0F20D20C0F20D22C0F291
S315020DA3B80D2340F28261FFF70DFA4BF6C3104BF6E9
S315020DA3C846024BF6F833C0F20D20C0F20D22C0F24A
S315020DA3D80D2340F28661FFF7FDF94BF6C3104BF6D6
S315020DA3E846024BF23763C0F20D20C0F20D22C0F2BF
S315020DA3F80D2340F28B61FFF7EDF9D4D4B0B500B356
S315020DA408D1B141F2140E4FF0000CC2F2182E0022F1
S315020DA418002300BF0EEB02046568A8420DD023B9CE
S315020DA4282368002B18BF644623460832502AF1D1F9
S315020DA438002B18BFC3E90010B0BD2346C3E90010AF
S315020DA448B0BD4BF6C3104BF272424BF65433C0F203
S315020DA4580D20C0F20D22C0F20D2340F6C931FFF7C9
S315020DA468B9F970B515460E460446FEF79EF894F8E8
S315020DA4784400FF2804BF002084F8440094F84500E0
S315020DA488FF2804BF002084F84500FEF7B9F8A06B33
S315020DA49828B904F1240031462A4600F044FC204628
S315020DA4A8BDE87040FFF7D0BD2DE9F04786B0DDF85F
S315020DA4B83C9007460020B9F1000F049026D0109C57
S315020DA4C8A4B364200590059864283FD105980E46D5
S315020DA4D8DDF838A0204664219846154600F087FF18
S315020DA4E8022084F8610004A8C4F83090CDE900A0D2
S315020DA4F8384631462A464346029400F04FFD204619
S315020DA50800F034F8049806B0BDE8F0874BF63E2005
S315020DA5184BF6F8124BF24853C0F20D20C0F20D223B
S315020DA528C0F20D2340F2F141FFF754F94BF63E20E6
S315020DA5384BF6F8124BF29F73C0F20D20C0F20D22A4
S315020DA548C0F20D2340F2F241FFF744F94BF63E20D5
S315020DA5584BF6F8124BF68B43C0F20D20C0F20D22C4
S315020DA568C0F20D2340F2FA41FFF734F92DE9F0470F
S315020DA5780446FEF71AF841F28800C2F2182001685D
S315020DA58841F2640701310160C2F21827396841F2B6
S315020DA5986C0A41F29406C2F2182AC2F2182651B171
S315020DA5A8DAF8000000283ED13868E16AC06A8842A6
S315020DA5B898BF3C6037E03C600068012833D100251E
S315020DA5C87019FFF721FB1435B5F5A07FF8D141F2C5
S315020DA5D81C28C2F218284046FFF716FB41F230290D
S315020DA5E8C2F218294846FFF70FFB41F2F010C2F2E4
S315020DA5F81820FFF709FB41F27000C2F21820FFF787
S315020DA60803FB41F2D810C2F21820FFF7FDFA41F208
S315020DA6181020C2F21820C0F8008041F21420C2F2AE
S315020DA6281820C0F8009041F26800C2F2182001689D
S315020DA6380131016041F2D411C2F21821E06A0A68A9
S315020DA648904288BF086000EB800006EB80004068E8
S315020DA658221DA0608168E1604A608260E06A00EBB3
S315020DA668800006EB8001616156F82010013146F82B
S315020DA6782010FDF7C5FFDAF8000078B13868E16AEF
S315020DA688C06A88420AD24EF60450CEF200004FF046
S315020DA69880510160BFF34F8FBFF36F8FBDE8F0870F
S315020DA6A810B5044690F86100022808BF10BD0128AE
S315020DA6B803D038B9206BFFF707FA2046BDE81040DC
S315020DA6C8FFF702BA4BF63E204BF24A724BF60C23B3
S315020DA6D8C0F20D20C0F20D22C0F20D2341F62E1145
S315020DA6E8FFF778F841F28C00C2F2182001680131A1
S315020DA6F8016070472DE9F04381B00E4641F2900193
S315020DA708C2F218210D6841F21021C2F21821D1F8B0
S315020DA718008041F2142141F26404C2F21821C2F2F8
S315020DA7281824D1F8009021680746081DFFF797FAF5
S315020DA738781C16D1AEB141F2D810C2F21820D0E962
S315020DA7480012236801319A6093682768FB602768AF
S315020DA75804375F6023680433936022680160506191
S315020DA76817E02068ED194560206800F1040105D34C
S315020DA778484601B0BDE8F043FFF754BA4046FFF725
S315020DA78851FA41F20420C2F2182001688D4238BFEF
S315020DA798056001B0BDE8F0832DE9F047FDF705FF29
S315020DA7A841F28C00C2F218200168002900F0AC8033
S315020DA7B8016801390160006828B10024FDF720FF00
S315020DA7C82046BDE8F08741F28800C2F218200068DB
S315020DA7D80028F2D041F2F010C2F21820016841F2B7
S315020DA7E8EC1A41F264090029C2F2182AC2F2182992
S315020DA7F864D041F2D41241F294030021C2F2182216
S315020DA808C2F218234FF0010CC768FC68D4E9077524
S315020DA818A66ABD60E7696F60776804F11805AF42ED
S315020DA82801D1276A7760A1623768013F3760D4E99B
S315020DA83802656769B560A6686E607D68261DB542B4
S315020DA84801D1E5687D6061613D68013D3D60E76A5C
S315020DA8581568AF4288BF176007EB870703EB8707B3
S315020DA8687F68A760BD68E5606E60BE60E76A07EB44
S315020DA878870703EB8706666153F82760013643F8A7
S315020DA8882760E76AD9F80060F66AB74288BFCAF840
S315020DA89800C00768002FB7D141F21020C2F2182066
S315020DA8A80168096819B10068C068006801E04FF0CF
S315020DA8B8FF3041F20421C2F21821086041F20C2838
S315020DA8C8C2F21828D8F8006056B1012400F02EF904
S315020DA8D808B1CAF80040013EF8D10020C8F80000B8
S315020DA8E8DAF8000000283FF468AFD9F800004EF6F2
S315020DA8F80450CEF200004FF080510160BFF34F8F26
S315020DA9080124BFF36F8F59E74BF63E204BF2577270
S315020DA9184BF66F33C0F20D20C0F20D22C0F20D2395
S315020DA92840F68B71FEF756FF80B580B141F28C0168
S315020DA938C2F218210A6801320A600968012912D180
S315020DA9480021FFF7D7FEFFF727FF00B180BD4EF6B0
S315020DA9580450CEF200004FF080510160BFF34F8FC5
S315020DA968BFF36F8F80BD4BF63E204BF6FC224BF69E
S315020DA978C303C0F20D20C0F20D22C0F20D2340F61C
S315020DA9888E11FEF727FFD4D480B541F28C00C2F2A0
S315020DA9981820006830B141F2EC10C2F218200121DC
S315020DA9A8016080BD41F2EC10C2F21820002141F27D
S315020DA9B8D41C0160C2F2182CDCF8001041F2940383
S315020DA9C801EB8102C2F2182353F8220003EB82022D
S315020DA9D830B900BFB9B152F8140D01390028F9D0B2
S315020DA9E85068436802F108008342536001D1D36867
S315020DA9F85360D86841F26402C2F218221060CCF88C
S315020DAA080010106880BD4BF63E204BF235524BF6C0
S315020DAA182743C0F20D20C0F20D22C0F20D2341F2DA
S315020DAA28FA31FEF7D7FE10B58CB044F24940C4F29E
S315020DAA384C500024079006A805A904AA8DF82040B3
S315020DAA48CDE90544FDF716FCDDE90420DDF818C04D
S315020DAA58CDE900404BF23900C0F20D2007A90023BB
S315020DAA68CDF808C0FFF720FD41F20821C2F21821E0
S315020DAA78086060B300F0F3FA012811D0013026D12F
S315020DAA884BF63E204BF65B324BF6F903C0F20D2020
S315020DAA98C0F20D22C0F20D2340F6A961FEF79AFE09
S315020DAAA841F20421C2F218214FF0FF32012080F340
S315020DAAB810880A6041F26C01C2F21821086041F24F
S315020DAAC89000C2F2182000210160FDF72DFD4CF20F
S315020DAAD83800C0F20D2000680CB010BDF0B581B07B
S315020DAAE841F28405C2F218252868E0B141F27006D2
S315020DAAF841F28807C2F21826C2F21827FDF755FD4C
S315020DAB08F068C468201DFFF7AAF83868013838605E
S315020DAB18286801382860FDF773FD2046FFF7C0FD4A
S315020DAB2828680028EAD101B0F0BDD4D42DE9F04742
S315020DAB3841F28C00C2F21820006848B141F20C208D
S315020DAB48C2F218200168013101600020BDE8F087C4
S315020DAB5841F29000C2F21820016841F2042C4A1CF7
S315020DAB68C2F2182C026022D341F21020C2F218202A
S315020DAB7801680968002940F09F8041F21423C2F248
S315020DAB88182301681F680760196041F21821C2F27D
S315020DAB9818210B6801330B600168096819B1006841
S315020DABA8C068006801E04FF0FF30CCF80000DCF811
S315020DABB80000824201D2002074E041F2102AC2F24C
S315020DABC8182ADAF800004FF000090068002864D048
S315020DABD841F2D41E41F2940441F26408C2F2182ECF
S315020DABE8C2F21824C2F21828002000BFDAF8005063
S315020DABF8ED68EE68374657F8045FAA4250D3D6E990
S315020DAC08021375698B60B16859606968B94201D1D9
S315020DAC18F1686960C6F81490296801392960B56A20
S315020DAC2885B1D6E907138B60F1695960696806F132
S315020DAC381803994201D1316A6960C6F828902968C4
S315020DAC4801392960F56ADEF800108D4205EB85019A
S315020DAC5888BFCEF8005004EB81014968B1608B6854
S315020DAC68F3605F608F60F16A01EB810104EB81038A
S315020DAC78736154F82130013344F82130F16AD8F85A
S315020DAC880030DB6ADAF80050994288BF012029683C
S315020DAC980029ABD14FF0FF3502E04FF0FF3500200A
S315020DACA8CCF8005041F2EC11C2F2182109680029BC
S315020DACB818BF0120BDE8F0874BF63E204BF6B012C1
S315020DACC84BF2BF43C0F20D20C0F20D22C0F20D2386
S315020DACD841F25F21FEF77EFD41F29000C2F2182085
S315020DACE80068704710B570B10C4641F26401C2F2A4
S315020DACF8182109681831FEF795FF20460121BDE88E
S315020DAD081040FFF7F7BC4BF63E204BF62B324BF6AF
S315020DAD18DE03C0F20D20C0F20D22C0F20D234FF450
S315020DAD28A451FEF757FD10B550B341F2640CC2F2A9
S315020DAD38182C0346D0F804E0DCF80000002AC0F807
S315020DAD481CE0DEF80800DCF800402062DCF8004062
S315020DAD5804F118044460DCF8000000F11800CEF87E
S315020DAD680800DCF800008362186818BF4FF0FF313F
S315020DAD78441C084611461C60BDE81040FFF7BABCD4
S315020DAD884BF63E204BF266724BF6DE03C0F20D20F1
S315020DAD98C0F20D22C0F20D2341F2BE41FEF71AFD95
S315020DADA880B5C068C068002870D0D0E90713826ADA
S315020DADB88B60C1695960536800F118018B4201D144
S315020DADC8036A5360002383621368013B136041F2E1
S315020DADD88C02C2F2182212688AB141F2F01CC2F232
S315020DADE8182CDCE900E2C26193680362596091602E
S315020DADF80EF10101C0F828C0CCF8001034E0D0E9F4
S315020DAE08021342698B60816859605368011D8B4232
S315020DAE1801D1C368536000234361136841F2D41C00
S315020DAE28013B1360C2F2182CC26ADCF800309A4252
S315020DAE3888BFCCF8002041F2940C02EB8202C2F2D2
S315020DAE48182C0CEB8202526882609368C3605960B3
S315020DAE589160C16A01EB81010CEB810242615CF8DA
S315020DAE68212001324CF8212041F26401C2F2182147
S315020DAE78C06A0968C96A884291BF002041F2EC117D
S315020DAE88C2F21821012088BF086080BD4BF63E200C
S315020DAE984BF286724BF2B163C0F20D20C0F20D224F
S315020DAEA8C0F20D2341F2F541FEF794FC41F2182149
S315020DAEB8C2F218210968016041F29001C2F2182105
S315020DAEC809684160704770B568B30D46D9B3044633
S315020DAED8FDF76BFB41F2900EC2F2182EDEF800302A
S315020DAEE829684A1C16D041F2182CC2F2182CD4E93C
S315020DAEF80002DCF80060864201D093420CD29A1AFF
S315020DAF08914209D9881A2860DCF800002060DEF81B
S315020DAF1800006060002402E0002001242860FDF78D
S315020DAF286FFB204670BD4BF63E204BF6CD224BF2FB
S315020DAF383573C0F20D20C0F20D22C0F20D2341F277
S315020DAF48A551FEF747FC4BF63E204BF6CD224BF2AA
S315020DAF58CF73C0F20D20C0F20D22C0F20D2341F2BD
S315020DAF68A651FEF737FC41F2EC10C2F21820012168
S315020DAF780160704741F26C00C2F21820006850B1A8
S315020DAF8841F28C00C2F21820006800284FF000002A
S315020DAF9808BF0220704701207047D4D42DE9F04727
S315020DAFA80A9F8246089C386B984669B107F13403A5
S315020DAFB8002600BF8D5D9D551DB1132E06F10106A6
S315020DAFC8F8D1002187F84710102C21D200EB820008
S315020DAFD8043820F00706DDF82490381DFC62FEF7CA
S315020DAFE81EFE07F11800FEF71AFEC4F11000396BA2
S315020DAFF8B8613046524643463F617F62FDF77CFA99
S315020DB008B9F1000F386018BFC9F80070BDE8F087AE
S315020DB0184BF63E204BF2BA724BF6E223C0F20D20E6
S315020DB028C0F20D22C0F20D2340F26471FEF7D2FB77
S315020DB03841F294044EF60455C2F21824CEF20005D6
S315020DB0484FF08056FFF74AFD2068022822BF2E6070
S315020DB058BFF34F8FBFF36F8FFDF72CFBF2E780B56A
S315020DB06886B000F03BF841F24420C2F2182000687F
S315020DB07820B30020CDE9040005A804A903AAFDF70B
S315020DB08806F9DDE903200321DDF814C0CDE9001028
S315020DB0984BF261104BF6B831C0F20D20C0F20D21FC
S315020DB0A80023CDF808C0FFF7FFF941F24821C2F295
S315020DB0B81821086010B1012006B080BD4BF265500B
S315020DB0C84BF611424BF2DD73C0F20D20C0F20D2282
S315020DB0D8C0F20D234FF4A371FEF77CFB70B582B057
S315020DB0E8FDF763FA41F24426C2F21826306868BBA8
S315020DB0F841F25824C2F218242046FEF785FD41F284
S315020DB1086C25C2F218252846FEF77EFD41F24C2023
S315020DB118C2F21820046041F25020C2F2182041F200
S315020DB128C82241F2802305600025C2F21822C2F216
S315020DB13818230A200C210095FEF701FE306028B16E
S315020DB1484BF2A251C0F20D21FFF758F902B0BDE834
S315020DB1587040FDF755BAD4D484B041F24C2841F269
S315020DB1684425C2F2182801ACC2F218254FF0000B7D
S315020DB178EA4600BFD8F80000D0F80090B9F1000FE2
S315020DB18802D0C068066800E00026FFF7ABFA204633
S315020DB19800F0AAF8019919B1FFF7FEFA2EE000BFE1
S315020DB1A80746B9F1000F08D0BE4206D8FFF7F4FAE2
S315020DB1B83046394600F0C3F820E0B9F1000F01D048
S315020DB1C8002208E041F25020C2F2182000680068F9
S315020DB1D8B0FA80F042092868F11BFFF742F9FFF72A
S315020DB1E8DBFA58B94EF60450CEF200004FF08051F4
S315020DB1F80160BFF34F8FBFF36F8F00BF2868CDE98C
S315020DB20802BBCDF804B000BF21460022FEF756FF59
S315020DB2180028AFD0019800284CD4039E706910B14E
S315020DB228301DFEF71CFD504600F05EF801990139F6
S315020DB23808293FD80746DFE801F005052C1C3F050E
S315020DB248052C1C0096F82400029BB16940F00100FA
S315020DB25886F82400194430463A4600F0A8F848B351
S315020DB26896F8240041071BD400F0FA0086F824004C
S315020DB2781DE096F8240040F00101029886F8241084
S315020DB288B06108B3C11930463A463B4600F08FF80D
S315020DB29810E096F8240000F0FE0086F8240009E076
S315020DB2A80298B1693A460144304600F069F8316AA6
S315020DB2B8304688472868A7E796F824008107EAD416
S315020DB2C83046FEF701FCF5E74BF265504BF68A322E
S315020DB2D84BF6A443C0F20D20C0F20D22C0F20D2387
S315020DB2E84FF48261FEF776FAF0B581B00446FFF7A0
S315020DB2F8F3FC41F25426C2F21826316805468842F5
S315020DB3080ED241F24C27C2F2182700BF38680168DF
S315020DB31841B1C0684FF0FF31006800F010F8F5E74B
S315020DB328002007E041F25021C2F218210A6808608E
S315020DB33801203A6020602846356001B0F0BD70B52F
S315020DB34841F24C22C2F2182212680646D2680D46FE
S315020DB358D468201DFEF783FC94F82400410704D413
S315020DB36800F0FA0084F8240004E0204631462A4605
S315020DB37800F006F8216A2046BDE870400847D4D485
S315020DB38870B50546806914460E460144284600BF27
S315020DB398334600F00CF848B1A869296A06442846CE
S315020DB3A88847A869224681192846F1E770BD8C4659
S315020DB3B8014641F804CF9445006108D941F24C2063
S315020DB3C89A42C2F218200AD29C4508D30DE080692A
S315020DB3D8D21A824209D241F25020C2F2182080B501
S315020DB3E80068FEF71FFC002080BD012070470A4643
S315020DB3F8002100F009B810B500239A4203D0CC5C9F
S315020DB408C4540133F9E710BD00239A4208BF7047A9
S315020DB418C1540133F9E7D4D410B505490446054A92
S315020DB428FFF7E9FF044805492044FFF7E0FF10BD81
S315020DB43878800D02000000000000000000000000E8
S315020DB4480249401A02490860704700BF0800000009
S315020DB45840131822000000007578437269746963F7
S315020DB468616C4E657374696E67007651756575659F
S315020DB478416464546F5265676973747279002E2E2E
S315020DB4882F72612F6673702F7372632F726D5F66DB
S315020DB49872656572746F735F706F72742F706F72E7
S315020DB4A8742E630076506F7274456E7465724372AC
S315020DB4B869746963616C0028202820282028207069
S315020DB4C87844656C617965645461736B4C69737400
S315020DB4D820292D3E75784E756D6265724F664974D3
S315020DB4E8656D73203D3D202820554261736554795B
S315020DB4F870655F74202920302029203F20282028B6
S315020DB5082042617365547970655F74202920312054
S315020DB51829203A20282028204261736554797065BE
S315020DB5285F7420292030202920292029007654618C
S315020DB538736B537769746368436F6E7465787400B9
S315020DB548707578537461636B4275666665722021F0
S315020DB5583D202828766F69642A293029002E2E2F38
S315020DB56872612F6177732F4672656552544F532F49
S315020DB5784672656552544F532F536F757263652F15
S315020DB58874696D6572732E630075635356434E75F2
S315020DB5986D626572203C3D203300546D7251005622
S315020DB5A86964656F20545820546872656164002871
S315020DB5B820282075696E74385F74202A2029202860
S315020DB5C82070784C696E6B2029203E3D2026282056
S315020DB5D87563486561705B2030205D20292029201E
S315020DB5E82626202820282075696E74385F74202A2D
S315020DB5F8202920282070784C696E6B2029203C3D25
S315020DB608202628207563486561705B202831303203
S315020DB6183429202D2031205D2029202900785175C5
S315020DB62865756547656E6572696353656E64002156
S315020DB63828202820785461736B47657453636865AF
S315020DB64864756C657253746174652829203D3D20B5
S315020DB6582820282042617365547970655F74202904
S315020DB668203020292029202626202820785469636F
S315020DB6786B73546F5761697420213D203020292040
S315020DB6882900707276496E73657274426C6F636BBC
S315020DB698496E746F467265654C697374002820701D
S315020DB6A87851756575652029007078556E626C6FCF
S315020DB6B8636B656454434200436F6D6D616E64201E
S315020DB6C852582054687265616400707853746174B7
S315020DB6D869635175657565007848616E646C6500B8
S315020DB6E8212820282078436F7079506F7369746901
S315020DB6F86F6E203D3D2028202820426173655479BE
S315020DB70870655F74202920322029202920262620BB
S315020DB7182820707851756575652D3E75784C656E60
S315020DB72867746820213D203120292029007078541C
S315020DB738696D654F75740049504320546872656189
S315020DB748640070727644656C65746554434200787C
S315020DB7585461736B526573756D65416C6C007654E5
S315020DB76861736B506C6163654F6E4576656E744C8D
S315020DB7786973745265737472696374656400785477
S315020DB78861736B52656D6F766546726F6D4576653B
S315020DB7986E744C6973740070785461736B42756676
S315020DB7A866657220213D202828766F69642A29301C
S315020DB7B82900707276496E697469616C6973654E92
S315020DB7C865775461736B0070785469636B73546F44
S315020DB7D857616974007852657475726E0028282847
S315020DB7E85343425F54797065202A292028283078D8
S315020DB7F84530303045303030554C29202B203078A5
S315020DB80830443030554C2920292D3E494353522078
S315020DB8182620283078314646554C202929203D3D8B
S315020DB8282030007853697A65203D3D2073697A6523
S315020DB8386F66282051756575655F742029007851E4
S315020DB8487565756553656D6170686F726554616B63
S315020DB858650078517565756547656E6572696343E9
S315020DB86872656174655374617469630076506F729B
S315020DB8787453564348616E646C65725F43002E2E8F
S315020DB8882F72612F6177732F4672656552544F5326
S315020DB8982F4672656552544F532F536F75726365F2
S315020DB8A82F706F727461626C652F4D656D4D616E89
S315020DB8B8672F686561705F342E6300757853636808
S315020DB8C86564756C657253757370656E646564200F
S315020DB8D83D3D2031550070784576656E744C697319
S315020DB8E8740056656869636C65205468726561648F
S315020DB8F8007852657475726E20213D2028202D31EF
S315020DB90820290028202820282070784C696E6B2D56
S315020DB9183E78426C6F636B53697A6520292026201F
S315020DB92828202820282073697A655F7420292031FA
S315020DB9382029203C3C202820282073697A656F66C9
S315020DB948282073697A655F742029202A20282028E1
S315020DB9582073697A655F74202920382029202920C9
S315020DB9682D203120292029202920213D203020294A
S315020DB97820213D20300078517565756543726561E4
S315020DB9887465436F756E74696E6753656D6170681C
S315020DB9986F7265537461746963007851756575655F
S315020DB9A85265636569766500785461736B496E6392
S315020DB9B872656D656E745469636B002E2E2F7261F6
S315020DB9C82F6177732F4672656552544F532F467200
S315020DB9D8656552544F532F536F757263652F717583
S315020DB9E86575652E630076506F72744672656500CD
S315020DB9F870727643726561746553746174696354C2
S315020DBA0861736B0070785443422D3E7563537461AE
S315020DBA18746963616C6C79416C6C6F63617465648E
S315020DBA28203D3D202820282075696E74385F7420C4
S315020DBA382920322029002E2E2F72612F6177732F1E
S315020DBA484672656552544F532F4672656552544F69
S315020DBA58532F536F757263652F7461736B732E63F0
S315020DBA680070784E65775175657565002128202811
S315020DBA7820282070764275666665722029203D3D1E
S315020DBA88202828766F69642A293029202920262616
S315020DBA9820282028207078517565756520292D3E38
S315020DBAA875784974656D53697A6520213D2028207C
S315020DBAB85542617365547970655F74202920305536
S315020DBAC82029202900785461736B436865636B4698
S315020DBAD86F7254696D654F75740075785072696F1A
S315020DBAE872697479203C202831362900707851758F
S315020DBAF865756500765461736B44656C617900787A
S315020DBB0852657475726E20213D2028202820282022
S315020DBB1842617365547970655F7420292030202936
S315020DBB28202900765461736B506C6163654F6E45BF
S315020DBB3876656E744C69737400574946492055707B
S315020DBB486C6F61642054687265616400785175651D
S315020DBB58756500765461736B5374617274536368B9
S315020DBB686564756C65720075785363686564756C82
S315020DBB78657253757370656E64656420213D203058
S315020DBB88550070727650726F63657373526563658D
S315020DBB9869766564436F6D6D616E64730078517570
S315020DBBA865756547656E6572696352657365740079
S315020DBBB8546D72205376630076506F7274457869A8
S315020DBBC874437269746963616C0070784C696E6B43
S315020DBBD82D3E70784E65787446726565426C6F6354
S315020DBBE86B203D3D202828766F69642A2930290065
S315020DBBF8707851756575652D3E75784974656D5301
S315020DBC08697A65203D3D2030007854696D65724329
S315020DBC18726561746554696D65725461736B0075ED
S315020DBC2878546F705072696F726974790021282081
S315020DBC38282070764974656D546F51756575652042
S315020DBC483D3D202828766F69642A29302920292026
S315020DBC582626202820707851756575652D3E7578CE
S315020DBC684974656D53697A6520213D202820554210
S315020DBC78617365547970655F7420292030552029C2
S315020DBC882029007853697A65203D3D2073697A65C6
S315020DBC986F6628205443425F742029002820707845
S315020DBCA854696D65722D3E7854696D65725065726B
S315020DBCB8696F64496E5469636B73203E203020297F
S315020DBCC8002820282075696E74385F74202A202969
S315020DBCD820282070784974657261746F7220292044
S315020DBCE83E3D202628207563486561705B2030200D
S315020DBCF85D20292029202626202820282075696ED0
S315020DBD0874385F74202A2029202820707849746592
S315020DBD187261746F722029203C3D20262820756396
S315020DBD28486561705B20283130323429202D203147
S315020DBD38205D2029202900D40000000000000103FF
S315020DBD4803030000000001030403000000000103C1
S315020DBD5800040000000001030104000000040107AD
S315020DBD6809040000000401070A040000000001038B
S315020DBD780105000000000103020500000000010391
S315020DBD880406000000000103050600000000010379
S315020DBD980A080000000001030B0800000C00000051
S315020DBDA844BD0D02000000009C009D009E009F00F0
S315020DBDB8180319031C031B030100C402C502C6029C
S315020DBDC8C7025B0000000000000000000000000032
S315020DBDD8020403040404D4D40000E06F0000E06FEB
S315020DBDE8000000880000008800000074000000743E
S315020DBDF800001822000018220B00000018BE0D02C2
S315020DBE08190000009CBE0D0204000000E0BD0D02E3
S315020DBE180000E06F0000E06F0001000D0000E06F0A
S315020DBE280000E06F0001000D000000880000008888
S315020DBE3800010008000000880000008800010008C3
S315020DBE4800000074000000740001000A000000746E
S315020DBE58000000740001000A000000000000000046
S315020DBE680000000600000020000000200000000768
S315020DBE780000182200001822000000032C041822C4
S315020DBE8844131822000000034413182244131822DF
S315020DBE98000000030000E06F0000E06F000000984C
S315020DBEA80001090D0000E06F0000E06F0000007C44
S315020DBEB800010B0D0000E06F0000E06F0000002787
S315020DBEC80001020D0000E06F0000E06F78800D02A0
S315020DBED80001010D0000008800000088000000988E
S315020DBEE80001090800000088000000880000007C97
S315020DBEF800010B08000000880000008800000027DA
S315020DBF0800010208000000880000008878800D02F2
S315020DBF18000101080000007400000074000000987A
S315020DBF280001090A00000074000000740000007C7C
S315020DBF3800010B0A000000740000007400000027BF
S315020DBF480001020A000000740000007478800D02D8
S315020DBF580001010A00000000000000000000009820
S315020DBF680001090600000000000000000000007C28
S315020DBF7800010B060000000000000000000000276B
S315020DBF8800000206000000000000000078800D0285
S315020DBF9800000106000000200000002000000098A5
S315020DBFA80001090700000020000000200000007CA7
S315020DBFB800010B07000000200000002000000027EA
S315020DBFC800000207000000200000002078800D0204
S315020DBFD80000010700001822000018220000009830
S315020DBFE80001090300001822000018220000007C37
S315020DBFF800010B030000182200001822000000277A
S315020DC00800000203000018220000182278800D0293
S315020DC01800000103441318224413182278800D02D6
S315020DC0280000010301000200080010002000D4D40C
S315020DC0380F00000000000506362E352E300042751B
S315020DC048696C7420776974682052656E65736173BD
S315020DC05820416476616E63656420466C6578696213
S315020DC0686C6520536F667477617265205061636BD8
S315020DC0786167652076657273696F6E20362E352E69
S307020DC088300071
S705020D99ADA5
