S021000052413850314475616C436F726550726F6A6563745F435055312E7372656359
S315020D80004005182251E10D0215E00D025BE10D024C
S315020D80105BE10D025BE10D025BE10D025BE10D021F
S315020D802000000000000000000000000039B60D023D
S315020D80305BE10D020000000051B60D02B9B60D024C
S315020D80403DCB0D0211CD0D0271CE0D0255CF0D0296
S315020D80509FBE0D0239BF0D024FC00D0267C10D0243
S315020D80603DD20D029FBE0D0239BF0D024FC00D024C
S315020D807067C10D0229C30D024BC20D02B1C30D021A
S30D020D808003C40D0285C40D02B5
S315020D809001000000600E0E02040705070000000035
S315020D80A000000000000000000000000000000000BB
S315020D80B000000000000000000000000000000000AB
S315020D80C0000000000000000000000000000000009B
S315020D80D0000000000000000000000000000000008B
S315020D80E00000000000000000000000002C110E022E
S315020D80F00401050100000000000000000000000060
S315020D8100000000000000000000000000000000005A
S315020D8110000000000000000000000000000000004A
S315020D8120000000000000000000000000000000003A
S315020D8130000000000000000000000000000000002A
S315020D814000000000320000000000000000000000E8
S315020D81500000080000000000000000000000000002
S315020D816000001008000000000000000000000000E2
S315020D817070B1002148F2931248F2C51348F2112C40
S315020D8180C0F20D22C0F20D23C0F20D2C80E80E10A6
S315020D8190704780B541F28800C0F20E2000F082F8D9
S315020D81A070B140F68070C0F20E2000F07BF838B147
S315020D81B041F20400C0F20E20BDE8804000F072B814
S315020D81C0002080BD80B52DED028B41F28800C0F2F4
S315020D81D00E20B0EE608A00F084F890B140F6807001
S315020D81E0C0F20E20B0EE480A00F07BF808B101206D
S315020D81F008E041F288009FED050AC0F20E2000F05C
S315020D820070F80020BDEC028B80BD00BF000000009F
S315020D821070B52DED028BB7EE001A41F20406B4EEDF
S315020D8220410AC0F20E26F1EE10FA346831FE008ACA
S315020D8230B5EE408A20460021F1EE10FA9FED180A9E
S315020D824048BFB0EE408A002505F097FC2046012175
S315020D825005F093FC30460021B0EE480A00F091F885
S315020D8260C8B141F204009FED0E0AC0F20E200121A3
S315020D827000F087F830B1B5EE408AF1EE10FA03D16F
S315020D8280012508E0002506E02046002105F067FCE1
S315020D8290B0FA80F045092846BDEC028B70BD00BFD1
S315020D82A000000000C8B110B50446D4E901120068F9
S315020D82B0126890470E2800D088B92068002105F073
S315020D82C05CFC2068012105F058FCA168206849680C
S315020D82D08847B0FA80F0400910BD00207047002093
S315020D82E010BD70B52DED028BB7EE001AB4EE410A34
S315020D82F0F1EE10FA31FE000ABFEE001AB4EE401A84
S315020D8300F1EE10FA31FE008AB5EE408A0026F1EE44
S315020D831010FA48BF02260446C8BF012600684FF070
S315020D832000014FF00005B1EE480A48BFB0EE408A93
S315020D833005F023FC2068012105F01FFC20460021D3
S315020D8340B0EE480A00F01DF8B8B120460121B0EE94
S315020D8350480A00F016F828B1012E05D0022E0BD1CF
S315020D8360012102E0002508E00021206805F0F7FB57
S315020D8370B0FA80F0450900E001252846BDEC028BD6
S315020D838070BDB0B52DED028B84B0B0EE408AB7EE5E
S315020D8390000AB4EE408A05460020F1EE10FACDE948
S315020D83A00200019024DC1DB3B5EE408AF1EE10FAFF
S315020D83B01ED40C46A96828684A6A01A9904708B1D5
S315020D83C0002015E09DED030AB6EE001AB8EE400A3E
S315020D83D020EE080AA96830EE010ABCEEC00A28682A
S315020D83E0CB6910EE101A22469847B0FA80F0400972
S315020D83F004B0BDEC028BB0BD70B110B520210446A0
S315020D840007F068FE204600F030F838B104F110008E
S315020D8410FFF7AEFE012010BD00207047002010BDF3
S315020D842010B3007940F25001C2F21821087040F2E1
S315020D84306C50C2F218200068B0B180B582B000212E
S315020D844001AA019107F05FFB019850B14EF6045057
S315020D8450CEF200004FF080510160BFF34F8FBFF394
S315020D84606F8F02B0BDE880407047F0B110B504467B
S315020D847041F27860C2F21820C068C0B107F0D2FA94
S315020D848040F26C51C2F218210860002048F2CB412D
S315020D849048F2455248F2E353C0F20D21C0F20D22C5
S315020D84A0C0F20D230FC4012010BD0020704741F20A
S315020D84B0786041F2CC01C2F21820C0F20E2104F00E
S315020D84C02AF90028DAD0002010BD2DE9F04184B03A
S315020D84D04FF0000593B30A9C0F2C2FD841F278600A
S315020D84E01746C2F2182001221E464FF0010804F06B
S315020D84F0B5F908B1002521E08DF800706F46781C9C
S315020D85003146224607F0EAFD002001210022002510
S315020D851007F0A1FA40F25000C2F2182080F800804E
S315020D852041F27860621CC2F218203946002304F02B
S315020D853076F918B9032000F057F80546284604B017
S315020D8540BDE8F0812DE9F04182B04FF000068DF8BD
S315020D8550072023B3089D15B341F27860C2F21820A5
S315020D856001221C46012704F079F908B1002616E00E
S315020D8570002001210022002607F06DFA40F2500874
S315020D858041F27860C2F21828C2F218200DF10701E5
S315020D85900122012388F8007004F041F918B1304622
S315020D85A002B0BDE8F081032000F01EF80028DDD0F0
S315020D85B00020012100220127002607F04CFA41F284
S315020D85C07860C2F2182021462A46002388F80070E8
S315020D85D004F01FF90028E2D1022000F005F8064644
S315020D85E0DDE7084606F06EBE10B5044600200121F1
S315020D85F0142207F030FA48B140F25000C2F21820A8
S315020D86000078001BB0FA80F0400910BD41F2786087
S315020D8610C2F2182004F009F9002010BDB0B50546C6
S315020D862000284FF0000019D00C46B9B194ED050A99
S315020D8630B5EE400AF1EE10FA10D994ED040AB5EE34
S315020D8640400AF1EE10FA09D42846302107F042FD10
S315020D865007CC07C594E80F000FC50120B0BDC8B100
S315020D866090ED051A016AB1EE412AB4EE410AF1EE18
S315020D867010FAB4EE402A31FE001AF1EE10FAC1617B
S315020D86804FF0000132FE010A4162012180ED0A0A14
S315020D869080F82C10704718B1002180F82C10416219
S315020D86A0704788B190ED051AB1EE412AB4EE410A32
S315020D86B0F1EE10FAB4EE402A31FE001AF1EE10FA7E
S315020D86C032FE010A80ED0A0A7047D4D4024600280A
S315020D86D018BF01220B46002918BF012302EA030C1B
S315020D86E0F5EE400A00229FED7C1AF1EE10FA88BFD4
S315020D86F00122002302EA0C02F4EE410AF1EE10FA0F
S315020D8700D8BF01231A40012A40F0D68090ED062AE1
S315020D8710B0EEC01AB4EE412A9FED701AF1EE10FAC0
S315020D872090ED083A31FE000A20EE204A9FED6C2AA2
S315020D873034EE034AB4EE424AF1EE10FA09DD9FED2C
S315020D8740693A00BF34EE034AB4EE424AF1EE10FA2C
S315020D8750F8DC9FED653AB4EE434AF1EE10FA08D510
S315020D87609FED625A34EE054AB4EE434AF1EE10FA23
S315020D8770F8D490F82C3080ED084A002B00F0988042
S315020D878090ED071A31EE441AB4EE421AF1EE10FAD2
S315020D879009DD9FED544A00BF31EE041AB4EE421ABA
S315020D87A0F1EE10FAF8DCB4EE431AF1EE10FA08D532
S315020D87B09FED4E2A31EE021AB4EE431AF1EE10FA7D
S315020D87C0F8D490ED092A21EE203A90ED035A33EEB4
S315020D87D0022AB1EE457AB4EE452AF1EE10FAB4EE5E
S315020D87E0427A90ED003A90ED014A35FE025AF1EECB
S315020D87F010FA90ED026A37FE052A24EE024A23EE9E
S315020D8800013A33EE043A26EE000A90ED044A33EEAF
S315020D8810403AB1EE445AB4EE443AF1EE10FAB4EEE1
S315020D8820435A34FE030AF1EE10FAB4EE453A35FE1A
S315020D8830000AF1EE10FA04DBB4EE443AF1EE10FA48
S315020D884009D9B5EE401AF1EE10FA37D5B4EE403A23
S315020D8850F1EE10FA32DD80ED092A90ED0A1A90ED4D
S315020D8860052A31EE401AB1EE423AB4EE421AF1EE53
S315020D887010FAB4EE413A32FE012AF1EE10FA33FE47
S315020D8880021A81ED001A90ED0A1A90ED052A30EEC4
S315020D8890010AB1EE421AB4EE420AF1EE10FAB4EE44
S315020D88A0401A32FE002AF1EE10FA31FE021A01E0EA
S315020D88B00020086081ED011A10467047B5EE401A88
S315020D88C0F1EE10FAC9DDB4EE403AF1EE10FA48BFF8
S315020D88D080ED092AC1E700BFCDCCCC3D00000000DA
S315020D88E0000034430000B4C3000034C30000B44397
S315020D88F0002814BF90F82C00002000F001007047EC
S315020D89002DE9F04383B0002500288DF806506DD071
S315020D89101F46002B6AD01646002A67D0DDF828902E
S315020D8920B9F1000F62D0884604460B9D1030142112
S315020D893007F0D0FBC4E9008601260DF10603404679
S315020D894029467522C4E9027925740096B84700288E
S315020D89504BD09DF8060000F07E01682945D1607462
S315020D8960D4E90007217C01250DF107036B228DF851
S315020D897007500095B847C0B340466421C847032245
S315020D8980D4E90007217C8DF8082002AB1A22009546
S315020D8990B84750B30922D4E90007217C8DF8092086
S315020D89A001260DF1090319220096B8474FF000056D
S315020D89B0E0B1D4E90007217C0DF10A031B228DF8E3
S315020D89C00A500096B84788B1D4E90007217C0025E4
S315020D89D001260DF10B031C228DF80B500096B8479C
S315020D89E020B1012584F8206000E00025284603B059
S315020D89F0BDE8F08300287ED0B0B586B004460D469C
S315020D8A0000294FF0000079D094F82010C90775D0CF
S315020D8A102068D4F808C0217C4FF00E0E0DF10A0322
S315020D8A203B22CDF800E0E047002866D0BDF80A00EB
S315020D8A309FED331AC0BA00EE100ABDF80C00B8EE5F
S315020D8A40C00A20EE010AC0BA85ED000A00EE100A30
S315020D8A50BDF80E00B8EEC00A20EE010AC0BA85EDC9
S315020D8A60010A00EE100ABDF81000B8EEC00AC0BA2F
S315020D8A7020EE010A01EE100A9FED222AB8EEC11A66
S315020D8A80BDF8120081EE021AC0BA02EE100A9FED6F
S315020D8A901F3AB8EEC22ABDF8140082EE032AC0BAF6
S315020D8AA004EE100AB8EEC44ABDF8160084EE034A67
S315020D8AB0C0BA05EE100AB8EEC55A85EE033A9FED19
S315020D8AC0125A85ED020A31EE050A85ED060A94ED76
S315020D8AD0050A012032EE400A85ED030A94ED060AD7
S315020D8AE034EE400A85ED040A94ED070A33EE400A88
S315020D8AF085ED050A02E000207047002006B0B0BDE4
S315020D8B00000080380000AA43B81E1242000003433B
S315020D8B102DE9F0412DED068B88B0044600284FF065
S315020D8B2000003BD00D46C9B39FED1F8A164600279E
S315020D8B300DF10408B0EE489AB0EE48AAC4E90577DD
S315020D8B40E76100BF20464146FFF754FF28B39DED6E
S315020D8B50040A9DED051A9DED062A2068E268314646
S315020D8B603AEE00AA39EE019A38EE028A904701379B
S315020D8B70B8B2A842E6D300EE105AB8EE400A8AEE13
S315020D8B80001A89EE002A88EE000A012084ED051AE4
S315020D8B9084ED062A84ED070A00E0002008B0BDEC3C
S315020D8BA0068BBDE8F08100BF00000000002859D0F9
S315020D8BB070B582B005464069002851D0A8690028D3
S315020D8BC04ED0E86900284BD040F27056C2F21826F4
S315020D8BD03046A42107F07EFA1ECD30461EC095E81A
S315020D8BE01E001EC040F2EE20C6F89C0042F228403E
S315020D8BF0A6F8A000D6E904020021A6F87410904743
S315020D8C0090B396E81E0006F120054FF0680C284633
S315020D8C10CDE9004CFFF774FE40B328464FF4FA71C6
S315020D8C200222FFF775FF08B340F2381106F1440030
S315020D8C30C0F20E21FFF7F2FCE8B100F021F830691F
S315020D8C40F1699FED0E0A884770B14CF6CD40C3F619
S315020D8C504C70C6F88C000120A6F87600002006E0BE
S315020D8C60012006E001207047032000E0052086F86A
S315020D8C70900002B070BD0120F9E700BFCDCC4C3F8C
S315020D8C80B0B540F27054C2F2182404F14400FFF755
S315020D8C9002FD9FED080A2069A1690025F0EE400A42
S315020D8CA084F87850884710B9032084F89000C4E9F7
S315020D8CB02155B0BD0000000070B52DED048B8AB0B4
S315020D8CC0B0EE408A9FED6F0A40F27055B4EE408ABF
S315020D8CD0C2F21825F1EE10FA4FF0010400F3CA8024
S315020D8CE0B5EE408AF1EE10FA40F2C48095F87600A0
S315020D8CF0C00700F0BF809FED640AB6EE001A28EE9B
S315020D8D00000A30EE010A95F87700BCEEC00A10EEA5
S315020D8D10106A88B995ED230AB5EE400AF1EE10FAFE
S315020D8D200ADDD5F894003044B0F5FA6FC5F8940013
S315020D8D3024BF012085F8770005F144042046FFF78C
S315020D8D40D7FD30B305F1200003A9FFF753FE002826
S315020D8D505FD09DED080A01A92046F0EE480A85ED81
S315020D8D60200AFFF7B3FC002800F081809DED019AE1
S315020D8D709DED028A2869A969B0EE490AF0EE480A04
S315020D8D80884700286DD0686E85ED219A85ED228A79
S315020D8D90E86795F87400012839D1D5F8980095F849
S315020D8DA0751030440329C5F898004FD0022934D0E6
S315020D8DB0012954D141F2883188424FF0000459D32A
S315020D8DC0FFF75EFF95F8A1009FED301A00EE100A2F
S315020D8DD0B8EE400A80EE018A022085F875002869F0
S315020D8DE0A969C5F89840B1EE489AB0EE480AF0EE78
S315020D8DF0490A884730B99FED268A0324B0EE489A70
S315020D8E0085F8904085ED218A85ED229A17E000249A
S315020D8E1032E0FFF735FF05242CE0D5F89C1000242F
S315020D8E20884227D3FFF72CFF032095F8A01085F86B
S315020D8E3075000020C5F8984000F02CF8044674B170
S315020D8E40052085F87500FFF71BFF13E041F2883107
S315020D8E50884204D3FFF714FF042085F87500002419
S315020D8E6008E0032085F890000020C5E92100FFF7F0
S315020D8E7007FF032485F8904020460AB0BDEC048B0B
S315020D8E8070BD00BFCDCCCC3D00007A440000C84277
S315020D8E9000000000652907D340F27051C2F2182175
S315020D8EA0012081F89000704710B52DED028B00EE72
S315020D8EB0101A9FED171AB8EE400A80EE010A002825
S315020D8EC040F27054C2F2182404F14400B1EE401A75
S315020D8ED000FE018AB0EE480AFFF7C1FB2069A269BE
S315020D8EE00121B0EE480AF0EE480A84F87810904750
S315020D8EF008B1002004E09FED078A032084F8900054
S315020D8F0084ED218A84ED228ABDEC028B10BD00BF51
S315020D8F100000C8420000000070B52DED048B40F232
S315020D8F207056C2F2182678B1054696F876000128D3
S315020D8F304FF002000DD10C4696F87710C90708D0EE
S315020D8F40642C0BD9012004E0FFF79AFE0020A6F847
S315020D8F50740086F89000BDEC048B70BDFFF790FE91
S315020D8F60681E00210328A6F87410EBD800EE104AED
S315020D8F709FED1D1AB8EE400A80EE018ADFE800F079
S315020D8F80022E041500202AE03069B169B1EE489A25
S315020D8F90B0EE490AF0EE480A88479FED140A0028FA
S315020D8FA000FE091A00FE080A0FE03069B169B1EE3A
S315020D8FB0489AB0EE480AF0EE490A88479FED0B0A29
S315020D8FC0002800FE081A00FE090A4FF0030018BF1A
S315020D8FD0002086ED211A86ED220ABAE701202146E6
S315020D8FE0FFF758FFB5E700BF0000C84200000000BA
S315020D8FF010B540F27054C2F2182494F87600012886
S315020D90004FF0020010D194F87710C9070CD0FFF774
S315020D901037FE40F2011094F8A010A4F87400002057
S315020D9020C4F89800FFF736FF84F8900010BDD4D42B
S315020D903010B540F270546428C2F2182401D90120E9
S315020D904010E000EE100A9FED091AB8EE400A80EE06
S315020D9050010A84F8A00084F8A10004F14400FFF788
S315020D906020FB002084F8900010BD00BF0000C8420E
S315020D907010B52DED028B40F270540246C2F2182441
S315020D908064294FF001001FD894F87630DB071BD008
S315020D909000EE101A9FED0F1AB8EE400A80EE010A85
S315020D90A09FED0D1A002A2069E16901FE008AB0EED4
S315020D90B0480A884738B1002084ED238A84F8770060
S315020D90C0C4F8940000E0032084F89000BDEC028BF6
S315020D90D010BD00BF0000C84200000000B0B540F24E
S315020D90E070550128C2F2182501D9012009E004465E
S315020D90F0FFF7C6FD002085F8744085F87500C5F8A2
S315020D9100980085F89000B0BD10B5FFF7B9FD40F295
S315020D91107054C2F21824E16919B120699FED050A4E
S315020D912088470020C4F88C0084F87700052084F85F
S315020D9130750010BD0000000080B582B040F21462C9
S315020D914040F228634FF0000CC2F21822C2F2182325
S315020D915001201421CDF800C005F0D3F940F270615B
S315020D9160C2F218210860002818BF012002B080BD86
S315020D9170014600284FF0000011D040F27062C2F293
S315020D9180182212685AB180B510460022022305F044
S315020D919027FA0138B0FA80F04009BDE880407047E1
S315020D91A0014600284FF0000010D040F27062C2F264
S315020D91B01822126852B180B51046002205F0E2FB64
S315020D91C00138B0FA80F04009BDE880407047D4D42A
S315020D91D010B540F27464C2F218242046A82106F096
S315020D91E079FF03202061606140F60C2040F21C716C
S315020D91F0C0F20E20C2F21821A061E1614FF40061A6
S315020D920021620021A1626162E162206640F61C7054
S315020D9210C2F2182060661020A0662167E1666167BA
S315020D922040F254110F20C0F20E21BFF35F8F00BF23
S315020D92300A5C0138431C04F8012BF9D1BFF35F8F89
S315020D924010BDD4D42DE9F04381B0C76814460D463E
S315020D925080464FF0000900BFD8F81010D8F8080064
S315020D9260FA43B9421144A0EB070698BF0144B14235
S315020D927038BF0E46D8F80400A64228BF2646384403
S315020D92802946324606F02AFFD8F80800F119A41B22
S315020D92900F1AB144354418BF0F46002CBFF35F8F2A
S315020D92A0C8F80C70D8D1484601B0BDE8F0832DE957
S315020D92B0F04381B0144640F2746200EB4000C2F2F4
S315020D92C0182202EBC002D06A8946022802F118055D
S315020D92D011D0012807D000283ED1EE682869B04288
S315020D92E034D9F14335E0EE682969B1420BD9F2431F
S315020D92F0A86811440BE028464946224601B0BDE84E
S315020D9300F043FFF79FBFA868F24311440144A142FF
S315020D931038BF0C46871B6868BC42304407D24946A3
S315020D9320224606F0DBFEBFF35F8F26440CE049466C
S315020D93303A4606F0D3FEE61B686809EB070132468C
S315020D934006F0CCFEBFF35F8FEE6026E0A968F2430E
S315020D935010440844A04201D200241EE0D5E90101C1
S315020D93608F1BBC42304408D24946224606F0B6FE51
S315020D9370BFF35F8F06EB04080DE049463A4606F049
S315020D9380ADFEA4EB0708686809EB0701424606F035
S315020D9390A5FEBFF35F8FC5F80C80204601B0BDE870
S315020D93A0F083F0B581B0144640F27462C2F218220F
S315020D93B012780D46532A064618BFFFF709FFEFF33B
S315020D93C011874FF0200181F3118830462946224636
S315020D93D0FFF76DFF87F3118801B0F0BD2DE9F04F50
S315020D93E09BB0934606AA1692402217920022002798
S315020D93F08A4605901A90CDE9182200BF1AF8012B5C
S315020D9400252A07D0002A00F05D8116A8114600F024
S315020D941068F93CE1881C4FF0000800BF9AF800106D
S315020D94202C2905DC232909D02B2911D1042108E089
S315020D94302D2905D030290BD1022102E0082100E0A9
S315020D9440012148EA01080AF1010A0130E6E700BFE7
S315020D9450A1F13A02002612F10A0F0ED306EB86028D
S315020D946001EB420210F8011BA2F13006A1F13A03FB
S315020D947013F10B0FF2D8A0F1010A2E290ED1514686
S315020D948011F8010F2A280CD1DBF800000AF1020AA5
S315020D9490011DCBF8001004681FE000BF0020002458
S315020D94A01CE0A0F13A0212F10A0F03D200200024A9
S315020D94B08A4613E00AF10201002400BF04EB84027E
S315020D94C000EB420211F8010BA2F13004A0F13A03AE
S315020D94D013F10B0FF2D8A1F1010A01201AF8011BA3
S315020D94E001F0FB02682AF9D063290FDC25292FD05A
S315020D94F0582924D0632940F0CA80DBF80000011DEB
S315020D9500CBF80010017816A881E700BFA1F1700211
S315020D9510082A20D8DFE802F005BBBB53BB4CBBBB08
S315020D95201300DBF800001022011DCBF800100168B4
S315020D953016A8082300270826CDE90067A5E0DBF863
S315020D954000001022011DCBF80010016816A899E043
S315020D955016A825215BE7642940F09980DBF8000007
S315020D9560011DCBF800100568C5F1000C002D28462B
S315020D957000D560464CF6CD430A28CCF6CC434FF0C7
S315020D9580010907DBA0FB031263284FEAD20009F19A
S315020D95900109F7D84C4588BFA146AEB30020002D70
S315020D95A048BF012008F0040140EA9100361A2CE06A
S315020D95B0DBF80000011DCBF80010016860E0DBF856
S315020D95C000100A1DCBF800200E6840F25662314695
S315020D95D0002E18BF012100EA0105C0F20E2208BFB6
S315020D95E0164600BF3178002951D0B4FA84F04009ED
S315020D95F028404CD116A8013600F073F8199F013C8C
S315020D9600B7F1FF3FEEDC68E000265FEA88710BD505
S315020D961054B9002F3BD4002D24D45FEA487004952B
S315020D96202BD503912B2121E05FEAC870F1D1002ED3
S315020D9630EFD0B145EDD2CDE902C10495751E00BF3D
S315020D964016A8202100F04DF8199F002F45D4681E4B
S315020D9650A84202D2A9450546F2D3049DDDE902C10F
S315020D9660461CD6E703912D21CDF810C016A800F0A1
S315020D967038F8199F0399002F2FD400290ED4049977
S315020D968016A80A222346CDE9006800F04BF8199F69
S315020D96905146B7F1FF3F3FF7B1AE1EE008F00100AC
S315020D96A02043ECD1002EEAD0751EB54238BFB14526
S315020D96B0E5D216A8302100F014F8199F2E46002F78
S315020D96C0F2D50AE047B1189C24B1059806A922469F
S315020D96D0FFF767FE274400E0002738461BB0BDE8BA
S315020D96E0F08F10B50446D0E90120431C934207D8EA
S315020D96F022681154E06862680130E0601846A36082
S315020D9700904218BF10BD21682069FFF74AFEA16875
S315020D9710884202D10020A06010BD4FF0FF30E060FC
S315020D972010BDD4D42DE9F04F81B0DDF828A01F4627
S315020D973015468B46914281464FF0010405D3584694
S315020D9740B0FBF5F00134A842FAD20B99A74288BFB5
S315020D97503C46BAF1000F1DD011F001001AD14FF09F
S315020D97602008880748BF4FF030082020002F18BF69
S315020D9770804600BFBAF1000F0CD054450AD24846B6
S315020D97804146AAF1010AFFF7ACFFD9F80C00B0F178
S315020D9790FF3FEFDCD9F80C0000283AD4012600BFB2
S315020D97A0022F01D3013F03E0BBFBF6F0A84202D321
S315020D97B006FB05F6F4E740F61668C0F20E2800BF62
S315020D97C0BBFBF6F7484618F80710FFF78AFFD9F8DC
S315020D97D00C00002806D4B6FBF5F007FB16BBB54206
S315020D97E00646EDD90B98C00718BFBAF1000F0AD17C
S315020D97F00FE048462021FFF774FFD9F80C00AA4660
S315020D9800B0F1FF3F05DDAAF10105554538BF5445B7
S315020D9810EFD301B0BDE8F08F08294FF0000124D136
S315020D982018B312B30BB310B50168D0F804E01FFAE2
S315020D983081FC40F2A514A445C2F804E0116011D1D1
S315020D98404FEA1E6C00220021845C0132072A81EA4E
S315020D98500401F9D1614505D16EF3070E0121A3F875
S315020D986000E000E00021BDE8104008467047D4D460
S315020D9870D1B1B0B548F2203E4FF0000C4FF0FF3398
S315020D9880CEF6B85E10F80C20534008221C468EEA1E
S315020D98905303E50708BF6308013AF7D10CF1010C32
S315020D98A08C45EFD1D843B0BD002070474AF6AB21A7
S315020D98B01730CAF6AA21A0FB0112B0F5C01F4FF050
S315020D98C0000038BF100980B27047D4D470B50C466B
S315020D98D005468689881D1A2106F0FCFB40F24910C1
S315020D98E02080300AE07040F60170A670A080E889EB
S315020D98F04AF6AB21E080288ACAF6AA212081686839
S315020D9900C4F80A00A868C4F80E0068681730A0FBF0
S315020D99100112B0F5C01F4FF0000038BF1009A07438
S315020D9920000AE07402202075E889A4F81500298A38
S315020D99300020E175090A217600216076225C01304C
S315020D99401F2881EA0201F9D1E17770BD2DE9F047B1
S315020D99508246406801EB4109A0EBC90702F10708EF
S315020D99600D46182F28BF1827BAF80C604046192144
S315020D9970144606F0AFFB40F249202080300AE07013
S315020D9980280AA67025716071A771DAF800003A46A9
S315020D999000EBC901404606F0A1FB0020002100BFE5
S315020D99A0225C01301F2881EA0201F9D1E177BDE877
S315020D99B0F087D4D470B50C4605468689081D1C2140
S315020D99C006F088FB40F249302080300AA670E0701E
S315020D99D068684AF6AB211730CAF6AA21A0FB011216
S315020D99E0B0F5C01F4FF0000038BF1009A08068689F
S315020D99F0C4F80600A9680020C4F80A10002100BFA9
S315020D9A00225C01301F2881EA0201F9D1E17770BD8E
S315020D9A10F0B581B0054601284FF001006ED80C460F
S315020D9A2000296BD040F25400C2F21820582115FBC2
S315020D9A30010696F8550010BB06F10C03032701200B
S315020D9A4000210022009704F05CFD0028B06054D07E
S315020D9A50B18841F27C00C2F21820002202F07FFD8D
S315020D9A60316807C9126890470E2801D0002844D1E3
S315020D9A7005B30120642186F8550000F041F849F638
S315020D9A802530C0F20D2049F69331C0F20D2149F66B
S315020D9A90B93249F6F73349F60137C4E9006004F1E4
S315020D9AA00800C0F20D22C0F20D23C0F20D278EC0A2
S315020D9AB0002023E040F62C730327C2F2182301205F
S315020D9AC000210022009704F01CFD40F67471C2F2CB
S315020D9AD01821086088B140F68860C0F20E208768AA
S315020D9AE0D0E900513A68284690470E2800D020B991
S315020D9AF07968284688470028BBD0022001B0F0BD00
S315020D9B0010B50C4605F094FF022804D12046BDE897
S315020D9B10104005F0D7BB20464FF47A71BDE81040D0
S315020D9B2004F031BA2DE9F04182B0044600284FF017
S315020D9B3001002AD00F4641B3164632B31D4623B352
S315020D9B40A06800214FF0000804F0F6FF84F8548057
S315020D9B5020684FF0070E81680068D1F80CC03946AF
S315020D9B6032462B46CDF800E0E04708B102200CE064
S315020D9B70A0680A2104F0E0FF012805D194F85400EB
S315020D9B80013818BF022000E00320C0B202B0BDE8C2
S315020D9B90F08170B180B50A46818841F27C00C2F22D
S315020D9BA0182002F0DCFC002818BF0220BDE8804018
S315020D9BB000E00120C0B2704710B582B00C460146D6
S315020D9BC001208DF8070099B194B1C98841F27C0044
S315020D9BD0C2F218200DF1070202F0B0FC9DF8071033
S315020D9BE00028B1FA81F14FEA5111217018BF0220F6
S315020D9BF0C0B202B010BD0846012104F0C4B9B0B519
S315020D9C0082B0044640F25400C2F21820C18841F2D5
S315020D9C107C000125C2F218200DF107028DF80750BE
S315020D9C2002F08CFC10B99DF8070070B140F6747005
S315020D9C30C2F21820006838B1214604F07DFF0138C2
S315020D9C40B0FA80F0450900E00025284602B0B0BD05
S315020D9C50014640F25400C2F2182000F000B8E8B1F5
S315020D9C60E1B18268D2B180B582B0097980F854101B
S315020D9C700020019001A9104604F001FE019850B191
S315020D9C804EF60450CEF200004FF080510160BFF344
S315020D9C904F8FBFF36F8F02B0BDE88040704701460C
S315020D9CA040F25400C2F218205830FFF7D8BF40F6E2
S315020D9CB07470C2F218200068B0B180B582B000216E
S315020D9CC0019101A904F0DBFD019850B14EF6045045
S315020D9CD0CEF200004FF080510160BFF34F8FBFF3FC
S315020D9CE06F8F02B0BDE880407047E0B14EF2E7716A
S315020D9CF0CFF6FF7101814FF0E7314160016040F20D
S315020D9D000521C0F22051C0F80A1040F20F11C0F21F
S315020D9D100321C0F80E1040F20111C0F20101C0F884
S315020D9D201210002181757047B0B582B014460246F5
S315020D9D300020ADF804001F294FF001001DD8E4B133
S315020D9D401D46D3B1FF208DF806108DF807009AB186
S315020D9D50D2F804C0BCF1000F0ED010680DF1060149
S315020D9D6001AA0223E04740B99DF804009DF80510AB
S315020D9D7028700020217000E0012002B0B0BD10B5A0
S315020D9D8082B01C4603460020ADF804001F294FF091
S315020D9D90010019D8C4B141F020008DF806008DF8E6
S315020D9DA0072083B1D3F804C0BCF1000F0BD018689D
S315020D9DB00DF1060101AA0223E04728B99DF8040018
S315020D9DC02070002000E0012002B010BDF0B583B076
S315020D9DD005460020ADF8040000901F294FF0010042
S315020D9DE022D81C46063B13F1050F1DD3E2B1089F7F
S315020D9DF0D7B141F020008DF806000DF106000130B5
S315020D9E001146224606F06AF96DB16E685EB1286892
S315020D9E10631C0DF106016A46B04728B99DF800008C
S315020D9E203870002000E0012003B0F0BDB0B582B05D
S315020D9E301546024600208DF806004FF001008DF8FA
S315020D9E40071072B16DB154685CB110680DF107015E
S315020D9E500DF106020123A04718B99DF806002870D8
S315020D9E60002002B0B0BD94460A4600294FF001010A
S315020D9E700AD012F08F0307D180B507216346FFF78B
S315020D9E807EFF0146BDE88040084670470A46E2213C
S315020D9E90FFF7CCBFF0B581B005464FF66070ADF851
S315020D9EA002000020ADF800004FF00100E5B10E46AC
S315020D9EB0D1B11746C2B16C68B4B128680DF1020171
S315020D9EC06A460223A04778B99DF801109DF8000055
S315020D9ED021293870317006D32846E2213A46FFF71A
S315020D9EE0A5FF062000E0002001B0F0BD2DE9F041EE
S315020D9EF092B00D46074601A821219846144606F052
S315020D9F00E9F8A4F1210010F1200F4FF0010024D33E
S315020D9F101DB3B8F1000F20D061208DF827000DF189
S315020D9F20270001302146FF2206F0CFF8A7B17E6841
S315020D9F3096B1386801AF631C0DF127013A46B04759
S315020D9F4058B99DF80400791C88F800002846224667
S315020D9F5006F0C4F8002000E0012012B0BDE8F08141
S315020D9F602DE9F04192B00E46054601A821211F4664
S315020D9F70144606F0AFF8A4F1210010F1200F4FF0B0
S315020D9F80010025D326B3DDF86080B8F1000F1FD08E
S315020D9F906FF05F00002F18BF6FF04F008DF827008E
S315020D9FA00DF1270001303146224606F097F875B1BC
S315020D9FB06F6867B12868631C0DF1270101AAB847BE
S315020D9FC030B99DF8040088F80000002000E0012059
S315020D9FD012B0BDE8F081022984BF0120704770B529
S315020D9FE082B014460E460DF107020621234605469A
S315020D9FF0FFF79AFE88B99DF80700022E20F0280079
S315020DA00003D026B940F0200001E040F00800C2B2AC
S315020DA010284606212346FFF7B2FE02B070BD03297C
S315020DA02084BF0120704770B582B014460E460DF1FD
S315020DA0300702062123460546FFF776FE60B99DF80F
S315020DA040070006F07F0100F0F90040EA41022846BA
S315020DA05006212346FFF793FE02B070BD20B3B0B5BD
S315020DA06082B005464068E0B1AA68D2B12869C0B18E
S315020DA0706869B0B128680C460021904790B90DF178
S315020DA0800702284600212346FFF74EFE50B99DF8DA
S315020DA0900700002100F0FD0228462346FFF76FFE5A
S315020DA0A000E0012002B0B0BD01207047F0B581B0CD
S315020DA0B0044600284FF001003CD00D46012939D83F
S315020DA0C06068B0B31646A2689AB3206988B3606910
S315020DA0D078B320680021904760BB0DF1030220463C
S315020DA0E000213346FFF720FE20BB9DF803700220A8
S315020DA0F007F0FC01012D08BF03200A18BA4205D04C
S315020DA100204600213346FFF73AFE98B9B80703D425
S315020DA1102068626902219047012D08D12068A26844
S315020DA1200121904730B92068226996219047002077
S315020DA13000E0012001B0F0BD2DE9F04182B00546E7
S315020DA14000294FF001004FD01446002A4CD0887AD0
S315020DA1500E46063810F1030F45D3F07A7D2842D804
S315020DA160307B213810F1200F3DD3707B0F283AD862
S315020DA170B07B0F2837D8F07B022834D8307C0328E1
S315020DA18031D8707C02282ED84FF0010065B3B17C10
S315020DA190012929D8686830B3AA6822B3286910B391
S315020DA1A0686900B3286800219047E8B92846214618
S315020DA1B0FFF754FFC0B92846E1212246FFF736FEC6
S315020DA1C090B92846E2212246FFF730FE60B92846AD
S315020DA1D0072170222346FFF7D2FD28B9B07A811FD7
S315020DA1E0C9B2FD2903D2012002B0BDE8F0810238C1
S315020DA1F0C2B2284603212346FFF7C1FD0028F3D13B
S315020DA200F27A7D2AEFD8284605212346FFF7B7FDB8
S315020DA2100028E9D1F17B28462246FFF7DCFE00280D
S315020DA220E2D1317C28462246FFF7F9FE0028DBD122
S315020DA230B37A981FC0B2FD28D5D3284610213246CF
S315020DA2400094FFF7C3FD0028CED1B37A981FC0B292
S315020DA250FD28C8D3721D28460A210094FFF7B6FDC4
S315020DA2600028C1D1F27C284601212346FFF787FD3E
S315020DA2700028B9D12846022101222346FFF77FFD88
S315020DA2800028B1D1707BB17B00F00F0041EA0012BC
S315020DA290284604212346FFF772FD0028A4D1377DF7
S315020DA2A096F81580B07DB900B8F1000F18BF0621DA
S315020DA2B001432846224600F0AEF8002894D1B8F1A3
S315020DA2C0000F18BF0127D5F804C00020ADF8040011
S315020DA2D03C20BCF1000F8DF806008DF807703FF497
S315020DA2E082AF28680DF1060101AA0223E047002874
S315020DA2F07FF47AAF9DF804002070317D002000298D
S315020DA3004FF0000104D1717D00290CBF317B002174
S315020DA3106F68ADF804003120002F8DF806008DF818
S315020DA32007103FF460AF28680DF1060101AA02235A
S315020DA330B84700287FF458AF9DF804002070707C52
S315020DA340F17C0246002818BF0822022808BF0C22FB
S315020DA3506F6842EAC1000021ADF804102021002FDA
S315020DA3608DF806108DF807003FF43DAF28680DF104
S315020DA370060101AA0223B84700287FF435AF9DF8DE
S315020DA380040020706F68E1208DF806000020002F72
S315020DA3908DF804003FF427AF28680DF1060101AAD6
S315020DA3A00123B84700287FF41FAF9DF804002070E3
S315020DA3B06F68E2208DF806000020002F8DF804004C
S315020DA3C03FF411AF28680DF1060101AA0123B84722
S315020DA3D000287FF409AF9DF8040020706F680020F5
S315020DA3E0ADF8040047F22700002FADF806003FF442
S315020DA3F0FAAE28680DF1060101AA0223B847002814
S315020DA4007FF4F2AE9DF8040022462070B17C2846F8
S315020DA410FFF74CFEE8E670B582B0064647F25030BD
S315020DA42015460C46ADF804000020ADF80200304684
S315020DA4301D2122462B46FFF7A2FCA0BB0DF10702FA
S315020DA44030461D212B46FFF76FFC60BB9DF80700BA
S315020DA45000F00700844201D1002024E016B3D6F89D
S315020DA46004C0BCF1000F1DD0306801A90DF1020226
S315020DA4700223E047B8B930461D2122462B46FFF787
S315020DA4807EFC80B90DF1070230461D212B46FFF7E2
S315020DA4904BFC40B99DF8070000F00700201A18BFC3
S315020DA4A0072000E00120C0B202B070BD2DE9F043D5
S315020DA4B083B0002955D000270C460F700DF103020B
S315020DA4C00DF1010305210546FFF72EFC08B10646DF
S315020DA4D048E09DF8039040F2092109F1250000FBA1
S315020DA4E001F10A0C9201A2EB1141A0EB41082520C4
S315020DA4F0ADF804708DF806008DF807808DB36F6880
S315020DA5007FB328680DF1060101AA0223B847064654
S315020DA51040BB0DF102020DF1010328460521FFF79D
S315020DA52003FCB9F17D0F06460FD86F680020ADF812
S315020DA530080025208DF80A008DF80B902FB128689A
S315020DA5400DF10A0102AA0223B8475EB99DF802006F
S315020DA5501FFA88F1081AB0FA80F040090026207019
S315020DA56000E00126304603B0BDE8F0832DE9F04F39
S315020DA57083B0044600284FF0010000F0D580DDF8C7
S315020DA58030A0BAF1000F00F0CF800F46A2F12101E3
S315020DA590164611F1200FC0F0C780002F00F0C480BF
S315020DA5A0DDF83490B9F1000F00F0BE806068002826
S315020DA5B000F0B980A068002800F0B5802069002857
S315020DA5C000F0B1806069002800F0AD800DF107083A
S315020DA5D04FF0000B2046002142461D4689F804B075
S315020DA5E0C9F800B0FFF762FD002840F09D80D4F84F
S315020DA5F004C0E120BCF1000F8DF80A008DF808B0F9
S315020DA60000F0918020680DF10A0102AA0123E047AC
S315020DA610002840F08980D4F804C00020ADF8080067
S315020DA62047F22700BCF1000FADF80A007BD0206877
S315020DA6300DF10A0102AA0223E047002874D19DF802
S315020DA640080039468DF80700204632462B46CDF8CE
S315020DA6500080FFF785FC002866D12068A2680121DB
S315020DA6609047002860D1206822691E2190472068F4
S315020DA670A268002100259047002855D14FF0FF080A
S315020DA6800DF10A0B02AEE2688DF806502AB120686A
S315020DA6900DF106019047002846D167688DF80A80AC
S315020DA6A0002F8DF808503ED02068594632460123B8
S315020DA6B0B847C8BB9DF80870F80638D4B80648D412
S315020DA6C02068626901219047BAF1010ADBD16768F8
S315020DA6D0FF208DF80A0000208DF8080057B120687A
S315020DA6E00DF10A0102AA0123B84718B99DF808000F
S315020DA6F089F800000DF1070509F10102204608212E
S315020DA7002B46FFF711FB09F10202204600212B46CB
S315020DA710FFF70AFB09F10302204617212B46FFF725
S315020DA72003FB032000E0012003B0BDE8F08F65684E
S315020DA73000264FF60870ADF80860ADF80A0035B17F
S315020DA74020680DF10A0102AA0223A84798B1002535
S315020DA75013E0666800254FF60870ADF80850ADF89F
S315020DA7600A0036B120680DF10A0102AA0223B0478A
S315020DA77028B3002027E09DF80950ADF808606668F9
S315020DA78041F22700ADF80A009EB120680DF10A01CB
S315020DA79002AA0223B0476668E1208DF80A0000205E
S315020DA7A08DF808002EB120680DF10A0102AA0123C7
S315020DA7B0B04789F8007089F801500420B4E79DF876
S315020DA7C008709DF8090089F80100C7F3801089F811
S315020DA7D0007089F80400676842F22700ADF8085048
S315020DA7E0ADF80A002FB120680DF10A0102AA022363
S315020DA7F0B847002098E7D4D42DE9F04F83B00C4624
S315020DA8000C990125002900F0BD808046181F1E46B1
S315020DA81010F1030FC0F0B680002C00F0B38017467E
S315020DA820002A00F0AF80DDF83490B9F1000F00F088
S315020DA830A98020463946324650F8043B002B00F0DB
S315020DA840A0800B78213B13F1200FC0F09A80013ABC
S315020DA85001F10101F0D1B8F1000F00F09280D8F8A4
S315020DA8600400002800F08D80D8F80800002800F0BA
S315020DA8708880D8F81000002800F08380D8F81400DC
S315020DA88000287ED04FF0000A89F804A0C9F800A06E
S315020DA890D8F80000D8F80820002190470546002870
S315020DA8A070D1D8F8045043F22700002DADF808A058
S315020DA8B0ADF80A0065D0D8F800000DF10A0102AA1A
S315020DA8C00223A847054600285CD10DF1070AB346B7
S315020DA8D054F8041B17F8012B40460123CDF800A0AE
S315020DA8E0FFF73EFB48B9BBF1010BF1D1D8F80000D9
S315020DA8F0D8F808200121904788B1D8F8047005468A
S315020DA900E1208DF80A0000208DF80800D7B3D8F89B
S315020DA91000000DF10A0102AA0123B84732E0962181
S315020DA9204FF4AF72D8F80000D8F8103016FB0211AA
S315020DA9309847D8F80000D8F808200021002490473F
S315020DA94050B1D8F804700546E120002F8DF80A00A3
S315020DA9508DF80840DBD115E0D8F804704FF6177064
S315020DA960ADF80840ADF80A005FB1D8F800000DF158
S315020DA9700A0102AA0223B84740B10546D8F8047067
S315020DA980BEE70125284603B0BDE8F08F9DF8080005
S315020DA9909DF8091089F80000C80689F8031011D42C
S315020DA9A0D8F80470E1208DF80A0000208DF8080011
S315020DA9B037B1D8F800000DF10A0102AA0123B847F2
S315020DA9C00325DFE7D8F804700020ADF8080042F23F
S315020DA9D02700ADF80A0037B1D8F800000DF10A01CB
S315020DA9E002AA0223B8470025CCE7F0B581B0074687
S315020DA9F04FF0010001B31446F2B11D46E3B10E4606
S315020DAA003846FF212A46FFF711FAA8B90DF10302BE
S315020DAA10384617212B46FFF787F968B99DF80300CB
S315020DAA20012121EA000030702878C0F34200052882
S315020DAA3088BFFF202070002001B0F0BD10B588B090
S315020DAA4040F678710020C2F218218DF808008DF8B3
S315020DAA500700FEF7DDFF002842D140F67870C2F2FC
S315020DAA6018200DF10701FFF721FD00284FF0020016
S315020DAA7036D19DF80710C90732D00DF109042046CB
S315020DAA80FFF733F940F64C00ADF814000120022110
S315020DAA908DF81B008DF8181040F201118DF81F006C
S315020DAAA040F69070ADF81C10C2F21820002101700C
S315020DAAB040F69170C2F21820017040F69270C2F201
S315020DAAC01820017040F20410C2F2182032210170D2
S315020DAAD040F67870C2F2182002AA2146FFF72CFB27
S315020DAAE008B010BD014600284FF0010008BF70479F
S315020DAAF02DE9F04F93B00EA840F6787740F6907593
S315020DAB004FF000090F30C2F218270DF137040DF17F
S315020DAB103506C2F218254FF0030A0091C1F80090CE
S315020DAB20019000BF384621460DF1360233468DF8A7
S315020DAB3037908DF836908DF83590FFF756FF002831
S315020DAB4040F0FA809DF83700002800F0E080384684
S315020DAB500DA932468DF83490FFF79CF9002840F086
S315020DAB60EB809DF834B0ABF1210010F1210F40F2CC
S315020DAB70DA80A84605AD2846202105F0ABFA3846FF
S315020DAB8029465A463346FFF7B1F9002840F0D480DC
S315020DAB909DF83410284603AA0DF10A03ADF80A9062
S315020DABA0FEF73AFE0028454600F0AD8029789DF85D
S315020DABB0120069B140F69371C2F2182109788842E2
S315020DABC000F0A180411A49B2002903D59BE000BFCE
S315020DABD00121297040F69371C2F21821A34608701D
S315020DABE0BDF80A4001218DF83810ADF83A900F9054
S315020DABF004F0C4FD109040F20410C2F21820007841
S315020DAC0001998DF846009DF80E00ADF84490013875
S315020DAC100528C1F8009081F8049000F26E80DFE8F5
S315020DAC2000F003241C386C469DF80F008DF8399000
S315020DAC3000285FD040F69170C2F218200078C00746
S315020DAC4058D04FF0FF3050FA84F0032852D8DFE87F
S315020DAC5000F0024E4A4C01204AE0042C33D840F64D
S315020DAC602660C0F20E20005D2EE040F69170C2F213
S315020DAC701820002C18BF012404701FBF40F69270D5
S315020DAC80C2F2182000785FEAC07028D18DF839908B
S315020DAC9030E040F69270C2F21820002C18BF012443
S315020DACA0047004208DF839008DF8454022E001200C
S315020DACB08DF839005020002C18BF01248DF848401C
S315020DACC08DF8470016E0642040F20411C2F21821F5
S315020DACD0087002218DF839108DF846000AE003201E
S315020DACE08DF8390006E0032002E0042000E0022080
S315020DACF08DF844000EA8FEF73BFA00995C460868EB
S315020DAD00454601300860BAF1010A7FF40BAF002007
S315020DAD108DF8140040F67870C2F2182005AA40216B
S315020DAD20FFF7A1F808E040F67870C2F218200DF18F
S315020DAD303501FFF7ABF8062013B0BDE8F04F7047AB
S315020DAD4010B588B0002040F694718DF808008DF884
S315020DAD500700C2F218210120FEF75AFE68BB40F623
S315020DAD609470C2F218200DF10701FFF79FFB002820
S315020DAD704FF0020021D19DF80710C9071DD00DF124
S315020DAD8009042046FEF7B1FF42F26400ADF8140045
S315020DAD9000208DF81B0002208DF8180040F20110DC
S315020DADA0ADF81C0001208DF81F0040F69470C2F21A
S315020DADB0182002AA2146FFF7BFF908B010BDD4D458
S315020DADC0002800F08280016800297ED041680029A2
S315020DADD07BD0C189F02978D1018A882975D12DE9CF
S315020DADE0F04FADB090E8EC0028A9ECC1299D28469C
S315020DADF0FEF75CFD00286AD004462A9820B92898E9
S315020DAE002946FEF735FD2A9020AD28A82946FEF7DC
S315020DAE105DFD08A83221CDE9001040F69470C2F20C
S315020DAE201820294620220023FFF7A0FB00284FD128
S315020DAE304FF0000A0DF1A0090DF1140B0DF11107DA
S315020DAE40002500BF0295002308AD00BF1FFA8AF147
S315020DAE5048462A461E46FEF779FD0AF1010A2020CA
S315020DAE60731C012E1FFA8AF84BF82650B85503D8D3
S315020DAE70A04505F12005E9D340F69470C2F21820DB
S315020DAE8059463A46322603ADCDE90065FFF7B4FCC5
S315020DAE90F0B9029D0135680702D1012004F012FABC
S315020DAEA0A045CFD320AC28A82146FEF783FD40F658
S315020DAEB094703227C2F2182021462022002308AEB2
S315020DAEC0CDE90076FFF752FB02E001207047012023
S315020DAED02DB0BDE8F08F70B518B3044600F073FCC3
S315020DAEE040F6AC70C2F2182040F6C47C0178C2F26C
S315020DAEF0182C9CF8002081F0010141EA020E5FEA4E
S315020DAF00CE7209D140F6B072C2F2182292E86B00E7
S315020DAF106BC401208CF800008EF0010400F07EFC5B
S315020DAF2000E0002404F0010070BDB0B50C460546E4
S315020DAF3000F049FC40F6AC70C2F2182001780129E6
S315020DAF401FD140F6C471C2F218210A78CAB140F671
S315020DAF50B072C2F218229289954212D140F6C67289
S315020DAF60C2F21822158040F6C872C2F21822147067
S315020DAF7040F6C972C2F21822012313700022027022
S315020DAF800A70BDE8B04000F049BCD4D482B0FFF7D8
S315020DAF9055FD48B1014640F69E20C0F20E2000F046
S315020DAFA022F8002004F0BDF940F62E30C0F20E2034
S315020DAFB000F019F840F2D745002601ACC0F20E2575
S315020DAFC01420FEF71CFE20460196FFF78BFD002886
S315020DAFD0F6D001460528F3D0284600F004F80A20DB
S315020DAFE004F070F9ECE783B080B581B0844603A80E
S315020DAFF00EC003A800906A4600206146FEF7EEF9E0
S315020DB00001B0BDE8804003B07047D4D440F6CC728F
S315020DB010C2F21822106040F6D070C2F218200160FA
S315020DB020012080F3108800BF00BFFDE7022818BF7C
S315020DB030704741F27C0040F6D861C2F21820C0F288
S315020DB0400E2101F070BAD4D4012004F03BF9FBE7CE
S315020DB0508EB0FEF771F838B106A8FDF7CDF918B125
S315020DB06006A8FDF7A3FD50B1FEF74EF840F25D605E
S315020DB070C0F20E2000F0CEF8002004F052F904F0D2
S315020DB0807DFB0746009040F24040C0F20E2000F0D4
S315020DB090C1F89FED5F8A4FF0000A0DF1040B6E4663
S315020DB0A040F6C4184FF000093D4600BF5846FEF75C
S315020DB0B077F8002848D09DF80500B9F1020F18BFA0
S315020DB0C0052841D1052825D8DFE800F0031B0F140A
S315020DB0D00A229DF810009DF81210FDF71DFF19E0CA
S315020DB0E09DF81100FDF7FAFF14E09DF81200FDF729
S315020DB0F09FFF0FE09DF81200FDF79AFFFDF778FF0F
S315020DB10008E09DF813109DF81400FDF7B1FF01E05C
S315020DB110FDF7FAFF04F032FB9DF805109DF8044089
S315020DB120052907460AD140F6B920C0F20E2000F0D5
S315020DB13071F8012C4FF002093FD05BE0601EB0FAA8
S315020DB14080F04FEA501A00BFB9F1010F1CD0B9F1C8
S315020DB150000F2FD104F012FB401B40452AD30120CC
S315020DB1605A21FDF7D9FE054604F008FB002D0546CA
S315020DB17033D0A5F516654FF000095FEACA704FF098
S315020DB180000A1AD138E000BF04F0F8FA401B40F667
S315020DB190B83188420ED3002000214FF0000AFDF788
S315020DB1A0BBFE40F27140C0F20E2000F033F84FF0B4
S315020DB1B0020921E05FEACA701CD004F0DFFAC01B57
S315020DB1C0C92807D3002000214FF0000AFDF7A4FE7F
S315020DB1D012E000BF4FF0010A0EE040F28A50C0F2B3
S315020DB1E00E205A2100F016F85FEACA704FF00109D7
S315020DB1F0E3D100BF4FF0000AB0EE480AFDF75CFD41
S315020DB20008B1FDF781FF30460A2103F0CFFE4DE767
S315020DB2100AD7233C83B080B581B0844603A80EC0FD
S315020DB22003A800906A4600206146FEF7D7F801B0E2
S315020DB230BDE8804003B0704786B0FFF781FD48B187
S315020DB240014640F64720C0F20E2000F02BF80020F2
S315020DB25004F067F840F29C40C0F20E2000F022F88E
S315020DB26040F2652501ACC0F20E2500BF2046FFF760
S315020DB27032FE98B12046FFF7A3FD0646BDF8100033
S315020DB280B6FA86F14909FFF750FE002EEED0BDF84B
S315020DB29010102846324600F005F8E7E7012004F0C3
S315020DB2A011F8E3E783B080B581B0844603A80EC0DA
S315020DB2B003A800906A4600206146FEF78FF801B09A
S315020DB2C0BDE8804003B07047012003F0FBFFFBE7AA
S315020DB2D080B584B041F2F400C2F21820016841F241
S315020DB2E0040C0131016042F22800C2F21820062137
S315020DB2F0CDE900104BF23B3040F2F54140F66C635E
S315020DB300C2F2182CC0F20D20C0F20E21C0F20E238D
S315020DB3104FF40072CDF808C003F02AFD41F2680120
S315020DB320C2F21821086008B104B080BD00200021C8
S315020DB33004B0BDE8804000F04AB810B5044600F0EE
S315020DB34049F82046BDE81040FFF720BE7047FFF7CB
S315020DB350FDBF80B584B041F2F400C2F21820016837
S315020DB36041F2840C0131016042F62800C2F2182026
S315020DB3700521CDE900104BF2BD3040F2B05140F639
S315020DB3809463C2F2182CC0F20D20C0F20E21C0F247
S315020DB3900E234FF40072CDF808C003F0E9FC41F21A
S315020DB3A0E801C2F21821086008B104B080BD002080
S315020DB3B0002104B0BDE8804000F009B810B504467E
S315020DB3C000F008F82046BDE81040FFF73DBE00BE6E
S315020DB3D07047D4D4B0B541F2EC04C2F218242068F9
S315020DB3E04FF0FF3103F0A8FB012803D0206800219E
S315020DB3F0FFF7EDFF41F2F000C2F21820017801B11C
S315020DB400B0BD01210170FFF7A2FF41F2F405C2F2B0
S315020DB410182500BF286801382860F1D02068002160
S315020DB4200022002303F0DCF80128F3D02068002166
S315020DB430FFF7CDFFEEE780B541F2F400C2F2182018
S315020DB4400021016041F2F000C2F2182041F2F80229
S315020DB4500170C2F218224FF48070012103F0A0F898
S315020DB46041F2EC01C2F21821086018B90020002140
S315020DB470FFF7ADFF00F026F8FFF72AFF00F060F8A0
S315020DB48000F09CF8FFF765FF04F01FF8002080BD61
S315020DB49041F24013C2F21823036041F2A410C2F224
S315020DB4A01820086080201060704741F2A433C2F262
S315020DB4B01823036041F20840C2F21820086080206A
S315020DB4C01060704780B584B041F2F400C2F21820C4
S315020DB4D0016841F2B86C0131016043F22800C2F2F3
S315020DB4E018200721CDE900104BF22F5040F2BF7103
S315020DB4F041F2F403C2F2182CC0F20D20C0F20E2155
S315020DB500C0F20E234FF44072CDF808C003F030FCA2
S315020DB51041F21C71C2F21821086008B104B080BD57
S315020DB5200020002104B0BDE88040FFF750BF10B5E2
S315020DB5300446FFF74FFF2046BDE81040FFF788BDD2
S315020DB54080B584B041F2F400C2F21820016841F2CE
S315020DB550507C0131016043F62840C2F218200421C5
S315020DB560CDE900104BF2AB5040F2EA2141F238130D
S315020DB570C2F2182CC0F20D20C0F20E21C0F20E231B
S315020DB5804FF44072CDF808C003F0F2FB41F2B471EC
S315020DB590C2F21821086008B104B080BD0020002156
S315020DB5A004B0BDE88040FFF712BF10B50446FFF7A1
S315020DB5B011FF2046BDE81040FFF73EBE80B584B0B0
S315020DB5C041F2F400C2F21820016841F2B87C013151
S315020DB5D0016044F62800C2F218200321CDE90010BD
S315020DB5E04BF2276040F6E52141F23C13C2F2182CCC
S315020DB5F0C0F20D20C0F20E21C0F20E234FF440729E
S315020DB600CDF808C003F0B4FB41F61C01C2F21821B5
S315020DB610086008B104B080BD0020002104B0BDE869
S315020DB6208040FFF7D4BE10B50446FFF7D3FE204681
S315020DB630BDE81040FFF748BE1EF0040F0CBFEFF336
S315020DB6400880EFF30980014908470000DFB60D02B5
S315020DB6500F4B1968EFF309821EF0100F08BF22ED8A
S315020DB660108A22E9F04FEFF30B8342F8043D0A608C
S315020DB6704FF0100080F31188BFF34F8FBFF36F8F1A
S315020DB68003F0CAFE4FF0000080F3118800F002B8F5
S315020DB690481D1822074801680A6802CA81F30B88F9
S315020DB6A0B2E8F04F1EF0100F08BFB2EC108A82F30B
S315020DB6B009887047481D182210B5EFF31184102022
S315020DB6C080F3118803F084FF30B14EF60450CEF2AA
S315020DB6D000004FF08051016084F3118810BD80691E
S315020DB6E010F8020C022808BFFFF7D4BF042838BF92
S315020DB6F0704780B540F2A31040F22B7240F2D4236C
S315020DB700C0F20E20C0F20E22C0F20E234FF47E714D
S315020DB71002F036FC283140F8481D4BF23D71C0F25D
S315020DB7200D214FF0807C22F00102C1636FF0020100
S315020DB7300264C0F844C0C0E90913704700BE00BFD9
S315020DB740FEE7D4D44EF62250CEF20000F02101705F
S315020DB75000F016F84EF63470CEF20000016841F094
S315020DB7604041016062B6BFF36F8FEFF3148C2CF07C
S315020DB770040C8CF31488BFF36F8F02DF00BEFDE756
S315020DB78041F6E000C2F21820006844F6D351C1F228
S315020DB7906201A0FB01014FF0FF3000EB9111002079
S315020DB7A0B0EB116F18BF70474EF21002CEF20002C7
S315020DB7B051604EF62351CEF20001F0230B709060CC
S315020DB7C00720106070471021EFF3118081F3118865
S315020DB7D041F62001C2F218210A68531C0B605AB9B0
S315020DB7E041F62401C2F2182108604EF60450CEF23B
S315020DB7F000000068C00500D1704780B540F2A31065
S315020DB80040F2C91240F29C63C0F20E20C0F20E2223
S315020DB810C0F20E2340F2A44102F0B2FB41F6200023
S315020DB820C2F21820016859B10139016018BF70477B
S315020DB83041F62400C2F21820006880F31188704781
S315020DB84080B540F2A31040F6414240F26513C0F2B4
S315020DB8500E20C0F20E22C0F20E2340F2AD4102F0CE
S315020DB8608FFB80B598B34EF6902EC4F2010E9EF85C
S315020DB87000100A0722D04EF2FA32C4F201021388E0
S315020DB8804AF2025CCFF6FF7C0020A2F800C08EF8C9
S315020DB890000043F425401080BFF34F8F30BFBFF336
S315020DB8A06F8F62B6BFF36F8F72B61088A2F800C0A3
S315020DB8B040F425408EF80010108080BDBFF34F8FE7
S315020DB8C030BFBFF36F8F62B6BFF36F8F72B680BD97
S315020DB8D080B572B603F0D4FB0120FFF7C2FF62B644
S315020DB8E0BDE8804003F026BC80B5EFF30380103827
S315020DB8F040B2002806D44EF20041CEF20001405C61
S315020DB9000F2817D94EF60C50CEF2000000684005EE
S315020DB91058BF80BD40F2A31040F6152240F2DF3328
S315020DB920C0F20E20C0F20E22C0F20E2340F22161A9
S315020DB93002F026FB40F2A31040F6152240F6E43340
S315020DB940C0F20E20C0F20E22C0F20E2340F20F619B
S315020DB95002F016FB2DE9F04F81B083464CF200083A
S315020DB9600F690878C4F235080D4608EB002487B135
S315020DB97078684FF00061006801607868006884603D
S315020DB980D7E901123868126890470646002840F03A
S315020DB9904B816869B8B141684FF4002209680A60A3
S315020DB9A0416809684C60D0E9011200681268904737
S315020DB9B006462FB126B1B9683868096A884733E158
S315020DB9C0002E40F03181CBF80450A8694FF0000AE1
S315020DB9D0CBF82400E869CBF828A0CBF82C00287800
S315020DB9E04FF4441408EB002ECBF808E06A7AA97AD4
S315020DB9F0EF7A6E7B002A08BFA8F59624286A41EADB
S315020DBA004701C77941EA06352E4644EAC77708BF8C
S315020DBA1046F080060478437890F802C0C178002C6F
S315020DBA201CBF2E4647F08077002B08BF47F4003720
S315020DBA30447947EA0377012C4FF4807308BF4FF41C
S315020DBA404073002C18BF1F43447A46EA0163867978
S315020DBA5090F80880057904F00304009643EA8406FB
S315020DBA6082B9437B012B07D1DEF8443047F40057E8
S315020DBA7043F44073CEF844304389007B46F4604666
S315020DBA8043EA004A4FF40019022D08BF4FF440193C
S315020DBA90EFF31084012282F31088DBF80400002DE7
S315020DBAA008BFA946007843F20403C4F22003C0F18D
S315020DBAB013001D6802FA00F025EA000018600CFA60
S315020DBAC001F118684CF2003541EA08281E200121C1
S315020DBAD0C4F2000502F057FA84F31088DBF8080069
S315020DBAE00021CFF680518166DBF80800C0F8108080
S315020DBAF0DBF80800C0F804A0DBF80800C0F80C90CB
S315020DBB00DBF808004661DBF8080000990164DBF8F2
S315020DBB10080027F080418160DBF8080081688760A4
S315020DBB20DBF8041041F68C0091F90220C2F21820BE
S315020DBB30002A23D489794EF20016CEF200060901A7
S315020DBB40B31883F8001340F822B055F822100123DA
S315020DBB5021F4803145F8221055F8221002F01F010A
S315020DBB60520903FA01F106EB8203BFF35F8FC3F8A5
S315020DBB70801146F82210DBF8041003E04EF200168F
S315020DBB80CEF2000691F90120002A1ED44979B31886
S315020DBB90090183F8001340F822B055F8221001234B
S315020DBBA021F4803145F8221055F8221002F01F01BA
S315020DBBB0520903FA01F106EB8203BFF35F8FC3F855
S315020DBBC0801146F82210DBF804100A7A91F9041056
S315020DBBD0120106F540735A5440F821B055F821204A
S315020DBBE0012722F4803245F8212055F8212001F053
S315020DBBF01F02490907FA02F206EB8107BFF35F8FAF
S315020DBC00C7F8802146F82120DBF804100026CA79F0
S315020DBC1091F9031012015A5440F821B045F2490028
S315020DBC20C5F25320CBF80000304601B0BDE8F08FC7
S315020DBC3080B582B09C4613460A460021CDF800C057
S315020DBC4000F08EF802B080BD80B582B09C461346D8
S315020DBC500022CDF800C000F083F802B080BDDDF8F9
S315020DBC6000C0CDF800C000F07BB88446C0E90913C8
S315020DBC700020CCF82C20704710B5044600214068F0
S315020DBC802160416921B18A680868116A884760682E
S315020DBC90006918B181680068096A8847A0688168D9
S315020DBCA021F44C11816061684EF2801091F90220E7
S315020DBCB0CEF20000002A0CD402F01F01012303FA72
S315020DBCC001F1520940F82210BFF34F8FBFF36F8F68
S315020DBCD0616891F90120002A0CD402F01F0101239B
S315020DBCE003FA01F1520940F82210BFF34F8FBFF349
S315020DBCF06F8F616891F90310012301F01F0203FA98
S315020DBD0002F2490940F82120BFF34F8FBFF36F8F1F
S315020DBD10616891F9041001F01F0203FA02F2490952
S315020DBD2040F82120BFF34F8FBFF36F8FA068816854
S315020DBD3021F001018160A0680021CFF68051816654
S315020DBD40A068C3666068417A41B9006A407B0128E2
S315020DBD5004D1A068416C21F440714164002010BDEC
S315020DBD602DE9F04104468068006E10B10820BDE849
S315020DBD70F0810698002704F10C0C88468CE88600A3
S315020DBD80C4E9067384F82000072888BF4FF0805750
S315020DBD9061680F2848691E4688BF4FF0005700B3E9
S315020DBDA0A66148694FF6FF754168CCF6F3750968C9
S315020DBDB00B68CE8103EA050343EA070343F4002524
S315020DBDC00D608A602AB941F62802C2F218220B606A
S315020DBDD08A60826800685268904708B1BDE8F081B2
S315020DBDE06168086990B366610869416809680A68FD
S315020DBDF022F040523A430A6063685F7A3FB91B6A82
S315020DBE002BB15B7B012B02D1E369012B42D1CE8192
S315020DBE1022F0406202F10063B8F1000F0B60C1F827
S315020DBE20048005D10A6041F62C02C2F218224A603C
S315020DBE30A268936823F4801393608268006852683F
S315020DBE409047002818BFBDE8F0816168A068426975
S315020DBE504B7A94F8207022F4F81242EA07425BB943
S315020DBE60096A49B1497B012906D1E16901290CBF4C
S315020DBE7022F0800242F080024261A0680121C16671
S315020DBE80A068816841F4801141F0010181600020B2
S315020DBE90BDE8F081721E6261CA810A68B8E780B593
S315020DBEA0EFF303804FF0704101EB00604CF200316D
S315020DBEB08015C4F20001425822F480324250415894
S315020DBEC041F68C01C2F218210858D0E906129142A8
S315020DBED022D002694AB190F820E0BEF1100F07D3C5
S315020DBEE083681B6842F821300CE08268126809E00B
S315020DBEF08368BEF1080FD3F800C034BF02F801C043
S315020DBF0022F811C082684FF000439366C26901316F
S315020DBF109142816118BF80BD4068012290F90300EC
S315020DBF2000F01F0102FA01F14EF200124009CEF2A3
S315020DBF30000242F8201080BDEFF303804FF07042ED
S315020DBF404CF2003102EB0060C4F20001801542583A
S315020DBF5022F480324250425841F68C02C2F2182225
S315020DBF6010584268136A5B78012B36D1C369D0F833
S315020DBF7014C0013B9C451DD192F903204EF2001CC3
S315020DBF8051F82230CEF2000C23F4803341F82230E0
S315020DBF9051F8221002F01F010123520903FA01F191
S315020DBFA00CEB8203BFF35F8FC3F880114CF822109E
S315020DBFB000F016B81169002908BF00F011B892F900
S315020DBFC00310012301F01F0203FA02F24EF20013CF
S315020DBFD04909CEF2000343F8212000F001B8D4D46A
S315020DBFE042684169537A83B9126A72B1527B012A48
S315020DBFF00BD18268136D9B0028D5C369013B99420B
S315020DC00003D1536923F080035361C269914208BF7C
S315020DC01070478268136D9B00FCD5C3683BB190F8DF
S315020DC02020C0BCF1100F04D353F8213007E00023D2
S315020DC03005E0BCF1080F34BF5B5C33F811301360B9
S315020DC04082684FF0005301319366416170474FF09C
S315020DC05070424CF20031EFF3038002EB0062C4F240
S315020DC06000019015435823F480334350435841F64B
S315020DC0708C03C2F21823185883681B6D9B0104D5D5
S315020DC08043685B7A012B18BF704780B513164EF2C3
S315020DC090001ECEF2000E03F01F024FF0010C5B09DB
S315020DC0A00CFA02F20EEB8303C3F88020BFF34F8F17
S315020DC0B0BFF36F8F426892F90230002B2AD403F038
S315020DC0C01F025B090CFA02F20EEB8303C3F8802002
S315020DC0D0BFF34F8FBFF36F8F8268936823F001030F
S315020DC0E09360426892F9022051F8223023F480338C
S315020DC0F041F8223051F8221002F01F0152090CFAB2
S315020DC10001F10EEB8203BFF35F8FC3F880114EF878
S315020DC110221004E081688A6822F001028A600121F8
S315020DC120BDE8804000F000B82DE9F04184B0044628
S315020DC130806A0DF1040828B1024692E8E0004346F2
S315020DC140E0C300E040466268127801710260E16A5E
S315020DC1508160616A8847A06A10B198E80E000EC028
S315020DC16004B0BDE8F081F0B581B04FF07041EFF348
S315020DC170038001EB006641F68C01B015C2F218215F
S315020DC1800C584CF200356068C4F2000590F90200B5
S315020DC19000282FD44EF2001300F01F010122400990
S315020DC1A0CEF2000302FA01F103EB8000C0F8801013
S315020DC1B0BFF34F8FBFF36F8FA068816821F0010126
S315020DC1C08160606890F9020055F8201021F48031E3
S315020DC1D045F8201055F8201000F01F01400902FA0B
S315020DC1E001F103EB8002BFF35F8FC2F8801143F8B2
S315020DC1F0201004E0A068816821F001018160A06829
S315020DC2000021076DCFF680513A01816603D520468E
S315020DC2100521FFF789FFF80103D520460421FFF713
S315020DC22083FFF84310F0A05F4FEA266603D120463E
S315020DC2300821FFF779FF55F8260020F4803045F8DE
S315020DC240260055F8260001B0F0BDB0B5EFF3038018
S315020DC2504FF0704101EB00604CF200318015C4F2D3
S315020DC2600001425822F480324250415841F68C0167
S315020DC270C2F218210C58206A01696069C1B9C0B1B0
S315020DC280A07800F003012069022905D10088616AB0
S315020DC29020F4DC40486002E00078616A0871A078FB
S315020DC2A0616900F00302881A2169606111442161F6
S315020DC2B0A0B9616A02228D68A06862F3155510B1A4
S315020DC2C001F0A3FE616A8D60A06A0021216128B189
S315020DC2D020468022BDE8B04000F001B8B0BD2DE980
S315020DC2E0F04385B08146C06A0DF1040830B10546AA
S315020DC2F095E8D800C4468CE8D80000E04046D9F847
S315020DC30020301B78816003600271D9F83010C1604C
S315020DC310D9F828108847D9F82C0010B198E88E0064
S315020DC3208EC005B0BDE8F08310B582B0EFF3038081
S315020DC3304FF0704101EB00604CF200318015C4F2F2
S315020DC3400001425822F480324250415841F68C0186
S315020DC350C2F218210C58A07800F00302606A022A74
S315020DC36003D101686FF35F2100E00178E069019165
S315020DC37098B1A06901A903F0B1FEA078A169E2699D
S315020DC38000F003000144101AA161E0610ED1A06A0A
S315020DC39060B120460021012203E0A06A30B1204699
S315020DC3A0042202B0BDE81040FFF799BF02B010BDDE
S315020DC3B010B54FF07041EFF3038001EB006141F6CA
S315020DC3C08C028815C2F2182210584FF6EF74426A83
S315020DC3D0CFF6CF74936823409360826A0C161AB116
S315020DC3E000210222FFF77BFF4CF20030C4F200005F
S315020DC3F050F8241021F4803140F8241050F824000E
S315020DC40010BD4FF07041EFF3038001EB006C41F666
S315020DC4108C014FEAAC50C2F2182108588178436A52
S315020DC42001F00301022903D119686FF35F2100E0C0
S315020DC4301978B0B59A6C202404EAD24E1024082538
S315020DC44014EA126405EA12627244224403D09D6C08
S315020DC4502D0458BF40329D6E4FEA2C6445F0C855E7
S315020DC4609D66836A0BB1FFF73AFF4CF20030C4F2B8
S315020DC470000050F8241021F4803140F8241050F8B1
S315020DC4802400B0BDB0B5EFF303804FF0704101EB60
S315020DC49000604CF200318015C4F20001425822F4BC
S315020DC4A080324250415841F68C01C2F218210C5885
S315020DC4B0E0680568E80304D520464FF4803100F0A4
S315020DC4C00BF835F4403508BFB0BD2046294600F0BD
S315020DC4D003F8E0680561B0BD2DE9F04184B004466C
S315020DC4E04069E84630B1034693E8E400C4468CE859
S315020DC4F0E40000E040466268B1F5803F1268816053
S315020DC5000260A269C26002D1E168C96800E0002139
S315020DC510416021698847606910B198E88E008EC026
S315020DC52004B0BDE8F08180B545F25422C5F24F0242
S315020DC5300260084600F028F8002080BD6FF03F002B
S315020DC54000EA9100C9B200EB810040F60001C4F287
S315020DC55040014058C0F34001002011707047C8B227
S315020DC560012383409BB24FF4803C002A08BF0CFA8C
S315020DC57000F36FF0010000EAD11008220101C4F2A6
S315020DC580400200205350704770B5044600F05CF827
S315020DC59041F6880CEFF31080012181F31088C2F267
S315020DC5A0182CDCF8001039B940F61451C4F24001CA
S315020DC5B000220A7040220A70DCF800100131CCF814
S315020DC5C0001080F31088208810B340F6000E00216B
S315020DC5D0C4F2400E606800EBC102928850F8313009
S315020DC5E0100ADD03D2B20BD50EEB801555F822607B
S315020DC5F026F4803645F8226023F4803645F822600B
S315020DC6000EEB801040F82230208801318142E1D3B1
S315020DC610EFF31081012080F31088DCF8000020B1C1
S315020DC620DCF800000138CCF80000DCF8000038B95F
S315020DC63040F61450C4F240000022027080220270AD
S315020DC64081F3108870BDD4D42DE9F04F81B0044624
S315020DC650008800285CD042F240084EF64C4A41F260
S315020DC660581BC4F220080026C4F2010AC0F20E2B92
S315020DC6704FF00109002700BF60683BF8172000EB59
S315020DC680C600818891423CD100689AF8001000F0EC
S315020DC690B85009FA07F5B0F1807F05EA010015D108
S315020DC6A050B9012001F02CFD9AF8000028438AF8B2
S315020DC6B00000012001F0FBFC18F91700002820D418
S315020DC6C018F8170040F0800015E000BF50B10120A8
S315020DC6D001F016FD9AF80000A8438AF80000012021
S315020DC6E001F0E5FC18F91700B0F1FF3F09DC18F867
S315020DC6F0170000F07F0008F81700C820012101F08D
S315020DC70042FC0137032FB7D1208801368642B1D3B9
S315020DC71001B0BDE8F08FF0B581B00C46054608783C
S315020DC7204EF20001C4F2250101EB002028612C60B6
S315020DC730A06843F204076860207BC4F220072872C2
S315020DC740E0696863206AE8630020A863C5E905000D
S315020DC750C5E9070085F8290085F82A0085F82B001A
S315020DC76085F82C00EFF31086012080F310882178CE
S315020DC7703A68C1F10901884022EA0000386038683A
S315020DC7801E20012101F0FFFB86F310882846214663
S315020DC79000F06AF8A06958B141684FF400220968A1
S315020DC7A00A60D0E90112006812689047064698B9E8
S315020DC7B0606928B341684FF0006209680A60D0E9E2
S315020DC7C00112006812689047D0B10646A06918B1E9
S315020DC7D081680068096A8847EFF31085012080F3A6
S315020DC7E0108821783A68C1F10901884010433860F2
S315020DC7F038681E20012101F0C6FB85F3108805E07D
S315020DC80044F64310C5F249200026E860304601B0D1
S315020DC810F0BD9C46012380F82AC000F0E7B89C467D
S315020DC820002380F82AC000F0E1B8B0B504460069CD
S315020DC8300025C5712168204600F016F894F82600E9
S315020DC840216984F82800A069B322C4E907500020A3
S315020DC85084F82C5084F82A50CA71B0BD0346416043
S315020DC86000201A727047D4D4F0B5026900231370F2
S315020DC870026940231370026913785B06FCD5C02347
S315020DC880137002680369526A082512794EF2001C6A
S315020DC89042F0E0021A7402680369526ACEF2000C83
S315020DC8A0D27841F68C0E42F0E0025A7402680369A0
S315020DC8B0526AC2F2182E927862F306159D700268BC
S315020DC8C00369526A15785278013DB5FA85F56D09F7
S315020DC8D045EA420242F00402DA70026844F2402549
S315020DC8E052680369C0F20F05AA424FF0770208BFDC
S315020DC8F06FF008025A710269002393710269B3231C
S315020DC900D3714A7B91F9116013010CF5407293555F
S315020DC9104CF200334EF82600C4F2000353F82640BB
S315020DC92006F01F0524F4803443F8264053F82640BA
S315020DC930012404FA05F70CF5C0757609BFF35F8F6E
S315020DC94045F826704CF826704E7B91F90F7036011C
S315020DC950D6554EF8270053F8276026F4803643F84D
S315020DC960276053F8276007F01F0604FA06F67F09BB
S315020DC970BFF35F8F45F827604CF827604E7B91F920
S315020DC98010703601D6554EF8270053F8276026F457
S315020DC990803643F8276053F8276007F01F0604FA1E
S315020DC9A006F67F09BFF35F8F45F827604CF82760BF
S315020DC9B04E7B91F90E10360156544EF8210053F85E
S315020DC9C0212022F4803243F8212053F8212001F050
S315020DC9D01F0204FA02F24909BFF35F8F45F82120BF
S315020DC9E04CF8212000699F210170F0BD90F808C016
S315020DC9F0C0E90512BCF1010F08D101794FF4807C13
S315020DCA0043EA4101A0F825C080F8241010B581B083
S315020DCA104EF2200180F82930C4F201010968009115
S315020DCA20009901F00F210091DDF800E0DDF800C05C
S315020DCA3001690B7C90F82C409CB9CEF30322A2EB34
S315020DCA401C6203FA02F2042A06D3920891F9013006
S315020DCA50002B03D5013AF9D108216CE00022CA71E7
S315020DCA60826990F82630002180F82810C0E9072146
S315020DCA7080F8273080F82B1080F82D1080F82E10B4
S315020DCA8080F82F1080F830100168D0F810C0496A6E
S315020DCA900B784C78013BB3FA83F34A795B0991F82B
S315020DCAA006E043EA440343EA021242EACE1242F098
S315020DCAB004028CF803200269137943F010031371F3
S315020DCAC00269137903F0F70313710269137903F0FF
S315020DCAD0EF0313710269C979137903F07F0343EAF0
S315020DCAE0C111117101694A7942F001024A71016857
S315020DCAF091F90F1000290BD401F01F02012303FA3D
S315020DCB0002F24EF200134909CEF2000343F8212038
S315020DCB1001694A7A02F0F3024A720169BF22CA71A9
S315020DCB2090F82C1019B1002180F82C1003E0006941
S315020DCB30022141700021084601B010BD10B582B028
S315020DCB40EFF303804FF0704101EB00604CF20032BF
S315020DCB508015C4F20002835823F480338350805823
S315020DCB60EFF3038001EB006041F68C018015C2F2F2
S315020DCB7018210C5894F82D0038B194F82E0001287E
S315020DCB804DD1002084F82E0080E0A069022804D839
S315020DCB902069017941F040010171E06901280ED148
S315020DCBA02069017941F0100101712069017941F085
S315020DCBB0080101712069017901F0EF010171206807
S315020DCBC08269D2B1216994F82930012B15D1A36955
S315020DCBD0042B12D3D2F808C01068DCF808C06269BB
S315020DCBE0033B13319BB2E047A26903212068033A46
S315020DCBF0C4E90712012184F82E10406AC079012872
S315020DCC0003D12046052100F043FA2069C07C8DF838
S315020DCC1007009DF80700012084F82D0036E0E06933
S315020DCC20A0B32168496AC979012904D12046052193
S315020DCC3000F02EFAE06901282AD0022806D0032830
S315020DCC4013D12069017941F040010DE02069017986
S315020DCC5041F0100101712069017941F0080101715C
S315020DCC602069017901F0EF010171D4E90401C07C5B
S315020DCC70226A8854D4E9071001300139C4E9071034
S315020DCC8004D12069017901F0BF01017102B010BD15
S315020DCC9094F82A00012831D120684EF2801390F9BA
S315020DCCA00F10012001F01F0200FA02F24909CEF21D
S315020DCCB0000343F82120BFF34F8FBFF36F8F216916
S315020DCCC0CA7942F08002CA7121690A7942F01002CC
S315020DCCD00A7121690A7902F0F7020A7121690A7944
S315020DCCE002F0EF020A71216904224A7021694A791A
S315020DCCF002F0FE024A7184F82C00B6E72069417AE9
S315020DCD0001F0F7014172206908214170ADE7D4D4D3
S315020DCD10B0B5EFF303804FF070414CF2003501EBE5
S315020DCD200060C4F200058015425922F48032425148
S315020DCD304059EFF3038001EB006041F68C0180153B
S315020DCD40C2F218210C5894F82700A0B394F82610B5
S315020DCD50032907D194F82810022903D194F830102B
S315020DCD60002950D094F824502269012817D1206841
S315020DCD704069A0B194F8291089B9A16979B1816880
S315020DCD800068D1F808C06169A38B1232E047A16928
S315020DCD9000202269C4E90701012084F82F00957449
S315020DCDA094F8280094F82710013084F82800481EBC
S315020DCDB084F82700B0BD94F8290020BB2068406A8C
S315020DCDC0C079012808D194F82B0028B9206A18B128
S315020DCDD02046052100F05CF994F82F00012804D1B4
S315020DCDE0002084F82F00E0690CE0E06960B1D4E917
S315020DCDF00401226A895C8174D4E90710421C481E1B
S315020DCE00C4E9070200B1B0BD2069C17901F07F0105
S315020DCE10C17120696FF0BE0190F90720B2F1FF3F93
S315020DCE2003DC002901F10101F6D1206890F9100009
S315020DCE3055F8201021F4803145F8201055F82000C0
S315020DCE40206890F9100000280BD400F01F01012272
S315020DCE5002FA01F14EF280224009CEF2000242F8A8
S315020DCE6020102069C17941F04001C171B0BDD4D401
S315020DCE7010B5EFF303804FF0704101EB006041F600
S315020DCE808C018015C2F218210C582068406AC079AF
S315020DCE90012803D12046052100F0FAF894F829005D
S315020DCEA0012806D194F82700012802D194F8300002
S315020DCEB080B3E06970BB94F82A00012822D120685C
S315020DCEC0012290F90F004EF2801300F01F0102FAB3
S315020DCED001F14009CEF2000343F82010BFF34F8F44
S315020DCEE0BFF36F8F2069C17941F08001C17120694D
S315020DCEF0042141702069417901F0FE01417184F8E6
S315020DCF002C2007E02069417A01F0F7014172206970
S315020DCF10082141702069C17901F0BF01C1712069F3
S315020DCF206FF0BE01C279520603D5002901F1010146
S315020DCF30F8D1EFF303804FF0704101EB00604CF234
S315020DCF4000318015C4F20001425822F4803242505B
S315020DCF50405810BDB0B5EFF303804FF0704101EBB1
S315020DCF60006041F68C018015C2F218210C58216918
S315020DCF704A7A4B7A02F01F0003F0E0030F2802F003
S315020DCF8003024B7201D83AB924E021694B785B064C
S315020DCF9058BF42F00102D2B1012084F82B0020695C
S315020DCFA00025C57121682046FFF75EFC94F8260020
S315020DCFB0216984F82800A069C4E90750B32084F8D2
S315020DCFC02C5084F82A50C871204601214DE04A782A
S315020DCFD0520611D4010706D494F82C20012A31D118
S315020DCFE010F004022ED0E06910B994F82B0098B314
S315020DCFF0002919D4012036E0012084F82B000820DF
S315020DD000487020682169406A02784379807942EA3C
S315020DD010031242EAC01040F00200C870206941793D
S315020DD02041F00101417122E094F82600002184F8B5
S315020DD0302800A069C4E90710012084F82C1084F891
S315020DD0402A100DE0400712D52068406AC0790128E2
S315020DD0500DD12046042108E094F8290080F0030042
S315020DD0602169B322CA71C1B2204600F011F8EFF35D
S315020DD07003804FF0704101EB00604CF200318015D8
S315020DD080C4F20001425822F4803242504058B0BDDB
S315020DD090B0B582B0856B0446002D1ABFD5E90002E4
S315020DD0A0CDE900026D46E06B297128602068416961
S315020DD0B039B194F8292022B98A6808681169884716
S315020DD0C02068806938B194F82910012903D1816845
S315020DD0D0006809698847616B28468847A06B18B1B5
S315020DD0E0DDE90012C0E90012002084F82B0002B01F
S315020DD0F0B0BDF0B591F902304CF2003C0371C4F2A9
S315020DD100000C4FF0000E5CF823704CF823E08B6890
S315020DD1103C248360CB680246C3600B7804EA930411
S315020DD12043712344C324C0F2400464F31F2349F61A
S315020DD1300054CFF6FF7403F804E04D790E79C878E2
S315020DD140ED0145EA06163043185592F904004CF8DE
S315020DD150207092F9040000280CD449784EF200434F
S315020DD1600901CEF20003C15441F68C01C2F2182117
S315020DD17041F8202044F25531C0F2490100201160D8
S315020DD180F0BD90F904004CF20031C4F2000151F8E1
S315020DD190202022F4803241F8202051F8201000F090
S315020DD1A01F01012202FA01F14EF200124009CEF2DE
S315020DD1B0000202EB8003BFF35F8FC3F8801142F8C2
S315020DD1C020100020704790F90400012200F01F0183
S315020DD1D002FA01F14EF280124009CEF2000242F835
S315020DD1E02010BFF34F8F0020BFF36F8F704703469A
S315020DD1F00020C3E902127047014690F90400002887
S315020DD20018D400F01F02012303FA02F24EF2801324
S315020DD2104009CEF2000343F82020BFF34F8FBFF330
S315020DD2206F8F91F9040041F68C02C2F21822002387
S315020DD23042F82030002200200A60704770B582B095
S315020DD2404FF07041EFF3038001EB006141F68C0262
S315020DD2508815C2F2182210583C2342794CF200343A
S315020DD26003EA92031A44C323C0F2400363F31F2257
S315020DD27049F60053CFF6FF73D25CC4F2000402F0F6
S315020DD2800306032E4FEA216507D054F8251021F423
S315020DD290803144F8251054F82510816829B1427958
S315020DD2A0C068CDE9000268468847032E07D154F8B7
S315020DD2B0250020F4803044F8250054F8250002B0EC
S315020DD2C070BDD4D42DE9F04F81B00D46097C0122F3
S315020DD2D004460D294FF0000002FA01F188BF012024
S315020DD2E0E16065602074287C42F20001C4F23201CD
S315020DD2F001EB0020A060686943F610796061A869A8
S315020DD3004FF00008C4F23209C4E90680D5F81CB004
S315020DD310C9F80020EFF3108782F31088287C4FF0AE
S315020DD320004A011F062943F210012AFA00F0C4F23F
S315020DD33020016FEA00000A6838BF6FF000601040E6
S315020DD340086008681E20012100F01DFE87F3108873
S315020DD350207B00070DD0EFF31080012181F3108899
S315020DD360A189B9F8F22022EA0101A9F8F21080F397
S315020DD3701088A0684FF425410160A068C0F82C8082
S315020DD380A068C0F83C80A068C0F848802978287A41
S315020DD3900329A1684FEAC0506A6808BF00F58030BC
S315020DD3A0C862A068C0F810A0A068C0F814A0A06852
S315020DD3B0C0F818A0A068C0F82480A068C0F828801C
S315020DD3C0DBF81800A168C861DBF81C00A1680862C9
S315020DD3D0A068511E8166A06841662978DBF85090D7
S315020DD3E0012938D029B969684FF0FF3202EB510194
S315020DD3F008E0A268E968936E03F1010329B1994227
S315020DD40003D201394FF0000827E099424FF000038D
S315020DD41028BF0123526B6768B1FA81FC02F0100135
S315020DD42002F00C023F78043AB2FA82F25209032F45
S315020DD43040F200084FF0010E88BF8EEA1112002A43
S315020DD440C0F2033808BF4FEA5C13002B1CBF40F233
S315020DD4500008C0F202284FF0FF31A2685165A2689A
S315020DD46091652A78042A03D3A268D165A26811664A
S315020DD470DBF85010C9BB9BF80010012916D12A788A
S315020DD4809BF80110022A03D0032A03D1032205E0D9
S315020DD490092203E00922002908BF06220B0143EAED
S315020DD4A08111114441EA090040F480799BF802107A
S315020DD4B001291AD12A789BF80310022A04D0032ACD
S315020DD4C005D14FF4403208E04FF4102205E04FF437
S315020DD4D01022002908BF4FF4C0220B0543EA8151E1
S315020DD4E0114441EA090040F0807961680023C96957
S315020DD4F001F1300291F84870DF40FF070DD052F866
